{
	"test/Test.sol": {
		"MockAdmin": {
			"abi": [
				{
					"inputs": [],
					"stateMutability": "nonpayable",
					"type": "constructor"
				},
				{
					"inputs": [],
					"name": "check",
					"outputs": [
						{
							"internalType": "bool",
							"name": "",
							"type": "bool"
						}
					],
					"stateMutability": "pure",
					"type": "function"
				},
				{
					"inputs": [
						{
							"internalType": "contract BaseDeployer",
							"name": "deployer",
							"type": "address"
						},
						{
							"internalType": "bytes4",
							"name": "selector",
							"type": "bytes4"
						},
						{
							"internalType": "address",
							"name": "implementation",
							"type": "address"
						}
					],
					"name": "doDeploy",
					"outputs": [],
					"stateMutability": "nonpayable",
					"type": "function"
				}
			],
			"devdoc": {
				"kind": "dev",
				"methods": {},
				"version": 1
			},
			"evm": {
				"assembly": "    /* \"test/Test.sol\":867:1233  contract MockAdmin {... */\n  mstore(0x40, 0xa0)\n    /* \"test/Test.sol\":925:964  constructor() { creator = msg.sender; } */\n  callvalue\n  dup1\n  iszero\n  tag_1\n  jumpi\n  0x00\n  dup1\n  revert\ntag_1:\n  pop\n    /* \"test/Test.sol\":951:961  msg.sender */\n  caller\n    /* \"test/Test.sol\":941:961  creator = msg.sender */\n  0xffffffffffffffffffffffffffffffffffffffff\n  and\n  0x80\n  dup2\n  0xffffffffffffffffffffffffffffffffffffffff\n  and\n  dup2\n  mstore\n  pop\n  pop\n    /* \"test/Test.sol\":867:1233  contract MockAdmin {... */\n  mload(0x80)\n  codecopy(0x00, dataOffset(sub_0), dataSize(sub_0))\n  0x00\n  assignImmutable(\"0x813e891db9ebb5feedb432576f28db2295153153caaffe3a14678b71ee46fad1\")\n  return(0x00, dataSize(sub_0))\nstop\n\nsub_0: assembly {\n        /* \"test/Test.sol\":867:1233  contract MockAdmin {... */\n      mstore(0x40, 0x80)\n      callvalue\n      dup1\n      iszero\n      tag_1\n      jumpi\n      0x00\n      dup1\n      revert\n    tag_1:\n      pop\n      jumpi(tag_2, lt(calldatasize, 0x04))\n      shr(0xe0, calldataload(0x00))\n      dup1\n      0x919840ad\n      eq\n      tag_3\n      jumpi\n      dup1\n      0xcaca46f7\n      eq\n      tag_4\n      jumpi\n    tag_2:\n      0x00\n      dup1\n      revert\n        /* \"test/Test.sol\":1168:1230  function check() external pure returns (bool) { return true; } */\n    tag_3:\n      tag_5\n      tag_6\n      jump\t// in\n    tag_5:\n      mload(0x40)\n      tag_7\n      swap2\n      swap1\n      tag_8\n      jump\t// in\n    tag_7:\n      mload(0x40)\n      dup1\n      swap2\n      sub\n      swap1\n      return\n        /* \"test/Test.sol\":970:1162  function doDeploy(BaseDeployer deployer, bytes4 selector, address implementation) external {... */\n    tag_4:\n      tag_9\n      0x04\n      dup1\n      calldatasize\n      sub\n      dup2\n      add\n      swap1\n      tag_10\n      swap2\n      swap1\n      tag_11\n      jump\t// in\n    tag_10:\n      tag_12\n      jump\t// in\n    tag_9:\n      stop\n        /* \"test/Test.sol\":1168:1230  function check() external pure returns (bool) { return true; } */\n    tag_6:\n        /* \"test/Test.sol\":1208:1212  bool */\n      0x00\n        /* \"test/Test.sol\":1223:1227  true */\n      0x01\n        /* \"test/Test.sol\":1216:1227  return true */\n      swap1\n      pop\n        /* \"test/Test.sol\":1168:1230  function check() external pure returns (bool) { return true; } */\n      swap1\n      jump\t// out\n        /* \"test/Test.sol\":970:1162  function doDeploy(BaseDeployer deployer, bytes4 selector, address implementation) external {... */\n    tag_12:\n        /* \"test/Test.sol\":1094:1101  creator */\n      immutable(\"0x813e891db9ebb5feedb432576f28db2295153153caaffe3a14678b71ee46fad1\")\n        /* \"test/Test.sol\":1080:1101  msg.sender == creator */\n      0xffffffffffffffffffffffffffffffffffffffff\n      and\n        /* \"test/Test.sol\":1080:1090  msg.sender */\n      caller\n        /* \"test/Test.sol\":1080:1101  msg.sender == creator */\n      0xffffffffffffffffffffffffffffffffffffffff\n      and\n      eq\n        /* \"test/Test.sol\":1072:1102  require(msg.sender == creator) */\n      tag_15\n      jumpi\n      0x00\n      dup1\n      revert\n    tag_15:\n        /* \"test/Test.sol\":1113:1121  deployer */\n      dup3\n        /* \"test/Test.sol\":1113:1128  deployer.deploy */\n      0xffffffffffffffffffffffffffffffffffffffff\n      and\n      0x997b81c9\n        /* \"test/Test.sol\":1129:1137  selector */\n      dup4\n        /* \"test/Test.sol\":1139:1153  implementation */\n      dup4\n        /* \"test/Test.sol\":1113:1154  deployer.deploy(selector, implementation) */\n      mload(0x40)\n      dup4\n      0xffffffff\n      and\n      0xe0\n      shl\n      dup2\n      mstore\n      0x04\n      add\n      tag_16\n      swap3\n      swap2\n      swap1\n      tag_17\n      jump\t// in\n    tag_16:\n      0x20\n      mload(0x40)\n      dup1\n      dup4\n      sub\n      dup2\n      0x00\n      dup8\n      gas\n      call\n      iszero\n      dup1\n      iszero\n      tag_19\n      jumpi\n      returndatasize\n      0x00\n      dup1\n      returndatacopy\n      revert(0x00, returndatasize)\n    tag_19:\n      pop\n      pop\n      pop\n      pop\n      mload(0x40)\n      returndatasize\n      not(0x1f)\n      0x1f\n      dup3\n      add\n      and\n      dup3\n      add\n      dup1\n      0x40\n      mstore\n      pop\n      dup2\n      add\n      swap1\n      tag_20\n      swap2\n      swap1\n      tag_21\n      jump\t// in\n    tag_20:\n      pop\n        /* \"test/Test.sol\":970:1162  function doDeploy(BaseDeployer deployer, bytes4 selector, address implementation) external {... */\n      pop\n      pop\n      pop\n      jump\t// out\n        /* \"#utility.yul\":7:97   */\n    tag_22:\n        /* \"#utility.yul\":41:48   */\n      0x00\n        /* \"#utility.yul\":84:89   */\n      dup2\n        /* \"#utility.yul\":77:90   */\n      iszero\n        /* \"#utility.yul\":70:91   */\n      iszero\n        /* \"#utility.yul\":59:91   */\n      swap1\n      pop\n        /* \"#utility.yul\":7:97   */\n      swap2\n      swap1\n      pop\n      jump\t// out\n        /* \"#utility.yul\":103:212   */\n    tag_23:\n        /* \"#utility.yul\":184:205   */\n      tag_43\n        /* \"#utility.yul\":199:204   */\n      dup2\n        /* \"#utility.yul\":184:205   */\n      tag_22\n      jump\t// in\n    tag_43:\n        /* \"#utility.yul\":179:182   */\n      dup3\n        /* \"#utility.yul\":172:206   */\n      mstore\n        /* \"#utility.yul\":103:212   */\n      pop\n      pop\n      jump\t// out\n        /* \"#utility.yul\":218:428   */\n    tag_8:\n        /* \"#utility.yul\":305:309   */\n      0x00\n        /* \"#utility.yul\":343:345   */\n      0x20\n        /* \"#utility.yul\":332:341   */\n      dup3\n        /* \"#utility.yul\":328:346   */\n      add\n        /* \"#utility.yul\":320:346   */\n      swap1\n      pop\n        /* \"#utility.yul\":356:421   */\n      tag_45\n        /* \"#utility.yul\":418:419   */\n      0x00\n        /* \"#utility.yul\":407:416   */\n      dup4\n        /* \"#utility.yul\":403:420   */\n      add\n        /* \"#utility.yul\":394:400   */\n      dup5\n        /* \"#utility.yul\":356:421   */\n      tag_23\n      jump\t// in\n    tag_45:\n        /* \"#utility.yul\":218:428   */\n      swap3\n      swap2\n      pop\n      pop\n      jump\t// out\n        /* \"#utility.yul\":515:632   */\n    tag_25:\n        /* \"#utility.yul\":624:625   */\n      0x00\n        /* \"#utility.yul\":621:622   */\n      dup1\n        /* \"#utility.yul\":614:626   */\n      revert\n        /* \"#utility.yul\":761:887   */\n    tag_27:\n        /* \"#utility.yul\":798:805   */\n      0x00\n        /* \"#utility.yul\":838:880   */\n      0xffffffffffffffffffffffffffffffffffffffff\n        /* \"#utility.yul\":831:836   */\n      dup3\n        /* \"#utility.yul\":827:881   */\n      and\n        /* \"#utility.yul\":816:881   */\n      swap1\n      pop\n        /* \"#utility.yul\":761:887   */\n      swap2\n      swap1\n      pop\n      jump\t// out\n        /* \"#utility.yul\":893:989   */\n    tag_28:\n        /* \"#utility.yul\":930:937   */\n      0x00\n        /* \"#utility.yul\":959:983   */\n      tag_51\n        /* \"#utility.yul\":977:982   */\n      dup3\n        /* \"#utility.yul\":959:983   */\n      tag_27\n      jump\t// in\n    tag_51:\n        /* \"#utility.yul\":948:983   */\n      swap1\n      pop\n        /* \"#utility.yul\":893:989   */\n      swap2\n      swap1\n      pop\n      jump\t// out\n        /* \"#utility.yul\":995:1110   */\n    tag_29:\n        /* \"#utility.yul\":1051:1058   */\n      0x00\n        /* \"#utility.yul\":1080:1104   */\n      tag_53\n        /* \"#utility.yul\":1098:1103   */\n      dup3\n        /* \"#utility.yul\":1080:1104   */\n      tag_28\n      jump\t// in\n    tag_53:\n        /* \"#utility.yul\":1069:1104   */\n      swap1\n      pop\n        /* \"#utility.yul\":995:1110   */\n      swap2\n      swap1\n      pop\n      jump\t// out\n        /* \"#utility.yul\":1116:1276   */\n    tag_30:\n        /* \"#utility.yul\":1208:1251   */\n      tag_55\n        /* \"#utility.yul\":1245:1250   */\n      dup2\n        /* \"#utility.yul\":1208:1251   */\n      tag_29\n      jump\t// in\n    tag_55:\n        /* \"#utility.yul\":1201:1206   */\n      dup2\n        /* \"#utility.yul\":1198:1252   */\n      eq\n        /* \"#utility.yul\":1188:1270   */\n      tag_56\n      jumpi\n        /* \"#utility.yul\":1266:1267   */\n      0x00\n        /* \"#utility.yul\":1263:1264   */\n      dup1\n        /* \"#utility.yul\":1256:1268   */\n      revert\n        /* \"#utility.yul\":1188:1270   */\n    tag_56:\n        /* \"#utility.yul\":1116:1276   */\n      pop\n      jump\t// out\n        /* \"#utility.yul\":1282:1459   */\n    tag_31:\n        /* \"#utility.yul\":1347:1352   */\n      0x00\n        /* \"#utility.yul\":1385:1391   */\n      dup2\n        /* \"#utility.yul\":1372:1392   */\n      calldataload\n        /* \"#utility.yul\":1363:1392   */\n      swap1\n      pop\n        /* \"#utility.yul\":1401:1453   */\n      tag_58\n        /* \"#utility.yul\":1447:1452   */\n      dup2\n        /* \"#utility.yul\":1401:1453   */\n      tag_30\n      jump\t// in\n    tag_58:\n        /* \"#utility.yul\":1282:1459   */\n      swap3\n      swap2\n      pop\n      pop\n      jump\t// out\n        /* \"#utility.yul\":1465:1614   */\n    tag_32:\n        /* \"#utility.yul\":1501:1508   */\n      0x00\n        /* \"#utility.yul\":1541:1607   */\n      0xffffffff00000000000000000000000000000000000000000000000000000000\n        /* \"#utility.yul\":1534:1539   */\n      dup3\n        /* \"#utility.yul\":1530:1608   */\n      and\n        /* \"#utility.yul\":1519:1608   */\n      swap1\n      pop\n        /* \"#utility.yul\":1465:1614   */\n      swap2\n      swap1\n      pop\n      jump\t// out\n        /* \"#utility.yul\":1620:1740   */\n    tag_33:\n        /* \"#utility.yul\":1692:1715   */\n      tag_61\n        /* \"#utility.yul\":1709:1714   */\n      dup2\n        /* \"#utility.yul\":1692:1715   */\n      tag_32\n      jump\t// in\n    tag_61:\n        /* \"#utility.yul\":1685:1690   */\n      dup2\n        /* \"#utility.yul\":1682:1716   */\n      eq\n        /* \"#utility.yul\":1672:1734   */\n      tag_62\n      jumpi\n        /* \"#utility.yul\":1730:1731   */\n      0x00\n        /* \"#utility.yul\":1727:1728   */\n      dup1\n        /* \"#utility.yul\":1720:1732   */\n      revert\n        /* \"#utility.yul\":1672:1734   */\n    tag_62:\n        /* \"#utility.yul\":1620:1740   */\n      pop\n      jump\t// out\n        /* \"#utility.yul\":1746:1883   */\n    tag_34:\n        /* \"#utility.yul\":1791:1796   */\n      0x00\n        /* \"#utility.yul\":1829:1835   */\n      dup2\n        /* \"#utility.yul\":1816:1836   */\n      calldataload\n        /* \"#utility.yul\":1807:1836   */\n      swap1\n      pop\n        /* \"#utility.yul\":1845:1877   */\n      tag_64\n        /* \"#utility.yul\":1871:1876   */\n      dup2\n        /* \"#utility.yul\":1845:1877   */\n      tag_33\n      jump\t// in\n    tag_64:\n        /* \"#utility.yul\":1746:1883   */\n      swap3\n      swap2\n      pop\n      pop\n      jump\t// out\n        /* \"#utility.yul\":1889:2011   */\n    tag_35:\n        /* \"#utility.yul\":1962:1986   */\n      tag_66\n        /* \"#utility.yul\":1980:1985   */\n      dup2\n        /* \"#utility.yul\":1962:1986   */\n      tag_28\n      jump\t// in\n    tag_66:\n        /* \"#utility.yul\":1955:1960   */\n      dup2\n        /* \"#utility.yul\":1952:1987   */\n      eq\n        /* \"#utility.yul\":1942:2005   */\n      tag_67\n      jumpi\n        /* \"#utility.yul\":2001:2002   */\n      0x00\n        /* \"#utility.yul\":1998:1999   */\n      dup1\n        /* \"#utility.yul\":1991:2003   */\n      revert\n        /* \"#utility.yul\":1942:2005   */\n    tag_67:\n        /* \"#utility.yul\":1889:2011   */\n      pop\n      jump\t// out\n        /* \"#utility.yul\":2017:2156   */\n    tag_36:\n        /* \"#utility.yul\":2063:2068   */\n      0x00\n        /* \"#utility.yul\":2101:2107   */\n      dup2\n        /* \"#utility.yul\":2088:2108   */\n      calldataload\n        /* \"#utility.yul\":2079:2108   */\n      swap1\n      pop\n        /* \"#utility.yul\":2117:2150   */\n      tag_69\n        /* \"#utility.yul\":2144:2149   */\n      dup2\n        /* \"#utility.yul\":2117:2150   */\n      tag_35\n      jump\t// in\n    tag_69:\n        /* \"#utility.yul\":2017:2156   */\n      swap3\n      swap2\n      pop\n      pop\n      jump\t// out\n        /* \"#utility.yul\":2162:2817   */\n    tag_11:\n        /* \"#utility.yul\":2257:2263   */\n      0x00\n        /* \"#utility.yul\":2265:2271   */\n      dup1\n        /* \"#utility.yul\":2273:2279   */\n      0x00\n        /* \"#utility.yul\":2322:2324   */\n      0x60\n        /* \"#utility.yul\":2310:2319   */\n      dup5\n        /* \"#utility.yul\":2301:2308   */\n      dup7\n        /* \"#utility.yul\":2297:2320   */\n      sub\n        /* \"#utility.yul\":2293:2325   */\n      slt\n        /* \"#utility.yul\":2290:2409   */\n      iszero\n      tag_71\n      jumpi\n        /* \"#utility.yul\":2328:2407   */\n      tag_72\n      tag_25\n      jump\t// in\n    tag_72:\n        /* \"#utility.yul\":2290:2409   */\n    tag_71:\n        /* \"#utility.yul\":2448:2449   */\n      0x00\n        /* \"#utility.yul\":2473:2545   */\n      tag_73\n        /* \"#utility.yul\":2537:2544   */\n      dup7\n        /* \"#utility.yul\":2528:2534   */\n      dup3\n        /* \"#utility.yul\":2517:2526   */\n      dup8\n        /* \"#utility.yul\":2513:2535   */\n      add\n        /* \"#utility.yul\":2473:2545   */\n      tag_31\n      jump\t// in\n    tag_73:\n        /* \"#utility.yul\":2463:2545   */\n      swap4\n      pop\n        /* \"#utility.yul\":2419:2555   */\n      pop\n        /* \"#utility.yul\":2594:2596   */\n      0x20\n        /* \"#utility.yul\":2620:2672   */\n      tag_74\n        /* \"#utility.yul\":2664:2671   */\n      dup7\n        /* \"#utility.yul\":2655:2661   */\n      dup3\n        /* \"#utility.yul\":2644:2653   */\n      dup8\n        /* \"#utility.yul\":2640:2662   */\n      add\n        /* \"#utility.yul\":2620:2672   */\n      tag_34\n      jump\t// in\n    tag_74:\n        /* \"#utility.yul\":2610:2672   */\n      swap3\n      pop\n        /* \"#utility.yul\":2565:2682   */\n      pop\n        /* \"#utility.yul\":2721:2723   */\n      0x40\n        /* \"#utility.yul\":2747:2800   */\n      tag_75\n        /* \"#utility.yul\":2792:2799   */\n      dup7\n        /* \"#utility.yul\":2783:2789   */\n      dup3\n        /* \"#utility.yul\":2772:2781   */\n      dup8\n        /* \"#utility.yul\":2768:2790   */\n      add\n        /* \"#utility.yul\":2747:2800   */\n      tag_36\n      jump\t// in\n    tag_75:\n        /* \"#utility.yul\":2737:2800   */\n      swap2\n      pop\n        /* \"#utility.yul\":2692:2810   */\n      pop\n        /* \"#utility.yul\":2162:2817   */\n      swap3\n      pop\n      swap3\n      pop\n      swap3\n      jump\t// out\n        /* \"#utility.yul\":2823:2938   */\n    tag_37:\n        /* \"#utility.yul\":2908:2931   */\n      tag_77\n        /* \"#utility.yul\":2925:2930   */\n      dup2\n        /* \"#utility.yul\":2908:2931   */\n      tag_32\n      jump\t// in\n    tag_77:\n        /* \"#utility.yul\":2903:2906   */\n      dup3\n        /* \"#utility.yul\":2896:2932   */\n      mstore\n        /* \"#utility.yul\":2823:2938   */\n      pop\n      pop\n      jump\t// out\n        /* \"#utility.yul\":2944:3062   */\n    tag_38:\n        /* \"#utility.yul\":3031:3055   */\n      tag_79\n        /* \"#utility.yul\":3049:3054   */\n      dup2\n        /* \"#utility.yul\":3031:3055   */\n      tag_28\n      jump\t// in\n    tag_79:\n        /* \"#utility.yul\":3026:3029   */\n      dup3\n        /* \"#utility.yul\":3019:3056   */\n      mstore\n        /* \"#utility.yul\":2944:3062   */\n      pop\n      pop\n      jump\t// out\n        /* \"#utility.yul\":3068:3396   */\n    tag_17:\n        /* \"#utility.yul\":3187:3191   */\n      0x00\n        /* \"#utility.yul\":3225:3227   */\n      0x40\n        /* \"#utility.yul\":3214:3223   */\n      dup3\n        /* \"#utility.yul\":3210:3228   */\n      add\n        /* \"#utility.yul\":3202:3228   */\n      swap1\n      pop\n        /* \"#utility.yul\":3238:3307   */\n      tag_81\n        /* \"#utility.yul\":3304:3305   */\n      0x00\n        /* \"#utility.yul\":3293:3302   */\n      dup4\n        /* \"#utility.yul\":3289:3306   */\n      add\n        /* \"#utility.yul\":3280:3286   */\n      dup6\n        /* \"#utility.yul\":3238:3307   */\n      tag_37\n      jump\t// in\n    tag_81:\n        /* \"#utility.yul\":3317:3389   */\n      tag_82\n        /* \"#utility.yul\":3385:3387   */\n      0x20\n        /* \"#utility.yul\":3374:3383   */\n      dup4\n        /* \"#utility.yul\":3370:3388   */\n      add\n        /* \"#utility.yul\":3361:3367   */\n      dup5\n        /* \"#utility.yul\":3317:3389   */\n      tag_38\n      jump\t// in\n    tag_82:\n        /* \"#utility.yul\":3068:3396   */\n      swap4\n      swap3\n      pop\n      pop\n      pop\n      jump\t// out\n        /* \"#utility.yul\":3402:3545   */\n    tag_39:\n        /* \"#utility.yul\":3459:3464   */\n      0x00\n        /* \"#utility.yul\":3490:3496   */\n      dup2\n        /* \"#utility.yul\":3484:3497   */\n      mload\n        /* \"#utility.yul\":3475:3497   */\n      swap1\n      pop\n        /* \"#utility.yul\":3506:3539   */\n      tag_84\n        /* \"#utility.yul\":3533:3538   */\n      dup2\n        /* \"#utility.yul\":3506:3539   */\n      tag_35\n      jump\t// in\n    tag_84:\n        /* \"#utility.yul\":3402:3545   */\n      swap3\n      swap2\n      pop\n      pop\n      jump\t// out\n        /* \"#utility.yul\":3551:3902   */\n    tag_21:\n        /* \"#utility.yul\":3621:3627   */\n      0x00\n        /* \"#utility.yul\":3670:3672   */\n      0x20\n        /* \"#utility.yul\":3658:3667   */\n      dup3\n        /* \"#utility.yul\":3649:3656   */\n      dup5\n        /* \"#utility.yul\":3645:3668   */\n      sub\n        /* \"#utility.yul\":3641:3673   */\n      slt\n        /* \"#utility.yul\":3638:3757   */\n      iszero\n      tag_86\n      jumpi\n        /* \"#utility.yul\":3676:3755   */\n      tag_87\n      tag_25\n      jump\t// in\n    tag_87:\n        /* \"#utility.yul\":3638:3757   */\n    tag_86:\n        /* \"#utility.yul\":3796:3797   */\n      0x00\n        /* \"#utility.yul\":3821:3885   */\n      tag_88\n        /* \"#utility.yul\":3877:3884   */\n      dup5\n        /* \"#utility.yul\":3868:3874   */\n      dup3\n        /* \"#utility.yul\":3857:3866   */\n      dup6\n        /* \"#utility.yul\":3853:3875   */\n      add\n        /* \"#utility.yul\":3821:3885   */\n      tag_39\n      jump\t// in\n    tag_88:\n        /* \"#utility.yul\":3811:3885   */\n      swap2\n      pop\n        /* \"#utility.yul\":3767:3895   */\n      pop\n        /* \"#utility.yul\":3551:3902   */\n      swap3\n      swap2\n      pop\n      pop\n      jump\t// out\n\n    auxdata: 0xa2646970667358221220f952e837654061db92d563b031deae9a82a5802466c2515b0ecf9002ff1ff58964736f6c63430008120033\n}\n",
				"bytecode": {
					"linkReferences": {},
					"object": "60a060405234801561001057600080fd5b503373ffffffffffffffffffffffffffffffffffffffff1660808173ffffffffffffffffffffffffffffffffffffffff168152505060805161039b61005f60003960006080015261039b6000f3fe608060405234801561001057600080fd5b50600436106100365760003560e01c8063919840ad1461003b578063caca46f714610059575b600080fd5b610043610075565b6040516100509190610175565b60405180910390f35b610073600480360381019061006e9190610289565b61007e565b005b60006001905090565b7f000000000000000000000000000000000000000000000000000000000000000073ffffffffffffffffffffffffffffffffffffffff163373ffffffffffffffffffffffffffffffffffffffff16146100d657600080fd5b8273ffffffffffffffffffffffffffffffffffffffff1663997b81c983836040518363ffffffff1660e01b81526004016101119291906102fa565b6020604051808303816000875af1158015610130573d6000803e3d6000fd5b505050506040513d601f19601f820116820180604052508101906101549190610338565b50505050565b60008115159050919050565b61016f8161015a565b82525050565b600060208201905061018a6000830184610166565b92915050565b600080fd5b600073ffffffffffffffffffffffffffffffffffffffff82169050919050565b60006101c082610195565b9050919050565b60006101d2826101b5565b9050919050565b6101e2816101c7565b81146101ed57600080fd5b50565b6000813590506101ff816101d9565b92915050565b60007fffffffff0000000000000000000000000000000000000000000000000000000082169050919050565b61023a81610205565b811461024557600080fd5b50565b60008135905061025781610231565b92915050565b610266816101b5565b811461027157600080fd5b50565b6000813590506102838161025d565b92915050565b6000806000606084860312156102a2576102a1610190565b5b60006102b0868287016101f0565b93505060206102c186828701610248565b92505060406102d286828701610274565b9150509250925092565b6102e581610205565b82525050565b6102f4816101b5565b82525050565b600060408201905061030f60008301856102dc565b61031c60208301846102eb565b9392505050565b6000815190506103328161025d565b92915050565b60006020828403121561034e5761034d610190565b5b600061035c84828501610323565b9150509291505056fea2646970667358221220f952e837654061db92d563b031deae9a82a5802466c2515b0ecf9002ff1ff58964736f6c63430008120033",
					"opcodes": "PUSH1 0xA0 PUSH1 0x40 MSTORE CALLVALUE DUP1 ISZERO PUSH2 0x10 JUMPI PUSH1 0x0 DUP1 REVERT JUMPDEST POP CALLER PUSH20 0xFFFFFFFFFFFFFFFFFFFFFFFFFFFFFFFFFFFFFFFF AND PUSH1 0x80 DUP2 PUSH20 0xFFFFFFFFFFFFFFFFFFFFFFFFFFFFFFFFFFFFFFFF AND DUP2 MSTORE POP POP PUSH1 0x80 MLOAD PUSH2 0x39B PUSH2 0x5F PUSH1 0x0 CODECOPY PUSH1 0x0 PUSH1 0x80 ADD MSTORE PUSH2 0x39B PUSH1 0x0 RETURN INVALID PUSH1 0x80 PUSH1 0x40 MSTORE CALLVALUE DUP1 ISZERO PUSH2 0x10 JUMPI PUSH1 0x0 DUP1 REVERT JUMPDEST POP PUSH1 0x4 CALLDATASIZE LT PUSH2 0x36 JUMPI PUSH1 0x0 CALLDATALOAD PUSH1 0xE0 SHR DUP1 PUSH4 0x919840AD EQ PUSH2 0x3B JUMPI DUP1 PUSH4 0xCACA46F7 EQ PUSH2 0x59 JUMPI JUMPDEST PUSH1 0x0 DUP1 REVERT JUMPDEST PUSH2 0x43 PUSH2 0x75 JUMP JUMPDEST PUSH1 0x40 MLOAD PUSH2 0x50 SWAP2 SWAP1 PUSH2 0x175 JUMP JUMPDEST PUSH1 0x40 MLOAD DUP1 SWAP2 SUB SWAP1 RETURN JUMPDEST PUSH2 0x73 PUSH1 0x4 DUP1 CALLDATASIZE SUB DUP2 ADD SWAP1 PUSH2 0x6E SWAP2 SWAP1 PUSH2 0x289 JUMP JUMPDEST PUSH2 0x7E JUMP JUMPDEST STOP JUMPDEST PUSH1 0x0 PUSH1 0x1 SWAP1 POP SWAP1 JUMP JUMPDEST PUSH32 0x0 PUSH20 0xFFFFFFFFFFFFFFFFFFFFFFFFFFFFFFFFFFFFFFFF AND CALLER PUSH20 0xFFFFFFFFFFFFFFFFFFFFFFFFFFFFFFFFFFFFFFFF AND EQ PUSH2 0xD6 JUMPI PUSH1 0x0 DUP1 REVERT JUMPDEST DUP3 PUSH20 0xFFFFFFFFFFFFFFFFFFFFFFFFFFFFFFFFFFFFFFFF AND PUSH4 0x997B81C9 DUP4 DUP4 PUSH1 0x40 MLOAD DUP4 PUSH4 0xFFFFFFFF AND PUSH1 0xE0 SHL DUP2 MSTORE PUSH1 0x4 ADD PUSH2 0x111 SWAP3 SWAP2 SWAP1 PUSH2 0x2FA JUMP JUMPDEST PUSH1 0x20 PUSH1 0x40 MLOAD DUP1 DUP4 SUB DUP2 PUSH1 0x0 DUP8 GAS CALL ISZERO DUP1 ISZERO PUSH2 0x130 JUMPI RETURNDATASIZE PUSH1 0x0 DUP1 RETURNDATACOPY RETURNDATASIZE PUSH1 0x0 REVERT JUMPDEST POP POP POP POP PUSH1 0x40 MLOAD RETURNDATASIZE PUSH1 0x1F NOT PUSH1 0x1F DUP3 ADD AND DUP3 ADD DUP1 PUSH1 0x40 MSTORE POP DUP2 ADD SWAP1 PUSH2 0x154 SWAP2 SWAP1 PUSH2 0x338 JUMP JUMPDEST POP POP POP POP JUMP JUMPDEST PUSH1 0x0 DUP2 ISZERO ISZERO SWAP1 POP SWAP2 SWAP1 POP JUMP JUMPDEST PUSH2 0x16F DUP2 PUSH2 0x15A JUMP JUMPDEST DUP3 MSTORE POP POP JUMP JUMPDEST PUSH1 0x0 PUSH1 0x20 DUP3 ADD SWAP1 POP PUSH2 0x18A PUSH1 0x0 DUP4 ADD DUP5 PUSH2 0x166 JUMP JUMPDEST SWAP3 SWAP2 POP POP JUMP JUMPDEST PUSH1 0x0 DUP1 REVERT JUMPDEST PUSH1 0x0 PUSH20 0xFFFFFFFFFFFFFFFFFFFFFFFFFFFFFFFFFFFFFFFF DUP3 AND SWAP1 POP SWAP2 SWAP1 POP JUMP JUMPDEST PUSH1 0x0 PUSH2 0x1C0 DUP3 PUSH2 0x195 JUMP JUMPDEST SWAP1 POP SWAP2 SWAP1 POP JUMP JUMPDEST PUSH1 0x0 PUSH2 0x1D2 DUP3 PUSH2 0x1B5 JUMP JUMPDEST SWAP1 POP SWAP2 SWAP1 POP JUMP JUMPDEST PUSH2 0x1E2 DUP2 PUSH2 0x1C7 JUMP JUMPDEST DUP2 EQ PUSH2 0x1ED JUMPI PUSH1 0x0 DUP1 REVERT JUMPDEST POP JUMP JUMPDEST PUSH1 0x0 DUP2 CALLDATALOAD SWAP1 POP PUSH2 0x1FF DUP2 PUSH2 0x1D9 JUMP JUMPDEST SWAP3 SWAP2 POP POP JUMP JUMPDEST PUSH1 0x0 PUSH32 0xFFFFFFFF00000000000000000000000000000000000000000000000000000000 DUP3 AND SWAP1 POP SWAP2 SWAP1 POP JUMP JUMPDEST PUSH2 0x23A DUP2 PUSH2 0x205 JUMP JUMPDEST DUP2 EQ PUSH2 0x245 JUMPI PUSH1 0x0 DUP1 REVERT JUMPDEST POP JUMP JUMPDEST PUSH1 0x0 DUP2 CALLDATALOAD SWAP1 POP PUSH2 0x257 DUP2 PUSH2 0x231 JUMP JUMPDEST SWAP3 SWAP2 POP POP JUMP JUMPDEST PUSH2 0x266 DUP2 PUSH2 0x1B5 JUMP JUMPDEST DUP2 EQ PUSH2 0x271 JUMPI PUSH1 0x0 DUP1 REVERT JUMPDEST POP JUMP JUMPDEST PUSH1 0x0 DUP2 CALLDATALOAD SWAP1 POP PUSH2 0x283 DUP2 PUSH2 0x25D JUMP JUMPDEST SWAP3 SWAP2 POP POP JUMP JUMPDEST PUSH1 0x0 DUP1 PUSH1 0x0 PUSH1 0x60 DUP5 DUP7 SUB SLT ISZERO PUSH2 0x2A2 JUMPI PUSH2 0x2A1 PUSH2 0x190 JUMP JUMPDEST JUMPDEST PUSH1 0x0 PUSH2 0x2B0 DUP7 DUP3 DUP8 ADD PUSH2 0x1F0 JUMP JUMPDEST SWAP4 POP POP PUSH1 0x20 PUSH2 0x2C1 DUP7 DUP3 DUP8 ADD PUSH2 0x248 JUMP JUMPDEST SWAP3 POP POP PUSH1 0x40 PUSH2 0x2D2 DUP7 DUP3 DUP8 ADD PUSH2 0x274 JUMP JUMPDEST SWAP2 POP POP SWAP3 POP SWAP3 POP SWAP3 JUMP JUMPDEST PUSH2 0x2E5 DUP2 PUSH2 0x205 JUMP JUMPDEST DUP3 MSTORE POP POP JUMP JUMPDEST PUSH2 0x2F4 DUP2 PUSH2 0x1B5 JUMP JUMPDEST DUP3 MSTORE POP POP JUMP JUMPDEST PUSH1 0x0 PUSH1 0x40 DUP3 ADD SWAP1 POP PUSH2 0x30F PUSH1 0x0 DUP4 ADD DUP6 PUSH2 0x2DC JUMP JUMPDEST PUSH2 0x31C PUSH1 0x20 DUP4 ADD DUP5 PUSH2 0x2EB JUMP JUMPDEST SWAP4 SWAP3 POP POP POP JUMP JUMPDEST PUSH1 0x0 DUP2 MLOAD SWAP1 POP PUSH2 0x332 DUP2 PUSH2 0x25D JUMP JUMPDEST SWAP3 SWAP2 POP POP JUMP JUMPDEST PUSH1 0x0 PUSH1 0x20 DUP3 DUP5 SUB SLT ISZERO PUSH2 0x34E JUMPI PUSH2 0x34D PUSH2 0x190 JUMP JUMPDEST JUMPDEST PUSH1 0x0 PUSH2 0x35C DUP5 DUP3 DUP6 ADD PUSH2 0x323 JUMP JUMPDEST SWAP2 POP POP SWAP3 SWAP2 POP POP JUMP INVALID LOG2 PUSH5 0x6970667358 0x22 SLT KECCAK256 0xF9 MSTORE 0xE8 CALLDATACOPY PUSH6 0x4061DB92D563 0xB0 BALANCE 0xDE 0xAE SWAP11 DUP3 0xA5 DUP1 0x24 PUSH7 0xC2515B0ECF9002 SELFDESTRUCT 0x1F CREATE2 DUP10 PUSH5 0x736F6C6343 STOP ADDMOD SLT STOP CALLER "
				},
				"gasEstimates": {
					"creation": {
						"codeDepositCost": "184600",
						"executionCost": "infinite",
						"totalCost": "infinite"
					},
					"external": {
						"check()": "321",
						"doDeploy(address,bytes4,address)": "infinite"
					}
				},
				"methodIdentifiers": {
					"check()": "919840ad",
					"doDeploy(address,bytes4,address)": "caca46f7"
				}
			},
			"storageLayout": {
				"storage": [],
				"types": null
			},
			"userdoc": {
				"kind": "user",
				"methods": {},
				"version": 1
			}
		}
	}
}