{
	"test/Test.sol": {
		"MockAdmin": {
			"abi": [
				{
					"inputs": [],
					"stateMutability": "nonpayable",
					"type": "constructor"
				},
				{
					"inputs": [],
					"name": "check",
					"outputs": [
						{
							"internalType": "bool",
							"name": "",
							"type": "bool"
						}
					],
					"stateMutability": "pure",
					"type": "function"
				},
				{
					"inputs": [
						{
							"internalType": "contract Seed",
							"name": "seed",
							"type": "address"
						},
						{
							"internalType": "bytes4",
							"name": "selector",
							"type": "bytes4"
						},
						{
							"internalType": "address",
							"name": "implementation",
							"type": "address"
						}
					],
					"name": "doDeploy",
					"outputs": [],
					"stateMutability": "nonpayable",
					"type": "function"
				}
			],
			"devdoc": {
				"kind": "dev",
				"methods": {},
				"version": 1
			},
			"evm": {
				"assembly": "    /* \"test/Test.sol\":847:1197  contract MockAdmin {... */\n  mstore(0x40, 0xa0)\n    /* \"test/Test.sol\":905:944  constructor() { creator = msg.sender; } */\n  callvalue\n  dup1\n  iszero\n  tag_1\n  jumpi\n  0x00\n  dup1\n  revert\ntag_1:\n  pop\n    /* \"test/Test.sol\":931:941  msg.sender */\n  caller\n    /* \"test/Test.sol\":921:941  creator = msg.sender */\n  0xffffffffffffffffffffffffffffffffffffffff\n  and\n  0x80\n  dup2\n  0xffffffffffffffffffffffffffffffffffffffff\n  and\n  dup2\n  mstore\n  pop\n  pop\n    /* \"test/Test.sol\":847:1197  contract MockAdmin {... */\n  mload(0x80)\n  codecopy(0x00, dataOffset(sub_0), dataSize(sub_0))\n  0x00\n  assignImmutable(\"0xe6a1c065389a8d929a5a64a56bc16a7e49ca76d19f5c2b002f72a1f543f272ee\")\n  return(0x00, dataSize(sub_0))\nstop\n\nsub_0: assembly {\n        /* \"test/Test.sol\":847:1197  contract MockAdmin {... */\n      mstore(0x40, 0x80)\n      callvalue\n      dup1\n      iszero\n      tag_1\n      jumpi\n      0x00\n      dup1\n      revert\n    tag_1:\n      pop\n      jumpi(tag_2, lt(calldatasize, 0x04))\n      shr(0xe0, calldataload(0x00))\n      dup1\n      0x919840ad\n      eq\n      tag_3\n      jumpi\n      dup1\n      0xcaca46f7\n      eq\n      tag_4\n      jumpi\n    tag_2:\n      0x00\n      dup1\n      revert\n        /* \"test/Test.sol\":1132:1194  function check() external pure returns (bool) { return true; } */\n    tag_3:\n      tag_5\n      tag_6\n      jump\t// in\n    tag_5:\n      mload(0x40)\n      tag_7\n      swap2\n      swap1\n      tag_8\n      jump\t// in\n    tag_7:\n      mload(0x40)\n      dup1\n      swap2\n      sub\n      swap1\n      return\n        /* \"test/Test.sol\":950:1126  function doDeploy(Seed seed, bytes4 selector, address implementation) external {... */\n    tag_4:\n      tag_9\n      0x04\n      dup1\n      calldatasize\n      sub\n      dup2\n      add\n      swap1\n      tag_10\n      swap2\n      swap1\n      tag_11\n      jump\t// in\n    tag_10:\n      tag_12\n      jump\t// in\n    tag_9:\n      stop\n        /* \"test/Test.sol\":1132:1194  function check() external pure returns (bool) { return true; } */\n    tag_6:\n        /* \"test/Test.sol\":1172:1176  bool */\n      0x00\n        /* \"test/Test.sol\":1187:1191  true */\n      0x01\n        /* \"test/Test.sol\":1180:1191  return true */\n      swap1\n      pop\n        /* \"test/Test.sol\":1132:1194  function check() external pure returns (bool) { return true; } */\n      swap1\n      jump\t// out\n        /* \"test/Test.sol\":950:1126  function doDeploy(Seed seed, bytes4 selector, address implementation) external {... */\n    tag_12:\n        /* \"test/Test.sol\":1062:1069  creator */\n      immutable(\"0xe6a1c065389a8d929a5a64a56bc16a7e49ca76d19f5c2b002f72a1f543f272ee\")\n        /* \"test/Test.sol\":1048:1069  msg.sender == creator */\n      0xffffffffffffffffffffffffffffffffffffffff\n      and\n        /* \"test/Test.sol\":1048:1058  msg.sender */\n      caller\n        /* \"test/Test.sol\":1048:1069  msg.sender == creator */\n      0xffffffffffffffffffffffffffffffffffffffff\n      and\n      eq\n        /* \"test/Test.sol\":1040:1070  require(msg.sender == creator) */\n      tag_15\n      jumpi\n      0x00\n      dup1\n      revert\n    tag_15:\n        /* \"test/Test.sol\":1081:1085  seed */\n      dup3\n        /* \"test/Test.sol\":1081:1092  seed.deploy */\n      0xffffffffffffffffffffffffffffffffffffffff\n      and\n      0x997b81c9\n        /* \"test/Test.sol\":1093:1101  selector */\n      dup4\n        /* \"test/Test.sol\":1103:1117  implementation */\n      dup4\n        /* \"test/Test.sol\":1081:1118  seed.deploy(selector, implementation) */\n      mload(0x40)\n      dup4\n      0xffffffff\n      and\n      0xe0\n      shl\n      dup2\n      mstore\n      0x04\n      add\n      tag_16\n      swap3\n      swap2\n      swap1\n      tag_17\n      jump\t// in\n    tag_16:\n      0x20\n      mload(0x40)\n      dup1\n      dup4\n      sub\n      dup2\n      0x00\n      dup8\n      gas\n      call\n      iszero\n      dup1\n      iszero\n      tag_19\n      jumpi\n      returndatasize\n      0x00\n      dup1\n      returndatacopy\n      revert(0x00, returndatasize)\n    tag_19:\n      pop\n      pop\n      pop\n      pop\n      mload(0x40)\n      returndatasize\n      not(0x1f)\n      0x1f\n      dup3\n      add\n      and\n      dup3\n      add\n      dup1\n      0x40\n      mstore\n      pop\n      dup2\n      add\n      swap1\n      tag_20\n      swap2\n      swap1\n      tag_21\n      jump\t// in\n    tag_20:\n      pop\n        /* \"test/Test.sol\":950:1126  function doDeploy(Seed seed, bytes4 selector, address implementation) external {... */\n      pop\n      pop\n      pop\n      jump\t// out\n        /* \"#utility.yul\":7:97   */\n    tag_22:\n        /* \"#utility.yul\":41:48   */\n      0x00\n        /* \"#utility.yul\":84:89   */\n      dup2\n        /* \"#utility.yul\":77:90   */\n      iszero\n        /* \"#utility.yul\":70:91   */\n      iszero\n        /* \"#utility.yul\":59:91   */\n      swap1\n      pop\n        /* \"#utility.yul\":7:97   */\n      swap2\n      swap1\n      pop\n      jump\t// out\n        /* \"#utility.yul\":103:212   */\n    tag_23:\n        /* \"#utility.yul\":184:205   */\n      tag_43\n        /* \"#utility.yul\":199:204   */\n      dup2\n        /* \"#utility.yul\":184:205   */\n      tag_22\n      jump\t// in\n    tag_43:\n        /* \"#utility.yul\":179:182   */\n      dup3\n        /* \"#utility.yul\":172:206   */\n      mstore\n        /* \"#utility.yul\":103:212   */\n      pop\n      pop\n      jump\t// out\n        /* \"#utility.yul\":218:428   */\n    tag_8:\n        /* \"#utility.yul\":305:309   */\n      0x00\n        /* \"#utility.yul\":343:345   */\n      0x20\n        /* \"#utility.yul\":332:341   */\n      dup3\n        /* \"#utility.yul\":328:346   */\n      add\n        /* \"#utility.yul\":320:346   */\n      swap1\n      pop\n        /* \"#utility.yul\":356:421   */\n      tag_45\n        /* \"#utility.yul\":418:419   */\n      0x00\n        /* \"#utility.yul\":407:416   */\n      dup4\n        /* \"#utility.yul\":403:420   */\n      add\n        /* \"#utility.yul\":394:400   */\n      dup5\n        /* \"#utility.yul\":356:421   */\n      tag_23\n      jump\t// in\n    tag_45:\n        /* \"#utility.yul\":218:428   */\n      swap3\n      swap2\n      pop\n      pop\n      jump\t// out\n        /* \"#utility.yul\":515:632   */\n    tag_25:\n        /* \"#utility.yul\":624:625   */\n      0x00\n        /* \"#utility.yul\":621:622   */\n      dup1\n        /* \"#utility.yul\":614:626   */\n      revert\n        /* \"#utility.yul\":761:887   */\n    tag_27:\n        /* \"#utility.yul\":798:805   */\n      0x00\n        /* \"#utility.yul\":838:880   */\n      0xffffffffffffffffffffffffffffffffffffffff\n        /* \"#utility.yul\":831:836   */\n      dup3\n        /* \"#utility.yul\":827:881   */\n      and\n        /* \"#utility.yul\":816:881   */\n      swap1\n      pop\n        /* \"#utility.yul\":761:887   */\n      swap2\n      swap1\n      pop\n      jump\t// out\n        /* \"#utility.yul\":893:989   */\n    tag_28:\n        /* \"#utility.yul\":930:937   */\n      0x00\n        /* \"#utility.yul\":959:983   */\n      tag_51\n        /* \"#utility.yul\":977:982   */\n      dup3\n        /* \"#utility.yul\":959:983   */\n      tag_27\n      jump\t// in\n    tag_51:\n        /* \"#utility.yul\":948:983   */\n      swap1\n      pop\n        /* \"#utility.yul\":893:989   */\n      swap2\n      swap1\n      pop\n      jump\t// out\n        /* \"#utility.yul\":995:1102   */\n    tag_29:\n        /* \"#utility.yul\":1043:1050   */\n      0x00\n        /* \"#utility.yul\":1072:1096   */\n      tag_53\n        /* \"#utility.yul\":1090:1095   */\n      dup3\n        /* \"#utility.yul\":1072:1096   */\n      tag_28\n      jump\t// in\n    tag_53:\n        /* \"#utility.yul\":1061:1096   */\n      swap1\n      pop\n        /* \"#utility.yul\":995:1102   */\n      swap2\n      swap1\n      pop\n      jump\t// out\n        /* \"#utility.yul\":1108:1252   */\n    tag_30:\n        /* \"#utility.yul\":1192:1227   */\n      tag_55\n        /* \"#utility.yul\":1221:1226   */\n      dup2\n        /* \"#utility.yul\":1192:1227   */\n      tag_29\n      jump\t// in\n    tag_55:\n        /* \"#utility.yul\":1185:1190   */\n      dup2\n        /* \"#utility.yul\":1182:1228   */\n      eq\n        /* \"#utility.yul\":1172:1246   */\n      tag_56\n      jumpi\n        /* \"#utility.yul\":1242:1243   */\n      0x00\n        /* \"#utility.yul\":1239:1240   */\n      dup1\n        /* \"#utility.yul\":1232:1244   */\n      revert\n        /* \"#utility.yul\":1172:1246   */\n    tag_56:\n        /* \"#utility.yul\":1108:1252   */\n      pop\n      jump\t// out\n        /* \"#utility.yul\":1258:1419   */\n    tag_31:\n        /* \"#utility.yul\":1315:1320   */\n      0x00\n        /* \"#utility.yul\":1353:1359   */\n      dup2\n        /* \"#utility.yul\":1340:1360   */\n      calldataload\n        /* \"#utility.yul\":1331:1360   */\n      swap1\n      pop\n        /* \"#utility.yul\":1369:1413   */\n      tag_58\n        /* \"#utility.yul\":1407:1412   */\n      dup2\n        /* \"#utility.yul\":1369:1413   */\n      tag_30\n      jump\t// in\n    tag_58:\n        /* \"#utility.yul\":1258:1419   */\n      swap3\n      swap2\n      pop\n      pop\n      jump\t// out\n        /* \"#utility.yul\":1425:1574   */\n    tag_32:\n        /* \"#utility.yul\":1461:1468   */\n      0x00\n        /* \"#utility.yul\":1501:1567   */\n      0xffffffff00000000000000000000000000000000000000000000000000000000\n        /* \"#utility.yul\":1494:1499   */\n      dup3\n        /* \"#utility.yul\":1490:1568   */\n      and\n        /* \"#utility.yul\":1479:1568   */\n      swap1\n      pop\n        /* \"#utility.yul\":1425:1574   */\n      swap2\n      swap1\n      pop\n      jump\t// out\n        /* \"#utility.yul\":1580:1700   */\n    tag_33:\n        /* \"#utility.yul\":1652:1675   */\n      tag_61\n        /* \"#utility.yul\":1669:1674   */\n      dup2\n        /* \"#utility.yul\":1652:1675   */\n      tag_32\n      jump\t// in\n    tag_61:\n        /* \"#utility.yul\":1645:1650   */\n      dup2\n        /* \"#utility.yul\":1642:1676   */\n      eq\n        /* \"#utility.yul\":1632:1694   */\n      tag_62\n      jumpi\n        /* \"#utility.yul\":1690:1691   */\n      0x00\n        /* \"#utility.yul\":1687:1688   */\n      dup1\n        /* \"#utility.yul\":1680:1692   */\n      revert\n        /* \"#utility.yul\":1632:1694   */\n    tag_62:\n        /* \"#utility.yul\":1580:1700   */\n      pop\n      jump\t// out\n        /* \"#utility.yul\":1706:1843   */\n    tag_34:\n        /* \"#utility.yul\":1751:1756   */\n      0x00\n        /* \"#utility.yul\":1789:1795   */\n      dup2\n        /* \"#utility.yul\":1776:1796   */\n      calldataload\n        /* \"#utility.yul\":1767:1796   */\n      swap1\n      pop\n        /* \"#utility.yul\":1805:1837   */\n      tag_64\n        /* \"#utility.yul\":1831:1836   */\n      dup2\n        /* \"#utility.yul\":1805:1837   */\n      tag_33\n      jump\t// in\n    tag_64:\n        /* \"#utility.yul\":1706:1843   */\n      swap3\n      swap2\n      pop\n      pop\n      jump\t// out\n        /* \"#utility.yul\":1849:1971   */\n    tag_35:\n        /* \"#utility.yul\":1922:1946   */\n      tag_66\n        /* \"#utility.yul\":1940:1945   */\n      dup2\n        /* \"#utility.yul\":1922:1946   */\n      tag_28\n      jump\t// in\n    tag_66:\n        /* \"#utility.yul\":1915:1920   */\n      dup2\n        /* \"#utility.yul\":1912:1947   */\n      eq\n        /* \"#utility.yul\":1902:1965   */\n      tag_67\n      jumpi\n        /* \"#utility.yul\":1961:1962   */\n      0x00\n        /* \"#utility.yul\":1958:1959   */\n      dup1\n        /* \"#utility.yul\":1951:1963   */\n      revert\n        /* \"#utility.yul\":1902:1965   */\n    tag_67:\n        /* \"#utility.yul\":1849:1971   */\n      pop\n      jump\t// out\n        /* \"#utility.yul\":1977:2116   */\n    tag_36:\n        /* \"#utility.yul\":2023:2028   */\n      0x00\n        /* \"#utility.yul\":2061:2067   */\n      dup2\n        /* \"#utility.yul\":2048:2068   */\n      calldataload\n        /* \"#utility.yul\":2039:2068   */\n      swap1\n      pop\n        /* \"#utility.yul\":2077:2110   */\n      tag_69\n        /* \"#utility.yul\":2104:2109   */\n      dup2\n        /* \"#utility.yul\":2077:2110   */\n      tag_35\n      jump\t// in\n    tag_69:\n        /* \"#utility.yul\":1977:2116   */\n      swap3\n      swap2\n      pop\n      pop\n      jump\t// out\n        /* \"#utility.yul\":2122:2761   */\n    tag_11:\n        /* \"#utility.yul\":2209:2215   */\n      0x00\n        /* \"#utility.yul\":2217:2223   */\n      dup1\n        /* \"#utility.yul\":2225:2231   */\n      0x00\n        /* \"#utility.yul\":2274:2276   */\n      0x60\n        /* \"#utility.yul\":2262:2271   */\n      dup5\n        /* \"#utility.yul\":2253:2260   */\n      dup7\n        /* \"#utility.yul\":2249:2272   */\n      sub\n        /* \"#utility.yul\":2245:2277   */\n      slt\n        /* \"#utility.yul\":2242:2361   */\n      iszero\n      tag_71\n      jumpi\n        /* \"#utility.yul\":2280:2359   */\n      tag_72\n      tag_25\n      jump\t// in\n    tag_72:\n        /* \"#utility.yul\":2242:2361   */\n    tag_71:\n        /* \"#utility.yul\":2400:2401   */\n      0x00\n        /* \"#utility.yul\":2425:2489   */\n      tag_73\n        /* \"#utility.yul\":2481:2488   */\n      dup7\n        /* \"#utility.yul\":2472:2478   */\n      dup3\n        /* \"#utility.yul\":2461:2470   */\n      dup8\n        /* \"#utility.yul\":2457:2479   */\n      add\n        /* \"#utility.yul\":2425:2489   */\n      tag_31\n      jump\t// in\n    tag_73:\n        /* \"#utility.yul\":2415:2489   */\n      swap4\n      pop\n        /* \"#utility.yul\":2371:2499   */\n      pop\n        /* \"#utility.yul\":2538:2540   */\n      0x20\n        /* \"#utility.yul\":2564:2616   */\n      tag_74\n        /* \"#utility.yul\":2608:2615   */\n      dup7\n        /* \"#utility.yul\":2599:2605   */\n      dup3\n        /* \"#utility.yul\":2588:2597   */\n      dup8\n        /* \"#utility.yul\":2584:2606   */\n      add\n        /* \"#utility.yul\":2564:2616   */\n      tag_34\n      jump\t// in\n    tag_74:\n        /* \"#utility.yul\":2554:2616   */\n      swap3\n      pop\n        /* \"#utility.yul\":2509:2626   */\n      pop\n        /* \"#utility.yul\":2665:2667   */\n      0x40\n        /* \"#utility.yul\":2691:2744   */\n      tag_75\n        /* \"#utility.yul\":2736:2743   */\n      dup7\n        /* \"#utility.yul\":2727:2733   */\n      dup3\n        /* \"#utility.yul\":2716:2725   */\n      dup8\n        /* \"#utility.yul\":2712:2734   */\n      add\n        /* \"#utility.yul\":2691:2744   */\n      tag_36\n      jump\t// in\n    tag_75:\n        /* \"#utility.yul\":2681:2744   */\n      swap2\n      pop\n        /* \"#utility.yul\":2636:2754   */\n      pop\n        /* \"#utility.yul\":2122:2761   */\n      swap3\n      pop\n      swap3\n      pop\n      swap3\n      jump\t// out\n        /* \"#utility.yul\":2767:2882   */\n    tag_37:\n        /* \"#utility.yul\":2852:2875   */\n      tag_77\n        /* \"#utility.yul\":2869:2874   */\n      dup2\n        /* \"#utility.yul\":2852:2875   */\n      tag_32\n      jump\t// in\n    tag_77:\n        /* \"#utility.yul\":2847:2850   */\n      dup3\n        /* \"#utility.yul\":2840:2876   */\n      mstore\n        /* \"#utility.yul\":2767:2882   */\n      pop\n      pop\n      jump\t// out\n        /* \"#utility.yul\":2888:3006   */\n    tag_38:\n        /* \"#utility.yul\":2975:2999   */\n      tag_79\n        /* \"#utility.yul\":2993:2998   */\n      dup2\n        /* \"#utility.yul\":2975:2999   */\n      tag_28\n      jump\t// in\n    tag_79:\n        /* \"#utility.yul\":2970:2973   */\n      dup3\n        /* \"#utility.yul\":2963:3000   */\n      mstore\n        /* \"#utility.yul\":2888:3006   */\n      pop\n      pop\n      jump\t// out\n        /* \"#utility.yul\":3012:3340   */\n    tag_17:\n        /* \"#utility.yul\":3131:3135   */\n      0x00\n        /* \"#utility.yul\":3169:3171   */\n      0x40\n        /* \"#utility.yul\":3158:3167   */\n      dup3\n        /* \"#utility.yul\":3154:3172   */\n      add\n        /* \"#utility.yul\":3146:3172   */\n      swap1\n      pop\n        /* \"#utility.yul\":3182:3251   */\n      tag_81\n        /* \"#utility.yul\":3248:3249   */\n      0x00\n        /* \"#utility.yul\":3237:3246   */\n      dup4\n        /* \"#utility.yul\":3233:3250   */\n      add\n        /* \"#utility.yul\":3224:3230   */\n      dup6\n        /* \"#utility.yul\":3182:3251   */\n      tag_37\n      jump\t// in\n    tag_81:\n        /* \"#utility.yul\":3261:3333   */\n      tag_82\n        /* \"#utility.yul\":3329:3331   */\n      0x20\n        /* \"#utility.yul\":3318:3327   */\n      dup4\n        /* \"#utility.yul\":3314:3332   */\n      add\n        /* \"#utility.yul\":3305:3311   */\n      dup5\n        /* \"#utility.yul\":3261:3333   */\n      tag_38\n      jump\t// in\n    tag_82:\n        /* \"#utility.yul\":3012:3340   */\n      swap4\n      swap3\n      pop\n      pop\n      pop\n      jump\t// out\n        /* \"#utility.yul\":3346:3489   */\n    tag_39:\n        /* \"#utility.yul\":3403:3408   */\n      0x00\n        /* \"#utility.yul\":3434:3440   */\n      dup2\n        /* \"#utility.yul\":3428:3441   */\n      mload\n        /* \"#utility.yul\":3419:3441   */\n      swap1\n      pop\n        /* \"#utility.yul\":3450:3483   */\n      tag_84\n        /* \"#utility.yul\":3477:3482   */\n      dup2\n        /* \"#utility.yul\":3450:3483   */\n      tag_35\n      jump\t// in\n    tag_84:\n        /* \"#utility.yul\":3346:3489   */\n      swap3\n      swap2\n      pop\n      pop\n      jump\t// out\n        /* \"#utility.yul\":3495:3846   */\n    tag_21:\n        /* \"#utility.yul\":3565:3571   */\n      0x00\n        /* \"#utility.yul\":3614:3616   */\n      0x20\n        /* \"#utility.yul\":3602:3611   */\n      dup3\n        /* \"#utility.yul\":3593:3600   */\n      dup5\n        /* \"#utility.yul\":3589:3612   */\n      sub\n        /* \"#utility.yul\":3585:3617   */\n      slt\n        /* \"#utility.yul\":3582:3701   */\n      iszero\n      tag_86\n      jumpi\n        /* \"#utility.yul\":3620:3699   */\n      tag_87\n      tag_25\n      jump\t// in\n    tag_87:\n        /* \"#utility.yul\":3582:3701   */\n    tag_86:\n        /* \"#utility.yul\":3740:3741   */\n      0x00\n        /* \"#utility.yul\":3765:3829   */\n      tag_88\n        /* \"#utility.yul\":3821:3828   */\n      dup5\n        /* \"#utility.yul\":3812:3818   */\n      dup3\n        /* \"#utility.yul\":3801:3810   */\n      dup6\n        /* \"#utility.yul\":3797:3819   */\n      add\n        /* \"#utility.yul\":3765:3829   */\n      tag_39\n      jump\t// in\n    tag_88:\n        /* \"#utility.yul\":3755:3829   */\n      swap2\n      pop\n        /* \"#utility.yul\":3711:3839   */\n      pop\n        /* \"#utility.yul\":3495:3846   */\n      swap3\n      swap2\n      pop\n      pop\n      jump\t// out\n\n    auxdata: 0xa2646970667358221220381ceb4a05c39530cc2d2338f4779f7ecb130da889c2bb3cca8aa6d256bbf73c64736f6c63430008120033\n}\n",
				"bytecode": {
					"linkReferences": {},
					"object": "60a060405234801561001057600080fd5b503373ffffffffffffffffffffffffffffffffffffffff1660808173ffffffffffffffffffffffffffffffffffffffff168152505060805161039b61005f60003960006080015261039b6000f3fe608060405234801561001057600080fd5b50600436106100365760003560e01c8063919840ad1461003b578063caca46f714610059575b600080fd5b610043610075565b6040516100509190610175565b60405180910390f35b610073600480360381019061006e9190610289565b61007e565b005b60006001905090565b7f000000000000000000000000000000000000000000000000000000000000000073ffffffffffffffffffffffffffffffffffffffff163373ffffffffffffffffffffffffffffffffffffffff16146100d657600080fd5b8273ffffffffffffffffffffffffffffffffffffffff1663997b81c983836040518363ffffffff1660e01b81526004016101119291906102fa565b6020604051808303816000875af1158015610130573d6000803e3d6000fd5b505050506040513d601f19601f820116820180604052508101906101549190610338565b50505050565b60008115159050919050565b61016f8161015a565b82525050565b600060208201905061018a6000830184610166565b92915050565b600080fd5b600073ffffffffffffffffffffffffffffffffffffffff82169050919050565b60006101c082610195565b9050919050565b60006101d2826101b5565b9050919050565b6101e2816101c7565b81146101ed57600080fd5b50565b6000813590506101ff816101d9565b92915050565b60007fffffffff0000000000000000000000000000000000000000000000000000000082169050919050565b61023a81610205565b811461024557600080fd5b50565b60008135905061025781610231565b92915050565b610266816101b5565b811461027157600080fd5b50565b6000813590506102838161025d565b92915050565b6000806000606084860312156102a2576102a1610190565b5b60006102b0868287016101f0565b93505060206102c186828701610248565b92505060406102d286828701610274565b9150509250925092565b6102e581610205565b82525050565b6102f4816101b5565b82525050565b600060408201905061030f60008301856102dc565b61031c60208301846102eb565b9392505050565b6000815190506103328161025d565b92915050565b60006020828403121561034e5761034d610190565b5b600061035c84828501610323565b9150509291505056fea2646970667358221220381ceb4a05c39530cc2d2338f4779f7ecb130da889c2bb3cca8aa6d256bbf73c64736f6c63430008120033",
					"opcodes": "PUSH1 0xA0 PUSH1 0x40 MSTORE CALLVALUE DUP1 ISZERO PUSH2 0x10 JUMPI PUSH1 0x0 DUP1 REVERT JUMPDEST POP CALLER PUSH20 0xFFFFFFFFFFFFFFFFFFFFFFFFFFFFFFFFFFFFFFFF AND PUSH1 0x80 DUP2 PUSH20 0xFFFFFFFFFFFFFFFFFFFFFFFFFFFFFFFFFFFFFFFF AND DUP2 MSTORE POP POP PUSH1 0x80 MLOAD PUSH2 0x39B PUSH2 0x5F PUSH1 0x0 CODECOPY PUSH1 0x0 PUSH1 0x80 ADD MSTORE PUSH2 0x39B PUSH1 0x0 RETURN INVALID PUSH1 0x80 PUSH1 0x40 MSTORE CALLVALUE DUP1 ISZERO PUSH2 0x10 JUMPI PUSH1 0x0 DUP1 REVERT JUMPDEST POP PUSH1 0x4 CALLDATASIZE LT PUSH2 0x36 JUMPI PUSH1 0x0 CALLDATALOAD PUSH1 0xE0 SHR DUP1 PUSH4 0x919840AD EQ PUSH2 0x3B JUMPI DUP1 PUSH4 0xCACA46F7 EQ PUSH2 0x59 JUMPI JUMPDEST PUSH1 0x0 DUP1 REVERT JUMPDEST PUSH2 0x43 PUSH2 0x75 JUMP JUMPDEST PUSH1 0x40 MLOAD PUSH2 0x50 SWAP2 SWAP1 PUSH2 0x175 JUMP JUMPDEST PUSH1 0x40 MLOAD DUP1 SWAP2 SUB SWAP1 RETURN JUMPDEST PUSH2 0x73 PUSH1 0x4 DUP1 CALLDATASIZE SUB DUP2 ADD SWAP1 PUSH2 0x6E SWAP2 SWAP1 PUSH2 0x289 JUMP JUMPDEST PUSH2 0x7E JUMP JUMPDEST STOP JUMPDEST PUSH1 0x0 PUSH1 0x1 SWAP1 POP SWAP1 JUMP JUMPDEST PUSH32 0x0 PUSH20 0xFFFFFFFFFFFFFFFFFFFFFFFFFFFFFFFFFFFFFFFF AND CALLER PUSH20 0xFFFFFFFFFFFFFFFFFFFFFFFFFFFFFFFFFFFFFFFF AND EQ PUSH2 0xD6 JUMPI PUSH1 0x0 DUP1 REVERT JUMPDEST DUP3 PUSH20 0xFFFFFFFFFFFFFFFFFFFFFFFFFFFFFFFFFFFFFFFF AND PUSH4 0x997B81C9 DUP4 DUP4 PUSH1 0x40 MLOAD DUP4 PUSH4 0xFFFFFFFF AND PUSH1 0xE0 SHL DUP2 MSTORE PUSH1 0x4 ADD PUSH2 0x111 SWAP3 SWAP2 SWAP1 PUSH2 0x2FA JUMP JUMPDEST PUSH1 0x20 PUSH1 0x40 MLOAD DUP1 DUP4 SUB DUP2 PUSH1 0x0 DUP8 GAS CALL ISZERO DUP1 ISZERO PUSH2 0x130 JUMPI RETURNDATASIZE PUSH1 0x0 DUP1 RETURNDATACOPY RETURNDATASIZE PUSH1 0x0 REVERT JUMPDEST POP POP POP POP PUSH1 0x40 MLOAD RETURNDATASIZE PUSH1 0x1F NOT PUSH1 0x1F DUP3 ADD AND DUP3 ADD DUP1 PUSH1 0x40 MSTORE POP DUP2 ADD SWAP1 PUSH2 0x154 SWAP2 SWAP1 PUSH2 0x338 JUMP JUMPDEST POP POP POP POP JUMP JUMPDEST PUSH1 0x0 DUP2 ISZERO ISZERO SWAP1 POP SWAP2 SWAP1 POP JUMP JUMPDEST PUSH2 0x16F DUP2 PUSH2 0x15A JUMP JUMPDEST DUP3 MSTORE POP POP JUMP JUMPDEST PUSH1 0x0 PUSH1 0x20 DUP3 ADD SWAP1 POP PUSH2 0x18A PUSH1 0x0 DUP4 ADD DUP5 PUSH2 0x166 JUMP JUMPDEST SWAP3 SWAP2 POP POP JUMP JUMPDEST PUSH1 0x0 DUP1 REVERT JUMPDEST PUSH1 0x0 PUSH20 0xFFFFFFFFFFFFFFFFFFFFFFFFFFFFFFFFFFFFFFFF DUP3 AND SWAP1 POP SWAP2 SWAP1 POP JUMP JUMPDEST PUSH1 0x0 PUSH2 0x1C0 DUP3 PUSH2 0x195 JUMP JUMPDEST SWAP1 POP SWAP2 SWAP1 POP JUMP JUMPDEST PUSH1 0x0 PUSH2 0x1D2 DUP3 PUSH2 0x1B5 JUMP JUMPDEST SWAP1 POP SWAP2 SWAP1 POP JUMP JUMPDEST PUSH2 0x1E2 DUP2 PUSH2 0x1C7 JUMP JUMPDEST DUP2 EQ PUSH2 0x1ED JUMPI PUSH1 0x0 DUP1 REVERT JUMPDEST POP JUMP JUMPDEST PUSH1 0x0 DUP2 CALLDATALOAD SWAP1 POP PUSH2 0x1FF DUP2 PUSH2 0x1D9 JUMP JUMPDEST SWAP3 SWAP2 POP POP JUMP JUMPDEST PUSH1 0x0 PUSH32 0xFFFFFFFF00000000000000000000000000000000000000000000000000000000 DUP3 AND SWAP1 POP SWAP2 SWAP1 POP JUMP JUMPDEST PUSH2 0x23A DUP2 PUSH2 0x205 JUMP JUMPDEST DUP2 EQ PUSH2 0x245 JUMPI PUSH1 0x0 DUP1 REVERT JUMPDEST POP JUMP JUMPDEST PUSH1 0x0 DUP2 CALLDATALOAD SWAP1 POP PUSH2 0x257 DUP2 PUSH2 0x231 JUMP JUMPDEST SWAP3 SWAP2 POP POP JUMP JUMPDEST PUSH2 0x266 DUP2 PUSH2 0x1B5 JUMP JUMPDEST DUP2 EQ PUSH2 0x271 JUMPI PUSH1 0x0 DUP1 REVERT JUMPDEST POP JUMP JUMPDEST PUSH1 0x0 DUP2 CALLDATALOAD SWAP1 POP PUSH2 0x283 DUP2 PUSH2 0x25D JUMP JUMPDEST SWAP3 SWAP2 POP POP JUMP JUMPDEST PUSH1 0x0 DUP1 PUSH1 0x0 PUSH1 0x60 DUP5 DUP7 SUB SLT ISZERO PUSH2 0x2A2 JUMPI PUSH2 0x2A1 PUSH2 0x190 JUMP JUMPDEST JUMPDEST PUSH1 0x0 PUSH2 0x2B0 DUP7 DUP3 DUP8 ADD PUSH2 0x1F0 JUMP JUMPDEST SWAP4 POP POP PUSH1 0x20 PUSH2 0x2C1 DUP7 DUP3 DUP8 ADD PUSH2 0x248 JUMP JUMPDEST SWAP3 POP POP PUSH1 0x40 PUSH2 0x2D2 DUP7 DUP3 DUP8 ADD PUSH2 0x274 JUMP JUMPDEST SWAP2 POP POP SWAP3 POP SWAP3 POP SWAP3 JUMP JUMPDEST PUSH2 0x2E5 DUP2 PUSH2 0x205 JUMP JUMPDEST DUP3 MSTORE POP POP JUMP JUMPDEST PUSH2 0x2F4 DUP2 PUSH2 0x1B5 JUMP JUMPDEST DUP3 MSTORE POP POP JUMP JUMPDEST PUSH1 0x0 PUSH1 0x40 DUP3 ADD SWAP1 POP PUSH2 0x30F PUSH1 0x0 DUP4 ADD DUP6 PUSH2 0x2DC JUMP JUMPDEST PUSH2 0x31C PUSH1 0x20 DUP4 ADD DUP5 PUSH2 0x2EB JUMP JUMPDEST SWAP4 SWAP3 POP POP POP JUMP JUMPDEST PUSH1 0x0 DUP2 MLOAD SWAP1 POP PUSH2 0x332 DUP2 PUSH2 0x25D JUMP JUMPDEST SWAP3 SWAP2 POP POP JUMP JUMPDEST PUSH1 0x0 PUSH1 0x20 DUP3 DUP5 SUB SLT ISZERO PUSH2 0x34E JUMPI PUSH2 0x34D PUSH2 0x190 JUMP JUMPDEST JUMPDEST PUSH1 0x0 PUSH2 0x35C DUP5 DUP3 DUP6 ADD PUSH2 0x323 JUMP JUMPDEST SWAP2 POP POP SWAP3 SWAP2 POP POP JUMP INVALID LOG2 PUSH5 0x6970667358 0x22 SLT KECCAK256 CODESIZE SHR 0xEB 0x4A SDIV 0xC3 SWAP6 ADDRESS 0xCC 0x2D 0x23 CODESIZE DELEGATECALL PUSH24 0x9F7ECB130DA889C2BB3CCA8AA6D256BBF73C64736F6C6343 STOP ADDMOD SLT STOP CALLER "
				},
				"gasEstimates": {
					"creation": {
						"codeDepositCost": "184600",
						"executionCost": "infinite",
						"totalCost": "infinite"
					},
					"external": {
						"check()": "321",
						"doDeploy(address,bytes4,address)": "infinite"
					}
				},
				"methodIdentifiers": {
					"check()": "919840ad",
					"doDeploy(address,bytes4,address)": "caca46f7"
				}
			},
			"storageLayout": {
				"storage": [],
				"types": null
			},
			"userdoc": {
				"kind": "user",
				"methods": {},
				"version": 1
			}
		}
	}
}