{
	"test/Test.sol": {
		"TreeTest": {
			"abi": [
				{
					"inputs": [],
					"name": "test1",
					"outputs": [
						{
							"internalType": "bytes4",
							"name": "debug",
							"type": "bytes4"
						}
					],
					"stateMutability": "nonpayable",
					"type": "function"
				}
			],
			"devdoc": {
				"kind": "dev",
				"methods": {},
				"version": 1
			},
			"evm": {
				"assembly": "    /* \"test/Test.sol\":1199:2565  contract TreeTest {... */\n  mstore(0x40, 0x80)\n  callvalue\n  dup1\n  iszero\n  tag_1\n  jumpi\n  0x00\n  dup1\n  revert\ntag_1:\n  pop\n  dataSize(sub_0)\n  dup1\n  dataOffset(sub_0)\n  0x00\n  codecopy\n  0x00\n  return\nstop\n\nsub_0: assembly {\n        /* \"test/Test.sol\":1199:2565  contract TreeTest {... */\n      mstore(0x40, 0x80)\n      callvalue\n      dup1\n      iszero\n      tag_1\n      jumpi\n      0x00\n      dup1\n      revert\n    tag_1:\n      pop\n      jumpi(tag_2, lt(calldatasize, 0x04))\n      shr(0xe0, calldataload(0x00))\n      dup1\n      0x6b59084d\n      eq\n      tag_3\n      jumpi\n    tag_2:\n      0x00\n      dup1\n      revert\n        /* \"test/Test.sol\":1224:2562  function test1() external returns (bytes4 debug) {... */\n    tag_3:\n      tag_4\n      tag_5\n      jump\t// in\n    tag_4:\n      mload(0x40)\n      tag_6\n      swap2\n      swap1\n      tag_7\n      jump\t// in\n    tag_6:\n      mload(0x40)\n      dup1\n      swap2\n      sub\n      swap1\n      return\n    tag_5:\n        /* \"test/Test.sol\":1259:1271  bytes4 debug */\n      0x00\n        /* \"test/Test.sol\":1284:1299  address divider */\n      dup1\n        /* \"test/Test.sol\":1310:1323  new Divider() */\n      mload(0x40)\n      tag_9\n      swap1\n      tag_10\n      jump\t// in\n    tag_9:\n      mload(0x40)\n      dup1\n      swap2\n      sub\n      swap1\n      0x00\n      create\n      dup1\n      iszero\n      dup1\n      iszero\n      tag_11\n      jumpi\n      returndatasize\n      0x00\n      dup1\n      returndatacopy\n      revert(0x00, returndatasize)\n    tag_11:\n      pop\n        /* \"test/Test.sol\":1284:1324  address divider = address(new Divider()) */\n      swap1\n      pop\n        /* \"test/Test.sol\":1366:1367  0 */\n      0x00\n        /* \"test/Test.sol\":1343:1350  divider */\n      dup2\n        /* \"test/Test.sol\":1343:1362  divider.code.length */\n      0xffffffffffffffffffffffffffffffffffffffff\n      and\n      extcodesize\n        /* \"test/Test.sol\":1343:1367  divider.code.length != 0 */\n      sub\n        /* \"test/Test.sol\":1335:1379  require(divider.code.length != 0, \"No code\") */\n      tag_12\n      jumpi\n      mload(0x40)\n      0x08c379a000000000000000000000000000000000000000000000000000000000\n      dup2\n      mstore\n      0x04\n      add\n      tag_13\n      swap1\n      tag_14\n      jump\t// in\n    tag_13:\n      mload(0x40)\n      dup1\n      swap2\n      sub\n      swap1\n      revert\n    tag_12:\n        /* \"test/Test.sol\":1429:1430  5 */\n      0x05\n        /* \"test/Test.sol\":1406:1413  divider */\n      dup2\n        /* \"test/Test.sol\":1398:1418  Divider(divider).div */\n      0xffffffffffffffffffffffffffffffffffffffff\n      and\n      0xa391c15b\n        /* \"test/Test.sol\":1419:1421  20 */\n      0x14\n        /* \"test/Test.sol\":1423:1424  4 */\n      0x04\n        /* \"test/Test.sol\":1398:1425  Divider(divider).div(20, 4) */\n      mload(0x40)\n      dup4\n      0xffffffff\n      and\n      0xe0\n      shl\n      dup2\n      mstore\n      0x04\n      add\n      tag_15\n      swap3\n      swap2\n      swap1\n      tag_16\n      jump\t// in\n    tag_15:\n      0x20\n      mload(0x40)\n      dup1\n      dup4\n      sub\n      dup2\n      dup7\n      gas\n      staticcall\n      iszero\n      dup1\n      iszero\n      tag_18\n      jumpi\n      returndatasize\n      0x00\n      dup1\n      returndatacopy\n      revert(0x00, returndatasize)\n    tag_18:\n      pop\n      pop\n      pop\n      pop\n      mload(0x40)\n      returndatasize\n      not(0x1f)\n      0x1f\n      dup3\n      add\n      and\n      dup3\n      add\n      dup1\n      0x40\n      mstore\n      pop\n      dup2\n      add\n      swap1\n      tag_19\n      swap2\n      swap1\n      tag_20\n      jump\t// in\n    tag_19:\n        /* \"test/Test.sol\":1398:1430  Divider(divider).div(20, 4) == 5 */\n      eq\n        /* \"test/Test.sol\":1390:1444  require(Divider(divider).div(20, 4) == 5, \"No add up\") */\n      tag_21\n      jumpi\n      mload(0x40)\n      0x08c379a000000000000000000000000000000000000000000000000000000000\n      dup2\n      mstore\n      0x04\n      add\n      tag_22\n      swap1\n      tag_23\n      jump\t// in\n    tag_22:\n      mload(0x40)\n      dup1\n      swap2\n      sub\n      swap1\n      revert\n    tag_21:\n        /* \"test/Test.sol\":1455:1473  address multiplier */\n      0x00\n        /* \"test/Test.sol\":1484:1500  new Multiplier() */\n      mload(0x40)\n      tag_24\n      swap1\n      tag_25\n      jump\t// in\n    tag_24:\n      mload(0x40)\n      dup1\n      swap2\n      sub\n      swap1\n      0x00\n      create\n      dup1\n      iszero\n      dup1\n      iszero\n      tag_26\n      jumpi\n      returndatasize\n      0x00\n      dup1\n      returndatacopy\n      revert(0x00, returndatasize)\n    tag_26:\n      pop\n        /* \"test/Test.sol\":1455:1501  address multiplier = address(new Multiplier()) */\n      swap1\n      pop\n        /* \"test/Test.sol\":1546:1547  0 */\n      0x00\n        /* \"test/Test.sol\":1520:1530  multiplier */\n      dup2\n        /* \"test/Test.sol\":1520:1542  multiplier.code.length */\n      0xffffffffffffffffffffffffffffffffffffffff\n      and\n      extcodesize\n        /* \"test/Test.sol\":1520:1547  multiplier.code.length != 0 */\n      sub\n        /* \"test/Test.sol\":1512:1559  require(multiplier.code.length != 0, \"No code\") */\n      tag_27\n      jumpi\n      mload(0x40)\n      0x08c379a000000000000000000000000000000000000000000000000000000000\n      dup2\n      mstore\n      0x04\n      add\n      tag_28\n      swap1\n      tag_14\n      jump\t// in\n    tag_28:\n      mload(0x40)\n      dup1\n      swap2\n      sub\n      swap1\n      revert\n    tag_27:\n        /* \"test/Test.sol\":1615:1617  80 */\n      0x50\n        /* \"test/Test.sol\":1589:1599  multiplier */\n      dup2\n        /* \"test/Test.sol\":1578:1604  Multiplier(multiplier).mul */\n      0xffffffffffffffffffffffffffffffffffffffff\n      and\n      0xc8a4ac9c\n        /* \"test/Test.sol\":1605:1607  20 */\n      0x14\n        /* \"test/Test.sol\":1609:1610  4 */\n      0x04\n        /* \"test/Test.sol\":1578:1611  Multiplier(multiplier).mul(20, 4) */\n      mload(0x40)\n      dup4\n      0xffffffff\n      and\n      0xe0\n      shl\n      dup2\n      mstore\n      0x04\n      add\n      tag_29\n      swap3\n      swap2\n      swap1\n      tag_16\n      jump\t// in\n    tag_29:\n      0x20\n      mload(0x40)\n      dup1\n      dup4\n      sub\n      dup2\n      dup7\n      gas\n      staticcall\n      iszero\n      dup1\n      iszero\n      tag_31\n      jumpi\n      returndatasize\n      0x00\n      dup1\n      returndatacopy\n      revert(0x00, returndatasize)\n    tag_31:\n      pop\n      pop\n      pop\n      pop\n      mload(0x40)\n      returndatasize\n      not(0x1f)\n      0x1f\n      dup3\n      add\n      and\n      dup3\n      add\n      dup1\n      0x40\n      mstore\n      pop\n      dup2\n      add\n      swap1\n      tag_32\n      swap2\n      swap1\n      tag_20\n      jump\t// in\n    tag_32:\n        /* \"test/Test.sol\":1578:1617  Multiplier(multiplier).mul(20, 4) == 80 */\n      eq\n        /* \"test/Test.sol\":1570:1631  require(Multiplier(multiplier).mul(20, 4) == 80, \"No add up\") */\n      tag_33\n      jumpi\n      mload(0x40)\n      0x08c379a000000000000000000000000000000000000000000000000000000000\n      dup2\n      mstore\n      0x04\n      add\n      tag_34\n      swap1\n      tag_23\n      jump\t// in\n    tag_34:\n      mload(0x40)\n      dup1\n      swap2\n      sub\n      swap1\n      revert\n    tag_33:\n        /* \"test/Test.sol\":1642:1659  address mockAdmin */\n      0x00\n        /* \"test/Test.sol\":1670:1685  new MockAdmin() */\n      mload(0x40)\n      tag_35\n      swap1\n      tag_36\n      jump\t// in\n    tag_35:\n      mload(0x40)\n      dup1\n      swap2\n      sub\n      swap1\n      0x00\n      create\n      dup1\n      iszero\n      dup1\n      iszero\n      tag_37\n      jumpi\n      returndatasize\n      0x00\n      dup1\n      returndatacopy\n      revert(0x00, returndatasize)\n    tag_37:\n      pop\n        /* \"test/Test.sol\":1642:1686  address mockAdmin = address(new MockAdmin()) */\n      swap1\n      pop\n        /* \"test/Test.sol\":1715:1724  mockAdmin */\n      dup1\n        /* \"test/Test.sol\":1705:1731  MockAdmin(mockAdmin).check */\n      0xffffffffffffffffffffffffffffffffffffffff\n      and\n      0x919840ad\n        /* \"test/Test.sol\":1705:1733  MockAdmin(mockAdmin).check() */\n      mload(0x40)\n      dup2\n      0xffffffff\n      and\n      0xe0\n      shl\n      dup2\n      mstore\n      0x04\n      add\n      0x20\n      mload(0x40)\n      dup1\n      dup4\n      sub\n      dup2\n      dup7\n      gas\n      staticcall\n      iszero\n      dup1\n      iszero\n      tag_39\n      jumpi\n      returndatasize\n      0x00\n      dup1\n      returndatacopy\n      revert(0x00, returndatasize)\n    tag_39:\n      pop\n      pop\n      pop\n      pop\n      mload(0x40)\n      returndatasize\n      not(0x1f)\n      0x1f\n      dup3\n      add\n      and\n      dup3\n      add\n      dup1\n      0x40\n      mstore\n      pop\n      dup2\n      add\n      swap1\n      tag_40\n      swap2\n      swap1\n      tag_41\n      jump\t// in\n    tag_40:\n        /* \"test/Test.sol\":1697:1749  require(MockAdmin(mockAdmin).check(), \"Check fails\") */\n      tag_42\n      jumpi\n      mload(0x40)\n      0x08c379a000000000000000000000000000000000000000000000000000000000\n      dup2\n      mstore\n      0x04\n      add\n      tag_43\n      swap1\n      tag_44\n      jump\t// in\n    tag_43:\n      mload(0x40)\n      dup1\n      swap2\n      sub\n      swap1\n      revert\n    tag_42:\n        /* \"test/Test.sol\":1760:1783  address[] memory admins */\n      0x00\n        /* \"test/Test.sol\":1800:1801  3 */\n      0x03\n        /* \"test/Test.sol\":1786:1802  new address[](3) */\n      0xffffffffffffffff\n      dup2\n      gt\n      iszero\n      tag_45\n      jumpi\n      tag_46\n      tag_47\n      jump\t// in\n    tag_46:\n    tag_45:\n      mload(0x40)\n      swap1\n      dup1\n      dup3\n      mstore\n      dup1\n      0x20\n      mul\n      0x20\n      add\n      dup3\n      add\n      0x40\n      mstore\n      dup1\n      iszero\n      tag_48\n      jumpi\n      dup2\n      0x20\n      add\n      0x20\n      dup3\n      mul\n      dup1\n      calldatasize\n      dup4\n      calldatacopy\n      dup1\n      dup3\n      add\n      swap2\n      pop\n      pop\n      swap1\n      pop\n    tag_48:\n      pop\n        /* \"test/Test.sol\":1760:1802  address[] memory admins = new address[](3) */\n      swap1\n      pop\n        /* \"test/Test.sol\":1833:1837  this */\n      address\n        /* \"test/Test.sol\":1813:1819  admins */\n      dup2\n        /* \"test/Test.sol\":1820:1821  0 */\n      0x00\n        /* \"test/Test.sol\":1813:1822  admins[0] */\n      dup2\n      mload\n      dup2\n      lt\n      tag_49\n      jumpi\n      tag_50\n      tag_51\n      jump\t// in\n    tag_50:\n    tag_49:\n      0x20\n      mul\n      0x20\n      add\n      add\n        /* \"test/Test.sol\":1813:1838  admins[0] = address(this) */\n      swap1\n      0xffffffffffffffffffffffffffffffffffffffff\n      and\n      swap1\n      dup2\n      0xffffffffffffffffffffffffffffffffffffffff\n      and\n      dup2\n      mstore\n      pop\n      pop\n        /* \"test/Test.sol\":1861:1871  msg.sender */\n      caller\n        /* \"test/Test.sol\":1849:1855  admins */\n      dup2\n        /* \"test/Test.sol\":1856:1857  1 */\n      0x01\n        /* \"test/Test.sol\":1849:1858  admins[1] */\n      dup2\n      mload\n      dup2\n      lt\n      tag_52\n      jumpi\n      tag_53\n      tag_51\n      jump\t// in\n    tag_53:\n    tag_52:\n      0x20\n      mul\n      0x20\n      add\n      add\n        /* \"test/Test.sol\":1849:1871  admins[1] = msg.sender */\n      swap1\n      0xffffffffffffffffffffffffffffffffffffffff\n      and\n      swap1\n      dup2\n      0xffffffffffffffffffffffffffffffffffffffff\n      and\n      dup2\n      mstore\n      pop\n      pop\n        /* \"test/Test.sol\":1894:1903  mockAdmin */\n      dup2\n        /* \"test/Test.sol\":1882:1888  admins */\n      dup2\n        /* \"test/Test.sol\":1889:1890  2 */\n      0x02\n        /* \"test/Test.sol\":1882:1891  admins[2] */\n      dup2\n      mload\n      dup2\n      lt\n      tag_54\n      jumpi\n      tag_55\n      tag_51\n      jump\t// in\n    tag_55:\n    tag_54:\n      0x20\n      mul\n      0x20\n      add\n      add\n        /* \"test/Test.sol\":1882:1903  admins[2] = mockAdmin */\n      swap1\n      0xffffffffffffffffffffffffffffffffffffffff\n      and\n      swap1\n      dup2\n      0xffffffffffffffffffffffffffffffffffffffff\n      and\n      dup2\n      mstore\n      pop\n      pop\n        /* \"test/Test.sol\":1914:1927  TestSeed seed */\n      0x00\n        /* \"test/Test.sol\":1943:1949  admins */\n      dup2\n        /* \"test/Test.sol\":1930:1950  new TestSeed(admins) */\n      mload(0x40)\n      tag_56\n      swap1\n      tag_57\n      jump\t// in\n    tag_56:\n      tag_58\n      swap2\n      swap1\n      tag_59\n      jump\t// in\n    tag_58:\n      mload(0x40)\n      dup1\n      swap2\n      sub\n      swap1\n      0x00\n      create\n      dup1\n      iszero\n      dup1\n      iszero\n      tag_60\n      jumpi\n      returndatasize\n      0x00\n      dup1\n      returndatacopy\n      revert(0x00, returndatasize)\n    tag_60:\n      pop\n        /* \"test/Test.sol\":1914:1950  TestSeed seed = new TestSeed(admins) */\n      swap1\n      pop\n        /* \"test/Test.sol\":1969:1973  seed */\n      dup1\n        /* \"test/Test.sol\":1969:1981  seed.isAdmin */\n      0xffffffffffffffffffffffffffffffffffffffff\n      and\n      0x24d7806c\n        /* \"test/Test.sol\":1990:1994  this */\n      address\n        /* \"test/Test.sol\":1969:1996  seed.isAdmin(address(this)) */\n      mload(0x40)\n      dup3\n      0xffffffff\n      and\n      0xe0\n      shl\n      dup2\n      mstore\n      0x04\n      add\n      tag_61\n      swap2\n      swap1\n      tag_62\n      jump\t// in\n    tag_61:\n      0x20\n      mload(0x40)\n      dup1\n      dup4\n      sub\n      dup2\n      dup7\n      gas\n      staticcall\n      iszero\n      dup1\n      iszero\n      tag_64\n      jumpi\n      returndatasize\n      0x00\n      dup1\n      returndatacopy\n      revert(0x00, returndatasize)\n    tag_64:\n      pop\n      pop\n      pop\n      pop\n      mload(0x40)\n      returndatasize\n      not(0x1f)\n      0x1f\n      dup3\n      add\n      and\n      dup3\n      add\n      dup1\n      0x40\n      mstore\n      pop\n      dup2\n      add\n      swap1\n      tag_65\n      swap2\n      swap1\n      tag_41\n      jump\t// in\n    tag_65:\n        /* \"test/Test.sol\":1961:2010  require(seed.isAdmin(address(this)), \"Not admin\") */\n      tag_66\n      jumpi\n      mload(0x40)\n      0x08c379a000000000000000000000000000000000000000000000000000000000\n      dup2\n      mstore\n      0x04\n      add\n      tag_67\n      swap1\n      tag_68\n      jump\t// in\n    tag_67:\n      mload(0x40)\n      dup1\n      swap2\n      sub\n      swap1\n      revert\n    tag_66:\n        /* \"test/Test.sol\":2029:2033  seed */\n      dup1\n        /* \"test/Test.sol\":2029:2041  seed.isAdmin */\n      0xffffffffffffffffffffffffffffffffffffffff\n      and\n      0x24d7806c\n        /* \"test/Test.sol\":2042:2051  mockAdmin */\n      dup5\n        /* \"test/Test.sol\":2029:2052  seed.isAdmin(mockAdmin) */\n      mload(0x40)\n      dup3\n      0xffffffff\n      and\n      0xe0\n      shl\n      dup2\n      mstore\n      0x04\n      add\n      tag_69\n      swap2\n      swap1\n      tag_62\n      jump\t// in\n    tag_69:\n      0x20\n      mload(0x40)\n      dup1\n      dup4\n      sub\n      dup2\n      dup7\n      gas\n      staticcall\n      iszero\n      dup1\n      iszero\n      tag_71\n      jumpi\n      returndatasize\n      0x00\n      dup1\n      returndatacopy\n      revert(0x00, returndatasize)\n    tag_71:\n      pop\n      pop\n      pop\n      pop\n      mload(0x40)\n      returndatasize\n      not(0x1f)\n      0x1f\n      dup3\n      add\n      and\n      dup3\n      add\n      dup1\n      0x40\n      mstore\n      pop\n      dup2\n      add\n      swap1\n      tag_72\n      swap2\n      swap1\n      tag_41\n      jump\t// in\n    tag_72:\n        /* \"test/Test.sol\":2021:2066  require(seed.isAdmin(mockAdmin), \"Not admin\") */\n      tag_73\n      jumpi\n      mload(0x40)\n      0x08c379a000000000000000000000000000000000000000000000000000000000\n      dup2\n      mstore\n      0x04\n      add\n      tag_74\n      swap1\n      tag_68\n      jump\t// in\n    tag_74:\n      mload(0x40)\n      dup1\n      swap2\n      sub\n      swap1\n      revert\n    tag_73:\n        /* \"test/Test.sol\":2085:2089  seed */\n      dup1\n        /* \"test/Test.sol\":2085:2097  seed.isAdmin */\n      0xffffffffffffffffffffffffffffffffffffffff\n      and\n      0x24d7806c\n        /* \"test/Test.sol\":2098:2108  msg.sender */\n      caller\n        /* \"test/Test.sol\":2085:2109  seed.isAdmin(msg.sender) */\n      mload(0x40)\n      dup3\n      0xffffffff\n      and\n      0xe0\n      shl\n      dup2\n      mstore\n      0x04\n      add\n      tag_75\n      swap2\n      swap1\n      tag_62\n      jump\t// in\n    tag_75:\n      0x20\n      mload(0x40)\n      dup1\n      dup4\n      sub\n      dup2\n      dup7\n      gas\n      staticcall\n      iszero\n      dup1\n      iszero\n      tag_77\n      jumpi\n      returndatasize\n      0x00\n      dup1\n      returndatacopy\n      revert(0x00, returndatasize)\n    tag_77:\n      pop\n      pop\n      pop\n      pop\n      mload(0x40)\n      returndatasize\n      not(0x1f)\n      0x1f\n      dup3\n      add\n      and\n      dup3\n      add\n      dup1\n      0x40\n      mstore\n      pop\n      dup2\n      add\n      swap1\n      tag_78\n      swap2\n      swap1\n      tag_41\n      jump\t// in\n    tag_78:\n        /* \"test/Test.sol\":2077:2123  require(seed.isAdmin(msg.sender), \"Not admin\") */\n      tag_79\n      jumpi\n      mload(0x40)\n      0x08c379a000000000000000000000000000000000000000000000000000000000\n      dup2\n      mstore\n      0x04\n      add\n      tag_80\n      swap1\n      tag_68\n      jump\t// in\n    tag_80:\n      mload(0x40)\n      dup1\n      swap2\n      sub\n      swap1\n      revert\n    tag_79:\n        /* \"test/Test.sol\":2142:2162  Divider.div.selector */\n      shl(0xe0, 0xa391c15b)\n        /* \"test/Test.sol\":2134:2162  debug = Divider.div.selector */\n      swap6\n      pop\n        /* \"test/Test.sol\":2173:2177  seed */\n      dup1\n        /* \"test/Test.sol\":2173:2184  seed.deploy */\n      0xffffffffffffffffffffffffffffffffffffffff\n      and\n      0x997b81c9\n        /* \"test/Test.sol\":2185:2205  Divider.div.selector */\n      shl(0xe0, 0xa391c15b)\n        /* \"test/Test.sol\":2207:2214  divider */\n      dup8\n        /* \"test/Test.sol\":2173:2215  seed.deploy(Divider.div.selector, divider) */\n      mload(0x40)\n      dup4\n      0xffffffff\n      and\n      0xe0\n      shl\n      dup2\n      mstore\n      0x04\n      add\n      tag_81\n      swap3\n      swap2\n      swap1\n      tag_82\n      jump\t// in\n    tag_81:\n      0x20\n      mload(0x40)\n      dup1\n      dup4\n      sub\n      dup2\n      0x00\n      dup8\n      gas\n      call\n      iszero\n      dup1\n      iszero\n      tag_84\n      jumpi\n      returndatasize\n      0x00\n      dup1\n      returndatacopy\n      revert(0x00, returndatasize)\n    tag_84:\n      pop\n      pop\n      pop\n      pop\n      mload(0x40)\n      returndatasize\n      not(0x1f)\n      0x1f\n      dup3\n      add\n      and\n      dup3\n      add\n      dup1\n      0x40\n      mstore\n      pop\n      dup2\n      add\n      swap1\n      tag_85\n      swap2\n      swap1\n      tag_86\n      jump\t// in\n    tag_85:\n      pop\n        /* \"test/Test.sol\":2236:2245  mockAdmin */\n      dup3\n        /* \"test/Test.sol\":2226:2255  MockAdmin(mockAdmin).doDeploy */\n      0xffffffffffffffffffffffffffffffffffffffff\n      and\n      0xcaca46f7\n        /* \"test/Test.sol\":2256:2260  seed */\n      dup3\n        /* \"test/Test.sol\":2262:2285  Multiplier.mul.selector */\n      shl(0xe0, 0xc8a4ac9c)\n        /* \"test/Test.sol\":2287:2297  multiplier */\n      dup8\n        /* \"test/Test.sol\":2226:2298  MockAdmin(mockAdmin).doDeploy(seed, Multiplier.mul.selector, multiplier) */\n      mload(0x40)\n      dup5\n      0xffffffff\n      and\n      0xe0\n      shl\n      dup2\n      mstore\n      0x04\n      add\n      tag_87\n      swap4\n      swap3\n      swap2\n      swap1\n      tag_88\n      jump\t// in\n    tag_87:\n      0x00\n      mload(0x40)\n      dup1\n      dup4\n      sub\n      dup2\n      0x00\n      dup8\n      dup1\n      extcodesize\n      iszero\n      dup1\n      iszero\n      tag_89\n      jumpi\n      0x00\n      dup1\n      revert\n    tag_89:\n      pop\n      gas\n      call\n      iszero\n      dup1\n      iszero\n      tag_91\n      jumpi\n      returndatasize\n      0x00\n      dup1\n      returndatacopy\n      revert(0x00, returndatasize)\n    tag_91:\n      pop\n      pop\n      pop\n      pop\n        /* \"test/Test.sol\":2309:2321  address tree */\n      0x00\n        /* \"test/Test.sol\":2349:2353  seed */\n      dup2\n        /* \"test/Test.sol\":2332:2355  new Tree(address(seed)) */\n      mload(0x40)\n      tag_92\n      swap1\n      tag_93\n      jump\t// in\n    tag_92:\n      tag_94\n      swap2\n      swap1\n      tag_62\n      jump\t// in\n    tag_94:\n      mload(0x40)\n      dup1\n      swap2\n      sub\n      swap1\n      0x00\n      create\n      dup1\n      iszero\n      dup1\n      iszero\n      tag_95\n      jumpi\n      returndatasize\n      0x00\n      dup1\n      returndatacopy\n      revert(0x00, returndatasize)\n    tag_95:\n      pop\n        /* \"test/Test.sol\":2309:2356  address tree = address(new Tree(address(seed))) */\n      swap1\n      pop\n        /* \"test/Test.sol\":2367:2382  uint256 divided */\n      0x00\n        /* \"test/Test.sol\":2393:2397  tree */\n      dup2\n        /* \"test/Test.sol\":2385:2402  Divider(tree).div */\n      0xffffffffffffffffffffffffffffffffffffffff\n      and\n      0xa391c15b\n        /* \"test/Test.sol\":2403:2405  20 */\n      0x14\n        /* \"test/Test.sol\":2407:2408  4 */\n      0x04\n        /* \"test/Test.sol\":2385:2409  Divider(tree).div(20, 4) */\n      mload(0x40)\n      dup4\n      0xffffffff\n      and\n      0xe0\n      shl\n      dup2\n      mstore\n      0x04\n      add\n      tag_96\n      swap3\n      swap2\n      swap1\n      tag_16\n      jump\t// in\n    tag_96:\n      0x20\n      mload(0x40)\n      dup1\n      dup4\n      sub\n      dup2\n      dup7\n      gas\n      staticcall\n      iszero\n      dup1\n      iszero\n      tag_98\n      jumpi\n      returndatasize\n      0x00\n      dup1\n      returndatacopy\n      revert(0x00, returndatasize)\n    tag_98:\n      pop\n      pop\n      pop\n      pop\n      mload(0x40)\n      returndatasize\n      not(0x1f)\n      0x1f\n      dup3\n      add\n      and\n      dup3\n      add\n      dup1\n      0x40\n      mstore\n      pop\n      dup2\n      add\n      swap1\n      tag_99\n      swap2\n      swap1\n      tag_20\n      jump\t// in\n    tag_99:\n        /* \"test/Test.sol\":2367:2409  uint256 divided = Divider(tree).div(20, 4) */\n      swap1\n      pop\n        /* \"test/Test.sol\":2439:2440  5 */\n      0x05\n        /* \"test/Test.sol\":2428:2435  divided */\n      dup2\n        /* \"test/Test.sol\":2428:2440  divided == 5 */\n      eq\n        /* \"test/Test.sol\":2420:2450  require(divided == 5, \"Uh oh\") */\n      tag_100\n      jumpi\n      mload(0x40)\n      0x08c379a000000000000000000000000000000000000000000000000000000000\n      dup2\n      mstore\n      0x04\n      add\n      tag_101\n      swap1\n      tag_102\n      jump\t// in\n    tag_101:\n      mload(0x40)\n      dup1\n      swap2\n      sub\n      swap1\n      revert\n    tag_100:\n        /* \"test/Test.sol\":2461:2479  uint256 multiplied */\n      0x00\n        /* \"test/Test.sol\":2493:2497  tree */\n      dup3\n        /* \"test/Test.sol\":2482:2502  Multiplier(tree).mul */\n      0xffffffffffffffffffffffffffffffffffffffff\n      and\n      0xc8a4ac9c\n        /* \"test/Test.sol\":2503:2505  20 */\n      0x14\n        /* \"test/Test.sol\":2507:2508  4 */\n      0x04\n        /* \"test/Test.sol\":2482:2509  Multiplier(tree).mul(20, 4) */\n      mload(0x40)\n      dup4\n      0xffffffff\n      and\n      0xe0\n      shl\n      dup2\n      mstore\n      0x04\n      add\n      tag_103\n      swap3\n      swap2\n      swap1\n      tag_16\n      jump\t// in\n    tag_103:\n      0x20\n      mload(0x40)\n      dup1\n      dup4\n      sub\n      dup2\n      dup7\n      gas\n      staticcall\n      iszero\n      dup1\n      iszero\n      tag_105\n      jumpi\n      returndatasize\n      0x00\n      dup1\n      returndatacopy\n      revert(0x00, returndatasize)\n    tag_105:\n      pop\n      pop\n      pop\n      pop\n      mload(0x40)\n      returndatasize\n      not(0x1f)\n      0x1f\n      dup3\n      add\n      and\n      dup3\n      add\n      dup1\n      0x40\n      mstore\n      pop\n      dup2\n      add\n      swap1\n      tag_106\n      swap2\n      swap1\n      tag_20\n      jump\t// in\n    tag_106:\n        /* \"test/Test.sol\":2461:2509  uint256 multiplied = Multiplier(tree).mul(20, 4) */\n      swap1\n      pop\n        /* \"test/Test.sol\":2542:2544  80 */\n      0x50\n        /* \"test/Test.sol\":2528:2538  multiplied */\n      dup2\n        /* \"test/Test.sol\":2528:2544  multiplied == 80 */\n      eq\n        /* \"test/Test.sol\":2520:2554  require(multiplied == 80, \"Oh no\") */\n      tag_107\n      jumpi\n      mload(0x40)\n      0x08c379a000000000000000000000000000000000000000000000000000000000\n      dup2\n      mstore\n      0x04\n      add\n      tag_108\n      swap1\n      tag_109\n      jump\t// in\n    tag_108:\n      mload(0x40)\n      dup1\n      swap2\n      sub\n      swap1\n      revert\n    tag_107:\n        /* \"test/Test.sol\":1273:2562  {... */\n      pop\n      pop\n      pop\n      pop\n      pop\n      pop\n      pop\n      pop\n        /* \"test/Test.sol\":1224:2562  function test1() external returns (bytes4 debug) {... */\n      swap1\n      jump\t// out\n    tag_10:\n      dataSize(sub_0)\n      dup1\n      dataOffset(sub_0)\n      dup4\n      codecopy\n      add\n      swap1\n      jump\t// out\n    tag_25:\n      dataSize(sub_1)\n      dup1\n      dataOffset(sub_1)\n      dup4\n      codecopy\n      add\n      swap1\n      jump\t// out\n    tag_36:\n      dataSize(sub_2)\n      dup1\n      dataOffset(sub_2)\n      dup4\n      codecopy\n      add\n      swap1\n      jump\t// out\n    tag_57:\n      dataSize(sub_3)\n      dup1\n      dataOffset(sub_3)\n      dup4\n      codecopy\n      add\n      swap1\n      jump\t// out\n    tag_93:\n      dataSize(sub_4)\n      dup1\n      dataOffset(sub_4)\n      dup4\n      codecopy\n      add\n      swap1\n      jump\t// out\n        /* \"#utility.yul\":7:156   */\n    tag_110:\n        /* \"#utility.yul\":43:50   */\n      0x00\n        /* \"#utility.yul\":83:149   */\n      0xffffffff00000000000000000000000000000000000000000000000000000000\n        /* \"#utility.yul\":76:81   */\n      dup3\n        /* \"#utility.yul\":72:150   */\n      and\n        /* \"#utility.yul\":61:150   */\n      swap1\n      pop\n        /* \"#utility.yul\":7:156   */\n      swap2\n      swap1\n      pop\n      jump\t// out\n        /* \"#utility.yul\":162:277   */\n    tag_111:\n        /* \"#utility.yul\":247:270   */\n      tag_160\n        /* \"#utility.yul\":264:269   */\n      dup2\n        /* \"#utility.yul\":247:270   */\n      tag_110\n      jump\t// in\n    tag_160:\n        /* \"#utility.yul\":242:245   */\n      dup3\n        /* \"#utility.yul\":235:271   */\n      mstore\n        /* \"#utility.yul\":162:277   */\n      pop\n      pop\n      jump\t// out\n        /* \"#utility.yul\":283:501   */\n    tag_7:\n        /* \"#utility.yul\":374:378   */\n      0x00\n        /* \"#utility.yul\":412:414   */\n      0x20\n        /* \"#utility.yul\":401:410   */\n      dup3\n        /* \"#utility.yul\":397:415   */\n      add\n        /* \"#utility.yul\":389:415   */\n      swap1\n      pop\n        /* \"#utility.yul\":425:494   */\n      tag_162\n        /* \"#utility.yul\":491:492   */\n      0x00\n        /* \"#utility.yul\":480:489   */\n      dup4\n        /* \"#utility.yul\":476:493   */\n      add\n        /* \"#utility.yul\":467:473   */\n      dup5\n        /* \"#utility.yul\":425:494   */\n      tag_111\n      jump\t// in\n    tag_162:\n        /* \"#utility.yul\":283:501   */\n      swap3\n      swap2\n      pop\n      pop\n      jump\t// out\n        /* \"#utility.yul\":507:676   */\n    tag_112:\n        /* \"#utility.yul\":591:602   */\n      0x00\n        /* \"#utility.yul\":625:631   */\n      dup3\n        /* \"#utility.yul\":620:623   */\n      dup3\n        /* \"#utility.yul\":613:632   */\n      mstore\n        /* \"#utility.yul\":665:669   */\n      0x20\n        /* \"#utility.yul\":660:663   */\n      dup3\n        /* \"#utility.yul\":656:670   */\n      add\n        /* \"#utility.yul\":641:670   */\n      swap1\n      pop\n        /* \"#utility.yul\":507:676   */\n      swap3\n      swap2\n      pop\n      pop\n      jump\t// out\n        /* \"#utility.yul\":682:839   */\n    tag_113:\n        /* \"#utility.yul\":822:831   */\n      0x4e6f20636f646500000000000000000000000000000000000000000000000000\n        /* \"#utility.yul\":818:819   */\n      0x00\n        /* \"#utility.yul\":810:816   */\n      dup3\n        /* \"#utility.yul\":806:820   */\n      add\n        /* \"#utility.yul\":799:832   */\n      mstore\n        /* \"#utility.yul\":682:839   */\n      pop\n      jump\t// out\n        /* \"#utility.yul\":845:1210   */\n    tag_114:\n        /* \"#utility.yul\":987:990   */\n      0x00\n        /* \"#utility.yul\":1008:1074   */\n      tag_166\n        /* \"#utility.yul\":1072:1073   */\n      0x07\n        /* \"#utility.yul\":1067:1070   */\n      dup4\n        /* \"#utility.yul\":1008:1074   */\n      tag_112\n      jump\t// in\n    tag_166:\n        /* \"#utility.yul\":1001:1074   */\n      swap2\n      pop\n        /* \"#utility.yul\":1083:1176   */\n      tag_167\n        /* \"#utility.yul\":1172:1175   */\n      dup3\n        /* \"#utility.yul\":1083:1176   */\n      tag_113\n      jump\t// in\n    tag_167:\n        /* \"#utility.yul\":1201:1203   */\n      0x20\n        /* \"#utility.yul\":1196:1199   */\n      dup3\n        /* \"#utility.yul\":1192:1204   */\n      add\n        /* \"#utility.yul\":1185:1204   */\n      swap1\n      pop\n        /* \"#utility.yul\":845:1210   */\n      swap2\n      swap1\n      pop\n      jump\t// out\n        /* \"#utility.yul\":1216:1635   */\n    tag_14:\n        /* \"#utility.yul\":1382:1386   */\n      0x00\n        /* \"#utility.yul\":1420:1422   */\n      0x20\n        /* \"#utility.yul\":1409:1418   */\n      dup3\n        /* \"#utility.yul\":1405:1423   */\n      add\n        /* \"#utility.yul\":1397:1423   */\n      swap1\n      pop\n        /* \"#utility.yul\":1469:1478   */\n      dup2\n        /* \"#utility.yul\":1463:1467   */\n      dup2\n        /* \"#utility.yul\":1459:1479   */\n      sub\n        /* \"#utility.yul\":1455:1456   */\n      0x00\n        /* \"#utility.yul\":1444:1453   */\n      dup4\n        /* \"#utility.yul\":1440:1457   */\n      add\n        /* \"#utility.yul\":1433:1480   */\n      mstore\n        /* \"#utility.yul\":1497:1628   */\n      tag_169\n        /* \"#utility.yul\":1623:1627   */\n      dup2\n        /* \"#utility.yul\":1497:1628   */\n      tag_114\n      jump\t// in\n    tag_169:\n        /* \"#utility.yul\":1489:1628   */\n      swap1\n      pop\n        /* \"#utility.yul\":1216:1635   */\n      swap2\n      swap1\n      pop\n      jump\t// out\n        /* \"#utility.yul\":1641:1727   */\n    tag_115:\n        /* \"#utility.yul\":1687:1694   */\n      0x00\n        /* \"#utility.yul\":1716:1721   */\n      dup2\n        /* \"#utility.yul\":1705:1721   */\n      swap1\n      pop\n        /* \"#utility.yul\":1641:1727   */\n      swap2\n      swap1\n      pop\n      jump\t// out\n        /* \"#utility.yul\":1733:1810   */\n    tag_116:\n        /* \"#utility.yul\":1770:1777   */\n      0x00\n        /* \"#utility.yul\":1799:1804   */\n      dup2\n        /* \"#utility.yul\":1788:1804   */\n      swap1\n      pop\n        /* \"#utility.yul\":1733:1810   */\n      swap2\n      swap1\n      pop\n      jump\t// out\n        /* \"#utility.yul\":1816:1876   */\n    tag_117:\n        /* \"#utility.yul\":1844:1847   */\n      0x00\n        /* \"#utility.yul\":1865:1870   */\n      dup2\n        /* \"#utility.yul\":1858:1870   */\n      swap1\n      pop\n        /* \"#utility.yul\":1816:1876   */\n      swap2\n      swap1\n      pop\n      jump\t// out\n        /* \"#utility.yul\":1882:2042   */\n    tag_118:\n        /* \"#utility.yul\":1941:1950   */\n      0x00\n        /* \"#utility.yul\":1974:2036   */\n      tag_174\n        /* \"#utility.yul\":1992:2035   */\n      tag_175\n        /* \"#utility.yul\":2001:2034   */\n      tag_176\n        /* \"#utility.yul\":2028:2033   */\n      dup5\n        /* \"#utility.yul\":2001:2034   */\n      tag_115\n      jump\t// in\n    tag_176:\n        /* \"#utility.yul\":1992:2035   */\n      tag_117\n      jump\t// in\n    tag_175:\n        /* \"#utility.yul\":1974:2036   */\n      tag_116\n      jump\t// in\n    tag_174:\n        /* \"#utility.yul\":1961:2036   */\n      swap1\n      pop\n        /* \"#utility.yul\":1882:2042   */\n      swap2\n      swap1\n      pop\n      jump\t// out\n        /* \"#utility.yul\":2048:2197   */\n    tag_119:\n        /* \"#utility.yul\":2144:2190   */\n      tag_178\n        /* \"#utility.yul\":2184:2189   */\n      dup2\n        /* \"#utility.yul\":2144:2190   */\n      tag_118\n      jump\t// in\n    tag_178:\n        /* \"#utility.yul\":2139:2142   */\n      dup3\n        /* \"#utility.yul\":2132:2191   */\n      mstore\n        /* \"#utility.yul\":2048:2197   */\n      pop\n      pop\n      jump\t// out\n        /* \"#utility.yul\":2203:2288   */\n    tag_120:\n        /* \"#utility.yul\":2248:2255   */\n      0x00\n        /* \"#utility.yul\":2277:2282   */\n      dup2\n        /* \"#utility.yul\":2266:2282   */\n      swap1\n      pop\n        /* \"#utility.yul\":2203:2288   */\n      swap2\n      swap1\n      pop\n      jump\t// out\n        /* \"#utility.yul\":2294:2452   */\n    tag_121:\n        /* \"#utility.yul\":2352:2361   */\n      0x00\n        /* \"#utility.yul\":2385:2446   */\n      tag_181\n        /* \"#utility.yul\":2403:2445   */\n      tag_182\n        /* \"#utility.yul\":2412:2444   */\n      tag_183\n        /* \"#utility.yul\":2438:2443   */\n      dup5\n        /* \"#utility.yul\":2412:2444   */\n      tag_120\n      jump\t// in\n    tag_183:\n        /* \"#utility.yul\":2403:2445   */\n      tag_117\n      jump\t// in\n    tag_182:\n        /* \"#utility.yul\":2385:2446   */\n      tag_116\n      jump\t// in\n    tag_181:\n        /* \"#utility.yul\":2372:2446   */\n      swap1\n      pop\n        /* \"#utility.yul\":2294:2452   */\n      swap2\n      swap1\n      pop\n      jump\t// out\n        /* \"#utility.yul\":2458:2605   */\n    tag_122:\n        /* \"#utility.yul\":2553:2598   */\n      tag_185\n        /* \"#utility.yul\":2592:2597   */\n      dup2\n        /* \"#utility.yul\":2553:2598   */\n      tag_121\n      jump\t// in\n    tag_185:\n        /* \"#utility.yul\":2548:2551   */\n      dup3\n        /* \"#utility.yul\":2541:2599   */\n      mstore\n        /* \"#utility.yul\":2458:2605   */\n      pop\n      pop\n      jump\t// out\n        /* \"#utility.yul\":2611:2977   */\n    tag_16:\n        /* \"#utility.yul\":2749:2753   */\n      0x00\n        /* \"#utility.yul\":2787:2789   */\n      0x40\n        /* \"#utility.yul\":2776:2785   */\n      dup3\n        /* \"#utility.yul\":2772:2790   */\n      add\n        /* \"#utility.yul\":2764:2790   */\n      swap1\n      pop\n        /* \"#utility.yul\":2800:2880   */\n      tag_187\n        /* \"#utility.yul\":2877:2878   */\n      0x00\n        /* \"#utility.yul\":2866:2875   */\n      dup4\n        /* \"#utility.yul\":2862:2879   */\n      add\n        /* \"#utility.yul\":2853:2859   */\n      dup6\n        /* \"#utility.yul\":2800:2880   */\n      tag_119\n      jump\t// in\n    tag_187:\n        /* \"#utility.yul\":2890:2970   */\n      tag_188\n        /* \"#utility.yul\":2966:2968   */\n      0x20\n        /* \"#utility.yul\":2955:2964   */\n      dup4\n        /* \"#utility.yul\":2951:2969   */\n      add\n        /* \"#utility.yul\":2942:2948   */\n      dup5\n        /* \"#utility.yul\":2890:2970   */\n      tag_122\n      jump\t// in\n    tag_188:\n        /* \"#utility.yul\":2611:2977   */\n      swap4\n      swap3\n      pop\n      pop\n      pop\n      jump\t// out\n        /* \"#utility.yul\":3064:3181   */\n    tag_124:\n        /* \"#utility.yul\":3173:3174   */\n      0x00\n        /* \"#utility.yul\":3170:3171   */\n      dup1\n        /* \"#utility.yul\":3163:3175   */\n      revert\n        /* \"#utility.yul\":3310:3432   */\n    tag_126:\n        /* \"#utility.yul\":3383:3407   */\n      tag_193\n        /* \"#utility.yul\":3401:3406   */\n      dup2\n        /* \"#utility.yul\":3383:3407   */\n      tag_116\n      jump\t// in\n    tag_193:\n        /* \"#utility.yul\":3376:3381   */\n      dup2\n        /* \"#utility.yul\":3373:3408   */\n      eq\n        /* \"#utility.yul\":3363:3426   */\n      tag_194\n      jumpi\n        /* \"#utility.yul\":3422:3423   */\n      0x00\n        /* \"#utility.yul\":3419:3420   */\n      dup1\n        /* \"#utility.yul\":3412:3424   */\n      revert\n        /* \"#utility.yul\":3363:3426   */\n    tag_194:\n        /* \"#utility.yul\":3310:3432   */\n      pop\n      jump\t// out\n        /* \"#utility.yul\":3438:3581   */\n    tag_127:\n        /* \"#utility.yul\":3495:3500   */\n      0x00\n        /* \"#utility.yul\":3526:3532   */\n      dup2\n        /* \"#utility.yul\":3520:3533   */\n      mload\n        /* \"#utility.yul\":3511:3533   */\n      swap1\n      pop\n        /* \"#utility.yul\":3542:3575   */\n      tag_196\n        /* \"#utility.yul\":3569:3574   */\n      dup2\n        /* \"#utility.yul\":3542:3575   */\n      tag_126\n      jump\t// in\n    tag_196:\n        /* \"#utility.yul\":3438:3581   */\n      swap3\n      swap2\n      pop\n      pop\n      jump\t// out\n        /* \"#utility.yul\":3587:3938   */\n    tag_20:\n        /* \"#utility.yul\":3657:3663   */\n      0x00\n        /* \"#utility.yul\":3706:3708   */\n      0x20\n        /* \"#utility.yul\":3694:3703   */\n      dup3\n        /* \"#utility.yul\":3685:3692   */\n      dup5\n        /* \"#utility.yul\":3681:3704   */\n      sub\n        /* \"#utility.yul\":3677:3709   */\n      slt\n        /* \"#utility.yul\":3674:3793   */\n      iszero\n      tag_198\n      jumpi\n        /* \"#utility.yul\":3712:3791   */\n      tag_199\n      tag_124\n      jump\t// in\n    tag_199:\n        /* \"#utility.yul\":3674:3793   */\n    tag_198:\n        /* \"#utility.yul\":3832:3833   */\n      0x00\n        /* \"#utility.yul\":3857:3921   */\n      tag_200\n        /* \"#utility.yul\":3913:3920   */\n      dup5\n        /* \"#utility.yul\":3904:3910   */\n      dup3\n        /* \"#utility.yul\":3893:3902   */\n      dup6\n        /* \"#utility.yul\":3889:3911   */\n      add\n        /* \"#utility.yul\":3857:3921   */\n      tag_127\n      jump\t// in\n    tag_200:\n        /* \"#utility.yul\":3847:3921   */\n      swap2\n      pop\n        /* \"#utility.yul\":3803:3931   */\n      pop\n        /* \"#utility.yul\":3587:3938   */\n      swap3\n      swap2\n      pop\n      pop\n      jump\t// out\n        /* \"#utility.yul\":3944:4103   */\n    tag_128:\n        /* \"#utility.yul\":4084:4095   */\n      0x4e6f206164642075700000000000000000000000000000000000000000000000\n        /* \"#utility.yul\":4080:4081   */\n      0x00\n        /* \"#utility.yul\":4072:4078   */\n      dup3\n        /* \"#utility.yul\":4068:4082   */\n      add\n        /* \"#utility.yul\":4061:4096   */\n      mstore\n        /* \"#utility.yul\":3944:4103   */\n      pop\n      jump\t// out\n        /* \"#utility.yul\":4109:4474   */\n    tag_129:\n        /* \"#utility.yul\":4251:4254   */\n      0x00\n        /* \"#utility.yul\":4272:4338   */\n      tag_203\n        /* \"#utility.yul\":4336:4337   */\n      0x09\n        /* \"#utility.yul\":4331:4334   */\n      dup4\n        /* \"#utility.yul\":4272:4338   */\n      tag_112\n      jump\t// in\n    tag_203:\n        /* \"#utility.yul\":4265:4338   */\n      swap2\n      pop\n        /* \"#utility.yul\":4347:4440   */\n      tag_204\n        /* \"#utility.yul\":4436:4439   */\n      dup3\n        /* \"#utility.yul\":4347:4440   */\n      tag_128\n      jump\t// in\n    tag_204:\n        /* \"#utility.yul\":4465:4467   */\n      0x20\n        /* \"#utility.yul\":4460:4463   */\n      dup3\n        /* \"#utility.yul\":4456:4468   */\n      add\n        /* \"#utility.yul\":4449:4468   */\n      swap1\n      pop\n        /* \"#utility.yul\":4109:4474   */\n      swap2\n      swap1\n      pop\n      jump\t// out\n        /* \"#utility.yul\":4480:4899   */\n    tag_23:\n        /* \"#utility.yul\":4646:4650   */\n      0x00\n        /* \"#utility.yul\":4684:4686   */\n      0x20\n        /* \"#utility.yul\":4673:4682   */\n      dup3\n        /* \"#utility.yul\":4669:4687   */\n      add\n        /* \"#utility.yul\":4661:4687   */\n      swap1\n      pop\n        /* \"#utility.yul\":4733:4742   */\n      dup2\n        /* \"#utility.yul\":4727:4731   */\n      dup2\n        /* \"#utility.yul\":4723:4743   */\n      sub\n        /* \"#utility.yul\":4719:4720   */\n      0x00\n        /* \"#utility.yul\":4708:4717   */\n      dup4\n        /* \"#utility.yul\":4704:4721   */\n      add\n        /* \"#utility.yul\":4697:4744   */\n      mstore\n        /* \"#utility.yul\":4761:4892   */\n      tag_206\n        /* \"#utility.yul\":4887:4891   */\n      dup2\n        /* \"#utility.yul\":4761:4892   */\n      tag_129\n      jump\t// in\n    tag_206:\n        /* \"#utility.yul\":4753:4892   */\n      swap1\n      pop\n        /* \"#utility.yul\":4480:4899   */\n      swap2\n      swap1\n      pop\n      jump\t// out\n        /* \"#utility.yul\":4905:4995   */\n    tag_130:\n        /* \"#utility.yul\":4939:4946   */\n      0x00\n        /* \"#utility.yul\":4982:4987   */\n      dup2\n        /* \"#utility.yul\":4975:4988   */\n      iszero\n        /* \"#utility.yul\":4968:4989   */\n      iszero\n        /* \"#utility.yul\":4957:4989   */\n      swap1\n      pop\n        /* \"#utility.yul\":4905:4995   */\n      swap2\n      swap1\n      pop\n      jump\t// out\n        /* \"#utility.yul\":5001:5117   */\n    tag_131:\n        /* \"#utility.yul\":5071:5092   */\n      tag_209\n        /* \"#utility.yul\":5086:5091   */\n      dup2\n        /* \"#utility.yul\":5071:5092   */\n      tag_130\n      jump\t// in\n    tag_209:\n        /* \"#utility.yul\":5064:5069   */\n      dup2\n        /* \"#utility.yul\":5061:5093   */\n      eq\n        /* \"#utility.yul\":5051:5111   */\n      tag_210\n      jumpi\n        /* \"#utility.yul\":5107:5108   */\n      0x00\n        /* \"#utility.yul\":5104:5105   */\n      dup1\n        /* \"#utility.yul\":5097:5109   */\n      revert\n        /* \"#utility.yul\":5051:5111   */\n    tag_210:\n        /* \"#utility.yul\":5001:5117   */\n      pop\n      jump\t// out\n        /* \"#utility.yul\":5123:5260   */\n    tag_132:\n        /* \"#utility.yul\":5177:5182   */\n      0x00\n        /* \"#utility.yul\":5208:5214   */\n      dup2\n        /* \"#utility.yul\":5202:5215   */\n      mload\n        /* \"#utility.yul\":5193:5215   */\n      swap1\n      pop\n        /* \"#utility.yul\":5224:5254   */\n      tag_212\n        /* \"#utility.yul\":5248:5253   */\n      dup2\n        /* \"#utility.yul\":5224:5254   */\n      tag_131\n      jump\t// in\n    tag_212:\n        /* \"#utility.yul\":5123:5260   */\n      swap3\n      swap2\n      pop\n      pop\n      jump\t// out\n        /* \"#utility.yul\":5266:5611   */\n    tag_41:\n        /* \"#utility.yul\":5333:5339   */\n      0x00\n        /* \"#utility.yul\":5382:5384   */\n      0x20\n        /* \"#utility.yul\":5370:5379   */\n      dup3\n        /* \"#utility.yul\":5361:5368   */\n      dup5\n        /* \"#utility.yul\":5357:5380   */\n      sub\n        /* \"#utility.yul\":5353:5385   */\n      slt\n        /* \"#utility.yul\":5350:5469   */\n      iszero\n      tag_214\n      jumpi\n        /* \"#utility.yul\":5388:5467   */\n      tag_215\n      tag_124\n      jump\t// in\n    tag_215:\n        /* \"#utility.yul\":5350:5469   */\n    tag_214:\n        /* \"#utility.yul\":5508:5509   */\n      0x00\n        /* \"#utility.yul\":5533:5594   */\n      tag_216\n        /* \"#utility.yul\":5586:5593   */\n      dup5\n        /* \"#utility.yul\":5577:5583   */\n      dup3\n        /* \"#utility.yul\":5566:5575   */\n      dup6\n        /* \"#utility.yul\":5562:5584   */\n      add\n        /* \"#utility.yul\":5533:5594   */\n      tag_132\n      jump\t// in\n    tag_216:\n        /* \"#utility.yul\":5523:5594   */\n      swap2\n      pop\n        /* \"#utility.yul\":5479:5604   */\n      pop\n        /* \"#utility.yul\":5266:5611   */\n      swap3\n      swap2\n      pop\n      pop\n      jump\t// out\n        /* \"#utility.yul\":5617:5778   */\n    tag_133:\n        /* \"#utility.yul\":5757:5770   */\n      0x436865636b206661696c73000000000000000000000000000000000000000000\n        /* \"#utility.yul\":5753:5754   */\n      0x00\n        /* \"#utility.yul\":5745:5751   */\n      dup3\n        /* \"#utility.yul\":5741:5755   */\n      add\n        /* \"#utility.yul\":5734:5771   */\n      mstore\n        /* \"#utility.yul\":5617:5778   */\n      pop\n      jump\t// out\n        /* \"#utility.yul\":5784:6150   */\n    tag_134:\n        /* \"#utility.yul\":5926:5929   */\n      0x00\n        /* \"#utility.yul\":5947:6014   */\n      tag_219\n        /* \"#utility.yul\":6011:6013   */\n      0x0b\n        /* \"#utility.yul\":6006:6009   */\n      dup4\n        /* \"#utility.yul\":5947:6014   */\n      tag_112\n      jump\t// in\n    tag_219:\n        /* \"#utility.yul\":5940:6014   */\n      swap2\n      pop\n        /* \"#utility.yul\":6023:6116   */\n      tag_220\n        /* \"#utility.yul\":6112:6115   */\n      dup3\n        /* \"#utility.yul\":6023:6116   */\n      tag_133\n      jump\t// in\n    tag_220:\n        /* \"#utility.yul\":6141:6143   */\n      0x20\n        /* \"#utility.yul\":6136:6139   */\n      dup3\n        /* \"#utility.yul\":6132:6144   */\n      add\n        /* \"#utility.yul\":6125:6144   */\n      swap1\n      pop\n        /* \"#utility.yul\":5784:6150   */\n      swap2\n      swap1\n      pop\n      jump\t// out\n        /* \"#utility.yul\":6156:6575   */\n    tag_44:\n        /* \"#utility.yul\":6322:6326   */\n      0x00\n        /* \"#utility.yul\":6360:6362   */\n      0x20\n        /* \"#utility.yul\":6349:6358   */\n      dup3\n        /* \"#utility.yul\":6345:6363   */\n      add\n        /* \"#utility.yul\":6337:6363   */\n      swap1\n      pop\n        /* \"#utility.yul\":6409:6418   */\n      dup2\n        /* \"#utility.yul\":6403:6407   */\n      dup2\n        /* \"#utility.yul\":6399:6419   */\n      sub\n        /* \"#utility.yul\":6395:6396   */\n      0x00\n        /* \"#utility.yul\":6384:6393   */\n      dup4\n        /* \"#utility.yul\":6380:6397   */\n      add\n        /* \"#utility.yul\":6373:6420   */\n      mstore\n        /* \"#utility.yul\":6437:6568   */\n      tag_222\n        /* \"#utility.yul\":6563:6567   */\n      dup2\n        /* \"#utility.yul\":6437:6568   */\n      tag_134\n      jump\t// in\n    tag_222:\n        /* \"#utility.yul\":6429:6568   */\n      swap1\n      pop\n        /* \"#utility.yul\":6156:6575   */\n      swap2\n      swap1\n      pop\n      jump\t// out\n        /* \"#utility.yul\":6581:6761   */\n    tag_47:\n        /* \"#utility.yul\":6629:6706   */\n      0x4e487b7100000000000000000000000000000000000000000000000000000000\n        /* \"#utility.yul\":6626:6627   */\n      0x00\n        /* \"#utility.yul\":6619:6707   */\n      mstore\n        /* \"#utility.yul\":6726:6730   */\n      0x41\n        /* \"#utility.yul\":6723:6724   */\n      0x04\n        /* \"#utility.yul\":6716:6731   */\n      mstore\n        /* \"#utility.yul\":6750:6754   */\n      0x24\n        /* \"#utility.yul\":6747:6748   */\n      0x00\n        /* \"#utility.yul\":6740:6755   */\n      revert\n        /* \"#utility.yul\":6767:6947   */\n    tag_51:\n        /* \"#utility.yul\":6815:6892   */\n      0x4e487b7100000000000000000000000000000000000000000000000000000000\n        /* \"#utility.yul\":6812:6813   */\n      0x00\n        /* \"#utility.yul\":6805:6893   */\n      mstore\n        /* \"#utility.yul\":6912:6916   */\n      0x32\n        /* \"#utility.yul\":6909:6910   */\n      0x04\n        /* \"#utility.yul\":6902:6917   */\n      mstore\n        /* \"#utility.yul\":6936:6940   */\n      0x24\n        /* \"#utility.yul\":6933:6934   */\n      0x00\n        /* \"#utility.yul\":6926:6941   */\n      revert\n        /* \"#utility.yul\":6953:7067   */\n    tag_135:\n        /* \"#utility.yul\":7020:7026   */\n      0x00\n        /* \"#utility.yul\":7054:7059   */\n      dup2\n        /* \"#utility.yul\":7048:7060   */\n      mload\n        /* \"#utility.yul\":7038:7060   */\n      swap1\n      pop\n        /* \"#utility.yul\":6953:7067   */\n      swap2\n      swap1\n      pop\n      jump\t// out\n        /* \"#utility.yul\":7073:7257   */\n    tag_136:\n        /* \"#utility.yul\":7172:7183   */\n      0x00\n        /* \"#utility.yul\":7206:7212   */\n      dup3\n        /* \"#utility.yul\":7201:7204   */\n      dup3\n        /* \"#utility.yul\":7194:7213   */\n      mstore\n        /* \"#utility.yul\":7246:7250   */\n      0x20\n        /* \"#utility.yul\":7241:7244   */\n      dup3\n        /* \"#utility.yul\":7237:7251   */\n      add\n        /* \"#utility.yul\":7222:7251   */\n      swap1\n      pop\n        /* \"#utility.yul\":7073:7257   */\n      swap3\n      swap2\n      pop\n      pop\n      jump\t// out\n        /* \"#utility.yul\":7263:7395   */\n    tag_137:\n        /* \"#utility.yul\":7330:7334   */\n      0x00\n        /* \"#utility.yul\":7353:7356   */\n      dup2\n        /* \"#utility.yul\":7345:7356   */\n      swap1\n      pop\n        /* \"#utility.yul\":7383:7387   */\n      0x20\n        /* \"#utility.yul\":7378:7381   */\n      dup3\n        /* \"#utility.yul\":7374:7388   */\n      add\n        /* \"#utility.yul\":7366:7388   */\n      swap1\n      pop\n        /* \"#utility.yul\":7263:7395   */\n      swap2\n      swap1\n      pop\n      jump\t// out\n        /* \"#utility.yul\":7401:7527   */\n    tag_138:\n        /* \"#utility.yul\":7438:7445   */\n      0x00\n        /* \"#utility.yul\":7478:7520   */\n      0xffffffffffffffffffffffffffffffffffffffff\n        /* \"#utility.yul\":7471:7476   */\n      dup3\n        /* \"#utility.yul\":7467:7521   */\n      and\n        /* \"#utility.yul\":7456:7521   */\n      swap1\n      pop\n        /* \"#utility.yul\":7401:7527   */\n      swap2\n      swap1\n      pop\n      jump\t// out\n        /* \"#utility.yul\":7533:7629   */\n    tag_139:\n        /* \"#utility.yul\":7570:7577   */\n      0x00\n        /* \"#utility.yul\":7599:7623   */\n      tag_230\n        /* \"#utility.yul\":7617:7622   */\n      dup3\n        /* \"#utility.yul\":7599:7623   */\n      tag_138\n      jump\t// in\n    tag_230:\n        /* \"#utility.yul\":7588:7623   */\n      swap1\n      pop\n        /* \"#utility.yul\":7533:7629   */\n      swap2\n      swap1\n      pop\n      jump\t// out\n        /* \"#utility.yul\":7635:7743   */\n    tag_140:\n        /* \"#utility.yul\":7712:7736   */\n      tag_232\n        /* \"#utility.yul\":7730:7735   */\n      dup2\n        /* \"#utility.yul\":7712:7736   */\n      tag_139\n      jump\t// in\n    tag_232:\n        /* \"#utility.yul\":7707:7710   */\n      dup3\n        /* \"#utility.yul\":7700:7737   */\n      mstore\n        /* \"#utility.yul\":7635:7743   */\n      pop\n      pop\n      jump\t// out\n        /* \"#utility.yul\":7749:7928   */\n    tag_141:\n        /* \"#utility.yul\":7818:7828   */\n      0x00\n        /* \"#utility.yul\":7839:7885   */\n      tag_234\n        /* \"#utility.yul\":7881:7884   */\n      dup4\n        /* \"#utility.yul\":7873:7879   */\n      dup4\n        /* \"#utility.yul\":7839:7885   */\n      tag_140\n      jump\t// in\n    tag_234:\n        /* \"#utility.yul\":7917:7921   */\n      0x20\n        /* \"#utility.yul\":7912:7915   */\n      dup4\n        /* \"#utility.yul\":7908:7922   */\n      add\n        /* \"#utility.yul\":7894:7922   */\n      swap1\n      pop\n        /* \"#utility.yul\":7749:7928   */\n      swap3\n      swap2\n      pop\n      pop\n      jump\t// out\n        /* \"#utility.yul\":7934:8047   */\n    tag_142:\n        /* \"#utility.yul\":8004:8008   */\n      0x00\n        /* \"#utility.yul\":8036:8040   */\n      0x20\n        /* \"#utility.yul\":8031:8034   */\n      dup3\n        /* \"#utility.yul\":8027:8041   */\n      add\n        /* \"#utility.yul\":8019:8041   */\n      swap1\n      pop\n        /* \"#utility.yul\":7934:8047   */\n      swap2\n      swap1\n      pop\n      jump\t// out\n        /* \"#utility.yul\":8083:8815   */\n    tag_143:\n        /* \"#utility.yul\":8202:8205   */\n      0x00\n        /* \"#utility.yul\":8231:8285   */\n      tag_237\n        /* \"#utility.yul\":8279:8284   */\n      dup3\n        /* \"#utility.yul\":8231:8285   */\n      tag_135\n      jump\t// in\n    tag_237:\n        /* \"#utility.yul\":8301:8387   */\n      tag_238\n        /* \"#utility.yul\":8380:8386   */\n      dup2\n        /* \"#utility.yul\":8375:8378   */\n      dup6\n        /* \"#utility.yul\":8301:8387   */\n      tag_136\n      jump\t// in\n    tag_238:\n        /* \"#utility.yul\":8294:8387   */\n      swap4\n      pop\n        /* \"#utility.yul\":8411:8467   */\n      tag_239\n        /* \"#utility.yul\":8461:8466   */\n      dup4\n        /* \"#utility.yul\":8411:8467   */\n      tag_137\n      jump\t// in\n    tag_239:\n        /* \"#utility.yul\":8490:8497   */\n      dup1\n        /* \"#utility.yul\":8521:8522   */\n      0x00\n        /* \"#utility.yul\":8506:8790   */\n    tag_240:\n        /* \"#utility.yul\":8531:8537   */\n      dup4\n        /* \"#utility.yul\":8528:8529   */\n      dup2\n        /* \"#utility.yul\":8525:8538   */\n      lt\n        /* \"#utility.yul\":8506:8790   */\n      iszero\n      tag_242\n      jumpi\n        /* \"#utility.yul\":8607:8613   */\n      dup2\n        /* \"#utility.yul\":8601:8614   */\n      mload\n        /* \"#utility.yul\":8634:8697   */\n      tag_243\n        /* \"#utility.yul\":8693:8696   */\n      dup9\n        /* \"#utility.yul\":8678:8691   */\n      dup3\n        /* \"#utility.yul\":8634:8697   */\n      tag_141\n      jump\t// in\n    tag_243:\n        /* \"#utility.yul\":8627:8697   */\n      swap8\n      pop\n        /* \"#utility.yul\":8720:8780   */\n      tag_244\n        /* \"#utility.yul\":8773:8779   */\n      dup4\n        /* \"#utility.yul\":8720:8780   */\n      tag_142\n      jump\t// in\n    tag_244:\n        /* \"#utility.yul\":8710:8780   */\n      swap3\n      pop\n        /* \"#utility.yul\":8566:8790   */\n      pop\n        /* \"#utility.yul\":8553:8554   */\n      0x01\n        /* \"#utility.yul\":8550:8551   */\n      dup2\n        /* \"#utility.yul\":8546:8555   */\n      add\n        /* \"#utility.yul\":8541:8555   */\n      swap1\n      pop\n        /* \"#utility.yul\":8506:8790   */\n      jump(tag_240)\n    tag_242:\n        /* \"#utility.yul\":8510:8524   */\n      pop\n        /* \"#utility.yul\":8806:8809   */\n      dup6\n        /* \"#utility.yul\":8799:8809   */\n      swap4\n      pop\n        /* \"#utility.yul\":8207:8815   */\n      pop\n      pop\n      pop\n        /* \"#utility.yul\":8083:8815   */\n      swap3\n      swap2\n      pop\n      pop\n      jump\t// out\n        /* \"#utility.yul\":8821:9194   */\n    tag_59:\n        /* \"#utility.yul\":8964:8968   */\n      0x00\n        /* \"#utility.yul\":9002:9004   */\n      0x20\n        /* \"#utility.yul\":8991:9000   */\n      dup3\n        /* \"#utility.yul\":8987:9005   */\n      add\n        /* \"#utility.yul\":8979:9005   */\n      swap1\n      pop\n        /* \"#utility.yul\":9051:9060   */\n      dup2\n        /* \"#utility.yul\":9045:9049   */\n      dup2\n        /* \"#utility.yul\":9041:9061   */\n      sub\n        /* \"#utility.yul\":9037:9038   */\n      0x00\n        /* \"#utility.yul\":9026:9035   */\n      dup4\n        /* \"#utility.yul\":9022:9039   */\n      add\n        /* \"#utility.yul\":9015:9062   */\n      mstore\n        /* \"#utility.yul\":9079:9187   */\n      tag_246\n        /* \"#utility.yul\":9182:9186   */\n      dup2\n        /* \"#utility.yul\":9173:9179   */\n      dup5\n        /* \"#utility.yul\":9079:9187   */\n      tag_143\n      jump\t// in\n    tag_246:\n        /* \"#utility.yul\":9071:9187   */\n      swap1\n      pop\n        /* \"#utility.yul\":8821:9194   */\n      swap3\n      swap2\n      pop\n      pop\n      jump\t// out\n        /* \"#utility.yul\":9200:9318   */\n    tag_144:\n        /* \"#utility.yul\":9287:9311   */\n      tag_248\n        /* \"#utility.yul\":9305:9310   */\n      dup2\n        /* \"#utility.yul\":9287:9311   */\n      tag_139\n      jump\t// in\n    tag_248:\n        /* \"#utility.yul\":9282:9285   */\n      dup3\n        /* \"#utility.yul\":9275:9312   */\n      mstore\n        /* \"#utility.yul\":9200:9318   */\n      pop\n      pop\n      jump\t// out\n        /* \"#utility.yul\":9324:9546   */\n    tag_62:\n        /* \"#utility.yul\":9417:9421   */\n      0x00\n        /* \"#utility.yul\":9455:9457   */\n      0x20\n        /* \"#utility.yul\":9444:9453   */\n      dup3\n        /* \"#utility.yul\":9440:9458   */\n      add\n        /* \"#utility.yul\":9432:9458   */\n      swap1\n      pop\n        /* \"#utility.yul\":9468:9539   */\n      tag_250\n        /* \"#utility.yul\":9536:9537   */\n      0x00\n        /* \"#utility.yul\":9525:9534   */\n      dup4\n        /* \"#utility.yul\":9521:9538   */\n      add\n        /* \"#utility.yul\":9512:9518   */\n      dup5\n        /* \"#utility.yul\":9468:9539   */\n      tag_144\n      jump\t// in\n    tag_250:\n        /* \"#utility.yul\":9324:9546   */\n      swap3\n      swap2\n      pop\n      pop\n      jump\t// out\n        /* \"#utility.yul\":9552:9711   */\n    tag_145:\n        /* \"#utility.yul\":9692:9703   */\n      0x4e6f742061646d696e0000000000000000000000000000000000000000000000\n        /* \"#utility.yul\":9688:9689   */\n      0x00\n        /* \"#utility.yul\":9680:9686   */\n      dup3\n        /* \"#utility.yul\":9676:9690   */\n      add\n        /* \"#utility.yul\":9669:9704   */\n      mstore\n        /* \"#utility.yul\":9552:9711   */\n      pop\n      jump\t// out\n        /* \"#utility.yul\":9717:10082   */\n    tag_146:\n        /* \"#utility.yul\":9859:9862   */\n      0x00\n        /* \"#utility.yul\":9880:9946   */\n      tag_253\n        /* \"#utility.yul\":9944:9945   */\n      0x09\n        /* \"#utility.yul\":9939:9942   */\n      dup4\n        /* \"#utility.yul\":9880:9946   */\n      tag_112\n      jump\t// in\n    tag_253:\n        /* \"#utility.yul\":9873:9946   */\n      swap2\n      pop\n        /* \"#utility.yul\":9955:10048   */\n      tag_254\n        /* \"#utility.yul\":10044:10047   */\n      dup3\n        /* \"#utility.yul\":9955:10048   */\n      tag_145\n      jump\t// in\n    tag_254:\n        /* \"#utility.yul\":10073:10075   */\n      0x20\n        /* \"#utility.yul\":10068:10071   */\n      dup3\n        /* \"#utility.yul\":10064:10076   */\n      add\n        /* \"#utility.yul\":10057:10076   */\n      swap1\n      pop\n        /* \"#utility.yul\":9717:10082   */\n      swap2\n      swap1\n      pop\n      jump\t// out\n        /* \"#utility.yul\":10088:10507   */\n    tag_68:\n        /* \"#utility.yul\":10254:10258   */\n      0x00\n        /* \"#utility.yul\":10292:10294   */\n      0x20\n        /* \"#utility.yul\":10281:10290   */\n      dup3\n        /* \"#utility.yul\":10277:10295   */\n      add\n        /* \"#utility.yul\":10269:10295   */\n      swap1\n      pop\n        /* \"#utility.yul\":10341:10350   */\n      dup2\n        /* \"#utility.yul\":10335:10339   */\n      dup2\n        /* \"#utility.yul\":10331:10351   */\n      sub\n        /* \"#utility.yul\":10327:10328   */\n      0x00\n        /* \"#utility.yul\":10316:10325   */\n      dup4\n        /* \"#utility.yul\":10312:10329   */\n      add\n        /* \"#utility.yul\":10305:10352   */\n      mstore\n        /* \"#utility.yul\":10369:10500   */\n      tag_256\n        /* \"#utility.yul\":10495:10499   */\n      dup2\n        /* \"#utility.yul\":10369:10500   */\n      tag_146\n      jump\t// in\n    tag_256:\n        /* \"#utility.yul\":10361:10500   */\n      swap1\n      pop\n        /* \"#utility.yul\":10088:10507   */\n      swap2\n      swap1\n      pop\n      jump\t// out\n        /* \"#utility.yul\":10513:10841   */\n    tag_82:\n        /* \"#utility.yul\":10632:10636   */\n      0x00\n        /* \"#utility.yul\":10670:10672   */\n      0x40\n        /* \"#utility.yul\":10659:10668   */\n      dup3\n        /* \"#utility.yul\":10655:10673   */\n      add\n        /* \"#utility.yul\":10647:10673   */\n      swap1\n      pop\n        /* \"#utility.yul\":10683:10752   */\n      tag_258\n        /* \"#utility.yul\":10749:10750   */\n      0x00\n        /* \"#utility.yul\":10738:10747   */\n      dup4\n        /* \"#utility.yul\":10734:10751   */\n      add\n        /* \"#utility.yul\":10725:10731   */\n      dup6\n        /* \"#utility.yul\":10683:10752   */\n      tag_111\n      jump\t// in\n    tag_258:\n        /* \"#utility.yul\":10762:10834   */\n      tag_259\n        /* \"#utility.yul\":10830:10832   */\n      0x20\n        /* \"#utility.yul\":10819:10828   */\n      dup4\n        /* \"#utility.yul\":10815:10833   */\n      add\n        /* \"#utility.yul\":10806:10812   */\n      dup5\n        /* \"#utility.yul\":10762:10834   */\n      tag_144\n      jump\t// in\n    tag_259:\n        /* \"#utility.yul\":10513:10841   */\n      swap4\n      swap3\n      pop\n      pop\n      pop\n      jump\t// out\n        /* \"#utility.yul\":10847:10969   */\n    tag_147:\n        /* \"#utility.yul\":10920:10944   */\n      tag_261\n        /* \"#utility.yul\":10938:10943   */\n      dup2\n        /* \"#utility.yul\":10920:10944   */\n      tag_139\n      jump\t// in\n    tag_261:\n        /* \"#utility.yul\":10913:10918   */\n      dup2\n        /* \"#utility.yul\":10910:10945   */\n      eq\n        /* \"#utility.yul\":10900:10963   */\n      tag_262\n      jumpi\n        /* \"#utility.yul\":10959:10960   */\n      0x00\n        /* \"#utility.yul\":10956:10957   */\n      dup1\n        /* \"#utility.yul\":10949:10961   */\n      revert\n        /* \"#utility.yul\":10900:10963   */\n    tag_262:\n        /* \"#utility.yul\":10847:10969   */\n      pop\n      jump\t// out\n        /* \"#utility.yul\":10975:11118   */\n    tag_148:\n        /* \"#utility.yul\":11032:11037   */\n      0x00\n        /* \"#utility.yul\":11063:11069   */\n      dup2\n        /* \"#utility.yul\":11057:11070   */\n      mload\n        /* \"#utility.yul\":11048:11070   */\n      swap1\n      pop\n        /* \"#utility.yul\":11079:11112   */\n      tag_264\n        /* \"#utility.yul\":11106:11111   */\n      dup2\n        /* \"#utility.yul\":11079:11112   */\n      tag_147\n      jump\t// in\n    tag_264:\n        /* \"#utility.yul\":10975:11118   */\n      swap3\n      swap2\n      pop\n      pop\n      jump\t// out\n        /* \"#utility.yul\":11124:11475   */\n    tag_86:\n        /* \"#utility.yul\":11194:11200   */\n      0x00\n        /* \"#utility.yul\":11243:11245   */\n      0x20\n        /* \"#utility.yul\":11231:11240   */\n      dup3\n        /* \"#utility.yul\":11222:11229   */\n      dup5\n        /* \"#utility.yul\":11218:11241   */\n      sub\n        /* \"#utility.yul\":11214:11246   */\n      slt\n        /* \"#utility.yul\":11211:11330   */\n      iszero\n      tag_266\n      jumpi\n        /* \"#utility.yul\":11249:11328   */\n      tag_267\n      tag_124\n      jump\t// in\n    tag_267:\n        /* \"#utility.yul\":11211:11330   */\n    tag_266:\n        /* \"#utility.yul\":11369:11370   */\n      0x00\n        /* \"#utility.yul\":11394:11458   */\n      tag_268\n        /* \"#utility.yul\":11450:11457   */\n      dup5\n        /* \"#utility.yul\":11441:11447   */\n      dup3\n        /* \"#utility.yul\":11430:11439   */\n      dup6\n        /* \"#utility.yul\":11426:11448   */\n      add\n        /* \"#utility.yul\":11394:11458   */\n      tag_148\n      jump\t// in\n    tag_268:\n        /* \"#utility.yul\":11384:11458   */\n      swap2\n      pop\n        /* \"#utility.yul\":11340:11468   */\n      pop\n        /* \"#utility.yul\":11124:11475   */\n      swap3\n      swap2\n      pop\n      pop\n      jump\t// out\n        /* \"#utility.yul\":11481:11623   */\n    tag_149:\n        /* \"#utility.yul\":11531:11540   */\n      0x00\n        /* \"#utility.yul\":11564:11617   */\n      tag_270\n        /* \"#utility.yul\":11582:11616   */\n      tag_271\n        /* \"#utility.yul\":11591:11615   */\n      tag_272\n        /* \"#utility.yul\":11609:11614   */\n      dup5\n        /* \"#utility.yul\":11591:11615   */\n      tag_138\n      jump\t// in\n    tag_272:\n        /* \"#utility.yul\":11582:11616   */\n      tag_117\n      jump\t// in\n    tag_271:\n        /* \"#utility.yul\":11564:11617   */\n      tag_138\n      jump\t// in\n    tag_270:\n        /* \"#utility.yul\":11551:11617   */\n      swap1\n      pop\n        /* \"#utility.yul\":11481:11623   */\n      swap2\n      swap1\n      pop\n      jump\t// out\n        /* \"#utility.yul\":11629:11755   */\n    tag_150:\n        /* \"#utility.yul\":11679:11688   */\n      0x00\n        /* \"#utility.yul\":11712:11749   */\n      tag_274\n        /* \"#utility.yul\":11743:11748   */\n      dup3\n        /* \"#utility.yul\":11712:11749   */\n      tag_149\n      jump\t// in\n    tag_274:\n        /* \"#utility.yul\":11699:11749   */\n      swap1\n      pop\n        /* \"#utility.yul\":11629:11755   */\n      swap2\n      swap1\n      pop\n      jump\t// out\n        /* \"#utility.yul\":11761:11903   */\n    tag_151:\n        /* \"#utility.yul\":11827:11836   */\n      0x00\n        /* \"#utility.yul\":11860:11897   */\n      tag_276\n        /* \"#utility.yul\":11891:11896   */\n      dup3\n        /* \"#utility.yul\":11860:11897   */\n      tag_150\n      jump\t// in\n    tag_276:\n        /* \"#utility.yul\":11847:11897   */\n      swap1\n      pop\n        /* \"#utility.yul\":11761:11903   */\n      swap2\n      swap1\n      pop\n      jump\t// out\n        /* \"#utility.yul\":11909:12072   */\n    tag_152:\n        /* \"#utility.yul\":12012:12065   */\n      tag_278\n        /* \"#utility.yul\":12059:12064   */\n      dup2\n        /* \"#utility.yul\":12012:12065   */\n      tag_151\n      jump\t// in\n    tag_278:\n        /* \"#utility.yul\":12007:12010   */\n      dup3\n        /* \"#utility.yul\":12000:12066   */\n      mstore\n        /* \"#utility.yul\":11909:12072   */\n      pop\n      pop\n      jump\t// out\n        /* \"#utility.yul\":12078:12548   */\n    tag_88:\n        /* \"#utility.yul\":12241:12245   */\n      0x00\n        /* \"#utility.yul\":12279:12281   */\n      0x60\n        /* \"#utility.yul\":12268:12277   */\n      dup3\n        /* \"#utility.yul\":12264:12282   */\n      add\n        /* \"#utility.yul\":12256:12282   */\n      swap1\n      pop\n        /* \"#utility.yul\":12292:12379   */\n      tag_280\n        /* \"#utility.yul\":12376:12377   */\n      0x00\n        /* \"#utility.yul\":12365:12374   */\n      dup4\n        /* \"#utility.yul\":12361:12378   */\n      add\n        /* \"#utility.yul\":12352:12358   */\n      dup7\n        /* \"#utility.yul\":12292:12379   */\n      tag_152\n      jump\t// in\n    tag_280:\n        /* \"#utility.yul\":12389:12459   */\n      tag_281\n        /* \"#utility.yul\":12455:12457   */\n      0x20\n        /* \"#utility.yul\":12444:12453   */\n      dup4\n        /* \"#utility.yul\":12440:12458   */\n      add\n        /* \"#utility.yul\":12431:12437   */\n      dup6\n        /* \"#utility.yul\":12389:12459   */\n      tag_111\n      jump\t// in\n    tag_281:\n        /* \"#utility.yul\":12469:12541   */\n      tag_282\n        /* \"#utility.yul\":12537:12539   */\n      0x40\n        /* \"#utility.yul\":12526:12535   */\n      dup4\n        /* \"#utility.yul\":12522:12540   */\n      add\n        /* \"#utility.yul\":12513:12519   */\n      dup5\n        /* \"#utility.yul\":12469:12541   */\n      tag_144\n      jump\t// in\n    tag_282:\n        /* \"#utility.yul\":12078:12548   */\n      swap5\n      swap4\n      pop\n      pop\n      pop\n      pop\n      jump\t// out\n        /* \"#utility.yul\":12554:12709   */\n    tag_153:\n        /* \"#utility.yul\":12694:12701   */\n      0x5568206f68000000000000000000000000000000000000000000000000000000\n        /* \"#utility.yul\":12690:12691   */\n      0x00\n        /* \"#utility.yul\":12682:12688   */\n      dup3\n        /* \"#utility.yul\":12678:12692   */\n      add\n        /* \"#utility.yul\":12671:12702   */\n      mstore\n        /* \"#utility.yul\":12554:12709   */\n      pop\n      jump\t// out\n        /* \"#utility.yul\":12715:13080   */\n    tag_154:\n        /* \"#utility.yul\":12857:12860   */\n      0x00\n        /* \"#utility.yul\":12878:12944   */\n      tag_285\n        /* \"#utility.yul\":12942:12943   */\n      0x05\n        /* \"#utility.yul\":12937:12940   */\n      dup4\n        /* \"#utility.yul\":12878:12944   */\n      tag_112\n      jump\t// in\n    tag_285:\n        /* \"#utility.yul\":12871:12944   */\n      swap2\n      pop\n        /* \"#utility.yul\":12953:13046   */\n      tag_286\n        /* \"#utility.yul\":13042:13045   */\n      dup3\n        /* \"#utility.yul\":12953:13046   */\n      tag_153\n      jump\t// in\n    tag_286:\n        /* \"#utility.yul\":13071:13073   */\n      0x20\n        /* \"#utility.yul\":13066:13069   */\n      dup3\n        /* \"#utility.yul\":13062:13074   */\n      add\n        /* \"#utility.yul\":13055:13074   */\n      swap1\n      pop\n        /* \"#utility.yul\":12715:13080   */\n      swap2\n      swap1\n      pop\n      jump\t// out\n        /* \"#utility.yul\":13086:13505   */\n    tag_102:\n        /* \"#utility.yul\":13252:13256   */\n      0x00\n        /* \"#utility.yul\":13290:13292   */\n      0x20\n        /* \"#utility.yul\":13279:13288   */\n      dup3\n        /* \"#utility.yul\":13275:13293   */\n      add\n        /* \"#utility.yul\":13267:13293   */\n      swap1\n      pop\n        /* \"#utility.yul\":13339:13348   */\n      dup2\n        /* \"#utility.yul\":13333:13337   */\n      dup2\n        /* \"#utility.yul\":13329:13349   */\n      sub\n        /* \"#utility.yul\":13325:13326   */\n      0x00\n        /* \"#utility.yul\":13314:13323   */\n      dup4\n        /* \"#utility.yul\":13310:13327   */\n      add\n        /* \"#utility.yul\":13303:13350   */\n      mstore\n        /* \"#utility.yul\":13367:13498   */\n      tag_288\n        /* \"#utility.yul\":13493:13497   */\n      dup2\n        /* \"#utility.yul\":13367:13498   */\n      tag_154\n      jump\t// in\n    tag_288:\n        /* \"#utility.yul\":13359:13498   */\n      swap1\n      pop\n        /* \"#utility.yul\":13086:13505   */\n      swap2\n      swap1\n      pop\n      jump\t// out\n        /* \"#utility.yul\":13511:13666   */\n    tag_155:\n        /* \"#utility.yul\":13651:13658   */\n      0x4f68206e6f000000000000000000000000000000000000000000000000000000\n        /* \"#utility.yul\":13647:13648   */\n      0x00\n        /* \"#utility.yul\":13639:13645   */\n      dup3\n        /* \"#utility.yul\":13635:13649   */\n      add\n        /* \"#utility.yul\":13628:13659   */\n      mstore\n        /* \"#utility.yul\":13511:13666   */\n      pop\n      jump\t// out\n        /* \"#utility.yul\":13672:14037   */\n    tag_156:\n        /* \"#utility.yul\":13814:13817   */\n      0x00\n        /* \"#utility.yul\":13835:13901   */\n      tag_291\n        /* \"#utility.yul\":13899:13900   */\n      0x05\n        /* \"#utility.yul\":13894:13897   */\n      dup4\n        /* \"#utility.yul\":13835:13901   */\n      tag_112\n      jump\t// in\n    tag_291:\n        /* \"#utility.yul\":13828:13901   */\n      swap2\n      pop\n        /* \"#utility.yul\":13910:14003   */\n      tag_292\n        /* \"#utility.yul\":13999:14002   */\n      dup3\n        /* \"#utility.yul\":13910:14003   */\n      tag_155\n      jump\t// in\n    tag_292:\n        /* \"#utility.yul\":14028:14030   */\n      0x20\n        /* \"#utility.yul\":14023:14026   */\n      dup3\n        /* \"#utility.yul\":14019:14031   */\n      add\n        /* \"#utility.yul\":14012:14031   */\n      swap1\n      pop\n        /* \"#utility.yul\":13672:14037   */\n      swap2\n      swap1\n      pop\n      jump\t// out\n        /* \"#utility.yul\":14043:14462   */\n    tag_109:\n        /* \"#utility.yul\":14209:14213   */\n      0x00\n        /* \"#utility.yul\":14247:14249   */\n      0x20\n        /* \"#utility.yul\":14236:14245   */\n      dup3\n        /* \"#utility.yul\":14232:14250   */\n      add\n        /* \"#utility.yul\":14224:14250   */\n      swap1\n      pop\n        /* \"#utility.yul\":14296:14305   */\n      dup2\n        /* \"#utility.yul\":14290:14294   */\n      dup2\n        /* \"#utility.yul\":14286:14306   */\n      sub\n        /* \"#utility.yul\":14282:14283   */\n      0x00\n        /* \"#utility.yul\":14271:14280   */\n      dup4\n        /* \"#utility.yul\":14267:14284   */\n      add\n        /* \"#utility.yul\":14260:14307   */\n      mstore\n        /* \"#utility.yul\":14324:14455   */\n      tag_294\n        /* \"#utility.yul\":14450:14454   */\n      dup2\n        /* \"#utility.yul\":14324:14455   */\n      tag_156\n      jump\t// in\n    tag_294:\n        /* \"#utility.yul\":14316:14455   */\n      swap1\n      pop\n        /* \"#utility.yul\":14043:14462   */\n      swap2\n      swap1\n      pop\n      jump\t// out\n    stop\n\n    sub_0: assembly {\n            /* \"test/Test.sol\":206:330  contract Divider {... */\n          mstore(0x40, 0x80)\n          callvalue\n          dup1\n          iszero\n          tag_1\n          jumpi\n          0x00\n          dup1\n          revert\n        tag_1:\n          pop\n          dataSize(sub_0)\n          dup1\n          dataOffset(sub_0)\n          0x00\n          codecopy\n          0x00\n          return\n        stop\n\n        sub_0: assembly {\n                /* \"test/Test.sol\":206:330  contract Divider {... */\n              mstore(0x40, 0x80)\n              callvalue\n              dup1\n              iszero\n              tag_1\n              jumpi\n              0x00\n              dup1\n              revert\n            tag_1:\n              pop\n              jumpi(tag_2, lt(calldatasize, 0x04))\n              shr(0xe0, calldataload(0x00))\n              dup1\n              0xa391c15b\n              eq\n              tag_3\n              jumpi\n            tag_2:\n              0x00\n              dup1\n              revert\n                /* \"test/Test.sol\":230:327  function div(uint256 x, uint256 y) external pure returns (uint256 z) {... */\n            tag_3:\n              tag_4\n              0x04\n              dup1\n              calldatasize\n              sub\n              dup2\n              add\n              swap1\n              tag_5\n              swap2\n              swap1\n              tag_6\n              jump\t// in\n            tag_5:\n              tag_7\n              jump\t// in\n            tag_4:\n              mload(0x40)\n              tag_8\n              swap2\n              swap1\n              tag_9\n              jump\t// in\n            tag_8:\n              mload(0x40)\n              dup1\n              swap2\n              sub\n              swap1\n              return\n            tag_7:\n                /* \"test/Test.sol\":288:297  uint256 z */\n              0x00\n                /* \"test/Test.sol\":318:319  y */\n              dup2\n                /* \"test/Test.sol\":314:315  x */\n              dup4\n                /* \"test/Test.sol\":314:319  x / y */\n              tag_11\n              swap2\n              swap1\n              tag_12\n              jump\t// in\n            tag_11:\n                /* \"test/Test.sol\":310:319  z = x / y */\n              swap1\n              pop\n                /* \"test/Test.sol\":230:327  function div(uint256 x, uint256 y) external pure returns (uint256 z) {... */\n              swap3\n              swap2\n              pop\n              pop\n              jump\t// out\n                /* \"#utility.yul\":88:205   */\n            tag_14:\n                /* \"#utility.yul\":197:198   */\n              0x00\n                /* \"#utility.yul\":194:195   */\n              dup1\n                /* \"#utility.yul\":187:199   */\n              revert\n                /* \"#utility.yul\":334:411   */\n            tag_16:\n                /* \"#utility.yul\":371:378   */\n              0x00\n                /* \"#utility.yul\":400:405   */\n              dup2\n                /* \"#utility.yul\":389:405   */\n              swap1\n              pop\n                /* \"#utility.yul\":334:411   */\n              swap2\n              swap1\n              pop\n              jump\t// out\n                /* \"#utility.yul\":417:539   */\n            tag_17:\n                /* \"#utility.yul\":490:514   */\n              tag_28\n                /* \"#utility.yul\":508:513   */\n              dup2\n                /* \"#utility.yul\":490:514   */\n              tag_16\n              jump\t// in\n            tag_28:\n                /* \"#utility.yul\":483:488   */\n              dup2\n                /* \"#utility.yul\":480:515   */\n              eq\n                /* \"#utility.yul\":470:533   */\n              tag_29\n              jumpi\n                /* \"#utility.yul\":529:530   */\n              0x00\n                /* \"#utility.yul\":526:527   */\n              dup1\n                /* \"#utility.yul\":519:531   */\n              revert\n                /* \"#utility.yul\":470:533   */\n            tag_29:\n                /* \"#utility.yul\":417:539   */\n              pop\n              jump\t// out\n                /* \"#utility.yul\":545:684   */\n            tag_18:\n                /* \"#utility.yul\":591:596   */\n              0x00\n                /* \"#utility.yul\":629:635   */\n              dup2\n                /* \"#utility.yul\":616:636   */\n              calldataload\n                /* \"#utility.yul\":607:636   */\n              swap1\n              pop\n                /* \"#utility.yul\":645:678   */\n              tag_31\n                /* \"#utility.yul\":672:677   */\n              dup2\n                /* \"#utility.yul\":645:678   */\n              tag_17\n              jump\t// in\n            tag_31:\n                /* \"#utility.yul\":545:684   */\n              swap3\n              swap2\n              pop\n              pop\n              jump\t// out\n                /* \"#utility.yul\":690:1164   */\n            tag_6:\n                /* \"#utility.yul\":758:764   */\n              0x00\n                /* \"#utility.yul\":766:772   */\n              dup1\n                /* \"#utility.yul\":815:817   */\n              0x40\n                /* \"#utility.yul\":803:812   */\n              dup4\n                /* \"#utility.yul\":794:801   */\n              dup6\n                /* \"#utility.yul\":790:813   */\n              sub\n                /* \"#utility.yul\":786:818   */\n              slt\n                /* \"#utility.yul\":783:902   */\n              iszero\n              tag_33\n              jumpi\n                /* \"#utility.yul\":821:900   */\n              tag_34\n              tag_14\n              jump\t// in\n            tag_34:\n                /* \"#utility.yul\":783:902   */\n            tag_33:\n                /* \"#utility.yul\":941:942   */\n              0x00\n                /* \"#utility.yul\":966:1019   */\n              tag_35\n                /* \"#utility.yul\":1011:1018   */\n              dup6\n                /* \"#utility.yul\":1002:1008   */\n              dup3\n                /* \"#utility.yul\":991:1000   */\n              dup7\n                /* \"#utility.yul\":987:1009   */\n              add\n                /* \"#utility.yul\":966:1019   */\n              tag_18\n              jump\t// in\n            tag_35:\n                /* \"#utility.yul\":956:1019   */\n              swap3\n              pop\n                /* \"#utility.yul\":912:1029   */\n              pop\n                /* \"#utility.yul\":1068:1070   */\n              0x20\n                /* \"#utility.yul\":1094:1147   */\n              tag_36\n                /* \"#utility.yul\":1139:1146   */\n              dup6\n                /* \"#utility.yul\":1130:1136   */\n              dup3\n                /* \"#utility.yul\":1119:1128   */\n              dup7\n                /* \"#utility.yul\":1115:1137   */\n              add\n                /* \"#utility.yul\":1094:1147   */\n              tag_18\n              jump\t// in\n            tag_36:\n                /* \"#utility.yul\":1084:1147   */\n              swap2\n              pop\n                /* \"#utility.yul\":1039:1157   */\n              pop\n                /* \"#utility.yul\":690:1164   */\n              swap3\n              pop\n              swap3\n              swap1\n              pop\n              jump\t// out\n                /* \"#utility.yul\":1170:1288   */\n            tag_19:\n                /* \"#utility.yul\":1257:1281   */\n              tag_38\n                /* \"#utility.yul\":1275:1280   */\n              dup2\n                /* \"#utility.yul\":1257:1281   */\n              tag_16\n              jump\t// in\n            tag_38:\n                /* \"#utility.yul\":1252:1255   */\n              dup3\n                /* \"#utility.yul\":1245:1282   */\n              mstore\n                /* \"#utility.yul\":1170:1288   */\n              pop\n              pop\n              jump\t// out\n                /* \"#utility.yul\":1294:1516   */\n            tag_9:\n                /* \"#utility.yul\":1387:1391   */\n              0x00\n                /* \"#utility.yul\":1425:1427   */\n              0x20\n                /* \"#utility.yul\":1414:1423   */\n              dup3\n                /* \"#utility.yul\":1410:1428   */\n              add\n                /* \"#utility.yul\":1402:1428   */\n              swap1\n              pop\n                /* \"#utility.yul\":1438:1509   */\n              tag_40\n                /* \"#utility.yul\":1506:1507   */\n              0x00\n                /* \"#utility.yul\":1495:1504   */\n              dup4\n                /* \"#utility.yul\":1491:1508   */\n              add\n                /* \"#utility.yul\":1482:1488   */\n              dup5\n                /* \"#utility.yul\":1438:1509   */\n              tag_19\n              jump\t// in\n            tag_40:\n                /* \"#utility.yul\":1294:1516   */\n              swap3\n              swap2\n              pop\n              pop\n              jump\t// out\n                /* \"#utility.yul\":1522:1702   */\n            tag_20:\n                /* \"#utility.yul\":1570:1647   */\n              0x4e487b7100000000000000000000000000000000000000000000000000000000\n                /* \"#utility.yul\":1567:1568   */\n              0x00\n                /* \"#utility.yul\":1560:1648   */\n              mstore\n                /* \"#utility.yul\":1667:1671   */\n              0x12\n                /* \"#utility.yul\":1664:1665   */\n              0x04\n                /* \"#utility.yul\":1657:1672   */\n              mstore\n                /* \"#utility.yul\":1691:1695   */\n              0x24\n                /* \"#utility.yul\":1688:1689   */\n              0x00\n                /* \"#utility.yul\":1681:1696   */\n              revert\n                /* \"#utility.yul\":1894:2079   */\n            tag_12:\n                /* \"#utility.yul\":1934:1935   */\n              0x00\n                /* \"#utility.yul\":1951:1971   */\n              tag_44\n                /* \"#utility.yul\":1969:1970   */\n              dup3\n                /* \"#utility.yul\":1951:1971   */\n              tag_16\n              jump\t// in\n            tag_44:\n                /* \"#utility.yul\":1946:1971   */\n              swap2\n              pop\n                /* \"#utility.yul\":1985:2005   */\n              tag_45\n                /* \"#utility.yul\":2003:2004   */\n              dup4\n                /* \"#utility.yul\":1985:2005   */\n              tag_16\n              jump\t// in\n            tag_45:\n                /* \"#utility.yul\":1980:2005   */\n              swap3\n              pop\n                /* \"#utility.yul\":2024:2025   */\n              dup3\n                /* \"#utility.yul\":2014:2049   */\n              tag_46\n              jumpi\n                /* \"#utility.yul\":2029:2047   */\n              tag_47\n              tag_20\n              jump\t// in\n            tag_47:\n                /* \"#utility.yul\":2014:2049   */\n            tag_46:\n                /* \"#utility.yul\":2071:2072   */\n              dup3\n                /* \"#utility.yul\":2068:2069   */\n              dup3\n                /* \"#utility.yul\":2064:2073   */\n              div\n                /* \"#utility.yul\":2059:2073   */\n              swap1\n              pop\n                /* \"#utility.yul\":1894:2079   */\n              swap3\n              swap2\n              pop\n              pop\n              jump\t// out\n\n            auxdata: 0xa26469706673582212203d3cdef3df048e1cf63cb3891b05c06c1b7c696f4d6ec41dafdd76407598a9d264736f6c63430008120033\n        }\n    }\n\n    sub_1: assembly {\n            /* \"test/Test.sol\":390:520  contract Multiplier {... */\n          mstore(0x40, 0x80)\n          callvalue\n          dup1\n          iszero\n          tag_1\n          jumpi\n          0x00\n          dup1\n          revert\n        tag_1:\n          pop\n          dataSize(sub_0)\n          dup1\n          dataOffset(sub_0)\n          0x00\n          codecopy\n          0x00\n          return\n        stop\n\n        sub_0: assembly {\n                /* \"test/Test.sol\":390:520  contract Multiplier {... */\n              mstore(0x40, 0x80)\n              callvalue\n              dup1\n              iszero\n              tag_1\n              jumpi\n              0x00\n              dup1\n              revert\n            tag_1:\n              pop\n              jumpi(tag_2, lt(calldatasize, 0x04))\n              shr(0xe0, calldataload(0x00))\n              dup1\n              0xc8a4ac9c\n              eq\n              tag_3\n              jumpi\n            tag_2:\n              0x00\n              dup1\n              revert\n                /* \"test/Test.sol\":417:517  function mul(uint256 x, uint256 y) external pure returns (uint256 z) {... */\n            tag_3:\n              tag_4\n              0x04\n              dup1\n              calldatasize\n              sub\n              dup2\n              add\n              swap1\n              tag_5\n              swap2\n              swap1\n              tag_6\n              jump\t// in\n            tag_5:\n              tag_7\n              jump\t// in\n            tag_4:\n              mload(0x40)\n              tag_8\n              swap2\n              swap1\n              tag_9\n              jump\t// in\n            tag_8:\n              mload(0x40)\n              dup1\n              swap2\n              sub\n              swap1\n              return\n            tag_7:\n                /* \"test/Test.sol\":475:484  uint256 z */\n              0x00\n                /* \"test/Test.sol\":508:509  y */\n              dup2\n                /* \"test/Test.sol\":504:505  x */\n              dup4\n                /* \"test/Test.sol\":504:509  x * y */\n              tag_11\n              swap2\n              swap1\n              tag_12\n              jump\t// in\n            tag_11:\n                /* \"test/Test.sol\":497:509  return x * y */\n              swap1\n              pop\n                /* \"test/Test.sol\":417:517  function mul(uint256 x, uint256 y) external pure returns (uint256 z) {... */\n              swap3\n              swap2\n              pop\n              pop\n              jump\t// out\n                /* \"#utility.yul\":88:205   */\n            tag_14:\n                /* \"#utility.yul\":197:198   */\n              0x00\n                /* \"#utility.yul\":194:195   */\n              dup1\n                /* \"#utility.yul\":187:199   */\n              revert\n                /* \"#utility.yul\":334:411   */\n            tag_16:\n                /* \"#utility.yul\":371:378   */\n              0x00\n                /* \"#utility.yul\":400:405   */\n              dup2\n                /* \"#utility.yul\":389:405   */\n              swap1\n              pop\n                /* \"#utility.yul\":334:411   */\n              swap2\n              swap1\n              pop\n              jump\t// out\n                /* \"#utility.yul\":417:539   */\n            tag_17:\n                /* \"#utility.yul\":490:514   */\n              tag_27\n                /* \"#utility.yul\":508:513   */\n              dup2\n                /* \"#utility.yul\":490:514   */\n              tag_16\n              jump\t// in\n            tag_27:\n                /* \"#utility.yul\":483:488   */\n              dup2\n                /* \"#utility.yul\":480:515   */\n              eq\n                /* \"#utility.yul\":470:533   */\n              tag_28\n              jumpi\n                /* \"#utility.yul\":529:530   */\n              0x00\n                /* \"#utility.yul\":526:527   */\n              dup1\n                /* \"#utility.yul\":519:531   */\n              revert\n                /* \"#utility.yul\":470:533   */\n            tag_28:\n                /* \"#utility.yul\":417:539   */\n              pop\n              jump\t// out\n                /* \"#utility.yul\":545:684   */\n            tag_18:\n                /* \"#utility.yul\":591:596   */\n              0x00\n                /* \"#utility.yul\":629:635   */\n              dup2\n                /* \"#utility.yul\":616:636   */\n              calldataload\n                /* \"#utility.yul\":607:636   */\n              swap1\n              pop\n                /* \"#utility.yul\":645:678   */\n              tag_30\n                /* \"#utility.yul\":672:677   */\n              dup2\n                /* \"#utility.yul\":645:678   */\n              tag_17\n              jump\t// in\n            tag_30:\n                /* \"#utility.yul\":545:684   */\n              swap3\n              swap2\n              pop\n              pop\n              jump\t// out\n                /* \"#utility.yul\":690:1164   */\n            tag_6:\n                /* \"#utility.yul\":758:764   */\n              0x00\n                /* \"#utility.yul\":766:772   */\n              dup1\n                /* \"#utility.yul\":815:817   */\n              0x40\n                /* \"#utility.yul\":803:812   */\n              dup4\n                /* \"#utility.yul\":794:801   */\n              dup6\n                /* \"#utility.yul\":790:813   */\n              sub\n                /* \"#utility.yul\":786:818   */\n              slt\n                /* \"#utility.yul\":783:902   */\n              iszero\n              tag_32\n              jumpi\n                /* \"#utility.yul\":821:900   */\n              tag_33\n              tag_14\n              jump\t// in\n            tag_33:\n                /* \"#utility.yul\":783:902   */\n            tag_32:\n                /* \"#utility.yul\":941:942   */\n              0x00\n                /* \"#utility.yul\":966:1019   */\n              tag_34\n                /* \"#utility.yul\":1011:1018   */\n              dup6\n                /* \"#utility.yul\":1002:1008   */\n              dup3\n                /* \"#utility.yul\":991:1000   */\n              dup7\n                /* \"#utility.yul\":987:1009   */\n              add\n                /* \"#utility.yul\":966:1019   */\n              tag_18\n              jump\t// in\n            tag_34:\n                /* \"#utility.yul\":956:1019   */\n              swap3\n              pop\n                /* \"#utility.yul\":912:1029   */\n              pop\n                /* \"#utility.yul\":1068:1070   */\n              0x20\n                /* \"#utility.yul\":1094:1147   */\n              tag_35\n                /* \"#utility.yul\":1139:1146   */\n              dup6\n                /* \"#utility.yul\":1130:1136   */\n              dup3\n                /* \"#utility.yul\":1119:1128   */\n              dup7\n                /* \"#utility.yul\":1115:1137   */\n              add\n                /* \"#utility.yul\":1094:1147   */\n              tag_18\n              jump\t// in\n            tag_35:\n                /* \"#utility.yul\":1084:1147   */\n              swap2\n              pop\n                /* \"#utility.yul\":1039:1157   */\n              pop\n                /* \"#utility.yul\":690:1164   */\n              swap3\n              pop\n              swap3\n              swap1\n              pop\n              jump\t// out\n                /* \"#utility.yul\":1170:1288   */\n            tag_19:\n                /* \"#utility.yul\":1257:1281   */\n              tag_37\n                /* \"#utility.yul\":1275:1280   */\n              dup2\n                /* \"#utility.yul\":1257:1281   */\n              tag_16\n              jump\t// in\n            tag_37:\n                /* \"#utility.yul\":1252:1255   */\n              dup3\n                /* \"#utility.yul\":1245:1282   */\n              mstore\n                /* \"#utility.yul\":1170:1288   */\n              pop\n              pop\n              jump\t// out\n                /* \"#utility.yul\":1294:1516   */\n            tag_9:\n                /* \"#utility.yul\":1387:1391   */\n              0x00\n                /* \"#utility.yul\":1425:1427   */\n              0x20\n                /* \"#utility.yul\":1414:1423   */\n              dup3\n                /* \"#utility.yul\":1410:1428   */\n              add\n                /* \"#utility.yul\":1402:1428   */\n              swap1\n              pop\n                /* \"#utility.yul\":1438:1509   */\n              tag_39\n                /* \"#utility.yul\":1506:1507   */\n              0x00\n                /* \"#utility.yul\":1495:1504   */\n              dup4\n                /* \"#utility.yul\":1491:1508   */\n              add\n                /* \"#utility.yul\":1482:1488   */\n              dup5\n                /* \"#utility.yul\":1438:1509   */\n              tag_19\n              jump\t// in\n            tag_39:\n                /* \"#utility.yul\":1294:1516   */\n              swap3\n              swap2\n              pop\n              pop\n              jump\t// out\n                /* \"#utility.yul\":1522:1702   */\n            tag_20:\n                /* \"#utility.yul\":1570:1647   */\n              0x4e487b7100000000000000000000000000000000000000000000000000000000\n                /* \"#utility.yul\":1567:1568   */\n              0x00\n                /* \"#utility.yul\":1560:1648   */\n              mstore\n                /* \"#utility.yul\":1667:1671   */\n              0x11\n                /* \"#utility.yul\":1664:1665   */\n              0x04\n                /* \"#utility.yul\":1657:1672   */\n              mstore\n                /* \"#utility.yul\":1691:1695   */\n              0x24\n                /* \"#utility.yul\":1688:1689   */\n              0x00\n                /* \"#utility.yul\":1681:1696   */\n              revert\n                /* \"#utility.yul\":1708:2118   */\n            tag_12:\n                /* \"#utility.yul\":1748:1755   */\n              0x00\n                /* \"#utility.yul\":1771:1791   */\n              tag_42\n                /* \"#utility.yul\":1789:1790   */\n              dup3\n                /* \"#utility.yul\":1771:1791   */\n              tag_16\n              jump\t// in\n            tag_42:\n                /* \"#utility.yul\":1766:1791   */\n              swap2\n              pop\n                /* \"#utility.yul\":1805:1825   */\n              tag_43\n                /* \"#utility.yul\":1823:1824   */\n              dup4\n                /* \"#utility.yul\":1805:1825   */\n              tag_16\n              jump\t// in\n            tag_43:\n                /* \"#utility.yul\":1800:1825   */\n              swap3\n              pop\n                /* \"#utility.yul\":1860:1861   */\n              dup3\n                /* \"#utility.yul\":1857:1858   */\n              dup3\n                /* \"#utility.yul\":1853:1862   */\n              mul\n                /* \"#utility.yul\":1882:1912   */\n              tag_44\n                /* \"#utility.yul\":1900:1911   */\n              dup2\n                /* \"#utility.yul\":1882:1912   */\n              tag_16\n              jump\t// in\n            tag_44:\n                /* \"#utility.yul\":1871:1912   */\n              swap2\n              pop\n                /* \"#utility.yul\":2061:2062   */\n              dup3\n                /* \"#utility.yul\":2052:2059   */\n              dup3\n                /* \"#utility.yul\":2048:2063   */\n              div\n                /* \"#utility.yul\":2045:2046   */\n              dup5\n                /* \"#utility.yul\":2042:2064   */\n              eq\n                /* \"#utility.yul\":2022:2023   */\n              dup4\n                /* \"#utility.yul\":2015:2024   */\n              iszero\n                /* \"#utility.yul\":1995:2078   */\n              or\n                /* \"#utility.yul\":1972:2111   */\n              tag_45\n              jumpi\n                /* \"#utility.yul\":2091:2109   */\n              tag_46\n              tag_20\n              jump\t// in\n            tag_46:\n                /* \"#utility.yul\":1972:2111   */\n            tag_45:\n                /* \"#utility.yul\":1756:2118   */\n              pop\n                /* \"#utility.yul\":1708:2118   */\n              swap3\n              swap2\n              pop\n              pop\n              jump\t// out\n\n            auxdata: 0xa2646970667358221220609328c12529a6e3697a090a92f458b9b818cf0d1a2d34b8fd60b3a58630182564736f6c63430008120033\n        }\n    }\n\n    sub_2: assembly {\n            /* \"test/Test.sol\":847:1197  contract MockAdmin {... */\n          mstore(0x40, 0xa0)\n            /* \"test/Test.sol\":905:944  constructor() { creator = msg.sender; } */\n          callvalue\n          dup1\n          iszero\n          tag_1\n          jumpi\n          0x00\n          dup1\n          revert\n        tag_1:\n          pop\n            /* \"test/Test.sol\":931:941  msg.sender */\n          caller\n            /* \"test/Test.sol\":921:941  creator = msg.sender */\n          0xffffffffffffffffffffffffffffffffffffffff\n          and\n          0x80\n          dup2\n          0xffffffffffffffffffffffffffffffffffffffff\n          and\n          dup2\n          mstore\n          pop\n          pop\n            /* \"test/Test.sol\":847:1197  contract MockAdmin {... */\n          mload(0x80)\n          codecopy(0x00, dataOffset(sub_0), dataSize(sub_0))\n          0x00\n          assignImmutable(\"0xe6a1c065389a8d929a5a64a56bc16a7e49ca76d19f5c2b002f72a1f543f272ee\")\n          return(0x00, dataSize(sub_0))\n        stop\n\n        sub_0: assembly {\n                /* \"test/Test.sol\":847:1197  contract MockAdmin {... */\n              mstore(0x40, 0x80)\n              callvalue\n              dup1\n              iszero\n              tag_1\n              jumpi\n              0x00\n              dup1\n              revert\n            tag_1:\n              pop\n              jumpi(tag_2, lt(calldatasize, 0x04))\n              shr(0xe0, calldataload(0x00))\n              dup1\n              0x919840ad\n              eq\n              tag_3\n              jumpi\n              dup1\n              0xcaca46f7\n              eq\n              tag_4\n              jumpi\n            tag_2:\n              0x00\n              dup1\n              revert\n                /* \"test/Test.sol\":1132:1194  function check() external pure returns (bool) { return true; } */\n            tag_3:\n              tag_5\n              tag_6\n              jump\t// in\n            tag_5:\n              mload(0x40)\n              tag_7\n              swap2\n              swap1\n              tag_8\n              jump\t// in\n            tag_7:\n              mload(0x40)\n              dup1\n              swap2\n              sub\n              swap1\n              return\n                /* \"test/Test.sol\":950:1126  function doDeploy(Seed seed, bytes4 selector, address implementation) external {... */\n            tag_4:\n              tag_9\n              0x04\n              dup1\n              calldatasize\n              sub\n              dup2\n              add\n              swap1\n              tag_10\n              swap2\n              swap1\n              tag_11\n              jump\t// in\n            tag_10:\n              tag_12\n              jump\t// in\n            tag_9:\n              stop\n                /* \"test/Test.sol\":1132:1194  function check() external pure returns (bool) { return true; } */\n            tag_6:\n                /* \"test/Test.sol\":1172:1176  bool */\n              0x00\n                /* \"test/Test.sol\":1187:1191  true */\n              0x01\n                /* \"test/Test.sol\":1180:1191  return true */\n              swap1\n              pop\n                /* \"test/Test.sol\":1132:1194  function check() external pure returns (bool) { return true; } */\n              swap1\n              jump\t// out\n                /* \"test/Test.sol\":950:1126  function doDeploy(Seed seed, bytes4 selector, address implementation) external {... */\n            tag_12:\n                /* \"test/Test.sol\":1062:1069  creator */\n              immutable(\"0xe6a1c065389a8d929a5a64a56bc16a7e49ca76d19f5c2b002f72a1f543f272ee\")\n                /* \"test/Test.sol\":1048:1069  msg.sender == creator */\n              0xffffffffffffffffffffffffffffffffffffffff\n              and\n                /* \"test/Test.sol\":1048:1058  msg.sender */\n              caller\n                /* \"test/Test.sol\":1048:1069  msg.sender == creator */\n              0xffffffffffffffffffffffffffffffffffffffff\n              and\n              eq\n                /* \"test/Test.sol\":1040:1070  require(msg.sender == creator) */\n              tag_15\n              jumpi\n              0x00\n              dup1\n              revert\n            tag_15:\n                /* \"test/Test.sol\":1081:1085  seed */\n              dup3\n                /* \"test/Test.sol\":1081:1092  seed.deploy */\n              0xffffffffffffffffffffffffffffffffffffffff\n              and\n              0x997b81c9\n                /* \"test/Test.sol\":1093:1101  selector */\n              dup4\n                /* \"test/Test.sol\":1103:1117  implementation */\n              dup4\n                /* \"test/Test.sol\":1081:1118  seed.deploy(selector, implementation) */\n              mload(0x40)\n              dup4\n              0xffffffff\n              and\n              0xe0\n              shl\n              dup2\n              mstore\n              0x04\n              add\n              tag_16\n              swap3\n              swap2\n              swap1\n              tag_17\n              jump\t// in\n            tag_16:\n              0x20\n              mload(0x40)\n              dup1\n              dup4\n              sub\n              dup2\n              0x00\n              dup8\n              gas\n              call\n              iszero\n              dup1\n              iszero\n              tag_19\n              jumpi\n              returndatasize\n              0x00\n              dup1\n              returndatacopy\n              revert(0x00, returndatasize)\n            tag_19:\n              pop\n              pop\n              pop\n              pop\n              mload(0x40)\n              returndatasize\n              not(0x1f)\n              0x1f\n              dup3\n              add\n              and\n              dup3\n              add\n              dup1\n              0x40\n              mstore\n              pop\n              dup2\n              add\n              swap1\n              tag_20\n              swap2\n              swap1\n              tag_21\n              jump\t// in\n            tag_20:\n              pop\n                /* \"test/Test.sol\":950:1126  function doDeploy(Seed seed, bytes4 selector, address implementation) external {... */\n              pop\n              pop\n              pop\n              jump\t// out\n                /* \"#utility.yul\":7:97   */\n            tag_22:\n                /* \"#utility.yul\":41:48   */\n              0x00\n                /* \"#utility.yul\":84:89   */\n              dup2\n                /* \"#utility.yul\":77:90   */\n              iszero\n                /* \"#utility.yul\":70:91   */\n              iszero\n                /* \"#utility.yul\":59:91   */\n              swap1\n              pop\n                /* \"#utility.yul\":7:97   */\n              swap2\n              swap1\n              pop\n              jump\t// out\n                /* \"#utility.yul\":103:212   */\n            tag_23:\n                /* \"#utility.yul\":184:205   */\n              tag_43\n                /* \"#utility.yul\":199:204   */\n              dup2\n                /* \"#utility.yul\":184:205   */\n              tag_22\n              jump\t// in\n            tag_43:\n                /* \"#utility.yul\":179:182   */\n              dup3\n                /* \"#utility.yul\":172:206   */\n              mstore\n                /* \"#utility.yul\":103:212   */\n              pop\n              pop\n              jump\t// out\n                /* \"#utility.yul\":218:428   */\n            tag_8:\n                /* \"#utility.yul\":305:309   */\n              0x00\n                /* \"#utility.yul\":343:345   */\n              0x20\n                /* \"#utility.yul\":332:341   */\n              dup3\n                /* \"#utility.yul\":328:346   */\n              add\n                /* \"#utility.yul\":320:346   */\n              swap1\n              pop\n                /* \"#utility.yul\":356:421   */\n              tag_45\n                /* \"#utility.yul\":418:419   */\n              0x00\n                /* \"#utility.yul\":407:416   */\n              dup4\n                /* \"#utility.yul\":403:420   */\n              add\n                /* \"#utility.yul\":394:400   */\n              dup5\n                /* \"#utility.yul\":356:421   */\n              tag_23\n              jump\t// in\n            tag_45:\n                /* \"#utility.yul\":218:428   */\n              swap3\n              swap2\n              pop\n              pop\n              jump\t// out\n                /* \"#utility.yul\":515:632   */\n            tag_25:\n                /* \"#utility.yul\":624:625   */\n              0x00\n                /* \"#utility.yul\":621:622   */\n              dup1\n                /* \"#utility.yul\":614:626   */\n              revert\n                /* \"#utility.yul\":761:887   */\n            tag_27:\n                /* \"#utility.yul\":798:805   */\n              0x00\n                /* \"#utility.yul\":838:880   */\n              0xffffffffffffffffffffffffffffffffffffffff\n                /* \"#utility.yul\":831:836   */\n              dup3\n                /* \"#utility.yul\":827:881   */\n              and\n                /* \"#utility.yul\":816:881   */\n              swap1\n              pop\n                /* \"#utility.yul\":761:887   */\n              swap2\n              swap1\n              pop\n              jump\t// out\n                /* \"#utility.yul\":893:989   */\n            tag_28:\n                /* \"#utility.yul\":930:937   */\n              0x00\n                /* \"#utility.yul\":959:983   */\n              tag_51\n                /* \"#utility.yul\":977:982   */\n              dup3\n                /* \"#utility.yul\":959:983   */\n              tag_27\n              jump\t// in\n            tag_51:\n                /* \"#utility.yul\":948:983   */\n              swap1\n              pop\n                /* \"#utility.yul\":893:989   */\n              swap2\n              swap1\n              pop\n              jump\t// out\n                /* \"#utility.yul\":995:1102   */\n            tag_29:\n                /* \"#utility.yul\":1043:1050   */\n              0x00\n                /* \"#utility.yul\":1072:1096   */\n              tag_53\n                /* \"#utility.yul\":1090:1095   */\n              dup3\n                /* \"#utility.yul\":1072:1096   */\n              tag_28\n              jump\t// in\n            tag_53:\n                /* \"#utility.yul\":1061:1096   */\n              swap1\n              pop\n                /* \"#utility.yul\":995:1102   */\n              swap2\n              swap1\n              pop\n              jump\t// out\n                /* \"#utility.yul\":1108:1252   */\n            tag_30:\n                /* \"#utility.yul\":1192:1227   */\n              tag_55\n                /* \"#utility.yul\":1221:1226   */\n              dup2\n                /* \"#utility.yul\":1192:1227   */\n              tag_29\n              jump\t// in\n            tag_55:\n                /* \"#utility.yul\":1185:1190   */\n              dup2\n                /* \"#utility.yul\":1182:1228   */\n              eq\n                /* \"#utility.yul\":1172:1246   */\n              tag_56\n              jumpi\n                /* \"#utility.yul\":1242:1243   */\n              0x00\n                /* \"#utility.yul\":1239:1240   */\n              dup1\n                /* \"#utility.yul\":1232:1244   */\n              revert\n                /* \"#utility.yul\":1172:1246   */\n            tag_56:\n                /* \"#utility.yul\":1108:1252   */\n              pop\n              jump\t// out\n                /* \"#utility.yul\":1258:1419   */\n            tag_31:\n                /* \"#utility.yul\":1315:1320   */\n              0x00\n                /* \"#utility.yul\":1353:1359   */\n              dup2\n                /* \"#utility.yul\":1340:1360   */\n              calldataload\n                /* \"#utility.yul\":1331:1360   */\n              swap1\n              pop\n                /* \"#utility.yul\":1369:1413   */\n              tag_58\n                /* \"#utility.yul\":1407:1412   */\n              dup2\n                /* \"#utility.yul\":1369:1413   */\n              tag_30\n              jump\t// in\n            tag_58:\n                /* \"#utility.yul\":1258:1419   */\n              swap3\n              swap2\n              pop\n              pop\n              jump\t// out\n                /* \"#utility.yul\":1425:1574   */\n            tag_32:\n                /* \"#utility.yul\":1461:1468   */\n              0x00\n                /* \"#utility.yul\":1501:1567   */\n              0xffffffff00000000000000000000000000000000000000000000000000000000\n                /* \"#utility.yul\":1494:1499   */\n              dup3\n                /* \"#utility.yul\":1490:1568   */\n              and\n                /* \"#utility.yul\":1479:1568   */\n              swap1\n              pop\n                /* \"#utility.yul\":1425:1574   */\n              swap2\n              swap1\n              pop\n              jump\t// out\n                /* \"#utility.yul\":1580:1700   */\n            tag_33:\n                /* \"#utility.yul\":1652:1675   */\n              tag_61\n                /* \"#utility.yul\":1669:1674   */\n              dup2\n                /* \"#utility.yul\":1652:1675   */\n              tag_32\n              jump\t// in\n            tag_61:\n                /* \"#utility.yul\":1645:1650   */\n              dup2\n                /* \"#utility.yul\":1642:1676   */\n              eq\n                /* \"#utility.yul\":1632:1694   */\n              tag_62\n              jumpi\n                /* \"#utility.yul\":1690:1691   */\n              0x00\n                /* \"#utility.yul\":1687:1688   */\n              dup1\n                /* \"#utility.yul\":1680:1692   */\n              revert\n                /* \"#utility.yul\":1632:1694   */\n            tag_62:\n                /* \"#utility.yul\":1580:1700   */\n              pop\n              jump\t// out\n                /* \"#utility.yul\":1706:1843   */\n            tag_34:\n                /* \"#utility.yul\":1751:1756   */\n              0x00\n                /* \"#utility.yul\":1789:1795   */\n              dup2\n                /* \"#utility.yul\":1776:1796   */\n              calldataload\n                /* \"#utility.yul\":1767:1796   */\n              swap1\n              pop\n                /* \"#utility.yul\":1805:1837   */\n              tag_64\n                /* \"#utility.yul\":1831:1836   */\n              dup2\n                /* \"#utility.yul\":1805:1837   */\n              tag_33\n              jump\t// in\n            tag_64:\n                /* \"#utility.yul\":1706:1843   */\n              swap3\n              swap2\n              pop\n              pop\n              jump\t// out\n                /* \"#utility.yul\":1849:1971   */\n            tag_35:\n                /* \"#utility.yul\":1922:1946   */\n              tag_66\n                /* \"#utility.yul\":1940:1945   */\n              dup2\n                /* \"#utility.yul\":1922:1946   */\n              tag_28\n              jump\t// in\n            tag_66:\n                /* \"#utility.yul\":1915:1920   */\n              dup2\n                /* \"#utility.yul\":1912:1947   */\n              eq\n                /* \"#utility.yul\":1902:1965   */\n              tag_67\n              jumpi\n                /* \"#utility.yul\":1961:1962   */\n              0x00\n                /* \"#utility.yul\":1958:1959   */\n              dup1\n                /* \"#utility.yul\":1951:1963   */\n              revert\n                /* \"#utility.yul\":1902:1965   */\n            tag_67:\n                /* \"#utility.yul\":1849:1971   */\n              pop\n              jump\t// out\n                /* \"#utility.yul\":1977:2116   */\n            tag_36:\n                /* \"#utility.yul\":2023:2028   */\n              0x00\n                /* \"#utility.yul\":2061:2067   */\n              dup2\n                /* \"#utility.yul\":2048:2068   */\n              calldataload\n                /* \"#utility.yul\":2039:2068   */\n              swap1\n              pop\n                /* \"#utility.yul\":2077:2110   */\n              tag_69\n                /* \"#utility.yul\":2104:2109   */\n              dup2\n                /* \"#utility.yul\":2077:2110   */\n              tag_35\n              jump\t// in\n            tag_69:\n                /* \"#utility.yul\":1977:2116   */\n              swap3\n              swap2\n              pop\n              pop\n              jump\t// out\n                /* \"#utility.yul\":2122:2761   */\n            tag_11:\n                /* \"#utility.yul\":2209:2215   */\n              0x00\n                /* \"#utility.yul\":2217:2223   */\n              dup1\n                /* \"#utility.yul\":2225:2231   */\n              0x00\n                /* \"#utility.yul\":2274:2276   */\n              0x60\n                /* \"#utility.yul\":2262:2271   */\n              dup5\n                /* \"#utility.yul\":2253:2260   */\n              dup7\n                /* \"#utility.yul\":2249:2272   */\n              sub\n                /* \"#utility.yul\":2245:2277   */\n              slt\n                /* \"#utility.yul\":2242:2361   */\n              iszero\n              tag_71\n              jumpi\n                /* \"#utility.yul\":2280:2359   */\n              tag_72\n              tag_25\n              jump\t// in\n            tag_72:\n                /* \"#utility.yul\":2242:2361   */\n            tag_71:\n                /* \"#utility.yul\":2400:2401   */\n              0x00\n                /* \"#utility.yul\":2425:2489   */\n              tag_73\n                /* \"#utility.yul\":2481:2488   */\n              dup7\n                /* \"#utility.yul\":2472:2478   */\n              dup3\n                /* \"#utility.yul\":2461:2470   */\n              dup8\n                /* \"#utility.yul\":2457:2479   */\n              add\n                /* \"#utility.yul\":2425:2489   */\n              tag_31\n              jump\t// in\n            tag_73:\n                /* \"#utility.yul\":2415:2489   */\n              swap4\n              pop\n                /* \"#utility.yul\":2371:2499   */\n              pop\n                /* \"#utility.yul\":2538:2540   */\n              0x20\n                /* \"#utility.yul\":2564:2616   */\n              tag_74\n                /* \"#utility.yul\":2608:2615   */\n              dup7\n                /* \"#utility.yul\":2599:2605   */\n              dup3\n                /* \"#utility.yul\":2588:2597   */\n              dup8\n                /* \"#utility.yul\":2584:2606   */\n              add\n                /* \"#utility.yul\":2564:2616   */\n              tag_34\n              jump\t// in\n            tag_74:\n                /* \"#utility.yul\":2554:2616   */\n              swap3\n              pop\n                /* \"#utility.yul\":2509:2626   */\n              pop\n                /* \"#utility.yul\":2665:2667   */\n              0x40\n                /* \"#utility.yul\":2691:2744   */\n              tag_75\n                /* \"#utility.yul\":2736:2743   */\n              dup7\n                /* \"#utility.yul\":2727:2733   */\n              dup3\n                /* \"#utility.yul\":2716:2725   */\n              dup8\n                /* \"#utility.yul\":2712:2734   */\n              add\n                /* \"#utility.yul\":2691:2744   */\n              tag_36\n              jump\t// in\n            tag_75:\n                /* \"#utility.yul\":2681:2744   */\n              swap2\n              pop\n                /* \"#utility.yul\":2636:2754   */\n              pop\n                /* \"#utility.yul\":2122:2761   */\n              swap3\n              pop\n              swap3\n              pop\n              swap3\n              jump\t// out\n                /* \"#utility.yul\":2767:2882   */\n            tag_37:\n                /* \"#utility.yul\":2852:2875   */\n              tag_77\n                /* \"#utility.yul\":2869:2874   */\n              dup2\n                /* \"#utility.yul\":2852:2875   */\n              tag_32\n              jump\t// in\n            tag_77:\n                /* \"#utility.yul\":2847:2850   */\n              dup3\n                /* \"#utility.yul\":2840:2876   */\n              mstore\n                /* \"#utility.yul\":2767:2882   */\n              pop\n              pop\n              jump\t// out\n                /* \"#utility.yul\":2888:3006   */\n            tag_38:\n                /* \"#utility.yul\":2975:2999   */\n              tag_79\n                /* \"#utility.yul\":2993:2998   */\n              dup2\n                /* \"#utility.yul\":2975:2999   */\n              tag_28\n              jump\t// in\n            tag_79:\n                /* \"#utility.yul\":2970:2973   */\n              dup3\n                /* \"#utility.yul\":2963:3000   */\n              mstore\n                /* \"#utility.yul\":2888:3006   */\n              pop\n              pop\n              jump\t// out\n                /* \"#utility.yul\":3012:3340   */\n            tag_17:\n                /* \"#utility.yul\":3131:3135   */\n              0x00\n                /* \"#utility.yul\":3169:3171   */\n              0x40\n                /* \"#utility.yul\":3158:3167   */\n              dup3\n                /* \"#utility.yul\":3154:3172   */\n              add\n                /* \"#utility.yul\":3146:3172   */\n              swap1\n              pop\n                /* \"#utility.yul\":3182:3251   */\n              tag_81\n                /* \"#utility.yul\":3248:3249   */\n              0x00\n                /* \"#utility.yul\":3237:3246   */\n              dup4\n                /* \"#utility.yul\":3233:3250   */\n              add\n                /* \"#utility.yul\":3224:3230   */\n              dup6\n                /* \"#utility.yul\":3182:3251   */\n              tag_37\n              jump\t// in\n            tag_81:\n                /* \"#utility.yul\":3261:3333   */\n              tag_82\n                /* \"#utility.yul\":3329:3331   */\n              0x20\n                /* \"#utility.yul\":3318:3327   */\n              dup4\n                /* \"#utility.yul\":3314:3332   */\n              add\n                /* \"#utility.yul\":3305:3311   */\n              dup5\n                /* \"#utility.yul\":3261:3333   */\n              tag_38\n              jump\t// in\n            tag_82:\n                /* \"#utility.yul\":3012:3340   */\n              swap4\n              swap3\n              pop\n              pop\n              pop\n              jump\t// out\n                /* \"#utility.yul\":3346:3489   */\n            tag_39:\n                /* \"#utility.yul\":3403:3408   */\n              0x00\n                /* \"#utility.yul\":3434:3440   */\n              dup2\n                /* \"#utility.yul\":3428:3441   */\n              mload\n                /* \"#utility.yul\":3419:3441   */\n              swap1\n              pop\n                /* \"#utility.yul\":3450:3483   */\n              tag_84\n                /* \"#utility.yul\":3477:3482   */\n              dup2\n                /* \"#utility.yul\":3450:3483   */\n              tag_35\n              jump\t// in\n            tag_84:\n                /* \"#utility.yul\":3346:3489   */\n              swap3\n              swap2\n              pop\n              pop\n              jump\t// out\n                /* \"#utility.yul\":3495:3846   */\n            tag_21:\n                /* \"#utility.yul\":3565:3571   */\n              0x00\n                /* \"#utility.yul\":3614:3616   */\n              0x20\n                /* \"#utility.yul\":3602:3611   */\n              dup3\n                /* \"#utility.yul\":3593:3600   */\n              dup5\n                /* \"#utility.yul\":3589:3612   */\n              sub\n                /* \"#utility.yul\":3585:3617   */\n              slt\n                /* \"#utility.yul\":3582:3701   */\n              iszero\n              tag_86\n              jumpi\n                /* \"#utility.yul\":3620:3699   */\n              tag_87\n              tag_25\n              jump\t// in\n            tag_87:\n                /* \"#utility.yul\":3582:3701   */\n            tag_86:\n                /* \"#utility.yul\":3740:3741   */\n              0x00\n                /* \"#utility.yul\":3765:3829   */\n              tag_88\n                /* \"#utility.yul\":3821:3828   */\n              dup5\n                /* \"#utility.yul\":3812:3818   */\n              dup3\n                /* \"#utility.yul\":3801:3810   */\n              dup6\n                /* \"#utility.yul\":3797:3819   */\n              add\n                /* \"#utility.yul\":3765:3829   */\n              tag_39\n              jump\t// in\n            tag_88:\n                /* \"#utility.yul\":3755:3829   */\n              swap2\n              pop\n                /* \"#utility.yul\":3711:3839   */\n              pop\n                /* \"#utility.yul\":3495:3846   */\n              swap3\n              swap2\n              pop\n              pop\n              jump\t// out\n\n            auxdata: 0xa2646970667358221220381ceb4a05c39530cc2d2338f4779f7ecb130da889c2bb3cca8aa6d256bbf73c64736f6c63430008120033\n        }\n    }\n\n    sub_3: assembly {\n            /* \"test/Test.sol\":524:845  contract TestSeed is Seed {... */\n          mstore(0x40, 0x80)\n            /* \"test/Test.sol\":603:728  constructor(address[] memory admins) {... */\n          callvalue\n          dup1\n          iszero\n          tag_1\n          jumpi\n          0x00\n          dup1\n          revert\n        tag_1:\n          pop\n          mload(0x40)\n          sub(codesize, bytecodeSize)\n          dup1\n          bytecodeSize\n          dup4\n          codecopy\n          dup2\n          dup2\n          add\n          0x40\n          mstore\n          dup2\n          add\n          swap1\n          tag_2\n          swap2\n          swap1\n          tag_3\n          jump\t// in\n        tag_2:\n            /* \"test/Test.sol\":655:664  uint256 i */\n          0x00\n            /* \"test/Test.sol\":651:720  for(uint256 i = 0; i < admins.length; i ++) isAdmin[admins[i]] = true */\n        tag_6:\n            /* \"test/Test.sol\":674:680  admins */\n          dup2\n            /* \"test/Test.sol\":674:687  admins.length */\n          mload\n            /* \"test/Test.sol\":670:671  i */\n          dup2\n            /* \"test/Test.sol\":670:687  i < admins.length */\n          lt\n            /* \"test/Test.sol\":651:720  for(uint256 i = 0; i < admins.length; i ++) isAdmin[admins[i]] = true */\n          iszero\n          tag_7\n          jumpi\n            /* \"test/Test.sol\":716:720  true */\n          0x01\n            /* \"test/Test.sol\":695:702  isAdmin */\n          dup1\n            /* \"test/Test.sol\":695:713  isAdmin[admins[i]] */\n          0x00\n            /* \"test/Test.sol\":703:709  admins */\n          dup5\n            /* \"test/Test.sol\":710:711  i */\n          dup5\n            /* \"test/Test.sol\":703:712  admins[i] */\n          dup2\n          mload\n          dup2\n          lt\n          tag_9\n          jumpi\n          tag_10\n          tag_11\n          jump\t// in\n        tag_10:\n        tag_9:\n          0x20\n          mul\n          0x20\n          add\n          add\n          mload\n            /* \"test/Test.sol\":695:713  isAdmin[admins[i]] */\n          0xffffffffffffffffffffffffffffffffffffffff\n          and\n          0xffffffffffffffffffffffffffffffffffffffff\n          and\n          dup2\n          mstore\n          0x20\n          add\n          swap1\n          dup2\n          mstore\n          0x20\n          add\n          0x00\n          keccak256\n          0x00\n            /* \"test/Test.sol\":695:720  isAdmin[admins[i]] = true */\n          0x0100\n          exp\n          dup2\n          sload\n          dup2\n          0xff\n          mul\n          not\n          and\n          swap1\n          dup4\n          iszero\n          iszero\n          mul\n          or\n          swap1\n          sstore\n          pop\n            /* \"test/Test.sol\":689:693  i ++ */\n          dup1\n          dup1\n          tag_12\n          swap1\n          tag_13\n          jump\t// in\n        tag_12:\n          swap2\n          pop\n          pop\n            /* \"test/Test.sol\":651:720  for(uint256 i = 0; i < admins.length; i ++) isAdmin[admins[i]] = true */\n          jump(tag_6)\n        tag_7:\n          pop\n            /* \"test/Test.sol\":603:728  constructor(address[] memory admins) {... */\n          pop\n            /* \"test/Test.sol\":524:845  contract TestSeed is Seed {... */\n          jump(tag_14)\n            /* \"#utility.yul\":7:82   */\n        tag_15:\n            /* \"#utility.yul\":40:46   */\n          0x00\n            /* \"#utility.yul\":73:75   */\n          0x40\n            /* \"#utility.yul\":67:76   */\n          mload\n            /* \"#utility.yul\":57:76   */\n          swap1\n          pop\n            /* \"#utility.yul\":7:82   */\n          swap1\n          jump\t// out\n            /* \"#utility.yul\":88:205   */\n        tag_16:\n            /* \"#utility.yul\":197:198   */\n          0x00\n            /* \"#utility.yul\":194:195   */\n          dup1\n            /* \"#utility.yul\":187:199   */\n          revert\n            /* \"#utility.yul\":211:328   */\n        tag_17:\n            /* \"#utility.yul\":320:321   */\n          0x00\n            /* \"#utility.yul\":317:318   */\n          dup1\n            /* \"#utility.yul\":310:322   */\n          revert\n            /* \"#utility.yul\":334:451   */\n        tag_18:\n            /* \"#utility.yul\":443:444   */\n          0x00\n            /* \"#utility.yul\":440:441   */\n          dup1\n            /* \"#utility.yul\":433:445   */\n          revert\n            /* \"#utility.yul\":457:559   */\n        tag_19:\n            /* \"#utility.yul\":498:504   */\n          0x00\n            /* \"#utility.yul\":549:551   */\n          0x1f\n            /* \"#utility.yul\":545:552   */\n          not\n            /* \"#utility.yul\":540:542   */\n          0x1f\n            /* \"#utility.yul\":533:538   */\n          dup4\n            /* \"#utility.yul\":529:543   */\n          add\n            /* \"#utility.yul\":525:553   */\n          and\n            /* \"#utility.yul\":515:553   */\n          swap1\n          pop\n            /* \"#utility.yul\":457:559   */\n          swap2\n          swap1\n          pop\n          jump\t// out\n            /* \"#utility.yul\":565:745   */\n        tag_20:\n            /* \"#utility.yul\":613:690   */\n          0x4e487b7100000000000000000000000000000000000000000000000000000000\n            /* \"#utility.yul\":610:611   */\n          0x00\n            /* \"#utility.yul\":603:691   */\n          mstore\n            /* \"#utility.yul\":710:714   */\n          0x41\n            /* \"#utility.yul\":707:708   */\n          0x04\n            /* \"#utility.yul\":700:715   */\n          mstore\n            /* \"#utility.yul\":734:738   */\n          0x24\n            /* \"#utility.yul\":731:732   */\n          0x00\n            /* \"#utility.yul\":724:739   */\n          revert\n            /* \"#utility.yul\":751:1032   */\n        tag_21:\n            /* \"#utility.yul\":834:861   */\n          tag_41\n            /* \"#utility.yul\":856:860   */\n          dup3\n            /* \"#utility.yul\":834:861   */\n          tag_19\n          jump\t// in\n        tag_41:\n            /* \"#utility.yul\":826:832   */\n          dup2\n            /* \"#utility.yul\":822:862   */\n          add\n            /* \"#utility.yul\":964:970   */\n          dup2\n            /* \"#utility.yul\":952:962   */\n          dup2\n            /* \"#utility.yul\":949:971   */\n          lt\n            /* \"#utility.yul\":928:946   */\n          0xffffffffffffffff\n            /* \"#utility.yul\":916:926   */\n          dup3\n            /* \"#utility.yul\":913:947   */\n          gt\n            /* \"#utility.yul\":910:972   */\n          or\n            /* \"#utility.yul\":907:995   */\n          iszero\n          tag_42\n          jumpi\n            /* \"#utility.yul\":975:993   */\n          tag_43\n          tag_20\n          jump\t// in\n        tag_43:\n            /* \"#utility.yul\":907:995   */\n        tag_42:\n            /* \"#utility.yul\":1015:1025   */\n          dup1\n            /* \"#utility.yul\":1011:1013   */\n          0x40\n            /* \"#utility.yul\":1004:1026   */\n          mstore\n            /* \"#utility.yul\":794:1032   */\n          pop\n            /* \"#utility.yul\":751:1032   */\n          pop\n          pop\n          jump\t// out\n            /* \"#utility.yul\":1038:1167   */\n        tag_22:\n            /* \"#utility.yul\":1072:1078   */\n          0x00\n            /* \"#utility.yul\":1099:1119   */\n          tag_45\n          tag_15\n          jump\t// in\n        tag_45:\n            /* \"#utility.yul\":1089:1119   */\n          swap1\n          pop\n            /* \"#utility.yul\":1128:1161   */\n          tag_46\n            /* \"#utility.yul\":1156:1160   */\n          dup3\n            /* \"#utility.yul\":1148:1154   */\n          dup3\n            /* \"#utility.yul\":1128:1161   */\n          tag_21\n          jump\t// in\n        tag_46:\n            /* \"#utility.yul\":1038:1167   */\n          swap2\n          swap1\n          pop\n          jump\t// out\n            /* \"#utility.yul\":1173:1484   */\n        tag_23:\n            /* \"#utility.yul\":1250:1254   */\n          0x00\n            /* \"#utility.yul\":1340:1358   */\n          0xffffffffffffffff\n            /* \"#utility.yul\":1332:1338   */\n          dup3\n            /* \"#utility.yul\":1329:1359   */\n          gt\n            /* \"#utility.yul\":1326:1382   */\n          iszero\n          tag_48\n          jumpi\n            /* \"#utility.yul\":1362:1380   */\n          tag_49\n          tag_20\n          jump\t// in\n        tag_49:\n            /* \"#utility.yul\":1326:1382   */\n        tag_48:\n            /* \"#utility.yul\":1412:1416   */\n          0x20\n            /* \"#utility.yul\":1404:1410   */\n          dup3\n            /* \"#utility.yul\":1400:1417   */\n          mul\n            /* \"#utility.yul\":1392:1417   */\n          swap1\n          pop\n            /* \"#utility.yul\":1472:1476   */\n          0x20\n            /* \"#utility.yul\":1466:1470   */\n          dup2\n            /* \"#utility.yul\":1462:1477   */\n          add\n            /* \"#utility.yul\":1454:1477   */\n          swap1\n          pop\n            /* \"#utility.yul\":1173:1484   */\n          swap2\n          swap1\n          pop\n          jump\t// out\n            /* \"#utility.yul\":1490:1607   */\n        tag_24:\n            /* \"#utility.yul\":1599:1600   */\n          0x00\n            /* \"#utility.yul\":1596:1597   */\n          dup1\n            /* \"#utility.yul\":1589:1601   */\n          revert\n            /* \"#utility.yul\":1613:1739   */\n        tag_25:\n            /* \"#utility.yul\":1650:1657   */\n          0x00\n            /* \"#utility.yul\":1690:1732   */\n          0xffffffffffffffffffffffffffffffffffffffff\n            /* \"#utility.yul\":1683:1688   */\n          dup3\n            /* \"#utility.yul\":1679:1733   */\n          and\n            /* \"#utility.yul\":1668:1733   */\n          swap1\n          pop\n            /* \"#utility.yul\":1613:1739   */\n          swap2\n          swap1\n          pop\n          jump\t// out\n            /* \"#utility.yul\":1745:1841   */\n        tag_26:\n            /* \"#utility.yul\":1782:1789   */\n          0x00\n            /* \"#utility.yul\":1811:1835   */\n          tag_53\n            /* \"#utility.yul\":1829:1834   */\n          dup3\n            /* \"#utility.yul\":1811:1835   */\n          tag_25\n          jump\t// in\n        tag_53:\n            /* \"#utility.yul\":1800:1835   */\n          swap1\n          pop\n            /* \"#utility.yul\":1745:1841   */\n          swap2\n          swap1\n          pop\n          jump\t// out\n            /* \"#utility.yul\":1847:1969   */\n        tag_27:\n            /* \"#utility.yul\":1920:1944   */\n          tag_55\n            /* \"#utility.yul\":1938:1943   */\n          dup2\n            /* \"#utility.yul\":1920:1944   */\n          tag_26\n          jump\t// in\n        tag_55:\n            /* \"#utility.yul\":1913:1918   */\n          dup2\n            /* \"#utility.yul\":1910:1945   */\n          eq\n            /* \"#utility.yul\":1900:1963   */\n          tag_56\n          jumpi\n            /* \"#utility.yul\":1959:1960   */\n          0x00\n            /* \"#utility.yul\":1956:1957   */\n          dup1\n            /* \"#utility.yul\":1949:1961   */\n          revert\n            /* \"#utility.yul\":1900:1963   */\n        tag_56:\n            /* \"#utility.yul\":1847:1969   */\n          pop\n          jump\t// out\n            /* \"#utility.yul\":1975:2118   */\n        tag_28:\n            /* \"#utility.yul\":2032:2037   */\n          0x00\n            /* \"#utility.yul\":2063:2069   */\n          dup2\n            /* \"#utility.yul\":2057:2070   */\n          mload\n            /* \"#utility.yul\":2048:2070   */\n          swap1\n          pop\n            /* \"#utility.yul\":2079:2112   */\n          tag_58\n            /* \"#utility.yul\":2106:2111   */\n          dup2\n            /* \"#utility.yul\":2079:2112   */\n          tag_27\n          jump\t// in\n        tag_58:\n            /* \"#utility.yul\":1975:2118   */\n          swap3\n          swap2\n          pop\n          pop\n          jump\t// out\n            /* \"#utility.yul\":2141:2873   */\n        tag_29:\n            /* \"#utility.yul\":2248:2253   */\n          0x00\n            /* \"#utility.yul\":2273:2354   */\n          tag_60\n            /* \"#utility.yul\":2289:2353   */\n          tag_61\n            /* \"#utility.yul\":2346:2352   */\n          dup5\n            /* \"#utility.yul\":2289:2353   */\n          tag_23\n          jump\t// in\n        tag_61:\n            /* \"#utility.yul\":2273:2354   */\n          tag_22\n          jump\t// in\n        tag_60:\n            /* \"#utility.yul\":2264:2354   */\n          swap1\n          pop\n            /* \"#utility.yul\":2374:2379   */\n          dup1\n            /* \"#utility.yul\":2403:2409   */\n          dup4\n            /* \"#utility.yul\":2396:2401   */\n          dup3\n            /* \"#utility.yul\":2389:2410   */\n          mstore\n            /* \"#utility.yul\":2437:2441   */\n          0x20\n            /* \"#utility.yul\":2430:2435   */\n          dup3\n            /* \"#utility.yul\":2426:2442   */\n          add\n            /* \"#utility.yul\":2419:2442   */\n          swap1\n          pop\n            /* \"#utility.yul\":2490:2494   */\n          0x20\n            /* \"#utility.yul\":2482:2488   */\n          dup5\n            /* \"#utility.yul\":2478:2495   */\n          mul\n            /* \"#utility.yul\":2470:2476   */\n          dup4\n            /* \"#utility.yul\":2466:2496   */\n          add\n            /* \"#utility.yul\":2519:2522   */\n          dup6\n            /* \"#utility.yul\":2511:2517   */\n          dup2\n            /* \"#utility.yul\":2508:2523   */\n          gt\n            /* \"#utility.yul\":2505:2627   */\n          iszero\n          tag_62\n          jumpi\n            /* \"#utility.yul\":2538:2617   */\n          tag_63\n          tag_24\n          jump\t// in\n        tag_63:\n            /* \"#utility.yul\":2505:2627   */\n        tag_62:\n            /* \"#utility.yul\":2653:2659   */\n          dup4\n            /* \"#utility.yul\":2636:2867   */\n        tag_64:\n            /* \"#utility.yul\":2670:2676   */\n          dup2\n            /* \"#utility.yul\":2665:2668   */\n          dup2\n            /* \"#utility.yul\":2662:2677   */\n          lt\n            /* \"#utility.yul\":2636:2867   */\n          iszero\n          tag_66\n          jumpi\n            /* \"#utility.yul\":2745:2748   */\n          dup1\n            /* \"#utility.yul\":2774:2822   */\n          tag_67\n            /* \"#utility.yul\":2818:2821   */\n          dup9\n            /* \"#utility.yul\":2806:2816   */\n          dup3\n            /* \"#utility.yul\":2774:2822   */\n          tag_28\n          jump\t// in\n        tag_67:\n            /* \"#utility.yul\":2769:2772   */\n          dup5\n            /* \"#utility.yul\":2762:2823   */\n          mstore\n            /* \"#utility.yul\":2852:2856   */\n          0x20\n            /* \"#utility.yul\":2847:2850   */\n          dup5\n            /* \"#utility.yul\":2843:2857   */\n          add\n            /* \"#utility.yul\":2836:2857   */\n          swap4\n          pop\n            /* \"#utility.yul\":2712:2867   */\n          pop\n            /* \"#utility.yul\":2696:2700   */\n          0x20\n            /* \"#utility.yul\":2691:2694   */\n          dup2\n            /* \"#utility.yul\":2687:2701   */\n          add\n            /* \"#utility.yul\":2680:2701   */\n          swap1\n          pop\n            /* \"#utility.yul\":2636:2867   */\n          jump(tag_64)\n        tag_66:\n            /* \"#utility.yul\":2640:2661   */\n          pop\n            /* \"#utility.yul\":2254:2873   */\n          pop\n          pop\n            /* \"#utility.yul\":2141:2873   */\n          swap4\n          swap3\n          pop\n          pop\n          pop\n          jump\t// out\n            /* \"#utility.yul\":2896:3281   */\n        tag_30:\n            /* \"#utility.yul\":2978:2983   */\n          0x00\n            /* \"#utility.yul\":3027:3030   */\n          dup3\n            /* \"#utility.yul\":3020:3024   */\n          0x1f\n            /* \"#utility.yul\":3012:3018   */\n          dup4\n            /* \"#utility.yul\":3008:3025   */\n          add\n            /* \"#utility.yul\":3004:3031   */\n          slt\n            /* \"#utility.yul\":2994:3116   */\n          tag_69\n          jumpi\n            /* \"#utility.yul\":3035:3114   */\n          tag_70\n          tag_18\n          jump\t// in\n        tag_70:\n            /* \"#utility.yul\":2994:3116   */\n        tag_69:\n            /* \"#utility.yul\":3145:3151   */\n          dup2\n            /* \"#utility.yul\":3139:3152   */\n          mload\n            /* \"#utility.yul\":3170:3275   */\n          tag_71\n            /* \"#utility.yul\":3271:3274   */\n          dup5\n            /* \"#utility.yul\":3263:3269   */\n          dup3\n            /* \"#utility.yul\":3256:3260   */\n          0x20\n            /* \"#utility.yul\":3248:3254   */\n          dup7\n            /* \"#utility.yul\":3244:3261   */\n          add\n            /* \"#utility.yul\":3170:3275   */\n          tag_29\n          jump\t// in\n        tag_71:\n            /* \"#utility.yul\":3161:3275   */\n          swap2\n          pop\n            /* \"#utility.yul\":2984:3281   */\n          pop\n            /* \"#utility.yul\":2896:3281   */\n          swap3\n          swap2\n          pop\n          pop\n          jump\t// out\n            /* \"#utility.yul\":3287:3841   */\n        tag_3:\n            /* \"#utility.yul\":3382:3388   */\n          0x00\n            /* \"#utility.yul\":3431:3433   */\n          0x20\n            /* \"#utility.yul\":3419:3428   */\n          dup3\n            /* \"#utility.yul\":3410:3417   */\n          dup5\n            /* \"#utility.yul\":3406:3429   */\n          sub\n            /* \"#utility.yul\":3402:3434   */\n          slt\n            /* \"#utility.yul\":3399:3518   */\n          iszero\n          tag_73\n          jumpi\n            /* \"#utility.yul\":3437:3516   */\n          tag_74\n          tag_16\n          jump\t// in\n        tag_74:\n            /* \"#utility.yul\":3399:3518   */\n        tag_73:\n            /* \"#utility.yul\":3578:3579   */\n          0x00\n            /* \"#utility.yul\":3567:3576   */\n          dup3\n            /* \"#utility.yul\":3563:3580   */\n          add\n            /* \"#utility.yul\":3557:3581   */\n          mload\n            /* \"#utility.yul\":3608:3626   */\n          0xffffffffffffffff\n            /* \"#utility.yul\":3600:3606   */\n          dup2\n            /* \"#utility.yul\":3597:3627   */\n          gt\n            /* \"#utility.yul\":3594:3711   */\n          iszero\n          tag_75\n          jumpi\n            /* \"#utility.yul\":3630:3709   */\n          tag_76\n          tag_17\n          jump\t// in\n        tag_76:\n            /* \"#utility.yul\":3594:3711   */\n        tag_75:\n            /* \"#utility.yul\":3735:3824   */\n          tag_77\n            /* \"#utility.yul\":3816:3823   */\n          dup5\n            /* \"#utility.yul\":3807:3813   */\n          dup3\n            /* \"#utility.yul\":3796:3805   */\n          dup6\n            /* \"#utility.yul\":3792:3814   */\n          add\n            /* \"#utility.yul\":3735:3824   */\n          tag_30\n          jump\t// in\n        tag_77:\n            /* \"#utility.yul\":3725:3824   */\n          swap2\n          pop\n            /* \"#utility.yul\":3528:3834   */\n          pop\n            /* \"#utility.yul\":3287:3841   */\n          swap3\n          swap2\n          pop\n          pop\n          jump\t// out\n            /* \"#utility.yul\":3847:4027   */\n        tag_11:\n            /* \"#utility.yul\":3895:3972   */\n          0x4e487b7100000000000000000000000000000000000000000000000000000000\n            /* \"#utility.yul\":3892:3893   */\n          0x00\n            /* \"#utility.yul\":3885:3973   */\n          mstore\n            /* \"#utility.yul\":3992:3996   */\n          0x32\n            /* \"#utility.yul\":3989:3990   */\n          0x04\n            /* \"#utility.yul\":3982:3997   */\n          mstore\n            /* \"#utility.yul\":4016:4020   */\n          0x24\n            /* \"#utility.yul\":4013:4014   */\n          0x00\n            /* \"#utility.yul\":4006:4021   */\n          revert\n            /* \"#utility.yul\":4033:4213   */\n        tag_31:\n            /* \"#utility.yul\":4081:4158   */\n          0x4e487b7100000000000000000000000000000000000000000000000000000000\n            /* \"#utility.yul\":4078:4079   */\n          0x00\n            /* \"#utility.yul\":4071:4159   */\n          mstore\n            /* \"#utility.yul\":4178:4182   */\n          0x11\n            /* \"#utility.yul\":4175:4176   */\n          0x04\n            /* \"#utility.yul\":4168:4183   */\n          mstore\n            /* \"#utility.yul\":4202:4206   */\n          0x24\n            /* \"#utility.yul\":4199:4200   */\n          0x00\n            /* \"#utility.yul\":4192:4207   */\n          revert\n            /* \"#utility.yul\":4219:4296   */\n        tag_32:\n            /* \"#utility.yul\":4256:4263   */\n          0x00\n            /* \"#utility.yul\":4285:4290   */\n          dup2\n            /* \"#utility.yul\":4274:4290   */\n          swap1\n          pop\n            /* \"#utility.yul\":4219:4296   */\n          swap2\n          swap1\n          pop\n          jump\t// out\n            /* \"#utility.yul\":4302:4535   */\n        tag_13:\n            /* \"#utility.yul\":4341:4344   */\n          0x00\n            /* \"#utility.yul\":4364:4388   */\n          tag_82\n            /* \"#utility.yul\":4382:4387   */\n          dup3\n            /* \"#utility.yul\":4364:4388   */\n          tag_32\n          jump\t// in\n        tag_82:\n            /* \"#utility.yul\":4355:4388   */\n          swap2\n          pop\n            /* \"#utility.yul\":4410:4476   */\n          0xffffffffffffffffffffffffffffffffffffffffffffffffffffffffffffffff\n            /* \"#utility.yul\":4403:4408   */\n          dup3\n            /* \"#utility.yul\":4400:4477   */\n          sub\n            /* \"#utility.yul\":4397:4500   */\n          tag_83\n          jumpi\n            /* \"#utility.yul\":4480:4498   */\n          tag_84\n          tag_31\n          jump\t// in\n        tag_84:\n            /* \"#utility.yul\":4397:4500   */\n        tag_83:\n            /* \"#utility.yul\":4527:4528   */\n          0x01\n            /* \"#utility.yul\":4520:4525   */\n          dup3\n            /* \"#utility.yul\":4516:4529   */\n          add\n            /* \"#utility.yul\":4509:4529   */\n          swap1\n          pop\n            /* \"#utility.yul\":4302:4535   */\n          swap2\n          swap1\n          pop\n          jump\t// out\n            /* \"test/Test.sol\":524:845  contract TestSeed is Seed {... */\n        tag_14:\n          dataSize(sub_0)\n          dup1\n          dataOffset(sub_0)\n          0x00\n          codecopy\n          0x00\n          return\n        stop\n\n        sub_0: assembly {\n                /* \"test/Test.sol\":524:845  contract TestSeed is Seed {... */\n              mstore(0x40, 0x80)\n              jumpi(tag_1, lt(calldatasize, 0x04))\n              shr(0xe0, calldataload(0x00))\n              dup1\n              0x24d7806c\n              eq\n              tag_2\n              jumpi\n              dup1\n              0x5c60da1b\n              eq\n              tag_3\n              jumpi\n              dup1\n              0x997b81c9\n              eq\n              tag_4\n              jumpi\n            tag_1:\n              0x00\n              dup1\n              revert\n                /* \"test/Test.sol\":557:596  mapping(address => bool) public isAdmin */\n            tag_2:\n              callvalue\n              dup1\n              iszero\n              tag_5\n              jumpi\n              0x00\n              dup1\n              revert\n            tag_5:\n              pop\n              tag_6\n              0x04\n              dup1\n              calldatasize\n              sub\n              dup2\n              add\n              swap1\n              tag_7\n              swap2\n              swap1\n              tag_8\n              jump\t// in\n            tag_7:\n              tag_9\n              jump\t// in\n            tag_6:\n              mload(0x40)\n              tag_10\n              swap2\n              swap1\n              tag_11\n              jump\t// in\n            tag_10:\n              mload(0x40)\n              dup1\n              swap2\n              sub\n              swap1\n              return\n                /* \"contracts/Seed.sol\":136:165  address public implementation */\n            tag_3:\n              callvalue\n              dup1\n              iszero\n              tag_12\n              jumpi\n              0x00\n              dup1\n              revert\n            tag_12:\n              pop\n              tag_13\n              tag_14\n              jump\t// in\n            tag_13:\n              mload(0x40)\n              tag_15\n              swap2\n              swap1\n              tag_16\n              jump\t// in\n            tag_15:\n              mload(0x40)\n              dup1\n              swap2\n              sub\n              swap1\n              return\n                /* \"contracts/Seed.sol\":249:636  function deploy(bytes4 selector, address _implementation) external payable returns (address deployed) {... */\n            tag_4:\n              tag_17\n              0x04\n              dup1\n              calldatasize\n              sub\n              dup2\n              add\n              swap1\n              tag_18\n              swap2\n              swap1\n              tag_19\n              jump\t// in\n            tag_18:\n              tag_20\n              jump\t// in\n            tag_17:\n              mload(0x40)\n              tag_21\n              swap2\n              swap1\n              tag_16\n              jump\t// in\n            tag_21:\n              mload(0x40)\n              dup1\n              swap2\n              sub\n              swap1\n              return\n                /* \"test/Test.sol\":557:596  mapping(address => bool) public isAdmin */\n            tag_9:\n              mstore(0x20, 0x01)\n              dup1\n              0x00\n              mstore\n              keccak256(0x00, 0x40)\n              0x00\n              swap2\n              pop\n              sload\n              swap1\n              0x0100\n              exp\n              swap1\n              div\n              0xff\n              and\n              dup2\n              jump\t// out\n                /* \"contracts/Seed.sol\":136:165  address public implementation */\n            tag_14:\n              0x00\n              dup1\n              sload\n              swap1\n              0x0100\n              exp\n              swap1\n              div\n              0xffffffffffffffffffffffffffffffffffffffff\n              and\n              dup2\n              jump\t// out\n                /* \"contracts/Seed.sol\":249:636  function deploy(bytes4 selector, address _implementation) external payable returns (address deployed) {... */\n            tag_20:\n                /* \"contracts/Seed.sol\":333:349  address deployed */\n              0x00\n                /* \"contracts/Seed.sol\":362:374  _authorize() */\n              tag_23\n                /* \"contracts/Seed.sol\":362:372  _authorize */\n              tag_24\n                /* \"contracts/Seed.sol\":362:374  _authorize() */\n              jump\t// in\n            tag_23:\n                /* \"contracts/Seed.sol\":402:417  _implementation */\n              dup2\n                /* \"contracts/Seed.sol\":385:399  implementation */\n              0x00\n              dup1\n                /* \"contracts/Seed.sol\":385:417  implementation = _implementation */\n              0x0100\n              exp\n              dup2\n              sload\n              dup2\n              0xffffffffffffffffffffffffffffffffffffffff\n              mul\n              not\n              and\n              swap1\n              dup4\n              0xffffffffffffffffffffffffffffffffffffffff\n              and\n              mul\n              or\n              swap1\n              sstore\n              pop\n                /* \"contracts/Seed.sol\":428:440  bytes32 salt */\n              0x00\n                /* \"contracts/Seed.sol\":451:459  selector */\n              dup4\n                /* \"contracts/Seed.sol\":443:460  bytes32(selector) */\n              not(0xffffffffffffffffffffffffffffffffffffffffffffffffffffffff)\n              and\n                /* \"contracts/Seed.sol\":428:460  bytes32 salt = bytes32(selector) */\n              swap1\n              pop\n                /* \"contracts/Seed.sol\":505:509  salt */\n              dup1\n                /* \"contracts/Seed.sol\":518:527  msg.value */\n              callvalue\n                /* \"contracts/Seed.sol\":490:530  new Leaf{salt: salt, value: msg.value}() */\n              mload(0x40)\n              tag_25\n              swap1\n              tag_26\n              jump\t// in\n            tag_25:\n              dup3\n              swap1\n              mload(0x40)\n              dup1\n              swap2\n              sub\n              swap1\n              dup4\n              create2\n              swap1\n              pop\n              swap1\n              pop\n              dup1\n              iszero\n              dup1\n              iszero\n              tag_27\n              jumpi\n              returndatasize\n              0x00\n              dup1\n              returndatacopy\n              revert(0x00, returndatasize)\n            tag_27:\n              pop\n                /* \"contracts/Seed.sol\":471:531  deployed = address(new Leaf{salt: salt, value: msg.value}()) */\n              swap2\n              pop\n                /* \"contracts/Seed.sol\":566:567  0 */\n              0x00\n                /* \"contracts/Seed.sol\":546:568  deployed == address(0) */\n              0xffffffffffffffffffffffffffffffffffffffff\n              and\n                /* \"contracts/Seed.sol\":546:554  deployed */\n              dup3\n                /* \"contracts/Seed.sol\":546:568  deployed == address(0) */\n              0xffffffffffffffffffffffffffffffffffffffff\n              and\n              sub\n                /* \"contracts/Seed.sol\":542:578  if (deployed == address(0)) revert() */\n              tag_28\n              jumpi\n                /* \"contracts/Seed.sol\":570:578  revert() */\n              0x00\n              dup1\n              revert\n                /* \"contracts/Seed.sol\":542:578  if (deployed == address(0)) revert() */\n            tag_28:\n                /* \"contracts/Seed.sol\":612:627  _implementation */\n              dup3\n                /* \"contracts/Seed.sol\":594:628  NewLeaf(selector, _implementation) */\n              0xffffffffffffffffffffffffffffffffffffffff\n              and\n                /* \"contracts/Seed.sol\":602:610  selector */\n              dup5\n                /* \"contracts/Seed.sol\":594:628  NewLeaf(selector, _implementation) */\n              not(0xffffffffffffffffffffffffffffffffffffffffffffffffffffffff)\n              and\n              0x37d0de5bda26e6d2e72c27ec220f13259da66955718f6407d2b3f6ee4091b1e5\n              mload(0x40)\n              mload(0x40)\n              dup1\n              swap2\n              sub\n              swap1\n              log3\n                /* \"contracts/Seed.sol\":351:636  {... */\n              pop\n                /* \"contracts/Seed.sol\":249:636  function deploy(bytes4 selector, address _implementation) external payable returns (address deployed) {... */\n              swap3\n              swap2\n              pop\n              pop\n              jump\t// out\n                /* \"test/Test.sol\":734:842  function _authorize() internal view override {... */\n            tag_24:\n                /* \"test/Test.sol\":798:805  isAdmin */\n              0x01\n                /* \"test/Test.sol\":798:817  isAdmin[msg.sender] */\n              0x00\n                /* \"test/Test.sol\":806:816  msg.sender */\n              caller\n                /* \"test/Test.sol\":798:817  isAdmin[msg.sender] */\n              0xffffffffffffffffffffffffffffffffffffffff\n              and\n              0xffffffffffffffffffffffffffffffffffffffff\n              and\n              dup2\n              mstore\n              0x20\n              add\n              swap1\n              dup2\n              mstore\n              0x20\n              add\n              0x00\n              keccak256\n              0x00\n              swap1\n              sload\n              swap1\n              0x0100\n              exp\n              swap1\n              div\n              0xff\n              and\n                /* \"test/Test.sol\":790:834  require(isAdmin[msg.sender], \"Is not admin\") */\n              tag_30\n              jumpi\n              mload(0x40)\n              0x08c379a000000000000000000000000000000000000000000000000000000000\n              dup2\n              mstore\n              0x04\n              add\n              tag_31\n              swap1\n              tag_32\n              jump\t// in\n            tag_31:\n              mload(0x40)\n              dup1\n              swap2\n              sub\n              swap1\n              revert\n            tag_30:\n                /* \"test/Test.sol\":734:842  function _authorize() internal view override {... */\n              jump\t// out\n            tag_26:\n              dataSize(sub_0)\n              dup1\n              dataOffset(sub_0)\n              dup4\n              codecopy\n              add\n              swap1\n              jump\t// out\n                /* \"#utility.yul\":88:205   */\n            tag_34:\n                /* \"#utility.yul\":197:198   */\n              0x00\n                /* \"#utility.yul\":194:195   */\n              dup1\n                /* \"#utility.yul\":187:199   */\n              revert\n                /* \"#utility.yul\":334:460   */\n            tag_36:\n                /* \"#utility.yul\":371:378   */\n              0x00\n                /* \"#utility.yul\":411:453   */\n              0xffffffffffffffffffffffffffffffffffffffff\n                /* \"#utility.yul\":404:409   */\n              dup3\n                /* \"#utility.yul\":400:454   */\n              and\n                /* \"#utility.yul\":389:454   */\n              swap1\n              pop\n                /* \"#utility.yul\":334:460   */\n              swap2\n              swap1\n              pop\n              jump\t// out\n                /* \"#utility.yul\":466:562   */\n            tag_37:\n                /* \"#utility.yul\":503:510   */\n              0x00\n                /* \"#utility.yul\":532:556   */\n              tag_55\n                /* \"#utility.yul\":550:555   */\n              dup3\n                /* \"#utility.yul\":532:556   */\n              tag_36\n              jump\t// in\n            tag_55:\n                /* \"#utility.yul\":521:556   */\n              swap1\n              pop\n                /* \"#utility.yul\":466:562   */\n              swap2\n              swap1\n              pop\n              jump\t// out\n                /* \"#utility.yul\":568:690   */\n            tag_38:\n                /* \"#utility.yul\":641:665   */\n              tag_57\n                /* \"#utility.yul\":659:664   */\n              dup2\n                /* \"#utility.yul\":641:665   */\n              tag_37\n              jump\t// in\n            tag_57:\n                /* \"#utility.yul\":634:639   */\n              dup2\n                /* \"#utility.yul\":631:666   */\n              eq\n                /* \"#utility.yul\":621:684   */\n              tag_58\n              jumpi\n                /* \"#utility.yul\":680:681   */\n              0x00\n                /* \"#utility.yul\":677:678   */\n              dup1\n                /* \"#utility.yul\":670:682   */\n              revert\n                /* \"#utility.yul\":621:684   */\n            tag_58:\n                /* \"#utility.yul\":568:690   */\n              pop\n              jump\t// out\n                /* \"#utility.yul\":696:835   */\n            tag_39:\n                /* \"#utility.yul\":742:747   */\n              0x00\n                /* \"#utility.yul\":780:786   */\n              dup2\n                /* \"#utility.yul\":767:787   */\n              calldataload\n                /* \"#utility.yul\":758:787   */\n              swap1\n              pop\n                /* \"#utility.yul\":796:829   */\n              tag_60\n                /* \"#utility.yul\":823:828   */\n              dup2\n                /* \"#utility.yul\":796:829   */\n              tag_38\n              jump\t// in\n            tag_60:\n                /* \"#utility.yul\":696:835   */\n              swap3\n              swap2\n              pop\n              pop\n              jump\t// out\n                /* \"#utility.yul\":841:1170   */\n            tag_8:\n                /* \"#utility.yul\":900:906   */\n              0x00\n                /* \"#utility.yul\":949:951   */\n              0x20\n                /* \"#utility.yul\":937:946   */\n              dup3\n                /* \"#utility.yul\":928:935   */\n              dup5\n                /* \"#utility.yul\":924:947   */\n              sub\n                /* \"#utility.yul\":920:952   */\n              slt\n                /* \"#utility.yul\":917:1036   */\n              iszero\n              tag_62\n              jumpi\n                /* \"#utility.yul\":955:1034   */\n              tag_63\n              tag_34\n              jump\t// in\n            tag_63:\n                /* \"#utility.yul\":917:1036   */\n            tag_62:\n                /* \"#utility.yul\":1075:1076   */\n              0x00\n                /* \"#utility.yul\":1100:1153   */\n              tag_64\n                /* \"#utility.yul\":1145:1152   */\n              dup5\n                /* \"#utility.yul\":1136:1142   */\n              dup3\n                /* \"#utility.yul\":1125:1134   */\n              dup6\n                /* \"#utility.yul\":1121:1143   */\n              add\n                /* \"#utility.yul\":1100:1153   */\n              tag_39\n              jump\t// in\n            tag_64:\n                /* \"#utility.yul\":1090:1153   */\n              swap2\n              pop\n                /* \"#utility.yul\":1046:1163   */\n              pop\n                /* \"#utility.yul\":841:1170   */\n              swap3\n              swap2\n              pop\n              pop\n              jump\t// out\n                /* \"#utility.yul\":1176:1266   */\n            tag_40:\n                /* \"#utility.yul\":1210:1217   */\n              0x00\n                /* \"#utility.yul\":1253:1258   */\n              dup2\n                /* \"#utility.yul\":1246:1259   */\n              iszero\n                /* \"#utility.yul\":1239:1260   */\n              iszero\n                /* \"#utility.yul\":1228:1260   */\n              swap1\n              pop\n                /* \"#utility.yul\":1176:1266   */\n              swap2\n              swap1\n              pop\n              jump\t// out\n                /* \"#utility.yul\":1272:1381   */\n            tag_41:\n                /* \"#utility.yul\":1353:1374   */\n              tag_67\n                /* \"#utility.yul\":1368:1373   */\n              dup2\n                /* \"#utility.yul\":1353:1374   */\n              tag_40\n              jump\t// in\n            tag_67:\n                /* \"#utility.yul\":1348:1351   */\n              dup3\n                /* \"#utility.yul\":1341:1375   */\n              mstore\n                /* \"#utility.yul\":1272:1381   */\n              pop\n              pop\n              jump\t// out\n                /* \"#utility.yul\":1387:1597   */\n            tag_11:\n                /* \"#utility.yul\":1474:1478   */\n              0x00\n                /* \"#utility.yul\":1512:1514   */\n              0x20\n                /* \"#utility.yul\":1501:1510   */\n              dup3\n                /* \"#utility.yul\":1497:1515   */\n              add\n                /* \"#utility.yul\":1489:1515   */\n              swap1\n              pop\n                /* \"#utility.yul\":1525:1590   */\n              tag_69\n                /* \"#utility.yul\":1587:1588   */\n              0x00\n                /* \"#utility.yul\":1576:1585   */\n              dup4\n                /* \"#utility.yul\":1572:1589   */\n              add\n                /* \"#utility.yul\":1563:1569   */\n              dup5\n                /* \"#utility.yul\":1525:1590   */\n              tag_41\n              jump\t// in\n            tag_69:\n                /* \"#utility.yul\":1387:1597   */\n              swap3\n              swap2\n              pop\n              pop\n              jump\t// out\n                /* \"#utility.yul\":1603:1721   */\n            tag_42:\n                /* \"#utility.yul\":1690:1714   */\n              tag_71\n                /* \"#utility.yul\":1708:1713   */\n              dup2\n                /* \"#utility.yul\":1690:1714   */\n              tag_37\n              jump\t// in\n            tag_71:\n                /* \"#utility.yul\":1685:1688   */\n              dup3\n                /* \"#utility.yul\":1678:1715   */\n              mstore\n                /* \"#utility.yul\":1603:1721   */\n              pop\n              pop\n              jump\t// out\n                /* \"#utility.yul\":1727:1949   */\n            tag_16:\n                /* \"#utility.yul\":1820:1824   */\n              0x00\n                /* \"#utility.yul\":1858:1860   */\n              0x20\n                /* \"#utility.yul\":1847:1856   */\n              dup3\n                /* \"#utility.yul\":1843:1861   */\n              add\n                /* \"#utility.yul\":1835:1861   */\n              swap1\n              pop\n                /* \"#utility.yul\":1871:1942   */\n              tag_73\n                /* \"#utility.yul\":1939:1940   */\n              0x00\n                /* \"#utility.yul\":1928:1937   */\n              dup4\n                /* \"#utility.yul\":1924:1941   */\n              add\n                /* \"#utility.yul\":1915:1921   */\n              dup5\n                /* \"#utility.yul\":1871:1942   */\n              tag_42\n              jump\t// in\n            tag_73:\n                /* \"#utility.yul\":1727:1949   */\n              swap3\n              swap2\n              pop\n              pop\n              jump\t// out\n                /* \"#utility.yul\":1955:2104   */\n            tag_43:\n                /* \"#utility.yul\":1991:1998   */\n              0x00\n                /* \"#utility.yul\":2031:2097   */\n              0xffffffff00000000000000000000000000000000000000000000000000000000\n                /* \"#utility.yul\":2024:2029   */\n              dup3\n                /* \"#utility.yul\":2020:2098   */\n              and\n                /* \"#utility.yul\":2009:2098   */\n              swap1\n              pop\n                /* \"#utility.yul\":1955:2104   */\n              swap2\n              swap1\n              pop\n              jump\t// out\n                /* \"#utility.yul\":2110:2230   */\n            tag_44:\n                /* \"#utility.yul\":2182:2205   */\n              tag_76\n                /* \"#utility.yul\":2199:2204   */\n              dup2\n                /* \"#utility.yul\":2182:2205   */\n              tag_43\n              jump\t// in\n            tag_76:\n                /* \"#utility.yul\":2175:2180   */\n              dup2\n                /* \"#utility.yul\":2172:2206   */\n              eq\n                /* \"#utility.yul\":2162:2224   */\n              tag_77\n              jumpi\n                /* \"#utility.yul\":2220:2221   */\n              0x00\n                /* \"#utility.yul\":2217:2218   */\n              dup1\n                /* \"#utility.yul\":2210:2222   */\n              revert\n                /* \"#utility.yul\":2162:2224   */\n            tag_77:\n                /* \"#utility.yul\":2110:2230   */\n              pop\n              jump\t// out\n                /* \"#utility.yul\":2236:2373   */\n            tag_45:\n                /* \"#utility.yul\":2281:2286   */\n              0x00\n                /* \"#utility.yul\":2319:2325   */\n              dup2\n                /* \"#utility.yul\":2306:2326   */\n              calldataload\n                /* \"#utility.yul\":2297:2326   */\n              swap1\n              pop\n                /* \"#utility.yul\":2335:2367   */\n              tag_79\n                /* \"#utility.yul\":2361:2366   */\n              dup2\n                /* \"#utility.yul\":2335:2367   */\n              tag_44\n              jump\t// in\n            tag_79:\n                /* \"#utility.yul\":2236:2373   */\n              swap3\n              swap2\n              pop\n              pop\n              jump\t// out\n                /* \"#utility.yul\":2379:2851   */\n            tag_19:\n                /* \"#utility.yul\":2446:2452   */\n              0x00\n                /* \"#utility.yul\":2454:2460   */\n              dup1\n                /* \"#utility.yul\":2503:2505   */\n              0x40\n                /* \"#utility.yul\":2491:2500   */\n              dup4\n                /* \"#utility.yul\":2482:2489   */\n              dup6\n                /* \"#utility.yul\":2478:2501   */\n              sub\n                /* \"#utility.yul\":2474:2506   */\n              slt\n                /* \"#utility.yul\":2471:2590   */\n              iszero\n              tag_81\n              jumpi\n                /* \"#utility.yul\":2509:2588   */\n              tag_82\n              tag_34\n              jump\t// in\n            tag_82:\n                /* \"#utility.yul\":2471:2590   */\n            tag_81:\n                /* \"#utility.yul\":2629:2630   */\n              0x00\n                /* \"#utility.yul\":2654:2706   */\n              tag_83\n                /* \"#utility.yul\":2698:2705   */\n              dup6\n                /* \"#utility.yul\":2689:2695   */\n              dup3\n                /* \"#utility.yul\":2678:2687   */\n              dup7\n                /* \"#utility.yul\":2674:2696   */\n              add\n                /* \"#utility.yul\":2654:2706   */\n              tag_45\n              jump\t// in\n            tag_83:\n                /* \"#utility.yul\":2644:2706   */\n              swap3\n              pop\n                /* \"#utility.yul\":2600:2716   */\n              pop\n                /* \"#utility.yul\":2755:2757   */\n              0x20\n                /* \"#utility.yul\":2781:2834   */\n              tag_84\n                /* \"#utility.yul\":2826:2833   */\n              dup6\n                /* \"#utility.yul\":2817:2823   */\n              dup3\n                /* \"#utility.yul\":2806:2815   */\n              dup7\n                /* \"#utility.yul\":2802:2824   */\n              add\n                /* \"#utility.yul\":2781:2834   */\n              tag_39\n              jump\t// in\n            tag_84:\n                /* \"#utility.yul\":2771:2834   */\n              swap2\n              pop\n                /* \"#utility.yul\":2726:2844   */\n              pop\n                /* \"#utility.yul\":2379:2851   */\n              swap3\n              pop\n              swap3\n              swap1\n              pop\n              jump\t// out\n                /* \"#utility.yul\":2857:3026   */\n            tag_46:\n                /* \"#utility.yul\":2941:2952   */\n              0x00\n                /* \"#utility.yul\":2975:2981   */\n              dup3\n                /* \"#utility.yul\":2970:2973   */\n              dup3\n                /* \"#utility.yul\":2963:2982   */\n              mstore\n                /* \"#utility.yul\":3015:3019   */\n              0x20\n                /* \"#utility.yul\":3010:3013   */\n              dup3\n                /* \"#utility.yul\":3006:3020   */\n              add\n                /* \"#utility.yul\":2991:3020   */\n              swap1\n              pop\n                /* \"#utility.yul\":2857:3026   */\n              swap3\n              swap2\n              pop\n              pop\n              jump\t// out\n                /* \"#utility.yul\":3032:3194   */\n            tag_47:\n                /* \"#utility.yul\":3172:3186   */\n              0x4973206e6f742061646d696e0000000000000000000000000000000000000000\n                /* \"#utility.yul\":3168:3169   */\n              0x00\n                /* \"#utility.yul\":3160:3166   */\n              dup3\n                /* \"#utility.yul\":3156:3170   */\n              add\n                /* \"#utility.yul\":3149:3187   */\n              mstore\n                /* \"#utility.yul\":3032:3194   */\n              pop\n              jump\t// out\n                /* \"#utility.yul\":3200:3566   */\n            tag_48:\n                /* \"#utility.yul\":3342:3345   */\n              0x00\n                /* \"#utility.yul\":3363:3430   */\n              tag_88\n                /* \"#utility.yul\":3427:3429   */\n              0x0c\n                /* \"#utility.yul\":3422:3425   */\n              dup4\n                /* \"#utility.yul\":3363:3430   */\n              tag_46\n              jump\t// in\n            tag_88:\n                /* \"#utility.yul\":3356:3430   */\n              swap2\n              pop\n                /* \"#utility.yul\":3439:3532   */\n              tag_89\n                /* \"#utility.yul\":3528:3531   */\n              dup3\n                /* \"#utility.yul\":3439:3532   */\n              tag_47\n              jump\t// in\n            tag_89:\n                /* \"#utility.yul\":3557:3559   */\n              0x20\n                /* \"#utility.yul\":3552:3555   */\n              dup3\n                /* \"#utility.yul\":3548:3560   */\n              add\n                /* \"#utility.yul\":3541:3560   */\n              swap1\n              pop\n                /* \"#utility.yul\":3200:3566   */\n              swap2\n              swap1\n              pop\n              jump\t// out\n                /* \"#utility.yul\":3572:3991   */\n            tag_32:\n                /* \"#utility.yul\":3738:3742   */\n              0x00\n                /* \"#utility.yul\":3776:3778   */\n              0x20\n                /* \"#utility.yul\":3765:3774   */\n              dup3\n                /* \"#utility.yul\":3761:3779   */\n              add\n                /* \"#utility.yul\":3753:3779   */\n              swap1\n              pop\n                /* \"#utility.yul\":3825:3834   */\n              dup2\n                /* \"#utility.yul\":3819:3823   */\n              dup2\n                /* \"#utility.yul\":3815:3835   */\n              sub\n                /* \"#utility.yul\":3811:3812   */\n              0x00\n                /* \"#utility.yul\":3800:3809   */\n              dup4\n                /* \"#utility.yul\":3796:3813   */\n              add\n                /* \"#utility.yul\":3789:3836   */\n              mstore\n                /* \"#utility.yul\":3853:3984   */\n              tag_91\n                /* \"#utility.yul\":3979:3983   */\n              dup2\n                /* \"#utility.yul\":3853:3984   */\n              tag_48\n              jump\t// in\n            tag_91:\n                /* \"#utility.yul\":3845:3984   */\n              swap1\n              pop\n                /* \"#utility.yul\":3572:3991   */\n              swap2\n              swap1\n              pop\n              jump\t// out\n            stop\n\n            sub_0: assembly {\n                    /* \"contracts/Leaf.sol\":106:422  contract Leaf {... */\n                  mstore(0x40, 0x80)\n                    /* \"contracts/Leaf.sol\":160:169  Seed seed */\n                  0x00\n                    /* \"contracts/Leaf.sol\":177:187  msg.sender */\n                  caller\n                    /* \"contracts/Leaf.sol\":160:188  Seed seed = Seed(msg.sender) */\n                  swap1\n                  pop\n                    /* \"contracts/Leaf.sol\":199:221  address implementation */\n                  0x00\n                    /* \"contracts/Leaf.sol\":224:228  seed */\n                  dup2\n                    /* \"contracts/Leaf.sol\":224:243  seed.implementation */\n                  0xffffffffffffffffffffffffffffffffffffffff\n                  and\n                  0x5c60da1b\n                    /* \"contracts/Leaf.sol\":224:245  seed.implementation() */\n                  mload(0x40)\n                  dup2\n                  0xffffffff\n                  and\n                  0xe0\n                  shl\n                  dup2\n                  mstore\n                  0x04\n                  add\n                  0x20\n                  mload(0x40)\n                  dup1\n                  dup4\n                  sub\n                  dup2\n                  dup7\n                  gas\n                  staticcall\n                  iszero\n                  dup1\n                  iszero\n                  tag_4\n                  jumpi\n                  returndatasize\n                  0x00\n                  dup1\n                  returndatacopy\n                  revert(0x00, returndatasize)\n                tag_4:\n                  pop\n                  pop\n                  pop\n                  pop\n                  mload(0x40)\n                  returndatasize\n                  not(0x1f)\n                  0x1f\n                  dup3\n                  add\n                  and\n                  dup3\n                  add\n                  dup1\n                  0x40\n                  mstore\n                  pop\n                  dup2\n                  add\n                  swap1\n                  tag_5\n                  swap2\n                  swap1\n                  tag_6\n                  jump\t// in\n                tag_5:\n                    /* \"contracts/Leaf.sol\":199:245  address implementation = seed.implementation() */\n                  swap1\n                  pop\n                    /* \"contracts/Leaf.sol\":304:318  implementation */\n                  dup1\n                    /* \"contracts/Leaf.sol\":292:319  extcodesize(implementation) */\n                  extcodesize\n                    /* \"contracts/Leaf.sol\":367:371  size */\n                  dup1\n                    /* \"contracts/Leaf.sol\":364:365  0 */\n                  0x00\n                    /* \"contracts/Leaf.sol\":361:362  0 */\n                  dup1\n                    /* \"contracts/Leaf.sol\":345:359  implementation */\n                  dup5\n                    /* \"contracts/Leaf.sol\":333:372  extcodecopy(implementation, 0, 0, size) */\n                  extcodecopy\n                    /* \"contracts/Leaf.sol\":396:400  size */\n                  dup1\n                    /* \"contracts/Leaf.sol\":393:394  0 */\n                  0x00\n                    /* \"contracts/Leaf.sol\":386:401  return(0, size) */\n                  return\n                    /* \"#utility.yul\":88:205   */\n                tag_9:\n                    /* \"#utility.yul\":197:198   */\n                  0x00\n                    /* \"#utility.yul\":194:195   */\n                  dup1\n                    /* \"#utility.yul\":187:199   */\n                  revert\n                    /* \"#utility.yul\":334:460   */\n                tag_11:\n                    /* \"#utility.yul\":371:378   */\n                  0x00\n                    /* \"#utility.yul\":411:453   */\n                  0xffffffffffffffffffffffffffffffffffffffff\n                    /* \"#utility.yul\":404:409   */\n                  dup3\n                    /* \"#utility.yul\":400:454   */\n                  and\n                    /* \"#utility.yul\":389:454   */\n                  swap1\n                  pop\n                    /* \"#utility.yul\":334:460   */\n                  swap2\n                  swap1\n                  pop\n                  jump\t// out\n                    /* \"#utility.yul\":466:562   */\n                tag_12:\n                    /* \"#utility.yul\":503:510   */\n                  0x00\n                    /* \"#utility.yul\":532:556   */\n                  tag_21\n                    /* \"#utility.yul\":550:555   */\n                  dup3\n                    /* \"#utility.yul\":532:556   */\n                  tag_11\n                  jump\t// in\n                tag_21:\n                    /* \"#utility.yul\":521:556   */\n                  swap1\n                  pop\n                    /* \"#utility.yul\":466:562   */\n                  swap2\n                  swap1\n                  pop\n                  jump\t// out\n                    /* \"#utility.yul\":568:690   */\n                tag_13:\n                    /* \"#utility.yul\":641:665   */\n                  tag_23\n                    /* \"#utility.yul\":659:664   */\n                  dup2\n                    /* \"#utility.yul\":641:665   */\n                  tag_12\n                  jump\t// in\n                tag_23:\n                    /* \"#utility.yul\":634:639   */\n                  dup2\n                    /* \"#utility.yul\":631:666   */\n                  eq\n                    /* \"#utility.yul\":621:684   */\n                  tag_24\n                  jumpi\n                    /* \"#utility.yul\":680:681   */\n                  0x00\n                    /* \"#utility.yul\":677:678   */\n                  dup1\n                    /* \"#utility.yul\":670:682   */\n                  revert\n                    /* \"#utility.yul\":621:684   */\n                tag_24:\n                    /* \"#utility.yul\":568:690   */\n                  pop\n                  jump\t// out\n                    /* \"#utility.yul\":696:839   */\n                tag_14:\n                    /* \"#utility.yul\":753:758   */\n                  0x00\n                    /* \"#utility.yul\":784:790   */\n                  dup2\n                    /* \"#utility.yul\":778:791   */\n                  mload\n                    /* \"#utility.yul\":769:791   */\n                  swap1\n                  pop\n                    /* \"#utility.yul\":800:833   */\n                  tag_26\n                    /* \"#utility.yul\":827:832   */\n                  dup2\n                    /* \"#utility.yul\":800:833   */\n                  tag_13\n                  jump\t// in\n                tag_26:\n                    /* \"#utility.yul\":696:839   */\n                  swap3\n                  swap2\n                  pop\n                  pop\n                  jump\t// out\n                    /* \"#utility.yul\":845:1196   */\n                tag_6:\n                    /* \"#utility.yul\":915:921   */\n                  0x00\n                    /* \"#utility.yul\":964:966   */\n                  0x20\n                    /* \"#utility.yul\":952:961   */\n                  dup3\n                    /* \"#utility.yul\":943:950   */\n                  dup5\n                    /* \"#utility.yul\":939:962   */\n                  sub\n                    /* \"#utility.yul\":935:967   */\n                  slt\n                    /* \"#utility.yul\":932:1051   */\n                  iszero\n                  tag_28\n                  jumpi\n                    /* \"#utility.yul\":970:1049   */\n                  tag_29\n                  tag_9\n                  jump\t// in\n                tag_29:\n                    /* \"#utility.yul\":932:1051   */\n                tag_28:\n                    /* \"#utility.yul\":1090:1091   */\n                  0x00\n                    /* \"#utility.yul\":1115:1179   */\n                  tag_30\n                    /* \"#utility.yul\":1171:1178   */\n                  dup5\n                    /* \"#utility.yul\":1162:1168   */\n                  dup3\n                    /* \"#utility.yul\":1151:1160   */\n                  dup6\n                    /* \"#utility.yul\":1147:1169   */\n                  add\n                    /* \"#utility.yul\":1115:1179   */\n                  tag_14\n                  jump\t// in\n                tag_30:\n                    /* \"#utility.yul\":1105:1179   */\n                  swap2\n                  pop\n                    /* \"#utility.yul\":1061:1189   */\n                  pop\n                    /* \"#utility.yul\":845:1196   */\n                  swap3\n                  swap2\n                  pop\n                  pop\n                  jump\t// out\n                stop\n\n                sub_0: assembly {\n                        /* \"contracts/Leaf.sol\":106:422  contract Leaf {... */\n                      mstore(0x40, 0x80)\n                      0x00\n                      dup1\n                      revert\n\n                    auxdata: 0xa26469706673582212200afca8bcf310ffe09bf63e25252e584813bf0eda898c5acb9b355074991a39a464736f6c63430008120033\n                }\n            }\n\n            auxdata: 0xa2646970667358221220c8a28e055a8d8a795b1025984cd7f8abf453b8e9c4eb773b9efa02df34d9795764736f6c63430008120033\n        }\n    }\n\n    sub_4: assembly {\n            /* \"contracts/Tree.sol\":106:601  contract Tree {... */\n          mstore(0x40, 0xa0)\n            /* \"contracts/Tree.sol\":229:265  constructor(address s) { seed = s; } */\n          callvalue\n          dup1\n          iszero\n          tag_1\n          jumpi\n          0x00\n          dup1\n          revert\n        tag_1:\n          pop\n          mload(0x40)\n          sub(codesize, bytecodeSize)\n          dup1\n          bytecodeSize\n          dup4\n          codecopy\n          dup2\n          dup2\n          add\n          0x40\n          mstore\n          dup2\n          add\n          swap1\n          tag_2\n          swap2\n          swap1\n          tag_3\n          jump\t// in\n        tag_2:\n            /* \"contracts/Tree.sol\":261:262  s */\n          dup1\n            /* \"contracts/Tree.sol\":254:262  seed = s */\n          0xffffffffffffffffffffffffffffffffffffffff\n          and\n          0x80\n          dup2\n          0xffffffffffffffffffffffffffffffffffffffff\n          and\n          dup2\n          mstore\n          pop\n          pop\n            /* \"contracts/Tree.sol\":229:265  constructor(address s) { seed = s; } */\n          pop\n            /* \"contracts/Tree.sol\":106:601  contract Tree {... */\n          jump(tag_6)\n            /* \"#utility.yul\":88:205   */\n        tag_8:\n            /* \"#utility.yul\":197:198   */\n          0x00\n            /* \"#utility.yul\":194:195   */\n          dup1\n            /* \"#utility.yul\":187:199   */\n          revert\n            /* \"#utility.yul\":334:460   */\n        tag_10:\n            /* \"#utility.yul\":371:378   */\n          0x00\n            /* \"#utility.yul\":411:453   */\n          0xffffffffffffffffffffffffffffffffffffffff\n            /* \"#utility.yul\":404:409   */\n          dup3\n            /* \"#utility.yul\":400:454   */\n          and\n            /* \"#utility.yul\":389:454   */\n          swap1\n          pop\n            /* \"#utility.yul\":334:460   */\n          swap2\n          swap1\n          pop\n          jump\t// out\n            /* \"#utility.yul\":466:562   */\n        tag_11:\n            /* \"#utility.yul\":503:510   */\n          0x00\n            /* \"#utility.yul\":532:556   */\n          tag_20\n            /* \"#utility.yul\":550:555   */\n          dup3\n            /* \"#utility.yul\":532:556   */\n          tag_10\n          jump\t// in\n        tag_20:\n            /* \"#utility.yul\":521:556   */\n          swap1\n          pop\n            /* \"#utility.yul\":466:562   */\n          swap2\n          swap1\n          pop\n          jump\t// out\n            /* \"#utility.yul\":568:690   */\n        tag_12:\n            /* \"#utility.yul\":641:665   */\n          tag_22\n            /* \"#utility.yul\":659:664   */\n          dup2\n            /* \"#utility.yul\":641:665   */\n          tag_11\n          jump\t// in\n        tag_22:\n            /* \"#utility.yul\":634:639   */\n          dup2\n            /* \"#utility.yul\":631:666   */\n          eq\n            /* \"#utility.yul\":621:684   */\n          tag_23\n          jumpi\n            /* \"#utility.yul\":680:681   */\n          0x00\n            /* \"#utility.yul\":677:678   */\n          dup1\n            /* \"#utility.yul\":670:682   */\n          revert\n            /* \"#utility.yul\":621:684   */\n        tag_23:\n            /* \"#utility.yul\":568:690   */\n          pop\n          jump\t// out\n            /* \"#utility.yul\":696:839   */\n        tag_13:\n            /* \"#utility.yul\":753:758   */\n          0x00\n            /* \"#utility.yul\":784:790   */\n          dup2\n            /* \"#utility.yul\":778:791   */\n          mload\n            /* \"#utility.yul\":769:791   */\n          swap1\n          pop\n            /* \"#utility.yul\":800:833   */\n          tag_25\n            /* \"#utility.yul\":827:832   */\n          dup2\n            /* \"#utility.yul\":800:833   */\n          tag_12\n          jump\t// in\n        tag_25:\n            /* \"#utility.yul\":696:839   */\n          swap3\n          swap2\n          pop\n          pop\n          jump\t// out\n            /* \"#utility.yul\":845:1196   */\n        tag_3:\n            /* \"#utility.yul\":915:921   */\n          0x00\n            /* \"#utility.yul\":964:966   */\n          0x20\n            /* \"#utility.yul\":952:961   */\n          dup3\n            /* \"#utility.yul\":943:950   */\n          dup5\n            /* \"#utility.yul\":939:962   */\n          sub\n            /* \"#utility.yul\":935:967   */\n          slt\n            /* \"#utility.yul\":932:1051   */\n          iszero\n          tag_27\n          jumpi\n            /* \"#utility.yul\":970:1049   */\n          tag_28\n          tag_8\n          jump\t// in\n        tag_28:\n            /* \"#utility.yul\":932:1051   */\n        tag_27:\n            /* \"#utility.yul\":1090:1091   */\n          0x00\n            /* \"#utility.yul\":1115:1179   */\n          tag_29\n            /* \"#utility.yul\":1171:1178   */\n          dup5\n            /* \"#utility.yul\":1162:1168   */\n          dup3\n            /* \"#utility.yul\":1151:1160   */\n          dup6\n            /* \"#utility.yul\":1147:1169   */\n          add\n            /* \"#utility.yul\":1115:1179   */\n          tag_13\n          jump\t// in\n        tag_29:\n            /* \"#utility.yul\":1105:1179   */\n          swap2\n          pop\n            /* \"#utility.yul\":1061:1189   */\n          pop\n            /* \"#utility.yul\":845:1196   */\n          swap3\n          swap2\n          pop\n          pop\n          jump\t// out\n            /* \"contracts/Tree.sol\":106:601  contract Tree {... */\n        tag_6:\n          mload(0x80)\n          codecopy(0x00, dataOffset(sub_0), dataSize(sub_0))\n          0x00\n          assignImmutable(\"0xecb3d63bca2dac2f15cfd948f18f200abecc477e6036fc1499f13da50bed1ba1\")\n          return(0x00, dataSize(sub_0))\n        stop\n\n        sub_0: assembly {\n                /* \"contracts/Tree.sol\":106:601  contract Tree {... */\n              mstore(0x40, 0x80)\n              0x00\n              calldatasize\n                /* \"contracts/Tree.sol\":322:334  bytes memory */\n              0x60\n                /* \"contracts/Tree.sol\":347:362  bytes4 selector */\n              0x00\n                /* \"contracts/Tree.sol\":365:372  msg.sig */\n              dup1\n              calldataload\n              0xffffffff00000000000000000000000000000000000000000000000000000000\n              and\n                /* \"contracts/Tree.sol\":347:372  bytes4 selector = msg.sig */\n              swap1\n              pop\n                /* \"contracts/Tree.sol\":383:397  address target */\n              0x00\n                /* \"contracts/Tree.sol\":400:442  c2a(bytes32(selector), leafCodeHash, seed) */\n              tag_5\n                /* \"contracts/Tree.sol\":412:420  selector */\n              dup3\n                /* \"contracts/Tree.sol\":404:421  bytes32(selector) */\n              not(0xffffffffffffffffffffffffffffffffffffffffffffffffffffffff)\n              and\n                /* \"contracts/Tree.sol\":169:192  type(Leaf).creationCode */\n              mload(0x40)\n              dup1\n              0x20\n              add\n              tag_6\n              swap1\n              tag_7\n              jump\t// in\n            tag_6:\n              0x20\n              dup3\n              add\n              dup2\n              sub\n              dup3\n              mstore\n              not(0x1f)\n              0x1f\n              dup3\n              add\n              and\n              0x40\n              mstore\n              pop\n                /* \"contracts/Tree.sol\":159:193  keccak256(type(Leaf).creationCode) */\n              dup1\n              mload\n              swap1\n              0x20\n              add\n              keccak256\n                /* \"contracts/Tree.sol\":437:441  seed */\n              immutable(\"0xecb3d63bca2dac2f15cfd948f18f200abecc477e6036fc1499f13da50bed1ba1\")\n                /* \"contracts/Tree.sol\":400:403  c2a */\n              tag_8\n                /* \"contracts/Tree.sol\":400:442  c2a(bytes32(selector), leafCodeHash, seed) */\n              jump\t// in\n            tag_5:\n                /* \"contracts/Tree.sol\":383:442  address target = c2a(bytes32(selector), leafCodeHash, seed) */\n              swap1\n              pop\n                /* \"contracts/Tree.sol\":454:466  bool success */\n              0x00\n                /* \"contracts/Tree.sol\":468:487  bytes memory output */\n              dup1\n                /* \"contracts/Tree.sol\":491:497  target */\n              dup3\n                /* \"contracts/Tree.sol\":491:510  target.delegatecall */\n              0xffffffffffffffffffffffffffffffffffffffff\n              and\n                /* \"contracts/Tree.sol\":511:519  msg.data */\n              0x00\n              calldatasize\n                /* \"contracts/Tree.sol\":491:520  target.delegatecall(msg.data) */\n              mload(0x40)\n              tag_9\n              swap3\n              swap2\n              swap1\n              tag_10\n              jump\t// in\n            tag_9:\n              0x00\n              mload(0x40)\n              dup1\n              dup4\n              sub\n              dup2\n              dup6\n              gas\n              delegatecall\n              swap2\n              pop\n              pop\n              returndatasize\n              dup1\n              0x00\n              dup2\n              eq\n              tag_13\n              jumpi\n              mload(0x40)\n              swap2\n              pop\n              and(add(returndatasize, 0x3f), not(0x1f))\n              dup3\n              add\n              0x40\n              mstore\n              returndatasize\n              dup3\n              mstore\n              returndatasize\n              0x00\n              0x20\n              dup5\n              add\n              returndatacopy\n              jump(tag_12)\n            tag_13:\n              0x60\n              swap2\n              pop\n            tag_12:\n              pop\n                /* \"contracts/Tree.sol\":453:520  (bool success, bytes memory output) = target.delegatecall(msg.data) */\n              swap2\n              pop\n              swap2\n              pop\n                /* \"contracts/Tree.sol\":535:542  success */\n              dup2\n                /* \"contracts/Tree.sol\":531:557  if (success) return output */\n              iszero\n              tag_14\n              jumpi\n                /* \"contracts/Tree.sol\":551:557  output */\n              dup1\n                /* \"contracts/Tree.sol\":544:557  return output */\n              swap5\n              pop\n              pop\n              pop\n              pop\n              pop\n              jump(tag_4)\n                /* \"contracts/Tree.sol\":531:557  if (success) return output */\n            tag_14:\n                /* \"contracts/Tree.sol\":582:588  output */\n              dup1\n                /* \"contracts/Tree.sol\":568:590  revert(string(output)) */\n              mload(0x40)\n              0x08c379a000000000000000000000000000000000000000000000000000000000\n              dup2\n              mstore\n              0x04\n              add\n              tag_15\n              swap2\n              swap1\n              tag_16\n              jump\t// in\n            tag_15:\n              mload(0x40)\n              dup1\n              swap2\n              sub\n              swap1\n              revert\n                /* \"contracts/Tree.sol\":271:598  fallback(bytes calldata) external payable returns (bytes memory) {... */\n            tag_4:\n              swap2\n              pop\n              pop\n                /* \"contracts/Tree.sol\":106:601  contract Tree {... */\n              dup1\n              mload\n              swap1\n              0x20\n              add\n              return\n                /* \"contracts/Tree.sol\":603:1175  function c2a(bytes32 salt, bytes32 initCodeHash, address creator) pure returns (address account) {... */\n            tag_8:\n                /* \"contracts/Tree.sol\":683:698  address account */\n              0x00\n                /* \"contracts/Tree.sol\":784:788  0x40 */\n              0x40\n                /* \"contracts/Tree.sol\":778:789  mload(0x40) */\n              mload\n                /* \"contracts/Tree.sol\":849:861  initCodeHash */\n              dup4\n                /* \"contracts/Tree.sol\":842:846  0x40 */\n              0x40\n                /* \"contracts/Tree.sol\":837:840  ptr */\n              dup3\n                /* \"contracts/Tree.sol\":833:847  add(ptr, 0x40) */\n              add\n                /* \"contracts/Tree.sol\":826:862  mstore(add(ptr, 0x40), initCodeHash) */\n              mstore\n                /* \"contracts/Tree.sol\":895:899  salt */\n              dup5\n                /* \"contracts/Tree.sol\":888:892  0x20 */\n              0x20\n                /* \"contracts/Tree.sol\":883:886  ptr */\n              dup3\n                /* \"contracts/Tree.sol\":879:893  add(ptr, 0x20) */\n              add\n                /* \"contracts/Tree.sol\":872:900  mstore(add(ptr, 0x20), salt) */\n              mstore\n                /* \"contracts/Tree.sol\":922:929  creator */\n              dup3\n                /* \"contracts/Tree.sol\":917:920  ptr */\n              dup2\n                /* \"contracts/Tree.sol\":910:930  mstore(ptr, creator) */\n              mstore\n                /* \"contracts/Tree.sol\":1011:1015  0x0b */\n              0x0b\n                /* \"contracts/Tree.sol\":1006:1009  ptr */\n              dup2\n                /* \"contracts/Tree.sol\":1002:1016  add(ptr, 0x0b) */\n              add\n                /* \"contracts/Tree.sol\":1119:1123  0xff */\n              0xff\n                /* \"contracts/Tree.sol\":1112:1117  start */\n              dup2\n                /* \"contracts/Tree.sol\":1104:1124  mstore8(start, 0xff) */\n              mstore8\n                /* \"contracts/Tree.sol\":1162:1164  85 */\n              0x55\n                /* \"contracts/Tree.sol\":1155:1160  start */\n              dup2\n                /* \"contracts/Tree.sol\":1145:1165  keccak256(start, 85) */\n              keccak256\n                /* \"contracts/Tree.sol\":1134:1165  account := keccak256(start, 85) */\n              swap3\n              pop\n                /* \"contracts/Tree.sol\":756:1172  {... */\n              pop\n              pop\n                /* \"contracts/Tree.sol\":603:1175  function c2a(bytes32 salt, bytes32 initCodeHash, address creator) pure returns (address account) {... */\n              swap4\n              swap3\n              pop\n              pop\n              pop\n              jump\t// out\n            tag_7:\n              dataSize(sub_0)\n              dup1\n              dataOffset(sub_0)\n              dup4\n              codecopy\n              add\n              swap1\n              jump\t// out\n                /* \"#utility.yul\":7:154   */\n            tag_18:\n                /* \"#utility.yul\":108:119   */\n              0x00\n                /* \"#utility.yul\":145:148   */\n              dup2\n                /* \"#utility.yul\":130:148   */\n              swap1\n              pop\n                /* \"#utility.yul\":7:154   */\n              swap3\n              swap2\n              pop\n              pop\n              jump\t// out\n                /* \"#utility.yul\":160:306   */\n            tag_19:\n                /* \"#utility.yul\":257:263   */\n              dup3\n                /* \"#utility.yul\":252:255   */\n              dup2\n                /* \"#utility.yul\":247:250   */\n              dup4\n                /* \"#utility.yul\":234:264   */\n              calldatacopy\n                /* \"#utility.yul\":298:299   */\n              0x00\n                /* \"#utility.yul\":289:295   */\n              dup4\n                /* \"#utility.yul\":284:287   */\n              dup4\n                /* \"#utility.yul\":280:296   */\n              add\n                /* \"#utility.yul\":273:300   */\n              mstore\n                /* \"#utility.yul\":160:306   */\n              pop\n              pop\n              pop\n              jump\t// out\n                /* \"#utility.yul\":334:661   */\n            tag_20:\n                /* \"#utility.yul\":448:451   */\n              0x00\n                /* \"#utility.yul\":469:557   */\n              tag_30\n                /* \"#utility.yul\":550:556   */\n              dup4\n                /* \"#utility.yul\":545:548   */\n              dup6\n                /* \"#utility.yul\":469:557   */\n              tag_18\n              jump\t// in\n            tag_30:\n                /* \"#utility.yul\":462:557   */\n              swap4\n              pop\n                /* \"#utility.yul\":567:623   */\n              tag_31\n                /* \"#utility.yul\":616:622   */\n              dup4\n                /* \"#utility.yul\":611:614   */\n              dup6\n                /* \"#utility.yul\":604:609   */\n              dup5\n                /* \"#utility.yul\":567:623   */\n              tag_19\n              jump\t// in\n            tag_31:\n                /* \"#utility.yul\":648:654   */\n              dup3\n                /* \"#utility.yul\":643:646   */\n              dup5\n                /* \"#utility.yul\":639:655   */\n              add\n                /* \"#utility.yul\":632:655   */\n              swap1\n              pop\n                /* \"#utility.yul\":334:661   */\n              swap4\n              swap3\n              pop\n              pop\n              pop\n              jump\t// out\n                /* \"#utility.yul\":667:958   */\n            tag_10:\n                /* \"#utility.yul\":807:810   */\n              0x00\n                /* \"#utility.yul\":829:932   */\n              tag_33\n                /* \"#utility.yul\":928:931   */\n              dup3\n                /* \"#utility.yul\":919:925   */\n              dup5\n                /* \"#utility.yul\":911:917   */\n              dup7\n                /* \"#utility.yul\":829:932   */\n              tag_20\n              jump\t// in\n            tag_33:\n                /* \"#utility.yul\":822:932   */\n              swap2\n              pop\n                /* \"#utility.yul\":949:952   */\n              dup2\n                /* \"#utility.yul\":942:952   */\n              swap1\n              pop\n                /* \"#utility.yul\":667:958   */\n              swap4\n              swap3\n              pop\n              pop\n              pop\n              jump\t// out\n                /* \"#utility.yul\":964:1063   */\n            tag_21:\n                /* \"#utility.yul\":1016:1022   */\n              0x00\n                /* \"#utility.yul\":1050:1055   */\n              dup2\n                /* \"#utility.yul\":1044:1056   */\n              mload\n                /* \"#utility.yul\":1034:1056   */\n              swap1\n              pop\n                /* \"#utility.yul\":964:1063   */\n              swap2\n              swap1\n              pop\n              jump\t// out\n                /* \"#utility.yul\":1069:1238   */\n            tag_22:\n                /* \"#utility.yul\":1153:1164   */\n              0x00\n                /* \"#utility.yul\":1187:1193   */\n              dup3\n                /* \"#utility.yul\":1182:1185   */\n              dup3\n                /* \"#utility.yul\":1175:1194   */\n              mstore\n                /* \"#utility.yul\":1227:1231   */\n              0x20\n                /* \"#utility.yul\":1222:1225   */\n              dup3\n                /* \"#utility.yul\":1218:1232   */\n              add\n                /* \"#utility.yul\":1203:1232   */\n              swap1\n              pop\n                /* \"#utility.yul\":1069:1238   */\n              swap3\n              swap2\n              pop\n              pop\n              jump\t// out\n                /* \"#utility.yul\":1244:1490   */\n            tag_23:\n                /* \"#utility.yul\":1325:1326   */\n              0x00\n                /* \"#utility.yul\":1335:1448   */\n            tag_37:\n                /* \"#utility.yul\":1349:1355   */\n              dup4\n                /* \"#utility.yul\":1346:1347   */\n              dup2\n                /* \"#utility.yul\":1343:1356   */\n              lt\n                /* \"#utility.yul\":1335:1448   */\n              iszero\n              tag_39\n              jumpi\n                /* \"#utility.yul\":1434:1435   */\n              dup1\n                /* \"#utility.yul\":1429:1432   */\n              dup3\n                /* \"#utility.yul\":1425:1436   */\n              add\n                /* \"#utility.yul\":1419:1437   */\n              mload\n                /* \"#utility.yul\":1415:1416   */\n              dup2\n                /* \"#utility.yul\":1410:1413   */\n              dup5\n                /* \"#utility.yul\":1406:1417   */\n              add\n                /* \"#utility.yul\":1399:1438   */\n              mstore\n                /* \"#utility.yul\":1371:1373   */\n              0x20\n                /* \"#utility.yul\":1368:1369   */\n              dup2\n                /* \"#utility.yul\":1364:1374   */\n              add\n                /* \"#utility.yul\":1359:1374   */\n              swap1\n              pop\n                /* \"#utility.yul\":1335:1448   */\n              jump(tag_37)\n            tag_39:\n                /* \"#utility.yul\":1482:1483   */\n              0x00\n                /* \"#utility.yul\":1473:1479   */\n              dup5\n                /* \"#utility.yul\":1468:1471   */\n              dup5\n                /* \"#utility.yul\":1464:1480   */\n              add\n                /* \"#utility.yul\":1457:1484   */\n              mstore\n                /* \"#utility.yul\":1306:1490   */\n              pop\n                /* \"#utility.yul\":1244:1490   */\n              pop\n              pop\n              pop\n              jump\t// out\n                /* \"#utility.yul\":1496:1598   */\n            tag_24:\n                /* \"#utility.yul\":1537:1543   */\n              0x00\n                /* \"#utility.yul\":1588:1590   */\n              0x1f\n                /* \"#utility.yul\":1584:1591   */\n              not\n                /* \"#utility.yul\":1579:1581   */\n              0x1f\n                /* \"#utility.yul\":1572:1577   */\n              dup4\n                /* \"#utility.yul\":1568:1582   */\n              add\n                /* \"#utility.yul\":1564:1592   */\n              and\n                /* \"#utility.yul\":1554:1592   */\n              swap1\n              pop\n                /* \"#utility.yul\":1496:1598   */\n              swap2\n              swap1\n              pop\n              jump\t// out\n                /* \"#utility.yul\":1604:1981   */\n            tag_25:\n                /* \"#utility.yul\":1692:1695   */\n              0x00\n                /* \"#utility.yul\":1720:1759   */\n              tag_42\n                /* \"#utility.yul\":1753:1758   */\n              dup3\n                /* \"#utility.yul\":1720:1759   */\n              tag_21\n              jump\t// in\n            tag_42:\n                /* \"#utility.yul\":1775:1846   */\n              tag_43\n                /* \"#utility.yul\":1839:1845   */\n              dup2\n                /* \"#utility.yul\":1834:1837   */\n              dup6\n                /* \"#utility.yul\":1775:1846   */\n              tag_22\n              jump\t// in\n            tag_43:\n                /* \"#utility.yul\":1768:1846   */\n              swap4\n              pop\n                /* \"#utility.yul\":1855:1920   */\n              tag_44\n                /* \"#utility.yul\":1913:1919   */\n              dup2\n                /* \"#utility.yul\":1908:1911   */\n              dup6\n                /* \"#utility.yul\":1901:1905   */\n              0x20\n                /* \"#utility.yul\":1894:1899   */\n              dup7\n                /* \"#utility.yul\":1890:1906   */\n              add\n                /* \"#utility.yul\":1855:1920   */\n              tag_23\n              jump\t// in\n            tag_44:\n                /* \"#utility.yul\":1945:1974   */\n              tag_45\n                /* \"#utility.yul\":1967:1973   */\n              dup2\n                /* \"#utility.yul\":1945:1974   */\n              tag_24\n              jump\t// in\n            tag_45:\n                /* \"#utility.yul\":1940:1943   */\n              dup5\n                /* \"#utility.yul\":1936:1975   */\n              add\n                /* \"#utility.yul\":1929:1975   */\n              swap2\n              pop\n                /* \"#utility.yul\":1696:1981   */\n              pop\n                /* \"#utility.yul\":1604:1981   */\n              swap3\n              swap2\n              pop\n              pop\n              jump\t// out\n                /* \"#utility.yul\":1987:2300   */\n            tag_16:\n                /* \"#utility.yul\":2100:2104   */\n              0x00\n                /* \"#utility.yul\":2138:2140   */\n              0x20\n                /* \"#utility.yul\":2127:2136   */\n              dup3\n                /* \"#utility.yul\":2123:2141   */\n              add\n                /* \"#utility.yul\":2115:2141   */\n              swap1\n              pop\n                /* \"#utility.yul\":2187:2196   */\n              dup2\n                /* \"#utility.yul\":2181:2185   */\n              dup2\n                /* \"#utility.yul\":2177:2197   */\n              sub\n                /* \"#utility.yul\":2173:2174   */\n              0x00\n                /* \"#utility.yul\":2162:2171   */\n              dup4\n                /* \"#utility.yul\":2158:2175   */\n              add\n                /* \"#utility.yul\":2151:2198   */\n              mstore\n                /* \"#utility.yul\":2215:2293   */\n              tag_47\n                /* \"#utility.yul\":2288:2292   */\n              dup2\n                /* \"#utility.yul\":2279:2285   */\n              dup5\n                /* \"#utility.yul\":2215:2293   */\n              tag_25\n              jump\t// in\n            tag_47:\n                /* \"#utility.yul\":2207:2293   */\n              swap1\n              pop\n                /* \"#utility.yul\":1987:2300   */\n              swap3\n              swap2\n              pop\n              pop\n              jump\t// out\n            stop\n\n            sub_0: assembly {\n                    /* \"contracts/Leaf.sol\":106:422  contract Leaf {... */\n                  mstore(0x40, 0x80)\n                    /* \"contracts/Leaf.sol\":160:169  Seed seed */\n                  0x00\n                    /* \"contracts/Leaf.sol\":177:187  msg.sender */\n                  caller\n                    /* \"contracts/Leaf.sol\":160:188  Seed seed = Seed(msg.sender) */\n                  swap1\n                  pop\n                    /* \"contracts/Leaf.sol\":199:221  address implementation */\n                  0x00\n                    /* \"contracts/Leaf.sol\":224:228  seed */\n                  dup2\n                    /* \"contracts/Leaf.sol\":224:243  seed.implementation */\n                  0xffffffffffffffffffffffffffffffffffffffff\n                  and\n                  0x5c60da1b\n                    /* \"contracts/Leaf.sol\":224:245  seed.implementation() */\n                  mload(0x40)\n                  dup2\n                  0xffffffff\n                  and\n                  0xe0\n                  shl\n                  dup2\n                  mstore\n                  0x04\n                  add\n                  0x20\n                  mload(0x40)\n                  dup1\n                  dup4\n                  sub\n                  dup2\n                  dup7\n                  gas\n                  staticcall\n                  iszero\n                  dup1\n                  iszero\n                  tag_4\n                  jumpi\n                  returndatasize\n                  0x00\n                  dup1\n                  returndatacopy\n                  revert(0x00, returndatasize)\n                tag_4:\n                  pop\n                  pop\n                  pop\n                  pop\n                  mload(0x40)\n                  returndatasize\n                  not(0x1f)\n                  0x1f\n                  dup3\n                  add\n                  and\n                  dup3\n                  add\n                  dup1\n                  0x40\n                  mstore\n                  pop\n                  dup2\n                  add\n                  swap1\n                  tag_5\n                  swap2\n                  swap1\n                  tag_6\n                  jump\t// in\n                tag_5:\n                    /* \"contracts/Leaf.sol\":199:245  address implementation = seed.implementation() */\n                  swap1\n                  pop\n                    /* \"contracts/Leaf.sol\":304:318  implementation */\n                  dup1\n                    /* \"contracts/Leaf.sol\":292:319  extcodesize(implementation) */\n                  extcodesize\n                    /* \"contracts/Leaf.sol\":367:371  size */\n                  dup1\n                    /* \"contracts/Leaf.sol\":364:365  0 */\n                  0x00\n                    /* \"contracts/Leaf.sol\":361:362  0 */\n                  dup1\n                    /* \"contracts/Leaf.sol\":345:359  implementation */\n                  dup5\n                    /* \"contracts/Leaf.sol\":333:372  extcodecopy(implementation, 0, 0, size) */\n                  extcodecopy\n                    /* \"contracts/Leaf.sol\":396:400  size */\n                  dup1\n                    /* \"contracts/Leaf.sol\":393:394  0 */\n                  0x00\n                    /* \"contracts/Leaf.sol\":386:401  return(0, size) */\n                  return\n                    /* \"#utility.yul\":88:205   */\n                tag_9:\n                    /* \"#utility.yul\":197:198   */\n                  0x00\n                    /* \"#utility.yul\":194:195   */\n                  dup1\n                    /* \"#utility.yul\":187:199   */\n                  revert\n                    /* \"#utility.yul\":334:460   */\n                tag_11:\n                    /* \"#utility.yul\":371:378   */\n                  0x00\n                    /* \"#utility.yul\":411:453   */\n                  0xffffffffffffffffffffffffffffffffffffffff\n                    /* \"#utility.yul\":404:409   */\n                  dup3\n                    /* \"#utility.yul\":400:454   */\n                  and\n                    /* \"#utility.yul\":389:454   */\n                  swap1\n                  pop\n                    /* \"#utility.yul\":334:460   */\n                  swap2\n                  swap1\n                  pop\n                  jump\t// out\n                    /* \"#utility.yul\":466:562   */\n                tag_12:\n                    /* \"#utility.yul\":503:510   */\n                  0x00\n                    /* \"#utility.yul\":532:556   */\n                  tag_21\n                    /* \"#utility.yul\":550:555   */\n                  dup3\n                    /* \"#utility.yul\":532:556   */\n                  tag_11\n                  jump\t// in\n                tag_21:\n                    /* \"#utility.yul\":521:556   */\n                  swap1\n                  pop\n                    /* \"#utility.yul\":466:562   */\n                  swap2\n                  swap1\n                  pop\n                  jump\t// out\n                    /* \"#utility.yul\":568:690   */\n                tag_13:\n                    /* \"#utility.yul\":641:665   */\n                  tag_23\n                    /* \"#utility.yul\":659:664   */\n                  dup2\n                    /* \"#utility.yul\":641:665   */\n                  tag_12\n                  jump\t// in\n                tag_23:\n                    /* \"#utility.yul\":634:639   */\n                  dup2\n                    /* \"#utility.yul\":631:666   */\n                  eq\n                    /* \"#utility.yul\":621:684   */\n                  tag_24\n                  jumpi\n                    /* \"#utility.yul\":680:681   */\n                  0x00\n                    /* \"#utility.yul\":677:678   */\n                  dup1\n                    /* \"#utility.yul\":670:682   */\n                  revert\n                    /* \"#utility.yul\":621:684   */\n                tag_24:\n                    /* \"#utility.yul\":568:690   */\n                  pop\n                  jump\t// out\n                    /* \"#utility.yul\":696:839   */\n                tag_14:\n                    /* \"#utility.yul\":753:758   */\n                  0x00\n                    /* \"#utility.yul\":784:790   */\n                  dup2\n                    /* \"#utility.yul\":778:791   */\n                  mload\n                    /* \"#utility.yul\":769:791   */\n                  swap1\n                  pop\n                    /* \"#utility.yul\":800:833   */\n                  tag_26\n                    /* \"#utility.yul\":827:832   */\n                  dup2\n                    /* \"#utility.yul\":800:833   */\n                  tag_13\n                  jump\t// in\n                tag_26:\n                    /* \"#utility.yul\":696:839   */\n                  swap3\n                  swap2\n                  pop\n                  pop\n                  jump\t// out\n                    /* \"#utility.yul\":845:1196   */\n                tag_6:\n                    /* \"#utility.yul\":915:921   */\n                  0x00\n                    /* \"#utility.yul\":964:966   */\n                  0x20\n                    /* \"#utility.yul\":952:961   */\n                  dup3\n                    /* \"#utility.yul\":943:950   */\n                  dup5\n                    /* \"#utility.yul\":939:962   */\n                  sub\n                    /* \"#utility.yul\":935:967   */\n                  slt\n                    /* \"#utility.yul\":932:1051   */\n                  iszero\n                  tag_28\n                  jumpi\n                    /* \"#utility.yul\":970:1049   */\n                  tag_29\n                  tag_9\n                  jump\t// in\n                tag_29:\n                    /* \"#utility.yul\":932:1051   */\n                tag_28:\n                    /* \"#utility.yul\":1090:1091   */\n                  0x00\n                    /* \"#utility.yul\":1115:1179   */\n                  tag_30\n                    /* \"#utility.yul\":1171:1178   */\n                  dup5\n                    /* \"#utility.yul\":1162:1168   */\n                  dup3\n                    /* \"#utility.yul\":1151:1160   */\n                  dup6\n                    /* \"#utility.yul\":1147:1169   */\n                  add\n                    /* \"#utility.yul\":1115:1179   */\n                  tag_14\n                  jump\t// in\n                tag_30:\n                    /* \"#utility.yul\":1105:1179   */\n                  swap2\n                  pop\n                    /* \"#utility.yul\":1061:1189   */\n                  pop\n                    /* \"#utility.yul\":845:1196   */\n                  swap3\n                  swap2\n                  pop\n                  pop\n                  jump\t// out\n                stop\n\n                sub_0: assembly {\n                        /* \"contracts/Leaf.sol\":106:422  contract Leaf {... */\n                      mstore(0x40, 0x80)\n                      0x00\n                      dup1\n                      revert\n\n                    auxdata: 0xa26469706673582212200afca8bcf310ffe09bf63e25252e584813bf0eda898c5acb9b355074991a39a464736f6c63430008120033\n                }\n            }\n\n            auxdata: 0xa2646970667358221220c4142f5acd72b2c08b66eb6bfe80d2d201dc0b5bbd7447a4afeef7f3a5fc137264736f6c63430008120033\n        }\n    }\n\n    auxdata: 0xa264697066735822122062835a2d3da8e354ea8cd186a40ad9fe7609614d8bd39be4bf5f4d7653713ea964736f6c63430008120033\n}\n",
				"bytecode": {
					"linkReferences": {},
					"object": "608060405234801561001057600080fd5b50612998806100206000396000f3fe60806040523480156200001157600080fd5b50600436106200002e5760003560e01c80636b59084d1462000033575b600080fd5b6200003d62000055565b6040516200004c919062000b20565b60405180910390f35b600080604051620000669062000a9d565b604051809103906000f08015801562000083573d6000803e3d6000fd5b50905060008173ffffffffffffffffffffffffffffffffffffffff163b03620000e3576040517f08c379a0000000000000000000000000000000000000000000000000000000008152600401620000da9062000b9e565b60405180910390fd5b60058173ffffffffffffffffffffffffffffffffffffffff1663a391c15b601460046040518363ffffffff1660e01b81526004016200012492919062000c5a565b602060405180830381865afa15801562000142573d6000803e3d6000fd5b505050506040513d601f19601f8201168201806040525081019062000168919062000cbd565b14620001ab576040517f08c379a0000000000000000000000000000000000000000000000000000000008152600401620001a29062000d3f565b60405180910390fd5b6000604051620001bb9062000aab565b604051809103906000f080158015620001d8573d6000803e3d6000fd5b50905060008173ffffffffffffffffffffffffffffffffffffffff163b0362000238576040517f08c379a00000000000000000000000000000000000000000000000000000000081526004016200022f9062000b9e565b60405180910390fd5b60508173ffffffffffffffffffffffffffffffffffffffff1663c8a4ac9c601460046040518363ffffffff1660e01b81526004016200027992919062000c5a565b602060405180830381865afa15801562000297573d6000803e3d6000fd5b505050506040513d601f19601f82011682018060405250810190620002bd919062000cbd565b1462000300576040517f08c379a0000000000000000000000000000000000000000000000000000000008152600401620002f79062000d3f565b60405180910390fd5b6000604051620003109062000ab9565b604051809103906000f0801580156200032d573d6000803e3d6000fd5b5090508073ffffffffffffffffffffffffffffffffffffffff1663919840ad6040518163ffffffff1660e01b8152600401602060405180830381865afa1580156200037c573d6000803e3d6000fd5b505050506040513d601f19601f82011682018060405250810190620003a2919062000d9e565b620003e4576040517f08c379a0000000000000000000000000000000000000000000000000000000008152600401620003db9062000e20565b60405180910390fd5b6000600367ffffffffffffffff81111562000404576200040362000e42565b5b604051908082528060200260200182016040528015620004335781602001602082028036833780820191505090505b50905030816000815181106200044e576200044d62000e71565b5b602002602001019073ffffffffffffffffffffffffffffffffffffffff16908173ffffffffffffffffffffffffffffffffffffffff16815250503381600181518110620004a0576200049f62000e71565b5b602002602001019073ffffffffffffffffffffffffffffffffffffffff16908173ffffffffffffffffffffffffffffffffffffffff16815250508181600281518110620004f257620004f162000e71565b5b602002602001019073ffffffffffffffffffffffffffffffffffffffff16908173ffffffffffffffffffffffffffffffffffffffff16815250506000816040516200053d9062000ac7565b62000549919062000fa2565b604051809103906000f08015801562000566573d6000803e3d6000fd5b5090508073ffffffffffffffffffffffffffffffffffffffff166324d7806c306040518263ffffffff1660e01b8152600401620005a4919062000fd7565b602060405180830381865afa158015620005c2573d6000803e3d6000fd5b505050506040513d601f19601f82011682018060405250810190620005e8919062000d9e565b6200062a576040517f08c379a0000000000000000000000000000000000000000000000000000000008152600401620006219062001044565b60405180910390fd5b8073ffffffffffffffffffffffffffffffffffffffff166324d7806c846040518263ffffffff1660e01b815260040162000665919062000fd7565b602060405180830381865afa15801562000683573d6000803e3d6000fd5b505050506040513d601f19601f82011682018060405250810190620006a9919062000d9e565b620006eb576040517f08c379a0000000000000000000000000000000000000000000000000000000008152600401620006e29062001044565b60405180910390fd5b8073ffffffffffffffffffffffffffffffffffffffff166324d7806c336040518263ffffffff1660e01b815260040162000726919062000fd7565b602060405180830381865afa15801562000744573d6000803e3d6000fd5b505050506040513d601f19601f820116820180604052508101906200076a919062000d9e565b620007ac576040517f08c379a0000000000000000000000000000000000000000000000000000000008152600401620007a39062001044565b60405180910390fd5b63a391c15b60e01b95508073ffffffffffffffffffffffffffffffffffffffff1663997b81c963a391c15b60e01b876040518363ffffffff1660e01b8152600401620007fa92919062001066565b6020604051808303816000875af11580156200081a573d6000803e3d6000fd5b505050506040513d601f19601f82011682018060405250810190620008409190620010c4565b508273ffffffffffffffffffffffffffffffffffffffff1663caca46f78263c8a4ac9c60e01b876040518463ffffffff1660e01b8152600401620008879392919062001157565b600060405180830381600087803b158015620008a257600080fd5b505af1158015620008b7573d6000803e3d6000fd5b50505050600081604051620008cc9062000ad5565b620008d8919062000fd7565b604051809103906000f080158015620008f5573d6000803e3d6000fd5b50905060008173ffffffffffffffffffffffffffffffffffffffff1663a391c15b601460046040518363ffffffff1660e01b81526004016200093992919062000c5a565b602060405180830381865afa15801562000957573d6000803e3d6000fd5b505050506040513d601f19601f820116820180604052508101906200097d919062000cbd565b905060058114620009c5576040517f08c379a0000000000000000000000000000000000000000000000000000000008152600401620009bc90620011e4565b60405180910390fd5b60008273ffffffffffffffffffffffffffffffffffffffff1663c8a4ac9c601460046040518363ffffffff1660e01b815260040162000a0692919062000c5a565b602060405180830381865afa15801562000a24573d6000803e3d6000fd5b505050506040513d601f19601f8201168201806040525081019062000a4a919062000cbd565b90506050811462000a92576040517f08c379a000000000000000000000000000000000000000000000000000000000815260040162000a899062001256565b60405180910390fd5b505050505050505090565b6101d1806200127983390190565b6101e2806200144a83390190565b6103fa806200162c83390190565b610a228062001a2683390190565b61051b806200244883390190565b60007fffffffff0000000000000000000000000000000000000000000000000000000082169050919050565b62000b1a8162000ae3565b82525050565b600060208201905062000b37600083018462000b0f565b92915050565b600082825260208201905092915050565b7f4e6f20636f646500000000000000000000000000000000000000000000000000600082015250565b600062000b8660078362000b3d565b915062000b938262000b4e565b602082019050919050565b6000602082019050818103600083015262000bb98162000b77565b9050919050565b6000819050919050565b6000819050919050565b6000819050919050565b600062000bff62000bf962000bf38462000bc0565b62000bd4565b62000bca565b9050919050565b62000c118162000bde565b82525050565b6000819050919050565b600062000c4262000c3c62000c368462000c17565b62000bd4565b62000bca565b9050919050565b62000c548162000c21565b82525050565b600060408201905062000c71600083018562000c06565b62000c80602083018462000c49565b9392505050565b600080fd5b62000c978162000bca565b811462000ca357600080fd5b50565b60008151905062000cb78162000c8c565b92915050565b60006020828403121562000cd65762000cd562000c87565b5b600062000ce68482850162000ca6565b91505092915050565b7f4e6f206164642075700000000000000000000000000000000000000000000000600082015250565b600062000d2760098362000b3d565b915062000d348262000cef565b602082019050919050565b6000602082019050818103600083015262000d5a8162000d18565b9050919050565b60008115159050919050565b62000d788162000d61565b811462000d8457600080fd5b50565b60008151905062000d988162000d6d565b92915050565b60006020828403121562000db75762000db662000c87565b5b600062000dc78482850162000d87565b91505092915050565b7f436865636b206661696c73000000000000000000000000000000000000000000600082015250565b600062000e08600b8362000b3d565b915062000e158262000dd0565b602082019050919050565b6000602082019050818103600083015262000e3b8162000df9565b9050919050565b7f4e487b7100000000000000000000000000000000000000000000000000000000600052604160045260246000fd5b7f4e487b7100000000000000000000000000000000000000000000000000000000600052603260045260246000fd5b600081519050919050565b600082825260208201905092915050565b6000819050602082019050919050565b600073ffffffffffffffffffffffffffffffffffffffff82169050919050565b600062000ef98262000ecc565b9050919050565b62000f0b8162000eec565b82525050565b600062000f1f838362000f00565b60208301905092915050565b6000602082019050919050565b600062000f458262000ea0565b62000f51818562000eab565b935062000f5e8362000ebc565b8060005b8381101562000f9557815162000f79888262000f11565b975062000f868362000f2b565b92505060018101905062000f62565b5085935050505092915050565b6000602082019050818103600083015262000fbe818462000f38565b905092915050565b62000fd18162000eec565b82525050565b600060208201905062000fee600083018462000fc6565b92915050565b7f4e6f742061646d696e0000000000000000000000000000000000000000000000600082015250565b60006200102c60098362000b3d565b9150620010398262000ff4565b602082019050919050565b600060208201905081810360008301526200105f816200101d565b9050919050565b60006040820190506200107d600083018562000b0f565b6200108c602083018462000fc6565b9392505050565b6200109e8162000eec565b8114620010aa57600080fd5b50565b600081519050620010be8162001093565b92915050565b600060208284031215620010dd57620010dc62000c87565b5b6000620010ed84828501620010ad565b91505092915050565b600062001117620011116200110b8462000ecc565b62000bd4565b62000ecc565b9050919050565b60006200112b82620010f6565b9050919050565b60006200113f826200111e565b9050919050565b620011518162001132565b82525050565b60006060820190506200116e600083018662001146565b6200117d602083018562000b0f565b6200118c604083018462000fc6565b949350505050565b7f5568206f68000000000000000000000000000000000000000000000000000000600082015250565b6000620011cc60058362000b3d565b9150620011d98262001194565b602082019050919050565b60006020820190508181036000830152620011ff81620011bd565b9050919050565b7f4f68206e6f000000000000000000000000000000000000000000000000000000600082015250565b60006200123e60058362000b3d565b91506200124b8262001206565b602082019050919050565b6000602082019050818103600083015262001271816200122f565b905091905056fe608060405234801561001057600080fd5b506101b1806100206000396000f3fe608060405234801561001057600080fd5b506004361061002b5760003560e01c8063a391c15b14610030575b600080fd5b61004a600480360381019061004591906100b1565b610060565b6040516100579190610100565b60405180910390f35b6000818361006e919061014a565b905092915050565b600080fd5b6000819050919050565b61008e8161007b565b811461009957600080fd5b50565b6000813590506100ab81610085565b92915050565b600080604083850312156100c8576100c7610076565b5b60006100d68582860161009c565b92505060206100e78582860161009c565b9150509250929050565b6100fa8161007b565b82525050565b600060208201905061011560008301846100f1565b92915050565b7f4e487b7100000000000000000000000000000000000000000000000000000000600052601260045260246000fd5b60006101558261007b565b91506101608361007b565b9250826101705761016f61011b565b5b82820490509291505056fea26469706673582212203d3cdef3df048e1cf63cb3891b05c06c1b7c696f4d6ec41dafdd76407598a9d264736f6c63430008120033608060405234801561001057600080fd5b506101c2806100206000396000f3fe608060405234801561001057600080fd5b506004361061002b5760003560e01c8063c8a4ac9c14610030575b600080fd5b61004a600480360381019061004591906100b1565b610060565b6040516100579190610100565b60405180910390f35b6000818361006e919061014a565b905092915050565b600080fd5b6000819050919050565b61008e8161007b565b811461009957600080fd5b50565b6000813590506100ab81610085565b92915050565b600080604083850312156100c8576100c7610076565b5b60006100d68582860161009c565b92505060206100e78582860161009c565b9150509250929050565b6100fa8161007b565b82525050565b600060208201905061011560008301846100f1565b92915050565b7f4e487b7100000000000000000000000000000000000000000000000000000000600052601160045260246000fd5b60006101558261007b565b91506101608361007b565b925082820261016e8161007b565b915082820484148315176101855761018461011b565b5b509291505056fea2646970667358221220609328c12529a6e3697a090a92f458b9b818cf0d1a2d34b8fd60b3a58630182564736f6c6343000812003360a060405234801561001057600080fd5b503373ffffffffffffffffffffffffffffffffffffffff1660808173ffffffffffffffffffffffffffffffffffffffff168152505060805161039b61005f60003960006080015261039b6000f3fe608060405234801561001057600080fd5b50600436106100365760003560e01c8063919840ad1461003b578063caca46f714610059575b600080fd5b610043610075565b6040516100509190610175565b60405180910390f35b610073600480360381019061006e9190610289565b61007e565b005b60006001905090565b7f000000000000000000000000000000000000000000000000000000000000000073ffffffffffffffffffffffffffffffffffffffff163373ffffffffffffffffffffffffffffffffffffffff16146100d657600080fd5b8273ffffffffffffffffffffffffffffffffffffffff1663997b81c983836040518363ffffffff1660e01b81526004016101119291906102fa565b6020604051808303816000875af1158015610130573d6000803e3d6000fd5b505050506040513d601f19601f820116820180604052508101906101549190610338565b50505050565b60008115159050919050565b61016f8161015a565b82525050565b600060208201905061018a6000830184610166565b92915050565b600080fd5b600073ffffffffffffffffffffffffffffffffffffffff82169050919050565b60006101c082610195565b9050919050565b60006101d2826101b5565b9050919050565b6101e2816101c7565b81146101ed57600080fd5b50565b6000813590506101ff816101d9565b92915050565b60007fffffffff0000000000000000000000000000000000000000000000000000000082169050919050565b61023a81610205565b811461024557600080fd5b50565b60008135905061025781610231565b92915050565b610266816101b5565b811461027157600080fd5b50565b6000813590506102838161025d565b92915050565b6000806000606084860312156102a2576102a1610190565b5b60006102b0868287016101f0565b93505060206102c186828701610248565b92505060406102d286828701610274565b9150509250925092565b6102e581610205565b82525050565b6102f4816101b5565b82525050565b600060408201905061030f60008301856102dc565b61031c60208301846102eb565b9392505050565b6000815190506103328161025d565b92915050565b60006020828403121561034e5761034d610190565b5b600061035c84828501610323565b9150509291505056fea2646970667358221220381ceb4a05c39530cc2d2338f4779f7ecb130da889c2bb3cca8aa6d256bbf73c64736f6c6343000812003360806040523480156200001157600080fd5b5060405162000a2238038062000a228339818101604052810190620000379190620002c4565b60005b8151811015620000ce5760018060008484815181106200005f576200005e62000315565b5b602002602001015173ffffffffffffffffffffffffffffffffffffffff1673ffffffffffffffffffffffffffffffffffffffff16815260200190815260200160002060006101000a81548160ff0219169083151502179055508080620000c5906200037d565b9150506200003a565b5050620003ca565b6000604051905090565b600080fd5b600080fd5b600080fd5b6000601f19601f8301169050919050565b7f4e487b7100000000000000000000000000000000000000000000000000000000600052604160045260246000fd5b6200013a82620000ef565b810181811067ffffffffffffffff821117156200015c576200015b62000100565b5b80604052505050565b600062000171620000d6565b90506200017f82826200012f565b919050565b600067ffffffffffffffff821115620001a257620001a162000100565b5b602082029050602081019050919050565b600080fd5b600073ffffffffffffffffffffffffffffffffffffffff82169050919050565b6000620001e582620001b8565b9050919050565b620001f781620001d8565b81146200020357600080fd5b50565b6000815190506200021781620001ec565b92915050565b6000620002346200022e8462000184565b62000165565b905080838252602082019050602084028301858111156200025a5762000259620001b3565b5b835b8181101562000287578062000272888262000206565b8452602084019350506020810190506200025c565b5050509392505050565b600082601f830112620002a957620002a8620000ea565b5b8151620002bb8482602086016200021d565b91505092915050565b600060208284031215620002dd57620002dc620000e0565b5b600082015167ffffffffffffffff811115620002fe57620002fd620000e5565b5b6200030c8482850162000291565b91505092915050565b7f4e487b7100000000000000000000000000000000000000000000000000000000600052603260045260246000fd5b7f4e487b7100000000000000000000000000000000000000000000000000000000600052601160045260246000fd5b6000819050919050565b60006200038a8262000373565b91507fffffffffffffffffffffffffffffffffffffffffffffffffffffffffffffffff8203620003bf57620003be62000344565b5b600182019050919050565b61064880620003da6000396000f3fe6080604052600436106100345760003560e01c806324d7806c146100395780635c60da1b14610076578063997b81c9146100a1575b600080fd5b34801561004557600080fd5b50610060600480360381019061005b9190610356565b6100d1565b60405161006d919061039e565b60405180910390f35b34801561008257600080fd5b5061008b6100f1565b60405161009891906103c8565b60405180910390f35b6100bb60048036038101906100b6919061043b565b610115565b6040516100c891906103c8565b60405180910390f35b60016020528060005260406000206000915054906101000a900460ff1681565b60008054906101000a900473ffffffffffffffffffffffffffffffffffffffff1681565b600061011f610258565b816000806101000a81548173ffffffffffffffffffffffffffffffffffffffff021916908373ffffffffffffffffffffffffffffffffffffffff1602179055506000837bffffffffffffffffffffffffffffffffffffffffffffffffffffffff191690508034604051610191906102e6565b82906040518091039083f590509050801580156101b2573d6000803e3d6000fd5b509150600073ffffffffffffffffffffffffffffffffffffffff168273ffffffffffffffffffffffffffffffffffffffff16036101ee57600080fd5b8273ffffffffffffffffffffffffffffffffffffffff16847bffffffffffffffffffffffffffffffffffffffffffffffffffffffff19167f37d0de5bda26e6d2e72c27ec220f13259da66955718f6407d2b3f6ee4091b1e560405160405180910390a35092915050565b600160003373ffffffffffffffffffffffffffffffffffffffff1673ffffffffffffffffffffffffffffffffffffffff16815260200190815260200160002060009054906101000a900460ff166102e4576040517f08c379a00000000000000000000000000000000000000000000000000000000081526004016102db906104d8565b60405180910390fd5b565b61011a806104f983390190565b600080fd5b600073ffffffffffffffffffffffffffffffffffffffff82169050919050565b6000610323826102f8565b9050919050565b61033381610318565b811461033e57600080fd5b50565b6000813590506103508161032a565b92915050565b60006020828403121561036c5761036b6102f3565b5b600061037a84828501610341565b91505092915050565b60008115159050919050565b61039881610383565b82525050565b60006020820190506103b3600083018461038f565b92915050565b6103c281610318565b82525050565b60006020820190506103dd60008301846103b9565b92915050565b60007fffffffff0000000000000000000000000000000000000000000000000000000082169050919050565b610418816103e3565b811461042357600080fd5b50565b6000813590506104358161040f565b92915050565b60008060408385031215610452576104516102f3565b5b600061046085828601610426565b925050602061047185828601610341565b9150509250929050565b600082825260208201905092915050565b7f4973206e6f742061646d696e0000000000000000000000000000000000000000600082015250565b60006104c2600c8361047b565b91506104cd8261048c565b602082019050919050565b600060208201905081810360008301526104f1816104b5565b905091905056fe6080604052600033905060008173ffffffffffffffffffffffffffffffffffffffff16635c60da1b6040518163ffffffff1660e01b8152600401602060405180830381865afa158015610056573d6000803e3d6000fd5b505050506040513d601f19601f8201168201806040525081019061007a91906100ec565b9050803b80600080843c806000f35b600080fd5b600073ffffffffffffffffffffffffffffffffffffffff82169050919050565b60006100b98261008e565b9050919050565b6100c9816100ae565b81146100d457600080fd5b50565b6000815190506100e6816100c0565b92915050565b60006020828403121561010257610101610089565b5b6000610110848285016100d7565b9150509291505056fea2646970667358221220c8a28e055a8d8a795b1025984cd7f8abf453b8e9c4eb773b9efa02df34d9795764736f6c6343000812003360a060405234801561001057600080fd5b5060405161051b38038061051b833981810160405281019061003291906100cf565b8073ffffffffffffffffffffffffffffffffffffffff1660808173ffffffffffffffffffffffffffffffffffffffff1681525050506100fc565b600080fd5b600073ffffffffffffffffffffffffffffffffffffffff82169050919050565b600061009c82610071565b9050919050565b6100ac81610091565b81146100b757600080fd5b50565b6000815190506100c9816100a3565b92915050565b6000602082840312156100e5576100e461006c565b5b60006100f3848285016100ba565b91505092915050565b6080516104056101166000396000608301526104056000f3fe60806040526000366060600080357fffffffff0000000000000000000000000000000000000000000000000000000016905060006100a7827bffffffffffffffffffffffffffffffffffffffffffffffffffffffff1916604051806020016100669061019e565b6020820181038252601f19601f82011660405250805190602001207f0000000000000000000000000000000000000000000000000000000000000000610173565b90506000808273ffffffffffffffffffffffffffffffffffffffff166000366040516100d49291906101ea565b600060405180830381855af49150503d806000811461010f576040519150601f19603f3d011682016040523d82523d6000602084013e610114565b606091505b5091509150811561012b5780945050505050610168565b806040517f08c379a000000000000000000000000000000000000000000000000000000000815260040161015f9190610293565b60405180910390fd5b915050805190602001f35b6000604051836040820152846020820152828152600b810160ff815360558120925050509392505050565b61011a806102b683390190565b600081905092915050565b82818337600083830152505050565b60006101d183856101ab565b93506101de8385846101b6565b82840190509392505050565b60006101f78284866101c5565b91508190509392505050565b600081519050919050565b600082825260208201905092915050565b60005b8381101561023d578082015181840152602081019050610222565b60008484015250505050565b6000601f19601f8301169050919050565b600061026582610203565b61026f818561020e565b935061027f81856020860161021f565b61028881610249565b840191505092915050565b600060208201905081810360008301526102ad818461025a565b90509291505056fe6080604052600033905060008173ffffffffffffffffffffffffffffffffffffffff16635c60da1b6040518163ffffffff1660e01b8152600401602060405180830381865afa158015610056573d6000803e3d6000fd5b505050506040513d601f19601f8201168201806040525081019061007a91906100ec565b9050803b80600080843c806000f35b600080fd5b600073ffffffffffffffffffffffffffffffffffffffff82169050919050565b60006100b98261008e565b9050919050565b6100c9816100ae565b81146100d457600080fd5b50565b6000815190506100e6816100c0565b92915050565b60006020828403121561010257610101610089565b5b6000610110848285016100d7565b9150509291505056fea2646970667358221220c4142f5acd72b2c08b66eb6bfe80d2d201dc0b5bbd7447a4afeef7f3a5fc137264736f6c63430008120033a264697066735822122062835a2d3da8e354ea8cd186a40ad9fe7609614d8bd39be4bf5f4d7653713ea964736f6c63430008120033",
					"opcodes": "PUSH1 0x80 PUSH1 0x40 MSTORE CALLVALUE DUP1 ISZERO PUSH2 0x10 JUMPI PUSH1 0x0 DUP1 REVERT JUMPDEST POP PUSH2 0x2998 DUP1 PUSH2 0x20 PUSH1 0x0 CODECOPY PUSH1 0x0 RETURN INVALID PUSH1 0x80 PUSH1 0x40 MSTORE CALLVALUE DUP1 ISZERO PUSH3 0x11 JUMPI PUSH1 0x0 DUP1 REVERT JUMPDEST POP PUSH1 0x4 CALLDATASIZE LT PUSH3 0x2E JUMPI PUSH1 0x0 CALLDATALOAD PUSH1 0xE0 SHR DUP1 PUSH4 0x6B59084D EQ PUSH3 0x33 JUMPI JUMPDEST PUSH1 0x0 DUP1 REVERT JUMPDEST PUSH3 0x3D PUSH3 0x55 JUMP JUMPDEST PUSH1 0x40 MLOAD PUSH3 0x4C SWAP2 SWAP1 PUSH3 0xB20 JUMP JUMPDEST PUSH1 0x40 MLOAD DUP1 SWAP2 SUB SWAP1 RETURN JUMPDEST PUSH1 0x0 DUP1 PUSH1 0x40 MLOAD PUSH3 0x66 SWAP1 PUSH3 0xA9D JUMP JUMPDEST PUSH1 0x40 MLOAD DUP1 SWAP2 SUB SWAP1 PUSH1 0x0 CREATE DUP1 ISZERO DUP1 ISZERO PUSH3 0x83 JUMPI RETURNDATASIZE PUSH1 0x0 DUP1 RETURNDATACOPY RETURNDATASIZE PUSH1 0x0 REVERT JUMPDEST POP SWAP1 POP PUSH1 0x0 DUP2 PUSH20 0xFFFFFFFFFFFFFFFFFFFFFFFFFFFFFFFFFFFFFFFF AND EXTCODESIZE SUB PUSH3 0xE3 JUMPI PUSH1 0x40 MLOAD PUSH32 0x8C379A000000000000000000000000000000000000000000000000000000000 DUP2 MSTORE PUSH1 0x4 ADD PUSH3 0xDA SWAP1 PUSH3 0xB9E JUMP JUMPDEST PUSH1 0x40 MLOAD DUP1 SWAP2 SUB SWAP1 REVERT JUMPDEST PUSH1 0x5 DUP2 PUSH20 0xFFFFFFFFFFFFFFFFFFFFFFFFFFFFFFFFFFFFFFFF AND PUSH4 0xA391C15B PUSH1 0x14 PUSH1 0x4 PUSH1 0x40 MLOAD DUP4 PUSH4 0xFFFFFFFF AND PUSH1 0xE0 SHL DUP2 MSTORE PUSH1 0x4 ADD PUSH3 0x124 SWAP3 SWAP2 SWAP1 PUSH3 0xC5A JUMP JUMPDEST PUSH1 0x20 PUSH1 0x40 MLOAD DUP1 DUP4 SUB DUP2 DUP7 GAS STATICCALL ISZERO DUP1 ISZERO PUSH3 0x142 JUMPI RETURNDATASIZE PUSH1 0x0 DUP1 RETURNDATACOPY RETURNDATASIZE PUSH1 0x0 REVERT JUMPDEST POP POP POP POP PUSH1 0x40 MLOAD RETURNDATASIZE PUSH1 0x1F NOT PUSH1 0x1F DUP3 ADD AND DUP3 ADD DUP1 PUSH1 0x40 MSTORE POP DUP2 ADD SWAP1 PUSH3 0x168 SWAP2 SWAP1 PUSH3 0xCBD JUMP JUMPDEST EQ PUSH3 0x1AB JUMPI PUSH1 0x40 MLOAD PUSH32 0x8C379A000000000000000000000000000000000000000000000000000000000 DUP2 MSTORE PUSH1 0x4 ADD PUSH3 0x1A2 SWAP1 PUSH3 0xD3F JUMP JUMPDEST PUSH1 0x40 MLOAD DUP1 SWAP2 SUB SWAP1 REVERT JUMPDEST PUSH1 0x0 PUSH1 0x40 MLOAD PUSH3 0x1BB SWAP1 PUSH3 0xAAB JUMP JUMPDEST PUSH1 0x40 MLOAD DUP1 SWAP2 SUB SWAP1 PUSH1 0x0 CREATE DUP1 ISZERO DUP1 ISZERO PUSH3 0x1D8 JUMPI RETURNDATASIZE PUSH1 0x0 DUP1 RETURNDATACOPY RETURNDATASIZE PUSH1 0x0 REVERT JUMPDEST POP SWAP1 POP PUSH1 0x0 DUP2 PUSH20 0xFFFFFFFFFFFFFFFFFFFFFFFFFFFFFFFFFFFFFFFF AND EXTCODESIZE SUB PUSH3 0x238 JUMPI PUSH1 0x40 MLOAD PUSH32 0x8C379A000000000000000000000000000000000000000000000000000000000 DUP2 MSTORE PUSH1 0x4 ADD PUSH3 0x22F SWAP1 PUSH3 0xB9E JUMP JUMPDEST PUSH1 0x40 MLOAD DUP1 SWAP2 SUB SWAP1 REVERT JUMPDEST PUSH1 0x50 DUP2 PUSH20 0xFFFFFFFFFFFFFFFFFFFFFFFFFFFFFFFFFFFFFFFF AND PUSH4 0xC8A4AC9C PUSH1 0x14 PUSH1 0x4 PUSH1 0x40 MLOAD DUP4 PUSH4 0xFFFFFFFF AND PUSH1 0xE0 SHL DUP2 MSTORE PUSH1 0x4 ADD PUSH3 0x279 SWAP3 SWAP2 SWAP1 PUSH3 0xC5A JUMP JUMPDEST PUSH1 0x20 PUSH1 0x40 MLOAD DUP1 DUP4 SUB DUP2 DUP7 GAS STATICCALL ISZERO DUP1 ISZERO PUSH3 0x297 JUMPI RETURNDATASIZE PUSH1 0x0 DUP1 RETURNDATACOPY RETURNDATASIZE PUSH1 0x0 REVERT JUMPDEST POP POP POP POP PUSH1 0x40 MLOAD RETURNDATASIZE PUSH1 0x1F NOT PUSH1 0x1F DUP3 ADD AND DUP3 ADD DUP1 PUSH1 0x40 MSTORE POP DUP2 ADD SWAP1 PUSH3 0x2BD SWAP2 SWAP1 PUSH3 0xCBD JUMP JUMPDEST EQ PUSH3 0x300 JUMPI PUSH1 0x40 MLOAD PUSH32 0x8C379A000000000000000000000000000000000000000000000000000000000 DUP2 MSTORE PUSH1 0x4 ADD PUSH3 0x2F7 SWAP1 PUSH3 0xD3F JUMP JUMPDEST PUSH1 0x40 MLOAD DUP1 SWAP2 SUB SWAP1 REVERT JUMPDEST PUSH1 0x0 PUSH1 0x40 MLOAD PUSH3 0x310 SWAP1 PUSH3 0xAB9 JUMP JUMPDEST PUSH1 0x40 MLOAD DUP1 SWAP2 SUB SWAP1 PUSH1 0x0 CREATE DUP1 ISZERO DUP1 ISZERO PUSH3 0x32D JUMPI RETURNDATASIZE PUSH1 0x0 DUP1 RETURNDATACOPY RETURNDATASIZE PUSH1 0x0 REVERT JUMPDEST POP SWAP1 POP DUP1 PUSH20 0xFFFFFFFFFFFFFFFFFFFFFFFFFFFFFFFFFFFFFFFF AND PUSH4 0x919840AD PUSH1 0x40 MLOAD DUP2 PUSH4 0xFFFFFFFF AND PUSH1 0xE0 SHL DUP2 MSTORE PUSH1 0x4 ADD PUSH1 0x20 PUSH1 0x40 MLOAD DUP1 DUP4 SUB DUP2 DUP7 GAS STATICCALL ISZERO DUP1 ISZERO PUSH3 0x37C JUMPI RETURNDATASIZE PUSH1 0x0 DUP1 RETURNDATACOPY RETURNDATASIZE PUSH1 0x0 REVERT JUMPDEST POP POP POP POP PUSH1 0x40 MLOAD RETURNDATASIZE PUSH1 0x1F NOT PUSH1 0x1F DUP3 ADD AND DUP3 ADD DUP1 PUSH1 0x40 MSTORE POP DUP2 ADD SWAP1 PUSH3 0x3A2 SWAP2 SWAP1 PUSH3 0xD9E JUMP JUMPDEST PUSH3 0x3E4 JUMPI PUSH1 0x40 MLOAD PUSH32 0x8C379A000000000000000000000000000000000000000000000000000000000 DUP2 MSTORE PUSH1 0x4 ADD PUSH3 0x3DB SWAP1 PUSH3 0xE20 JUMP JUMPDEST PUSH1 0x40 MLOAD DUP1 SWAP2 SUB SWAP1 REVERT JUMPDEST PUSH1 0x0 PUSH1 0x3 PUSH8 0xFFFFFFFFFFFFFFFF DUP2 GT ISZERO PUSH3 0x404 JUMPI PUSH3 0x403 PUSH3 0xE42 JUMP JUMPDEST JUMPDEST PUSH1 0x40 MLOAD SWAP1 DUP1 DUP3 MSTORE DUP1 PUSH1 0x20 MUL PUSH1 0x20 ADD DUP3 ADD PUSH1 0x40 MSTORE DUP1 ISZERO PUSH3 0x433 JUMPI DUP2 PUSH1 0x20 ADD PUSH1 0x20 DUP3 MUL DUP1 CALLDATASIZE DUP4 CALLDATACOPY DUP1 DUP3 ADD SWAP2 POP POP SWAP1 POP JUMPDEST POP SWAP1 POP ADDRESS DUP2 PUSH1 0x0 DUP2 MLOAD DUP2 LT PUSH3 0x44E JUMPI PUSH3 0x44D PUSH3 0xE71 JUMP JUMPDEST JUMPDEST PUSH1 0x20 MUL PUSH1 0x20 ADD ADD SWAP1 PUSH20 0xFFFFFFFFFFFFFFFFFFFFFFFFFFFFFFFFFFFFFFFF AND SWAP1 DUP2 PUSH20 0xFFFFFFFFFFFFFFFFFFFFFFFFFFFFFFFFFFFFFFFF AND DUP2 MSTORE POP POP CALLER DUP2 PUSH1 0x1 DUP2 MLOAD DUP2 LT PUSH3 0x4A0 JUMPI PUSH3 0x49F PUSH3 0xE71 JUMP JUMPDEST JUMPDEST PUSH1 0x20 MUL PUSH1 0x20 ADD ADD SWAP1 PUSH20 0xFFFFFFFFFFFFFFFFFFFFFFFFFFFFFFFFFFFFFFFF AND SWAP1 DUP2 PUSH20 0xFFFFFFFFFFFFFFFFFFFFFFFFFFFFFFFFFFFFFFFF AND DUP2 MSTORE POP POP DUP2 DUP2 PUSH1 0x2 DUP2 MLOAD DUP2 LT PUSH3 0x4F2 JUMPI PUSH3 0x4F1 PUSH3 0xE71 JUMP JUMPDEST JUMPDEST PUSH1 0x20 MUL PUSH1 0x20 ADD ADD SWAP1 PUSH20 0xFFFFFFFFFFFFFFFFFFFFFFFFFFFFFFFFFFFFFFFF AND SWAP1 DUP2 PUSH20 0xFFFFFFFFFFFFFFFFFFFFFFFFFFFFFFFFFFFFFFFF AND DUP2 MSTORE POP POP PUSH1 0x0 DUP2 PUSH1 0x40 MLOAD PUSH3 0x53D SWAP1 PUSH3 0xAC7 JUMP JUMPDEST PUSH3 0x549 SWAP2 SWAP1 PUSH3 0xFA2 JUMP JUMPDEST PUSH1 0x40 MLOAD DUP1 SWAP2 SUB SWAP1 PUSH1 0x0 CREATE DUP1 ISZERO DUP1 ISZERO PUSH3 0x566 JUMPI RETURNDATASIZE PUSH1 0x0 DUP1 RETURNDATACOPY RETURNDATASIZE PUSH1 0x0 REVERT JUMPDEST POP SWAP1 POP DUP1 PUSH20 0xFFFFFFFFFFFFFFFFFFFFFFFFFFFFFFFFFFFFFFFF AND PUSH4 0x24D7806C ADDRESS PUSH1 0x40 MLOAD DUP3 PUSH4 0xFFFFFFFF AND PUSH1 0xE0 SHL DUP2 MSTORE PUSH1 0x4 ADD PUSH3 0x5A4 SWAP2 SWAP1 PUSH3 0xFD7 JUMP JUMPDEST PUSH1 0x20 PUSH1 0x40 MLOAD DUP1 DUP4 SUB DUP2 DUP7 GAS STATICCALL ISZERO DUP1 ISZERO PUSH3 0x5C2 JUMPI RETURNDATASIZE PUSH1 0x0 DUP1 RETURNDATACOPY RETURNDATASIZE PUSH1 0x0 REVERT JUMPDEST POP POP POP POP PUSH1 0x40 MLOAD RETURNDATASIZE PUSH1 0x1F NOT PUSH1 0x1F DUP3 ADD AND DUP3 ADD DUP1 PUSH1 0x40 MSTORE POP DUP2 ADD SWAP1 PUSH3 0x5E8 SWAP2 SWAP1 PUSH3 0xD9E JUMP JUMPDEST PUSH3 0x62A JUMPI PUSH1 0x40 MLOAD PUSH32 0x8C379A000000000000000000000000000000000000000000000000000000000 DUP2 MSTORE PUSH1 0x4 ADD PUSH3 0x621 SWAP1 PUSH3 0x1044 JUMP JUMPDEST PUSH1 0x40 MLOAD DUP1 SWAP2 SUB SWAP1 REVERT JUMPDEST DUP1 PUSH20 0xFFFFFFFFFFFFFFFFFFFFFFFFFFFFFFFFFFFFFFFF AND PUSH4 0x24D7806C DUP5 PUSH1 0x40 MLOAD DUP3 PUSH4 0xFFFFFFFF AND PUSH1 0xE0 SHL DUP2 MSTORE PUSH1 0x4 ADD PUSH3 0x665 SWAP2 SWAP1 PUSH3 0xFD7 JUMP JUMPDEST PUSH1 0x20 PUSH1 0x40 MLOAD DUP1 DUP4 SUB DUP2 DUP7 GAS STATICCALL ISZERO DUP1 ISZERO PUSH3 0x683 JUMPI RETURNDATASIZE PUSH1 0x0 DUP1 RETURNDATACOPY RETURNDATASIZE PUSH1 0x0 REVERT JUMPDEST POP POP POP POP PUSH1 0x40 MLOAD RETURNDATASIZE PUSH1 0x1F NOT PUSH1 0x1F DUP3 ADD AND DUP3 ADD DUP1 PUSH1 0x40 MSTORE POP DUP2 ADD SWAP1 PUSH3 0x6A9 SWAP2 SWAP1 PUSH3 0xD9E JUMP JUMPDEST PUSH3 0x6EB JUMPI PUSH1 0x40 MLOAD PUSH32 0x8C379A000000000000000000000000000000000000000000000000000000000 DUP2 MSTORE PUSH1 0x4 ADD PUSH3 0x6E2 SWAP1 PUSH3 0x1044 JUMP JUMPDEST PUSH1 0x40 MLOAD DUP1 SWAP2 SUB SWAP1 REVERT JUMPDEST DUP1 PUSH20 0xFFFFFFFFFFFFFFFFFFFFFFFFFFFFFFFFFFFFFFFF AND PUSH4 0x24D7806C CALLER PUSH1 0x40 MLOAD DUP3 PUSH4 0xFFFFFFFF AND PUSH1 0xE0 SHL DUP2 MSTORE PUSH1 0x4 ADD PUSH3 0x726 SWAP2 SWAP1 PUSH3 0xFD7 JUMP JUMPDEST PUSH1 0x20 PUSH1 0x40 MLOAD DUP1 DUP4 SUB DUP2 DUP7 GAS STATICCALL ISZERO DUP1 ISZERO PUSH3 0x744 JUMPI RETURNDATASIZE PUSH1 0x0 DUP1 RETURNDATACOPY RETURNDATASIZE PUSH1 0x0 REVERT JUMPDEST POP POP POP POP PUSH1 0x40 MLOAD RETURNDATASIZE PUSH1 0x1F NOT PUSH1 0x1F DUP3 ADD AND DUP3 ADD DUP1 PUSH1 0x40 MSTORE POP DUP2 ADD SWAP1 PUSH3 0x76A SWAP2 SWAP1 PUSH3 0xD9E JUMP JUMPDEST PUSH3 0x7AC JUMPI PUSH1 0x40 MLOAD PUSH32 0x8C379A000000000000000000000000000000000000000000000000000000000 DUP2 MSTORE PUSH1 0x4 ADD PUSH3 0x7A3 SWAP1 PUSH3 0x1044 JUMP JUMPDEST PUSH1 0x40 MLOAD DUP1 SWAP2 SUB SWAP1 REVERT JUMPDEST PUSH4 0xA391C15B PUSH1 0xE0 SHL SWAP6 POP DUP1 PUSH20 0xFFFFFFFFFFFFFFFFFFFFFFFFFFFFFFFFFFFFFFFF AND PUSH4 0x997B81C9 PUSH4 0xA391C15B PUSH1 0xE0 SHL DUP8 PUSH1 0x40 MLOAD DUP4 PUSH4 0xFFFFFFFF AND PUSH1 0xE0 SHL DUP2 MSTORE PUSH1 0x4 ADD PUSH3 0x7FA SWAP3 SWAP2 SWAP1 PUSH3 0x1066 JUMP JUMPDEST PUSH1 0x20 PUSH1 0x40 MLOAD DUP1 DUP4 SUB DUP2 PUSH1 0x0 DUP8 GAS CALL ISZERO DUP1 ISZERO PUSH3 0x81A JUMPI RETURNDATASIZE PUSH1 0x0 DUP1 RETURNDATACOPY RETURNDATASIZE PUSH1 0x0 REVERT JUMPDEST POP POP POP POP PUSH1 0x40 MLOAD RETURNDATASIZE PUSH1 0x1F NOT PUSH1 0x1F DUP3 ADD AND DUP3 ADD DUP1 PUSH1 0x40 MSTORE POP DUP2 ADD SWAP1 PUSH3 0x840 SWAP2 SWAP1 PUSH3 0x10C4 JUMP JUMPDEST POP DUP3 PUSH20 0xFFFFFFFFFFFFFFFFFFFFFFFFFFFFFFFFFFFFFFFF AND PUSH4 0xCACA46F7 DUP3 PUSH4 0xC8A4AC9C PUSH1 0xE0 SHL DUP8 PUSH1 0x40 MLOAD DUP5 PUSH4 0xFFFFFFFF AND PUSH1 0xE0 SHL DUP2 MSTORE PUSH1 0x4 ADD PUSH3 0x887 SWAP4 SWAP3 SWAP2 SWAP1 PUSH3 0x1157 JUMP JUMPDEST PUSH1 0x0 PUSH1 0x40 MLOAD DUP1 DUP4 SUB DUP2 PUSH1 0x0 DUP8 DUP1 EXTCODESIZE ISZERO DUP1 ISZERO PUSH3 0x8A2 JUMPI PUSH1 0x0 DUP1 REVERT JUMPDEST POP GAS CALL ISZERO DUP1 ISZERO PUSH3 0x8B7 JUMPI RETURNDATASIZE PUSH1 0x0 DUP1 RETURNDATACOPY RETURNDATASIZE PUSH1 0x0 REVERT JUMPDEST POP POP POP POP PUSH1 0x0 DUP2 PUSH1 0x40 MLOAD PUSH3 0x8CC SWAP1 PUSH3 0xAD5 JUMP JUMPDEST PUSH3 0x8D8 SWAP2 SWAP1 PUSH3 0xFD7 JUMP JUMPDEST PUSH1 0x40 MLOAD DUP1 SWAP2 SUB SWAP1 PUSH1 0x0 CREATE DUP1 ISZERO DUP1 ISZERO PUSH3 0x8F5 JUMPI RETURNDATASIZE PUSH1 0x0 DUP1 RETURNDATACOPY RETURNDATASIZE PUSH1 0x0 REVERT JUMPDEST POP SWAP1 POP PUSH1 0x0 DUP2 PUSH20 0xFFFFFFFFFFFFFFFFFFFFFFFFFFFFFFFFFFFFFFFF AND PUSH4 0xA391C15B PUSH1 0x14 PUSH1 0x4 PUSH1 0x40 MLOAD DUP4 PUSH4 0xFFFFFFFF AND PUSH1 0xE0 SHL DUP2 MSTORE PUSH1 0x4 ADD PUSH3 0x939 SWAP3 SWAP2 SWAP1 PUSH3 0xC5A JUMP JUMPDEST PUSH1 0x20 PUSH1 0x40 MLOAD DUP1 DUP4 SUB DUP2 DUP7 GAS STATICCALL ISZERO DUP1 ISZERO PUSH3 0x957 JUMPI RETURNDATASIZE PUSH1 0x0 DUP1 RETURNDATACOPY RETURNDATASIZE PUSH1 0x0 REVERT JUMPDEST POP POP POP POP PUSH1 0x40 MLOAD RETURNDATASIZE PUSH1 0x1F NOT PUSH1 0x1F DUP3 ADD AND DUP3 ADD DUP1 PUSH1 0x40 MSTORE POP DUP2 ADD SWAP1 PUSH3 0x97D SWAP2 SWAP1 PUSH3 0xCBD JUMP JUMPDEST SWAP1 POP PUSH1 0x5 DUP2 EQ PUSH3 0x9C5 JUMPI PUSH1 0x40 MLOAD PUSH32 0x8C379A000000000000000000000000000000000000000000000000000000000 DUP2 MSTORE PUSH1 0x4 ADD PUSH3 0x9BC SWAP1 PUSH3 0x11E4 JUMP JUMPDEST PUSH1 0x40 MLOAD DUP1 SWAP2 SUB SWAP1 REVERT JUMPDEST PUSH1 0x0 DUP3 PUSH20 0xFFFFFFFFFFFFFFFFFFFFFFFFFFFFFFFFFFFFFFFF AND PUSH4 0xC8A4AC9C PUSH1 0x14 PUSH1 0x4 PUSH1 0x40 MLOAD DUP4 PUSH4 0xFFFFFFFF AND PUSH1 0xE0 SHL DUP2 MSTORE PUSH1 0x4 ADD PUSH3 0xA06 SWAP3 SWAP2 SWAP1 PUSH3 0xC5A JUMP JUMPDEST PUSH1 0x20 PUSH1 0x40 MLOAD DUP1 DUP4 SUB DUP2 DUP7 GAS STATICCALL ISZERO DUP1 ISZERO PUSH3 0xA24 JUMPI RETURNDATASIZE PUSH1 0x0 DUP1 RETURNDATACOPY RETURNDATASIZE PUSH1 0x0 REVERT JUMPDEST POP POP POP POP PUSH1 0x40 MLOAD RETURNDATASIZE PUSH1 0x1F NOT PUSH1 0x1F DUP3 ADD AND DUP3 ADD DUP1 PUSH1 0x40 MSTORE POP DUP2 ADD SWAP1 PUSH3 0xA4A SWAP2 SWAP1 PUSH3 0xCBD JUMP JUMPDEST SWAP1 POP PUSH1 0x50 DUP2 EQ PUSH3 0xA92 JUMPI PUSH1 0x40 MLOAD PUSH32 0x8C379A000000000000000000000000000000000000000000000000000000000 DUP2 MSTORE PUSH1 0x4 ADD PUSH3 0xA89 SWAP1 PUSH3 0x1256 JUMP JUMPDEST PUSH1 0x40 MLOAD DUP1 SWAP2 SUB SWAP1 REVERT JUMPDEST POP POP POP POP POP POP POP POP SWAP1 JUMP JUMPDEST PUSH2 0x1D1 DUP1 PUSH3 0x1279 DUP4 CODECOPY ADD SWAP1 JUMP JUMPDEST PUSH2 0x1E2 DUP1 PUSH3 0x144A DUP4 CODECOPY ADD SWAP1 JUMP JUMPDEST PUSH2 0x3FA DUP1 PUSH3 0x162C DUP4 CODECOPY ADD SWAP1 JUMP JUMPDEST PUSH2 0xA22 DUP1 PUSH3 0x1A26 DUP4 CODECOPY ADD SWAP1 JUMP JUMPDEST PUSH2 0x51B DUP1 PUSH3 0x2448 DUP4 CODECOPY ADD SWAP1 JUMP JUMPDEST PUSH1 0x0 PUSH32 0xFFFFFFFF00000000000000000000000000000000000000000000000000000000 DUP3 AND SWAP1 POP SWAP2 SWAP1 POP JUMP JUMPDEST PUSH3 0xB1A DUP2 PUSH3 0xAE3 JUMP JUMPDEST DUP3 MSTORE POP POP JUMP JUMPDEST PUSH1 0x0 PUSH1 0x20 DUP3 ADD SWAP1 POP PUSH3 0xB37 PUSH1 0x0 DUP4 ADD DUP5 PUSH3 0xB0F JUMP JUMPDEST SWAP3 SWAP2 POP POP JUMP JUMPDEST PUSH1 0x0 DUP3 DUP3 MSTORE PUSH1 0x20 DUP3 ADD SWAP1 POP SWAP3 SWAP2 POP POP JUMP JUMPDEST PUSH32 0x4E6F20636F646500000000000000000000000000000000000000000000000000 PUSH1 0x0 DUP3 ADD MSTORE POP JUMP JUMPDEST PUSH1 0x0 PUSH3 0xB86 PUSH1 0x7 DUP4 PUSH3 0xB3D JUMP JUMPDEST SWAP2 POP PUSH3 0xB93 DUP3 PUSH3 0xB4E JUMP JUMPDEST PUSH1 0x20 DUP3 ADD SWAP1 POP SWAP2 SWAP1 POP JUMP JUMPDEST PUSH1 0x0 PUSH1 0x20 DUP3 ADD SWAP1 POP DUP2 DUP2 SUB PUSH1 0x0 DUP4 ADD MSTORE PUSH3 0xBB9 DUP2 PUSH3 0xB77 JUMP JUMPDEST SWAP1 POP SWAP2 SWAP1 POP JUMP JUMPDEST PUSH1 0x0 DUP2 SWAP1 POP SWAP2 SWAP1 POP JUMP JUMPDEST PUSH1 0x0 DUP2 SWAP1 POP SWAP2 SWAP1 POP JUMP JUMPDEST PUSH1 0x0 DUP2 SWAP1 POP SWAP2 SWAP1 POP JUMP JUMPDEST PUSH1 0x0 PUSH3 0xBFF PUSH3 0xBF9 PUSH3 0xBF3 DUP5 PUSH3 0xBC0 JUMP JUMPDEST PUSH3 0xBD4 JUMP JUMPDEST PUSH3 0xBCA JUMP JUMPDEST SWAP1 POP SWAP2 SWAP1 POP JUMP JUMPDEST PUSH3 0xC11 DUP2 PUSH3 0xBDE JUMP JUMPDEST DUP3 MSTORE POP POP JUMP JUMPDEST PUSH1 0x0 DUP2 SWAP1 POP SWAP2 SWAP1 POP JUMP JUMPDEST PUSH1 0x0 PUSH3 0xC42 PUSH3 0xC3C PUSH3 0xC36 DUP5 PUSH3 0xC17 JUMP JUMPDEST PUSH3 0xBD4 JUMP JUMPDEST PUSH3 0xBCA JUMP JUMPDEST SWAP1 POP SWAP2 SWAP1 POP JUMP JUMPDEST PUSH3 0xC54 DUP2 PUSH3 0xC21 JUMP JUMPDEST DUP3 MSTORE POP POP JUMP JUMPDEST PUSH1 0x0 PUSH1 0x40 DUP3 ADD SWAP1 POP PUSH3 0xC71 PUSH1 0x0 DUP4 ADD DUP6 PUSH3 0xC06 JUMP JUMPDEST PUSH3 0xC80 PUSH1 0x20 DUP4 ADD DUP5 PUSH3 0xC49 JUMP JUMPDEST SWAP4 SWAP3 POP POP POP JUMP JUMPDEST PUSH1 0x0 DUP1 REVERT JUMPDEST PUSH3 0xC97 DUP2 PUSH3 0xBCA JUMP JUMPDEST DUP2 EQ PUSH3 0xCA3 JUMPI PUSH1 0x0 DUP1 REVERT JUMPDEST POP JUMP JUMPDEST PUSH1 0x0 DUP2 MLOAD SWAP1 POP PUSH3 0xCB7 DUP2 PUSH3 0xC8C JUMP JUMPDEST SWAP3 SWAP2 POP POP JUMP JUMPDEST PUSH1 0x0 PUSH1 0x20 DUP3 DUP5 SUB SLT ISZERO PUSH3 0xCD6 JUMPI PUSH3 0xCD5 PUSH3 0xC87 JUMP JUMPDEST JUMPDEST PUSH1 0x0 PUSH3 0xCE6 DUP5 DUP3 DUP6 ADD PUSH3 0xCA6 JUMP JUMPDEST SWAP2 POP POP SWAP3 SWAP2 POP POP JUMP JUMPDEST PUSH32 0x4E6F206164642075700000000000000000000000000000000000000000000000 PUSH1 0x0 DUP3 ADD MSTORE POP JUMP JUMPDEST PUSH1 0x0 PUSH3 0xD27 PUSH1 0x9 DUP4 PUSH3 0xB3D JUMP JUMPDEST SWAP2 POP PUSH3 0xD34 DUP3 PUSH3 0xCEF JUMP JUMPDEST PUSH1 0x20 DUP3 ADD SWAP1 POP SWAP2 SWAP1 POP JUMP JUMPDEST PUSH1 0x0 PUSH1 0x20 DUP3 ADD SWAP1 POP DUP2 DUP2 SUB PUSH1 0x0 DUP4 ADD MSTORE PUSH3 0xD5A DUP2 PUSH3 0xD18 JUMP JUMPDEST SWAP1 POP SWAP2 SWAP1 POP JUMP JUMPDEST PUSH1 0x0 DUP2 ISZERO ISZERO SWAP1 POP SWAP2 SWAP1 POP JUMP JUMPDEST PUSH3 0xD78 DUP2 PUSH3 0xD61 JUMP JUMPDEST DUP2 EQ PUSH3 0xD84 JUMPI PUSH1 0x0 DUP1 REVERT JUMPDEST POP JUMP JUMPDEST PUSH1 0x0 DUP2 MLOAD SWAP1 POP PUSH3 0xD98 DUP2 PUSH3 0xD6D JUMP JUMPDEST SWAP3 SWAP2 POP POP JUMP JUMPDEST PUSH1 0x0 PUSH1 0x20 DUP3 DUP5 SUB SLT ISZERO PUSH3 0xDB7 JUMPI PUSH3 0xDB6 PUSH3 0xC87 JUMP JUMPDEST JUMPDEST PUSH1 0x0 PUSH3 0xDC7 DUP5 DUP3 DUP6 ADD PUSH3 0xD87 JUMP JUMPDEST SWAP2 POP POP SWAP3 SWAP2 POP POP JUMP JUMPDEST PUSH32 0x436865636B206661696C73000000000000000000000000000000000000000000 PUSH1 0x0 DUP3 ADD MSTORE POP JUMP JUMPDEST PUSH1 0x0 PUSH3 0xE08 PUSH1 0xB DUP4 PUSH3 0xB3D JUMP JUMPDEST SWAP2 POP PUSH3 0xE15 DUP3 PUSH3 0xDD0 JUMP JUMPDEST PUSH1 0x20 DUP3 ADD SWAP1 POP SWAP2 SWAP1 POP JUMP JUMPDEST PUSH1 0x0 PUSH1 0x20 DUP3 ADD SWAP1 POP DUP2 DUP2 SUB PUSH1 0x0 DUP4 ADD MSTORE PUSH3 0xE3B DUP2 PUSH3 0xDF9 JUMP JUMPDEST SWAP1 POP SWAP2 SWAP1 POP JUMP JUMPDEST PUSH32 0x4E487B7100000000000000000000000000000000000000000000000000000000 PUSH1 0x0 MSTORE PUSH1 0x41 PUSH1 0x4 MSTORE PUSH1 0x24 PUSH1 0x0 REVERT JUMPDEST PUSH32 0x4E487B7100000000000000000000000000000000000000000000000000000000 PUSH1 0x0 MSTORE PUSH1 0x32 PUSH1 0x4 MSTORE PUSH1 0x24 PUSH1 0x0 REVERT JUMPDEST PUSH1 0x0 DUP2 MLOAD SWAP1 POP SWAP2 SWAP1 POP JUMP JUMPDEST PUSH1 0x0 DUP3 DUP3 MSTORE PUSH1 0x20 DUP3 ADD SWAP1 POP SWAP3 SWAP2 POP POP JUMP JUMPDEST PUSH1 0x0 DUP2 SWAP1 POP PUSH1 0x20 DUP3 ADD SWAP1 POP SWAP2 SWAP1 POP JUMP JUMPDEST PUSH1 0x0 PUSH20 0xFFFFFFFFFFFFFFFFFFFFFFFFFFFFFFFFFFFFFFFF DUP3 AND SWAP1 POP SWAP2 SWAP1 POP JUMP JUMPDEST PUSH1 0x0 PUSH3 0xEF9 DUP3 PUSH3 0xECC JUMP JUMPDEST SWAP1 POP SWAP2 SWAP1 POP JUMP JUMPDEST PUSH3 0xF0B DUP2 PUSH3 0xEEC JUMP JUMPDEST DUP3 MSTORE POP POP JUMP JUMPDEST PUSH1 0x0 PUSH3 0xF1F DUP4 DUP4 PUSH3 0xF00 JUMP JUMPDEST PUSH1 0x20 DUP4 ADD SWAP1 POP SWAP3 SWAP2 POP POP JUMP JUMPDEST PUSH1 0x0 PUSH1 0x20 DUP3 ADD SWAP1 POP SWAP2 SWAP1 POP JUMP JUMPDEST PUSH1 0x0 PUSH3 0xF45 DUP3 PUSH3 0xEA0 JUMP JUMPDEST PUSH3 0xF51 DUP2 DUP6 PUSH3 0xEAB JUMP JUMPDEST SWAP4 POP PUSH3 0xF5E DUP4 PUSH3 0xEBC JUMP JUMPDEST DUP1 PUSH1 0x0 JUMPDEST DUP4 DUP2 LT ISZERO PUSH3 0xF95 JUMPI DUP2 MLOAD PUSH3 0xF79 DUP9 DUP3 PUSH3 0xF11 JUMP JUMPDEST SWAP8 POP PUSH3 0xF86 DUP4 PUSH3 0xF2B JUMP JUMPDEST SWAP3 POP POP PUSH1 0x1 DUP2 ADD SWAP1 POP PUSH3 0xF62 JUMP JUMPDEST POP DUP6 SWAP4 POP POP POP POP SWAP3 SWAP2 POP POP JUMP JUMPDEST PUSH1 0x0 PUSH1 0x20 DUP3 ADD SWAP1 POP DUP2 DUP2 SUB PUSH1 0x0 DUP4 ADD MSTORE PUSH3 0xFBE DUP2 DUP5 PUSH3 0xF38 JUMP JUMPDEST SWAP1 POP SWAP3 SWAP2 POP POP JUMP JUMPDEST PUSH3 0xFD1 DUP2 PUSH3 0xEEC JUMP JUMPDEST DUP3 MSTORE POP POP JUMP JUMPDEST PUSH1 0x0 PUSH1 0x20 DUP3 ADD SWAP1 POP PUSH3 0xFEE PUSH1 0x0 DUP4 ADD DUP5 PUSH3 0xFC6 JUMP JUMPDEST SWAP3 SWAP2 POP POP JUMP JUMPDEST PUSH32 0x4E6F742061646D696E0000000000000000000000000000000000000000000000 PUSH1 0x0 DUP3 ADD MSTORE POP JUMP JUMPDEST PUSH1 0x0 PUSH3 0x102C PUSH1 0x9 DUP4 PUSH3 0xB3D JUMP JUMPDEST SWAP2 POP PUSH3 0x1039 DUP3 PUSH3 0xFF4 JUMP JUMPDEST PUSH1 0x20 DUP3 ADD SWAP1 POP SWAP2 SWAP1 POP JUMP JUMPDEST PUSH1 0x0 PUSH1 0x20 DUP3 ADD SWAP1 POP DUP2 DUP2 SUB PUSH1 0x0 DUP4 ADD MSTORE PUSH3 0x105F DUP2 PUSH3 0x101D JUMP JUMPDEST SWAP1 POP SWAP2 SWAP1 POP JUMP JUMPDEST PUSH1 0x0 PUSH1 0x40 DUP3 ADD SWAP1 POP PUSH3 0x107D PUSH1 0x0 DUP4 ADD DUP6 PUSH3 0xB0F JUMP JUMPDEST PUSH3 0x108C PUSH1 0x20 DUP4 ADD DUP5 PUSH3 0xFC6 JUMP JUMPDEST SWAP4 SWAP3 POP POP POP JUMP JUMPDEST PUSH3 0x109E DUP2 PUSH3 0xEEC JUMP JUMPDEST DUP2 EQ PUSH3 0x10AA JUMPI PUSH1 0x0 DUP1 REVERT JUMPDEST POP JUMP JUMPDEST PUSH1 0x0 DUP2 MLOAD SWAP1 POP PUSH3 0x10BE DUP2 PUSH3 0x1093 JUMP JUMPDEST SWAP3 SWAP2 POP POP JUMP JUMPDEST PUSH1 0x0 PUSH1 0x20 DUP3 DUP5 SUB SLT ISZERO PUSH3 0x10DD JUMPI PUSH3 0x10DC PUSH3 0xC87 JUMP JUMPDEST JUMPDEST PUSH1 0x0 PUSH3 0x10ED DUP5 DUP3 DUP6 ADD PUSH3 0x10AD JUMP JUMPDEST SWAP2 POP POP SWAP3 SWAP2 POP POP JUMP JUMPDEST PUSH1 0x0 PUSH3 0x1117 PUSH3 0x1111 PUSH3 0x110B DUP5 PUSH3 0xECC JUMP JUMPDEST PUSH3 0xBD4 JUMP JUMPDEST PUSH3 0xECC JUMP JUMPDEST SWAP1 POP SWAP2 SWAP1 POP JUMP JUMPDEST PUSH1 0x0 PUSH3 0x112B DUP3 PUSH3 0x10F6 JUMP JUMPDEST SWAP1 POP SWAP2 SWAP1 POP JUMP JUMPDEST PUSH1 0x0 PUSH3 0x113F DUP3 PUSH3 0x111E JUMP JUMPDEST SWAP1 POP SWAP2 SWAP1 POP JUMP JUMPDEST PUSH3 0x1151 DUP2 PUSH3 0x1132 JUMP JUMPDEST DUP3 MSTORE POP POP JUMP JUMPDEST PUSH1 0x0 PUSH1 0x60 DUP3 ADD SWAP1 POP PUSH3 0x116E PUSH1 0x0 DUP4 ADD DUP7 PUSH3 0x1146 JUMP JUMPDEST PUSH3 0x117D PUSH1 0x20 DUP4 ADD DUP6 PUSH3 0xB0F JUMP JUMPDEST PUSH3 0x118C PUSH1 0x40 DUP4 ADD DUP5 PUSH3 0xFC6 JUMP JUMPDEST SWAP5 SWAP4 POP POP POP POP JUMP JUMPDEST PUSH32 0x5568206F68000000000000000000000000000000000000000000000000000000 PUSH1 0x0 DUP3 ADD MSTORE POP JUMP JUMPDEST PUSH1 0x0 PUSH3 0x11CC PUSH1 0x5 DUP4 PUSH3 0xB3D JUMP JUMPDEST SWAP2 POP PUSH3 0x11D9 DUP3 PUSH3 0x1194 JUMP JUMPDEST PUSH1 0x20 DUP3 ADD SWAP1 POP SWAP2 SWAP1 POP JUMP JUMPDEST PUSH1 0x0 PUSH1 0x20 DUP3 ADD SWAP1 POP DUP2 DUP2 SUB PUSH1 0x0 DUP4 ADD MSTORE PUSH3 0x11FF DUP2 PUSH3 0x11BD JUMP JUMPDEST SWAP1 POP SWAP2 SWAP1 POP JUMP JUMPDEST PUSH32 0x4F68206E6F000000000000000000000000000000000000000000000000000000 PUSH1 0x0 DUP3 ADD MSTORE POP JUMP JUMPDEST PUSH1 0x0 PUSH3 0x123E PUSH1 0x5 DUP4 PUSH3 0xB3D JUMP JUMPDEST SWAP2 POP PUSH3 0x124B DUP3 PUSH3 0x1206 JUMP JUMPDEST PUSH1 0x20 DUP3 ADD SWAP1 POP SWAP2 SWAP1 POP JUMP JUMPDEST PUSH1 0x0 PUSH1 0x20 DUP3 ADD SWAP1 POP DUP2 DUP2 SUB PUSH1 0x0 DUP4 ADD MSTORE PUSH3 0x1271 DUP2 PUSH3 0x122F JUMP JUMPDEST SWAP1 POP SWAP2 SWAP1 POP JUMP INVALID PUSH1 0x80 PUSH1 0x40 MSTORE CALLVALUE DUP1 ISZERO PUSH2 0x10 JUMPI PUSH1 0x0 DUP1 REVERT JUMPDEST POP PUSH2 0x1B1 DUP1 PUSH2 0x20 PUSH1 0x0 CODECOPY PUSH1 0x0 RETURN INVALID PUSH1 0x80 PUSH1 0x40 MSTORE CALLVALUE DUP1 ISZERO PUSH2 0x10 JUMPI PUSH1 0x0 DUP1 REVERT JUMPDEST POP PUSH1 0x4 CALLDATASIZE LT PUSH2 0x2B JUMPI PUSH1 0x0 CALLDATALOAD PUSH1 0xE0 SHR DUP1 PUSH4 0xA391C15B EQ PUSH2 0x30 JUMPI JUMPDEST PUSH1 0x0 DUP1 REVERT JUMPDEST PUSH2 0x4A PUSH1 0x4 DUP1 CALLDATASIZE SUB DUP2 ADD SWAP1 PUSH2 0x45 SWAP2 SWAP1 PUSH2 0xB1 JUMP JUMPDEST PUSH2 0x60 JUMP JUMPDEST PUSH1 0x40 MLOAD PUSH2 0x57 SWAP2 SWAP1 PUSH2 0x100 JUMP JUMPDEST PUSH1 0x40 MLOAD DUP1 SWAP2 SUB SWAP1 RETURN JUMPDEST PUSH1 0x0 DUP2 DUP4 PUSH2 0x6E SWAP2 SWAP1 PUSH2 0x14A JUMP JUMPDEST SWAP1 POP SWAP3 SWAP2 POP POP JUMP JUMPDEST PUSH1 0x0 DUP1 REVERT JUMPDEST PUSH1 0x0 DUP2 SWAP1 POP SWAP2 SWAP1 POP JUMP JUMPDEST PUSH2 0x8E DUP2 PUSH2 0x7B JUMP JUMPDEST DUP2 EQ PUSH2 0x99 JUMPI PUSH1 0x0 DUP1 REVERT JUMPDEST POP JUMP JUMPDEST PUSH1 0x0 DUP2 CALLDATALOAD SWAP1 POP PUSH2 0xAB DUP2 PUSH2 0x85 JUMP JUMPDEST SWAP3 SWAP2 POP POP JUMP JUMPDEST PUSH1 0x0 DUP1 PUSH1 0x40 DUP4 DUP6 SUB SLT ISZERO PUSH2 0xC8 JUMPI PUSH2 0xC7 PUSH2 0x76 JUMP JUMPDEST JUMPDEST PUSH1 0x0 PUSH2 0xD6 DUP6 DUP3 DUP7 ADD PUSH2 0x9C JUMP JUMPDEST SWAP3 POP POP PUSH1 0x20 PUSH2 0xE7 DUP6 DUP3 DUP7 ADD PUSH2 0x9C JUMP JUMPDEST SWAP2 POP POP SWAP3 POP SWAP3 SWAP1 POP JUMP JUMPDEST PUSH2 0xFA DUP2 PUSH2 0x7B JUMP JUMPDEST DUP3 MSTORE POP POP JUMP JUMPDEST PUSH1 0x0 PUSH1 0x20 DUP3 ADD SWAP1 POP PUSH2 0x115 PUSH1 0x0 DUP4 ADD DUP5 PUSH2 0xF1 JUMP JUMPDEST SWAP3 SWAP2 POP POP JUMP JUMPDEST PUSH32 0x4E487B7100000000000000000000000000000000000000000000000000000000 PUSH1 0x0 MSTORE PUSH1 0x12 PUSH1 0x4 MSTORE PUSH1 0x24 PUSH1 0x0 REVERT JUMPDEST PUSH1 0x0 PUSH2 0x155 DUP3 PUSH2 0x7B JUMP JUMPDEST SWAP2 POP PUSH2 0x160 DUP4 PUSH2 0x7B JUMP JUMPDEST SWAP3 POP DUP3 PUSH2 0x170 JUMPI PUSH2 0x16F PUSH2 0x11B JUMP JUMPDEST JUMPDEST DUP3 DUP3 DIV SWAP1 POP SWAP3 SWAP2 POP POP JUMP INVALID LOG2 PUSH5 0x6970667358 0x22 SLT KECCAK256 RETURNDATASIZE EXTCODECOPY 0xDE RETURN 0xDF DIV DUP15 SHR 0xF6 EXTCODECOPY 0xB3 DUP10 SHL SDIV 0xC0 PUSH13 0x1B7C696F4D6EC41DAFDD764075 SWAP9 0xA9 0xD2 PUSH5 0x736F6C6343 STOP ADDMOD SLT STOP CALLER PUSH1 0x80 PUSH1 0x40 MSTORE CALLVALUE DUP1 ISZERO PUSH2 0x10 JUMPI PUSH1 0x0 DUP1 REVERT JUMPDEST POP PUSH2 0x1C2 DUP1 PUSH2 0x20 PUSH1 0x0 CODECOPY PUSH1 0x0 RETURN INVALID PUSH1 0x80 PUSH1 0x40 MSTORE CALLVALUE DUP1 ISZERO PUSH2 0x10 JUMPI PUSH1 0x0 DUP1 REVERT JUMPDEST POP PUSH1 0x4 CALLDATASIZE LT PUSH2 0x2B JUMPI PUSH1 0x0 CALLDATALOAD PUSH1 0xE0 SHR DUP1 PUSH4 0xC8A4AC9C EQ PUSH2 0x30 JUMPI JUMPDEST PUSH1 0x0 DUP1 REVERT JUMPDEST PUSH2 0x4A PUSH1 0x4 DUP1 CALLDATASIZE SUB DUP2 ADD SWAP1 PUSH2 0x45 SWAP2 SWAP1 PUSH2 0xB1 JUMP JUMPDEST PUSH2 0x60 JUMP JUMPDEST PUSH1 0x40 MLOAD PUSH2 0x57 SWAP2 SWAP1 PUSH2 0x100 JUMP JUMPDEST PUSH1 0x40 MLOAD DUP1 SWAP2 SUB SWAP1 RETURN JUMPDEST PUSH1 0x0 DUP2 DUP4 PUSH2 0x6E SWAP2 SWAP1 PUSH2 0x14A JUMP JUMPDEST SWAP1 POP SWAP3 SWAP2 POP POP JUMP JUMPDEST PUSH1 0x0 DUP1 REVERT JUMPDEST PUSH1 0x0 DUP2 SWAP1 POP SWAP2 SWAP1 POP JUMP JUMPDEST PUSH2 0x8E DUP2 PUSH2 0x7B JUMP JUMPDEST DUP2 EQ PUSH2 0x99 JUMPI PUSH1 0x0 DUP1 REVERT JUMPDEST POP JUMP JUMPDEST PUSH1 0x0 DUP2 CALLDATALOAD SWAP1 POP PUSH2 0xAB DUP2 PUSH2 0x85 JUMP JUMPDEST SWAP3 SWAP2 POP POP JUMP JUMPDEST PUSH1 0x0 DUP1 PUSH1 0x40 DUP4 DUP6 SUB SLT ISZERO PUSH2 0xC8 JUMPI PUSH2 0xC7 PUSH2 0x76 JUMP JUMPDEST JUMPDEST PUSH1 0x0 PUSH2 0xD6 DUP6 DUP3 DUP7 ADD PUSH2 0x9C JUMP JUMPDEST SWAP3 POP POP PUSH1 0x20 PUSH2 0xE7 DUP6 DUP3 DUP7 ADD PUSH2 0x9C JUMP JUMPDEST SWAP2 POP POP SWAP3 POP SWAP3 SWAP1 POP JUMP JUMPDEST PUSH2 0xFA DUP2 PUSH2 0x7B JUMP JUMPDEST DUP3 MSTORE POP POP JUMP JUMPDEST PUSH1 0x0 PUSH1 0x20 DUP3 ADD SWAP1 POP PUSH2 0x115 PUSH1 0x0 DUP4 ADD DUP5 PUSH2 0xF1 JUMP JUMPDEST SWAP3 SWAP2 POP POP JUMP JUMPDEST PUSH32 0x4E487B7100000000000000000000000000000000000000000000000000000000 PUSH1 0x0 MSTORE PUSH1 0x11 PUSH1 0x4 MSTORE PUSH1 0x24 PUSH1 0x0 REVERT JUMPDEST PUSH1 0x0 PUSH2 0x155 DUP3 PUSH2 0x7B JUMP JUMPDEST SWAP2 POP PUSH2 0x160 DUP4 PUSH2 0x7B JUMP JUMPDEST SWAP3 POP DUP3 DUP3 MUL PUSH2 0x16E DUP2 PUSH2 0x7B JUMP JUMPDEST SWAP2 POP DUP3 DUP3 DIV DUP5 EQ DUP4 ISZERO OR PUSH2 0x185 JUMPI PUSH2 0x184 PUSH2 0x11B JUMP JUMPDEST JUMPDEST POP SWAP3 SWAP2 POP POP JUMP INVALID LOG2 PUSH5 0x6970667358 0x22 SLT KECCAK256 PUSH1 0x93 0x28 0xC1 0x25 0x29 0xA6 0xE3 PUSH10 0x7A090A92F458B9B818CF 0xD BYTE 0x2D CALLVALUE 0xB8 REVERT PUSH1 0xB3 0xA5 DUP7 ADDRESS XOR 0x25 PUSH5 0x736F6C6343 STOP ADDMOD SLT STOP CALLER PUSH1 0xA0 PUSH1 0x40 MSTORE CALLVALUE DUP1 ISZERO PUSH2 0x10 JUMPI PUSH1 0x0 DUP1 REVERT JUMPDEST POP CALLER PUSH20 0xFFFFFFFFFFFFFFFFFFFFFFFFFFFFFFFFFFFFFFFF AND PUSH1 0x80 DUP2 PUSH20 0xFFFFFFFFFFFFFFFFFFFFFFFFFFFFFFFFFFFFFFFF AND DUP2 MSTORE POP POP PUSH1 0x80 MLOAD PUSH2 0x39B PUSH2 0x5F PUSH1 0x0 CODECOPY PUSH1 0x0 PUSH1 0x80 ADD MSTORE PUSH2 0x39B PUSH1 0x0 RETURN INVALID PUSH1 0x80 PUSH1 0x40 MSTORE CALLVALUE DUP1 ISZERO PUSH2 0x10 JUMPI PUSH1 0x0 DUP1 REVERT JUMPDEST POP PUSH1 0x4 CALLDATASIZE LT PUSH2 0x36 JUMPI PUSH1 0x0 CALLDATALOAD PUSH1 0xE0 SHR DUP1 PUSH4 0x919840AD EQ PUSH2 0x3B JUMPI DUP1 PUSH4 0xCACA46F7 EQ PUSH2 0x59 JUMPI JUMPDEST PUSH1 0x0 DUP1 REVERT JUMPDEST PUSH2 0x43 PUSH2 0x75 JUMP JUMPDEST PUSH1 0x40 MLOAD PUSH2 0x50 SWAP2 SWAP1 PUSH2 0x175 JUMP JUMPDEST PUSH1 0x40 MLOAD DUP1 SWAP2 SUB SWAP1 RETURN JUMPDEST PUSH2 0x73 PUSH1 0x4 DUP1 CALLDATASIZE SUB DUP2 ADD SWAP1 PUSH2 0x6E SWAP2 SWAP1 PUSH2 0x289 JUMP JUMPDEST PUSH2 0x7E JUMP JUMPDEST STOP JUMPDEST PUSH1 0x0 PUSH1 0x1 SWAP1 POP SWAP1 JUMP JUMPDEST PUSH32 0x0 PUSH20 0xFFFFFFFFFFFFFFFFFFFFFFFFFFFFFFFFFFFFFFFF AND CALLER PUSH20 0xFFFFFFFFFFFFFFFFFFFFFFFFFFFFFFFFFFFFFFFF AND EQ PUSH2 0xD6 JUMPI PUSH1 0x0 DUP1 REVERT JUMPDEST DUP3 PUSH20 0xFFFFFFFFFFFFFFFFFFFFFFFFFFFFFFFFFFFFFFFF AND PUSH4 0x997B81C9 DUP4 DUP4 PUSH1 0x40 MLOAD DUP4 PUSH4 0xFFFFFFFF AND PUSH1 0xE0 SHL DUP2 MSTORE PUSH1 0x4 ADD PUSH2 0x111 SWAP3 SWAP2 SWAP1 PUSH2 0x2FA JUMP JUMPDEST PUSH1 0x20 PUSH1 0x40 MLOAD DUP1 DUP4 SUB DUP2 PUSH1 0x0 DUP8 GAS CALL ISZERO DUP1 ISZERO PUSH2 0x130 JUMPI RETURNDATASIZE PUSH1 0x0 DUP1 RETURNDATACOPY RETURNDATASIZE PUSH1 0x0 REVERT JUMPDEST POP POP POP POP PUSH1 0x40 MLOAD RETURNDATASIZE PUSH1 0x1F NOT PUSH1 0x1F DUP3 ADD AND DUP3 ADD DUP1 PUSH1 0x40 MSTORE POP DUP2 ADD SWAP1 PUSH2 0x154 SWAP2 SWAP1 PUSH2 0x338 JUMP JUMPDEST POP POP POP POP JUMP JUMPDEST PUSH1 0x0 DUP2 ISZERO ISZERO SWAP1 POP SWAP2 SWAP1 POP JUMP JUMPDEST PUSH2 0x16F DUP2 PUSH2 0x15A JUMP JUMPDEST DUP3 MSTORE POP POP JUMP JUMPDEST PUSH1 0x0 PUSH1 0x20 DUP3 ADD SWAP1 POP PUSH2 0x18A PUSH1 0x0 DUP4 ADD DUP5 PUSH2 0x166 JUMP JUMPDEST SWAP3 SWAP2 POP POP JUMP JUMPDEST PUSH1 0x0 DUP1 REVERT JUMPDEST PUSH1 0x0 PUSH20 0xFFFFFFFFFFFFFFFFFFFFFFFFFFFFFFFFFFFFFFFF DUP3 AND SWAP1 POP SWAP2 SWAP1 POP JUMP JUMPDEST PUSH1 0x0 PUSH2 0x1C0 DUP3 PUSH2 0x195 JUMP JUMPDEST SWAP1 POP SWAP2 SWAP1 POP JUMP JUMPDEST PUSH1 0x0 PUSH2 0x1D2 DUP3 PUSH2 0x1B5 JUMP JUMPDEST SWAP1 POP SWAP2 SWAP1 POP JUMP JUMPDEST PUSH2 0x1E2 DUP2 PUSH2 0x1C7 JUMP JUMPDEST DUP2 EQ PUSH2 0x1ED JUMPI PUSH1 0x0 DUP1 REVERT JUMPDEST POP JUMP JUMPDEST PUSH1 0x0 DUP2 CALLDATALOAD SWAP1 POP PUSH2 0x1FF DUP2 PUSH2 0x1D9 JUMP JUMPDEST SWAP3 SWAP2 POP POP JUMP JUMPDEST PUSH1 0x0 PUSH32 0xFFFFFFFF00000000000000000000000000000000000000000000000000000000 DUP3 AND SWAP1 POP SWAP2 SWAP1 POP JUMP JUMPDEST PUSH2 0x23A DUP2 PUSH2 0x205 JUMP JUMPDEST DUP2 EQ PUSH2 0x245 JUMPI PUSH1 0x0 DUP1 REVERT JUMPDEST POP JUMP JUMPDEST PUSH1 0x0 DUP2 CALLDATALOAD SWAP1 POP PUSH2 0x257 DUP2 PUSH2 0x231 JUMP JUMPDEST SWAP3 SWAP2 POP POP JUMP JUMPDEST PUSH2 0x266 DUP2 PUSH2 0x1B5 JUMP JUMPDEST DUP2 EQ PUSH2 0x271 JUMPI PUSH1 0x0 DUP1 REVERT JUMPDEST POP JUMP JUMPDEST PUSH1 0x0 DUP2 CALLDATALOAD SWAP1 POP PUSH2 0x283 DUP2 PUSH2 0x25D JUMP JUMPDEST SWAP3 SWAP2 POP POP JUMP JUMPDEST PUSH1 0x0 DUP1 PUSH1 0x0 PUSH1 0x60 DUP5 DUP7 SUB SLT ISZERO PUSH2 0x2A2 JUMPI PUSH2 0x2A1 PUSH2 0x190 JUMP JUMPDEST JUMPDEST PUSH1 0x0 PUSH2 0x2B0 DUP7 DUP3 DUP8 ADD PUSH2 0x1F0 JUMP JUMPDEST SWAP4 POP POP PUSH1 0x20 PUSH2 0x2C1 DUP7 DUP3 DUP8 ADD PUSH2 0x248 JUMP JUMPDEST SWAP3 POP POP PUSH1 0x40 PUSH2 0x2D2 DUP7 DUP3 DUP8 ADD PUSH2 0x274 JUMP JUMPDEST SWAP2 POP POP SWAP3 POP SWAP3 POP SWAP3 JUMP JUMPDEST PUSH2 0x2E5 DUP2 PUSH2 0x205 JUMP JUMPDEST DUP3 MSTORE POP POP JUMP JUMPDEST PUSH2 0x2F4 DUP2 PUSH2 0x1B5 JUMP JUMPDEST DUP3 MSTORE POP POP JUMP JUMPDEST PUSH1 0x0 PUSH1 0x40 DUP3 ADD SWAP1 POP PUSH2 0x30F PUSH1 0x0 DUP4 ADD DUP6 PUSH2 0x2DC JUMP JUMPDEST PUSH2 0x31C PUSH1 0x20 DUP4 ADD DUP5 PUSH2 0x2EB JUMP JUMPDEST SWAP4 SWAP3 POP POP POP JUMP JUMPDEST PUSH1 0x0 DUP2 MLOAD SWAP1 POP PUSH2 0x332 DUP2 PUSH2 0x25D JUMP JUMPDEST SWAP3 SWAP2 POP POP JUMP JUMPDEST PUSH1 0x0 PUSH1 0x20 DUP3 DUP5 SUB SLT ISZERO PUSH2 0x34E JUMPI PUSH2 0x34D PUSH2 0x190 JUMP JUMPDEST JUMPDEST PUSH1 0x0 PUSH2 0x35C DUP5 DUP3 DUP6 ADD PUSH2 0x323 JUMP JUMPDEST SWAP2 POP POP SWAP3 SWAP2 POP POP JUMP INVALID LOG2 PUSH5 0x6970667358 0x22 SLT KECCAK256 CODESIZE SHR 0xEB 0x4A SDIV 0xC3 SWAP6 ADDRESS 0xCC 0x2D 0x23 CODESIZE DELEGATECALL PUSH24 0x9F7ECB130DA889C2BB3CCA8AA6D256BBF73C64736F6C6343 STOP ADDMOD SLT STOP CALLER PUSH1 0x80 PUSH1 0x40 MSTORE CALLVALUE DUP1 ISZERO PUSH3 0x11 JUMPI PUSH1 0x0 DUP1 REVERT JUMPDEST POP PUSH1 0x40 MLOAD PUSH3 0xA22 CODESIZE SUB DUP1 PUSH3 0xA22 DUP4 CODECOPY DUP2 DUP2 ADD PUSH1 0x40 MSTORE DUP2 ADD SWAP1 PUSH3 0x37 SWAP2 SWAP1 PUSH3 0x2C4 JUMP JUMPDEST PUSH1 0x0 JUMPDEST DUP2 MLOAD DUP2 LT ISZERO PUSH3 0xCE JUMPI PUSH1 0x1 DUP1 PUSH1 0x0 DUP5 DUP5 DUP2 MLOAD DUP2 LT PUSH3 0x5F JUMPI PUSH3 0x5E PUSH3 0x315 JUMP JUMPDEST JUMPDEST PUSH1 0x20 MUL PUSH1 0x20 ADD ADD MLOAD PUSH20 0xFFFFFFFFFFFFFFFFFFFFFFFFFFFFFFFFFFFFFFFF AND PUSH20 0xFFFFFFFFFFFFFFFFFFFFFFFFFFFFFFFFFFFFFFFF AND DUP2 MSTORE PUSH1 0x20 ADD SWAP1 DUP2 MSTORE PUSH1 0x20 ADD PUSH1 0x0 KECCAK256 PUSH1 0x0 PUSH2 0x100 EXP DUP2 SLOAD DUP2 PUSH1 0xFF MUL NOT AND SWAP1 DUP4 ISZERO ISZERO MUL OR SWAP1 SSTORE POP DUP1 DUP1 PUSH3 0xC5 SWAP1 PUSH3 0x37D JUMP JUMPDEST SWAP2 POP POP PUSH3 0x3A JUMP JUMPDEST POP POP PUSH3 0x3CA JUMP JUMPDEST PUSH1 0x0 PUSH1 0x40 MLOAD SWAP1 POP SWAP1 JUMP JUMPDEST PUSH1 0x0 DUP1 REVERT JUMPDEST PUSH1 0x0 DUP1 REVERT JUMPDEST PUSH1 0x0 DUP1 REVERT JUMPDEST PUSH1 0x0 PUSH1 0x1F NOT PUSH1 0x1F DUP4 ADD AND SWAP1 POP SWAP2 SWAP1 POP JUMP JUMPDEST PUSH32 0x4E487B7100000000000000000000000000000000000000000000000000000000 PUSH1 0x0 MSTORE PUSH1 0x41 PUSH1 0x4 MSTORE PUSH1 0x24 PUSH1 0x0 REVERT JUMPDEST PUSH3 0x13A DUP3 PUSH3 0xEF JUMP JUMPDEST DUP2 ADD DUP2 DUP2 LT PUSH8 0xFFFFFFFFFFFFFFFF DUP3 GT OR ISZERO PUSH3 0x15C JUMPI PUSH3 0x15B PUSH3 0x100 JUMP JUMPDEST JUMPDEST DUP1 PUSH1 0x40 MSTORE POP POP POP JUMP JUMPDEST PUSH1 0x0 PUSH3 0x171 PUSH3 0xD6 JUMP JUMPDEST SWAP1 POP PUSH3 0x17F DUP3 DUP3 PUSH3 0x12F JUMP JUMPDEST SWAP2 SWAP1 POP JUMP JUMPDEST PUSH1 0x0 PUSH8 0xFFFFFFFFFFFFFFFF DUP3 GT ISZERO PUSH3 0x1A2 JUMPI PUSH3 0x1A1 PUSH3 0x100 JUMP JUMPDEST JUMPDEST PUSH1 0x20 DUP3 MUL SWAP1 POP PUSH1 0x20 DUP2 ADD SWAP1 POP SWAP2 SWAP1 POP JUMP JUMPDEST PUSH1 0x0 DUP1 REVERT JUMPDEST PUSH1 0x0 PUSH20 0xFFFFFFFFFFFFFFFFFFFFFFFFFFFFFFFFFFFFFFFF DUP3 AND SWAP1 POP SWAP2 SWAP1 POP JUMP JUMPDEST PUSH1 0x0 PUSH3 0x1E5 DUP3 PUSH3 0x1B8 JUMP JUMPDEST SWAP1 POP SWAP2 SWAP1 POP JUMP JUMPDEST PUSH3 0x1F7 DUP2 PUSH3 0x1D8 JUMP JUMPDEST DUP2 EQ PUSH3 0x203 JUMPI PUSH1 0x0 DUP1 REVERT JUMPDEST POP JUMP JUMPDEST PUSH1 0x0 DUP2 MLOAD SWAP1 POP PUSH3 0x217 DUP2 PUSH3 0x1EC JUMP JUMPDEST SWAP3 SWAP2 POP POP JUMP JUMPDEST PUSH1 0x0 PUSH3 0x234 PUSH3 0x22E DUP5 PUSH3 0x184 JUMP JUMPDEST PUSH3 0x165 JUMP JUMPDEST SWAP1 POP DUP1 DUP4 DUP3 MSTORE PUSH1 0x20 DUP3 ADD SWAP1 POP PUSH1 0x20 DUP5 MUL DUP4 ADD DUP6 DUP2 GT ISZERO PUSH3 0x25A JUMPI PUSH3 0x259 PUSH3 0x1B3 JUMP JUMPDEST JUMPDEST DUP4 JUMPDEST DUP2 DUP2 LT ISZERO PUSH3 0x287 JUMPI DUP1 PUSH3 0x272 DUP9 DUP3 PUSH3 0x206 JUMP JUMPDEST DUP5 MSTORE PUSH1 0x20 DUP5 ADD SWAP4 POP POP PUSH1 0x20 DUP2 ADD SWAP1 POP PUSH3 0x25C JUMP JUMPDEST POP POP POP SWAP4 SWAP3 POP POP POP JUMP JUMPDEST PUSH1 0x0 DUP3 PUSH1 0x1F DUP4 ADD SLT PUSH3 0x2A9 JUMPI PUSH3 0x2A8 PUSH3 0xEA JUMP JUMPDEST JUMPDEST DUP2 MLOAD PUSH3 0x2BB DUP5 DUP3 PUSH1 0x20 DUP7 ADD PUSH3 0x21D JUMP JUMPDEST SWAP2 POP POP SWAP3 SWAP2 POP POP JUMP JUMPDEST PUSH1 0x0 PUSH1 0x20 DUP3 DUP5 SUB SLT ISZERO PUSH3 0x2DD JUMPI PUSH3 0x2DC PUSH3 0xE0 JUMP JUMPDEST JUMPDEST PUSH1 0x0 DUP3 ADD MLOAD PUSH8 0xFFFFFFFFFFFFFFFF DUP2 GT ISZERO PUSH3 0x2FE JUMPI PUSH3 0x2FD PUSH3 0xE5 JUMP JUMPDEST JUMPDEST PUSH3 0x30C DUP5 DUP3 DUP6 ADD PUSH3 0x291 JUMP JUMPDEST SWAP2 POP POP SWAP3 SWAP2 POP POP JUMP JUMPDEST PUSH32 0x4E487B7100000000000000000000000000000000000000000000000000000000 PUSH1 0x0 MSTORE PUSH1 0x32 PUSH1 0x4 MSTORE PUSH1 0x24 PUSH1 0x0 REVERT JUMPDEST PUSH32 0x4E487B7100000000000000000000000000000000000000000000000000000000 PUSH1 0x0 MSTORE PUSH1 0x11 PUSH1 0x4 MSTORE PUSH1 0x24 PUSH1 0x0 REVERT JUMPDEST PUSH1 0x0 DUP2 SWAP1 POP SWAP2 SWAP1 POP JUMP JUMPDEST PUSH1 0x0 PUSH3 0x38A DUP3 PUSH3 0x373 JUMP JUMPDEST SWAP2 POP PUSH32 0xFFFFFFFFFFFFFFFFFFFFFFFFFFFFFFFFFFFFFFFFFFFFFFFFFFFFFFFFFFFFFFFF DUP3 SUB PUSH3 0x3BF JUMPI PUSH3 0x3BE PUSH3 0x344 JUMP JUMPDEST JUMPDEST PUSH1 0x1 DUP3 ADD SWAP1 POP SWAP2 SWAP1 POP JUMP JUMPDEST PUSH2 0x648 DUP1 PUSH3 0x3DA PUSH1 0x0 CODECOPY PUSH1 0x0 RETURN INVALID PUSH1 0x80 PUSH1 0x40 MSTORE PUSH1 0x4 CALLDATASIZE LT PUSH2 0x34 JUMPI PUSH1 0x0 CALLDATALOAD PUSH1 0xE0 SHR DUP1 PUSH4 0x24D7806C EQ PUSH2 0x39 JUMPI DUP1 PUSH4 0x5C60DA1B EQ PUSH2 0x76 JUMPI DUP1 PUSH4 0x997B81C9 EQ PUSH2 0xA1 JUMPI JUMPDEST PUSH1 0x0 DUP1 REVERT JUMPDEST CALLVALUE DUP1 ISZERO PUSH2 0x45 JUMPI PUSH1 0x0 DUP1 REVERT JUMPDEST POP PUSH2 0x60 PUSH1 0x4 DUP1 CALLDATASIZE SUB DUP2 ADD SWAP1 PUSH2 0x5B SWAP2 SWAP1 PUSH2 0x356 JUMP JUMPDEST PUSH2 0xD1 JUMP JUMPDEST PUSH1 0x40 MLOAD PUSH2 0x6D SWAP2 SWAP1 PUSH2 0x39E JUMP JUMPDEST PUSH1 0x40 MLOAD DUP1 SWAP2 SUB SWAP1 RETURN JUMPDEST CALLVALUE DUP1 ISZERO PUSH2 0x82 JUMPI PUSH1 0x0 DUP1 REVERT JUMPDEST POP PUSH2 0x8B PUSH2 0xF1 JUMP JUMPDEST PUSH1 0x40 MLOAD PUSH2 0x98 SWAP2 SWAP1 PUSH2 0x3C8 JUMP JUMPDEST PUSH1 0x40 MLOAD DUP1 SWAP2 SUB SWAP1 RETURN JUMPDEST PUSH2 0xBB PUSH1 0x4 DUP1 CALLDATASIZE SUB DUP2 ADD SWAP1 PUSH2 0xB6 SWAP2 SWAP1 PUSH2 0x43B JUMP JUMPDEST PUSH2 0x115 JUMP JUMPDEST PUSH1 0x40 MLOAD PUSH2 0xC8 SWAP2 SWAP1 PUSH2 0x3C8 JUMP JUMPDEST PUSH1 0x40 MLOAD DUP1 SWAP2 SUB SWAP1 RETURN JUMPDEST PUSH1 0x1 PUSH1 0x20 MSTORE DUP1 PUSH1 0x0 MSTORE PUSH1 0x40 PUSH1 0x0 KECCAK256 PUSH1 0x0 SWAP2 POP SLOAD SWAP1 PUSH2 0x100 EXP SWAP1 DIV PUSH1 0xFF AND DUP2 JUMP JUMPDEST PUSH1 0x0 DUP1 SLOAD SWAP1 PUSH2 0x100 EXP SWAP1 DIV PUSH20 0xFFFFFFFFFFFFFFFFFFFFFFFFFFFFFFFFFFFFFFFF AND DUP2 JUMP JUMPDEST PUSH1 0x0 PUSH2 0x11F PUSH2 0x258 JUMP JUMPDEST DUP2 PUSH1 0x0 DUP1 PUSH2 0x100 EXP DUP2 SLOAD DUP2 PUSH20 0xFFFFFFFFFFFFFFFFFFFFFFFFFFFFFFFFFFFFFFFF MUL NOT AND SWAP1 DUP4 PUSH20 0xFFFFFFFFFFFFFFFFFFFFFFFFFFFFFFFFFFFFFFFF AND MUL OR SWAP1 SSTORE POP PUSH1 0x0 DUP4 PUSH28 0xFFFFFFFFFFFFFFFFFFFFFFFFFFFFFFFFFFFFFFFFFFFFFFFFFFFFFFFF NOT AND SWAP1 POP DUP1 CALLVALUE PUSH1 0x40 MLOAD PUSH2 0x191 SWAP1 PUSH2 0x2E6 JUMP JUMPDEST DUP3 SWAP1 PUSH1 0x40 MLOAD DUP1 SWAP2 SUB SWAP1 DUP4 CREATE2 SWAP1 POP SWAP1 POP DUP1 ISZERO DUP1 ISZERO PUSH2 0x1B2 JUMPI RETURNDATASIZE PUSH1 0x0 DUP1 RETURNDATACOPY RETURNDATASIZE PUSH1 0x0 REVERT JUMPDEST POP SWAP2 POP PUSH1 0x0 PUSH20 0xFFFFFFFFFFFFFFFFFFFFFFFFFFFFFFFFFFFFFFFF AND DUP3 PUSH20 0xFFFFFFFFFFFFFFFFFFFFFFFFFFFFFFFFFFFFFFFF AND SUB PUSH2 0x1EE JUMPI PUSH1 0x0 DUP1 REVERT JUMPDEST DUP3 PUSH20 0xFFFFFFFFFFFFFFFFFFFFFFFFFFFFFFFFFFFFFFFF AND DUP5 PUSH28 0xFFFFFFFFFFFFFFFFFFFFFFFFFFFFFFFFFFFFFFFFFFFFFFFFFFFFFFFF NOT AND PUSH32 0x37D0DE5BDA26E6D2E72C27EC220F13259DA66955718F6407D2B3F6EE4091B1E5 PUSH1 0x40 MLOAD PUSH1 0x40 MLOAD DUP1 SWAP2 SUB SWAP1 LOG3 POP SWAP3 SWAP2 POP POP JUMP JUMPDEST PUSH1 0x1 PUSH1 0x0 CALLER PUSH20 0xFFFFFFFFFFFFFFFFFFFFFFFFFFFFFFFFFFFFFFFF AND PUSH20 0xFFFFFFFFFFFFFFFFFFFFFFFFFFFFFFFFFFFFFFFF AND DUP2 MSTORE PUSH1 0x20 ADD SWAP1 DUP2 MSTORE PUSH1 0x20 ADD PUSH1 0x0 KECCAK256 PUSH1 0x0 SWAP1 SLOAD SWAP1 PUSH2 0x100 EXP SWAP1 DIV PUSH1 0xFF AND PUSH2 0x2E4 JUMPI PUSH1 0x40 MLOAD PUSH32 0x8C379A000000000000000000000000000000000000000000000000000000000 DUP2 MSTORE PUSH1 0x4 ADD PUSH2 0x2DB SWAP1 PUSH2 0x4D8 JUMP JUMPDEST PUSH1 0x40 MLOAD DUP1 SWAP2 SUB SWAP1 REVERT JUMPDEST JUMP JUMPDEST PUSH2 0x11A DUP1 PUSH2 0x4F9 DUP4 CODECOPY ADD SWAP1 JUMP JUMPDEST PUSH1 0x0 DUP1 REVERT JUMPDEST PUSH1 0x0 PUSH20 0xFFFFFFFFFFFFFFFFFFFFFFFFFFFFFFFFFFFFFFFF DUP3 AND SWAP1 POP SWAP2 SWAP1 POP JUMP JUMPDEST PUSH1 0x0 PUSH2 0x323 DUP3 PUSH2 0x2F8 JUMP JUMPDEST SWAP1 POP SWAP2 SWAP1 POP JUMP JUMPDEST PUSH2 0x333 DUP2 PUSH2 0x318 JUMP JUMPDEST DUP2 EQ PUSH2 0x33E JUMPI PUSH1 0x0 DUP1 REVERT JUMPDEST POP JUMP JUMPDEST PUSH1 0x0 DUP2 CALLDATALOAD SWAP1 POP PUSH2 0x350 DUP2 PUSH2 0x32A JUMP JUMPDEST SWAP3 SWAP2 POP POP JUMP JUMPDEST PUSH1 0x0 PUSH1 0x20 DUP3 DUP5 SUB SLT ISZERO PUSH2 0x36C JUMPI PUSH2 0x36B PUSH2 0x2F3 JUMP JUMPDEST JUMPDEST PUSH1 0x0 PUSH2 0x37A DUP5 DUP3 DUP6 ADD PUSH2 0x341 JUMP JUMPDEST SWAP2 POP POP SWAP3 SWAP2 POP POP JUMP JUMPDEST PUSH1 0x0 DUP2 ISZERO ISZERO SWAP1 POP SWAP2 SWAP1 POP JUMP JUMPDEST PUSH2 0x398 DUP2 PUSH2 0x383 JUMP JUMPDEST DUP3 MSTORE POP POP JUMP JUMPDEST PUSH1 0x0 PUSH1 0x20 DUP3 ADD SWAP1 POP PUSH2 0x3B3 PUSH1 0x0 DUP4 ADD DUP5 PUSH2 0x38F JUMP JUMPDEST SWAP3 SWAP2 POP POP JUMP JUMPDEST PUSH2 0x3C2 DUP2 PUSH2 0x318 JUMP JUMPDEST DUP3 MSTORE POP POP JUMP JUMPDEST PUSH1 0x0 PUSH1 0x20 DUP3 ADD SWAP1 POP PUSH2 0x3DD PUSH1 0x0 DUP4 ADD DUP5 PUSH2 0x3B9 JUMP JUMPDEST SWAP3 SWAP2 POP POP JUMP JUMPDEST PUSH1 0x0 PUSH32 0xFFFFFFFF00000000000000000000000000000000000000000000000000000000 DUP3 AND SWAP1 POP SWAP2 SWAP1 POP JUMP JUMPDEST PUSH2 0x418 DUP2 PUSH2 0x3E3 JUMP JUMPDEST DUP2 EQ PUSH2 0x423 JUMPI PUSH1 0x0 DUP1 REVERT JUMPDEST POP JUMP JUMPDEST PUSH1 0x0 DUP2 CALLDATALOAD SWAP1 POP PUSH2 0x435 DUP2 PUSH2 0x40F JUMP JUMPDEST SWAP3 SWAP2 POP POP JUMP JUMPDEST PUSH1 0x0 DUP1 PUSH1 0x40 DUP4 DUP6 SUB SLT ISZERO PUSH2 0x452 JUMPI PUSH2 0x451 PUSH2 0x2F3 JUMP JUMPDEST JUMPDEST PUSH1 0x0 PUSH2 0x460 DUP6 DUP3 DUP7 ADD PUSH2 0x426 JUMP JUMPDEST SWAP3 POP POP PUSH1 0x20 PUSH2 0x471 DUP6 DUP3 DUP7 ADD PUSH2 0x341 JUMP JUMPDEST SWAP2 POP POP SWAP3 POP SWAP3 SWAP1 POP JUMP JUMPDEST PUSH1 0x0 DUP3 DUP3 MSTORE PUSH1 0x20 DUP3 ADD SWAP1 POP SWAP3 SWAP2 POP POP JUMP JUMPDEST PUSH32 0x4973206E6F742061646D696E0000000000000000000000000000000000000000 PUSH1 0x0 DUP3 ADD MSTORE POP JUMP JUMPDEST PUSH1 0x0 PUSH2 0x4C2 PUSH1 0xC DUP4 PUSH2 0x47B JUMP JUMPDEST SWAP2 POP PUSH2 0x4CD DUP3 PUSH2 0x48C JUMP JUMPDEST PUSH1 0x20 DUP3 ADD SWAP1 POP SWAP2 SWAP1 POP JUMP JUMPDEST PUSH1 0x0 PUSH1 0x20 DUP3 ADD SWAP1 POP DUP2 DUP2 SUB PUSH1 0x0 DUP4 ADD MSTORE PUSH2 0x4F1 DUP2 PUSH2 0x4B5 JUMP JUMPDEST SWAP1 POP SWAP2 SWAP1 POP JUMP INVALID PUSH1 0x80 PUSH1 0x40 MSTORE PUSH1 0x0 CALLER SWAP1 POP PUSH1 0x0 DUP2 PUSH20 0xFFFFFFFFFFFFFFFFFFFFFFFFFFFFFFFFFFFFFFFF AND PUSH4 0x5C60DA1B PUSH1 0x40 MLOAD DUP2 PUSH4 0xFFFFFFFF AND PUSH1 0xE0 SHL DUP2 MSTORE PUSH1 0x4 ADD PUSH1 0x20 PUSH1 0x40 MLOAD DUP1 DUP4 SUB DUP2 DUP7 GAS STATICCALL ISZERO DUP1 ISZERO PUSH2 0x56 JUMPI RETURNDATASIZE PUSH1 0x0 DUP1 RETURNDATACOPY RETURNDATASIZE PUSH1 0x0 REVERT JUMPDEST POP POP POP POP PUSH1 0x40 MLOAD RETURNDATASIZE PUSH1 0x1F NOT PUSH1 0x1F DUP3 ADD AND DUP3 ADD DUP1 PUSH1 0x40 MSTORE POP DUP2 ADD SWAP1 PUSH2 0x7A SWAP2 SWAP1 PUSH2 0xEC JUMP JUMPDEST SWAP1 POP DUP1 EXTCODESIZE DUP1 PUSH1 0x0 DUP1 DUP5 EXTCODECOPY DUP1 PUSH1 0x0 RETURN JUMPDEST PUSH1 0x0 DUP1 REVERT JUMPDEST PUSH1 0x0 PUSH20 0xFFFFFFFFFFFFFFFFFFFFFFFFFFFFFFFFFFFFFFFF DUP3 AND SWAP1 POP SWAP2 SWAP1 POP JUMP JUMPDEST PUSH1 0x0 PUSH2 0xB9 DUP3 PUSH2 0x8E JUMP JUMPDEST SWAP1 POP SWAP2 SWAP1 POP JUMP JUMPDEST PUSH2 0xC9 DUP2 PUSH2 0xAE JUMP JUMPDEST DUP2 EQ PUSH2 0xD4 JUMPI PUSH1 0x0 DUP1 REVERT JUMPDEST POP JUMP JUMPDEST PUSH1 0x0 DUP2 MLOAD SWAP1 POP PUSH2 0xE6 DUP2 PUSH2 0xC0 JUMP JUMPDEST SWAP3 SWAP2 POP POP JUMP JUMPDEST PUSH1 0x0 PUSH1 0x20 DUP3 DUP5 SUB SLT ISZERO PUSH2 0x102 JUMPI PUSH2 0x101 PUSH2 0x89 JUMP JUMPDEST JUMPDEST PUSH1 0x0 PUSH2 0x110 DUP5 DUP3 DUP6 ADD PUSH2 0xD7 JUMP JUMPDEST SWAP2 POP POP SWAP3 SWAP2 POP POP JUMP INVALID LOG2 PUSH5 0x6970667358 0x22 SLT KECCAK256 0xC8 LOG2 DUP15 SDIV GAS DUP14 DUP11 PUSH26 0x5B1025984CD7F8ABF453B8E9C4EB773B9EFA02DF34D979576473 PUSH16 0x6C6343000812003360A0604052348015 PUSH2 0x10 JUMPI PUSH1 0x0 DUP1 REVERT JUMPDEST POP PUSH1 0x40 MLOAD PUSH2 0x51B CODESIZE SUB DUP1 PUSH2 0x51B DUP4 CODECOPY DUP2 DUP2 ADD PUSH1 0x40 MSTORE DUP2 ADD SWAP1 PUSH2 0x32 SWAP2 SWAP1 PUSH2 0xCF JUMP JUMPDEST DUP1 PUSH20 0xFFFFFFFFFFFFFFFFFFFFFFFFFFFFFFFFFFFFFFFF AND PUSH1 0x80 DUP2 PUSH20 0xFFFFFFFFFFFFFFFFFFFFFFFFFFFFFFFFFFFFFFFF AND DUP2 MSTORE POP POP POP PUSH2 0xFC JUMP JUMPDEST PUSH1 0x0 DUP1 REVERT JUMPDEST PUSH1 0x0 PUSH20 0xFFFFFFFFFFFFFFFFFFFFFFFFFFFFFFFFFFFFFFFF DUP3 AND SWAP1 POP SWAP2 SWAP1 POP JUMP JUMPDEST PUSH1 0x0 PUSH2 0x9C DUP3 PUSH2 0x71 JUMP JUMPDEST SWAP1 POP SWAP2 SWAP1 POP JUMP JUMPDEST PUSH2 0xAC DUP2 PUSH2 0x91 JUMP JUMPDEST DUP2 EQ PUSH2 0xB7 JUMPI PUSH1 0x0 DUP1 REVERT JUMPDEST POP JUMP JUMPDEST PUSH1 0x0 DUP2 MLOAD SWAP1 POP PUSH2 0xC9 DUP2 PUSH2 0xA3 JUMP JUMPDEST SWAP3 SWAP2 POP POP JUMP JUMPDEST PUSH1 0x0 PUSH1 0x20 DUP3 DUP5 SUB SLT ISZERO PUSH2 0xE5 JUMPI PUSH2 0xE4 PUSH2 0x6C JUMP JUMPDEST JUMPDEST PUSH1 0x0 PUSH2 0xF3 DUP5 DUP3 DUP6 ADD PUSH2 0xBA JUMP JUMPDEST SWAP2 POP POP SWAP3 SWAP2 POP POP JUMP JUMPDEST PUSH1 0x80 MLOAD PUSH2 0x405 PUSH2 0x116 PUSH1 0x0 CODECOPY PUSH1 0x0 PUSH1 0x83 ADD MSTORE PUSH2 0x405 PUSH1 0x0 RETURN INVALID PUSH1 0x80 PUSH1 0x40 MSTORE PUSH1 0x0 CALLDATASIZE PUSH1 0x60 PUSH1 0x0 DUP1 CALLDATALOAD PUSH32 0xFFFFFFFF00000000000000000000000000000000000000000000000000000000 AND SWAP1 POP PUSH1 0x0 PUSH2 0xA7 DUP3 PUSH28 0xFFFFFFFFFFFFFFFFFFFFFFFFFFFFFFFFFFFFFFFFFFFFFFFFFFFFFFFF NOT AND PUSH1 0x40 MLOAD DUP1 PUSH1 0x20 ADD PUSH2 0x66 SWAP1 PUSH2 0x19E JUMP JUMPDEST PUSH1 0x20 DUP3 ADD DUP2 SUB DUP3 MSTORE PUSH1 0x1F NOT PUSH1 0x1F DUP3 ADD AND PUSH1 0x40 MSTORE POP DUP1 MLOAD SWAP1 PUSH1 0x20 ADD KECCAK256 PUSH32 0x0 PUSH2 0x173 JUMP JUMPDEST SWAP1 POP PUSH1 0x0 DUP1 DUP3 PUSH20 0xFFFFFFFFFFFFFFFFFFFFFFFFFFFFFFFFFFFFFFFF AND PUSH1 0x0 CALLDATASIZE PUSH1 0x40 MLOAD PUSH2 0xD4 SWAP3 SWAP2 SWAP1 PUSH2 0x1EA JUMP JUMPDEST PUSH1 0x0 PUSH1 0x40 MLOAD DUP1 DUP4 SUB DUP2 DUP6 GAS DELEGATECALL SWAP2 POP POP RETURNDATASIZE DUP1 PUSH1 0x0 DUP2 EQ PUSH2 0x10F JUMPI PUSH1 0x40 MLOAD SWAP2 POP PUSH1 0x1F NOT PUSH1 0x3F RETURNDATASIZE ADD AND DUP3 ADD PUSH1 0x40 MSTORE RETURNDATASIZE DUP3 MSTORE RETURNDATASIZE PUSH1 0x0 PUSH1 0x20 DUP5 ADD RETURNDATACOPY PUSH2 0x114 JUMP JUMPDEST PUSH1 0x60 SWAP2 POP JUMPDEST POP SWAP2 POP SWAP2 POP DUP2 ISZERO PUSH2 0x12B JUMPI DUP1 SWAP5 POP POP POP POP POP PUSH2 0x168 JUMP JUMPDEST DUP1 PUSH1 0x40 MLOAD PUSH32 0x8C379A000000000000000000000000000000000000000000000000000000000 DUP2 MSTORE PUSH1 0x4 ADD PUSH2 0x15F SWAP2 SWAP1 PUSH2 0x293 JUMP JUMPDEST PUSH1 0x40 MLOAD DUP1 SWAP2 SUB SWAP1 REVERT JUMPDEST SWAP2 POP POP DUP1 MLOAD SWAP1 PUSH1 0x20 ADD RETURN JUMPDEST PUSH1 0x0 PUSH1 0x40 MLOAD DUP4 PUSH1 0x40 DUP3 ADD MSTORE DUP5 PUSH1 0x20 DUP3 ADD MSTORE DUP3 DUP2 MSTORE PUSH1 0xB DUP2 ADD PUSH1 0xFF DUP2 MSTORE8 PUSH1 0x55 DUP2 KECCAK256 SWAP3 POP POP POP SWAP4 SWAP3 POP POP POP JUMP JUMPDEST PUSH2 0x11A DUP1 PUSH2 0x2B6 DUP4 CODECOPY ADD SWAP1 JUMP JUMPDEST PUSH1 0x0 DUP2 SWAP1 POP SWAP3 SWAP2 POP POP JUMP JUMPDEST DUP3 DUP2 DUP4 CALLDATACOPY PUSH1 0x0 DUP4 DUP4 ADD MSTORE POP POP POP JUMP JUMPDEST PUSH1 0x0 PUSH2 0x1D1 DUP4 DUP6 PUSH2 0x1AB JUMP JUMPDEST SWAP4 POP PUSH2 0x1DE DUP4 DUP6 DUP5 PUSH2 0x1B6 JUMP JUMPDEST DUP3 DUP5 ADD SWAP1 POP SWAP4 SWAP3 POP POP POP JUMP JUMPDEST PUSH1 0x0 PUSH2 0x1F7 DUP3 DUP5 DUP7 PUSH2 0x1C5 JUMP JUMPDEST SWAP2 POP DUP2 SWAP1 POP SWAP4 SWAP3 POP POP POP JUMP JUMPDEST PUSH1 0x0 DUP2 MLOAD SWAP1 POP SWAP2 SWAP1 POP JUMP JUMPDEST PUSH1 0x0 DUP3 DUP3 MSTORE PUSH1 0x20 DUP3 ADD SWAP1 POP SWAP3 SWAP2 POP POP JUMP JUMPDEST PUSH1 0x0 JUMPDEST DUP4 DUP2 LT ISZERO PUSH2 0x23D JUMPI DUP1 DUP3 ADD MLOAD DUP2 DUP5 ADD MSTORE PUSH1 0x20 DUP2 ADD SWAP1 POP PUSH2 0x222 JUMP JUMPDEST PUSH1 0x0 DUP5 DUP5 ADD MSTORE POP POP POP POP JUMP JUMPDEST PUSH1 0x0 PUSH1 0x1F NOT PUSH1 0x1F DUP4 ADD AND SWAP1 POP SWAP2 SWAP1 POP JUMP JUMPDEST PUSH1 0x0 PUSH2 0x265 DUP3 PUSH2 0x203 JUMP JUMPDEST PUSH2 0x26F DUP2 DUP6 PUSH2 0x20E JUMP JUMPDEST SWAP4 POP PUSH2 0x27F DUP2 DUP6 PUSH1 0x20 DUP7 ADD PUSH2 0x21F JUMP JUMPDEST PUSH2 0x288 DUP2 PUSH2 0x249 JUMP JUMPDEST DUP5 ADD SWAP2 POP POP SWAP3 SWAP2 POP POP JUMP JUMPDEST PUSH1 0x0 PUSH1 0x20 DUP3 ADD SWAP1 POP DUP2 DUP2 SUB PUSH1 0x0 DUP4 ADD MSTORE PUSH2 0x2AD DUP2 DUP5 PUSH2 0x25A JUMP JUMPDEST SWAP1 POP SWAP3 SWAP2 POP POP JUMP INVALID PUSH1 0x80 PUSH1 0x40 MSTORE PUSH1 0x0 CALLER SWAP1 POP PUSH1 0x0 DUP2 PUSH20 0xFFFFFFFFFFFFFFFFFFFFFFFFFFFFFFFFFFFFFFFF AND PUSH4 0x5C60DA1B PUSH1 0x40 MLOAD DUP2 PUSH4 0xFFFFFFFF AND PUSH1 0xE0 SHL DUP2 MSTORE PUSH1 0x4 ADD PUSH1 0x20 PUSH1 0x40 MLOAD DUP1 DUP4 SUB DUP2 DUP7 GAS STATICCALL ISZERO DUP1 ISZERO PUSH2 0x56 JUMPI RETURNDATASIZE PUSH1 0x0 DUP1 RETURNDATACOPY RETURNDATASIZE PUSH1 0x0 REVERT JUMPDEST POP POP POP POP PUSH1 0x40 MLOAD RETURNDATASIZE PUSH1 0x1F NOT PUSH1 0x1F DUP3 ADD AND DUP3 ADD DUP1 PUSH1 0x40 MSTORE POP DUP2 ADD SWAP1 PUSH2 0x7A SWAP2 SWAP1 PUSH2 0xEC JUMP JUMPDEST SWAP1 POP DUP1 EXTCODESIZE DUP1 PUSH1 0x0 DUP1 DUP5 EXTCODECOPY DUP1 PUSH1 0x0 RETURN JUMPDEST PUSH1 0x0 DUP1 REVERT JUMPDEST PUSH1 0x0 PUSH20 0xFFFFFFFFFFFFFFFFFFFFFFFFFFFFFFFFFFFFFFFF DUP3 AND SWAP1 POP SWAP2 SWAP1 POP JUMP JUMPDEST PUSH1 0x0 PUSH2 0xB9 DUP3 PUSH2 0x8E JUMP JUMPDEST SWAP1 POP SWAP2 SWAP1 POP JUMP JUMPDEST PUSH2 0xC9 DUP2 PUSH2 0xAE JUMP JUMPDEST DUP2 EQ PUSH2 0xD4 JUMPI PUSH1 0x0 DUP1 REVERT JUMPDEST POP JUMP JUMPDEST PUSH1 0x0 DUP2 MLOAD SWAP1 POP PUSH2 0xE6 DUP2 PUSH2 0xC0 JUMP JUMPDEST SWAP3 SWAP2 POP POP JUMP JUMPDEST PUSH1 0x0 PUSH1 0x20 DUP3 DUP5 SUB SLT ISZERO PUSH2 0x102 JUMPI PUSH2 0x101 PUSH2 0x89 JUMP JUMPDEST JUMPDEST PUSH1 0x0 PUSH2 0x110 DUP5 DUP3 DUP6 ADD PUSH2 0xD7 JUMP JUMPDEST SWAP2 POP POP SWAP3 SWAP2 POP POP JUMP INVALID LOG2 PUSH5 0x6970667358 0x22 SLT KECCAK256 0xC4 EQ 0x2F GAS 0xCD PUSH19 0xB2C08B66EB6BFE80D2D201DC0B5BBD7447A4AF 0xEE 0xF7 RETURN 0xA5 0xFC SGT PUSH19 0x64736F6C63430008120033A264697066735822 SLT KECCAK256 PUSH3 0x835A2D RETURNDATASIZE 0xA8 0xE3 SLOAD 0xEA DUP13 0xD1 DUP7 LOG4 EXP 0xD9 INVALID PUSH23 0x9614D8BD39BE4BF5F4D7653713EA964736F6C63430008 SLT STOP CALLER "
				},
				"gasEstimates": {
					"creation": {
						"codeDepositCost": "2129600",
						"executionCost": "2265",
						"totalCost": "2131865"
					},
					"external": {
						"test1()": "infinite"
					}
				},
				"methodIdentifiers": {
					"test1()": "6b59084d"
				}
			},
			"storageLayout": {
				"storage": [],
				"types": null
			},
			"userdoc": {
				"kind": "user",
				"methods": {},
				"version": 1
			}
		}
	}
}